S01C00006275696C642F64656275672F67656E657261746F722E7333379C
S31508000000001000205924000895DF000895DF000835
S3150800001095DF000895DF000895DF000895DF0008E2
S3150800002095DF000895DF000895DF000851020008F3
S3150800003095DF0008845D0108E101000869FA0008F7
S3150800004095DF000895DF000895DF000895DF0008B2
S3150800005095DF000895DF000895DF000895DF0008A2
S3150800006095DF000895DF000895DF000895DF000892
S3150800007095DF000895DF000895DF000895DF000882
S3150800008095DF000895DF000895DF000895DF000872
S3150800009095DF000895DF000895DF000895DF000862
S315080000A095DF000895DF000895DF000895DF000852
S315080000B095DF000895DF000895DF000895DF000842
S315080000C095DF000895DF000895DF000895DF000832
S315080000D095DF000895DF000895DF000895DF000822
S315080000E095DF000895DF000895DF000895DF000812
S315080000F095DF000895DF000895DF000895DF000802
S3150800010095DF000895DF000895DF000895DF0008F1
S3150800011095DF000895DF000895DF000895DF0008E1
S3150800012095DF000895DF000895DF000895DF0008D1
S3150800013095DF000895DF000895DF000895DF0008C1
S3150800014095DF0008BD32000895DF0008CBF90008E6
S3150800015095DF000895DF000895DF000895DF0008A1
S3150800016095DF000895DF000895DF000895DF000891
S315080001700B4A1168086806C881F30B88022181F3C7
S315080001801488203080F30988BFF36F8F4FF0000082
S3150800019080F31188104700BFAFF30080AFF30080EB
S315080001A0EC550020000000000000000000000000E0
S315080001B007480068006880F3088862B661B6BFF32E
S315080001C04F8FBFF36F8F02DF00BF00BFAFF3008012
S315080001D008ED00E00000000000000000000000003C
S315080001E0EFF309801EF0100F08BF20ED108AEFF319
S315080001F00B82734620E9FC0F114A116808604FF01C
S31508000200300080F31188BFF34F8FBFF36F8F05F06F
S3150800021043FE4FF0000080F31188094A1168086808
S31508000220B0E8FC0F13F0100F08BFB0EC108A82F389
S315080002300B8880F309881847AFF30080AFF3008076
S31508000240EC5500200000000000000000000000003F
S315080002501EF0040F0CBFEFF30880EFF30980044982
S31508000260084700BFAFF30080AFF30080AFF300800C
S315080002706BFB00080348044B834202D0034B03B1CF
S3150800028018477047801B0020801B002000000000D4
S31508000290064B0749C91A891048BF0131491003D0CE
S315080002A0044B0BB101481847704700BF801B00205C
S315080002B0801B00200000000010B5064C237843B9C7
S315080002C0FFF7D8FF044B13B10448AFF300800123AE
S315080002D0237010BD06600020000000006C6D010848
S315080002E008B5054B1BB105490548AFF30080BDE8C5
S315080002F00840FFF7CDBF00BF00000000D01B00205C
S315080003006C6D0108A3F5803A704700BF174B002BA8
S3150800031008BF134B9D46FFF7F5FF00218B460F4696
S315080003201348144A121A14F02CFA0E4B002B00D05C
S3150800033098470D4B002B00D0984700200021040059
S315080003400D000D48002802D00C48AFF300800AF0D3
S3150800035001F82000290014F01CF909F0A3FD00BFDC
S315080003600000080000000000000000000010002047
S31508000370801B002014600020000000000000000020
S3150800038010B58CB004460CF058F82422002103A8B6
S3150800039014F0F7F905940123049347F2121103A800
S315080003A00CF027F84FF48073ADF80E300E4B079318
S315080003B04FF47053019301A80CF00CF8019B0693B7
S315080003C00EF04BFC000240F00100049010F0FF0F05
S315080003D001D1002305930023029302A903A813F071
S315080003E037FA0CB010BD00BF0906000670B58CB010
S315080003F006460C4615460CF020F82422002103A8D0
S3150800040014F0BFF905960123049347F2121103A8C5
S315080004100BF0EFFF4FF48073ADF80E30114B0793D6
S315080004204FF47053019301A80BF0D4FF019B069378
S315080004300EF013FC000240F00100049010F0FF0FCC
S3150800044001D1002305930023029302AB2A462146D5
S3150800045003A812F089FF044603A813F0ADFA204654
S315080004600CB070BD0906000600B587B09446059124
S315080004700390084B029300220192009213466144AE
S3150800048005A810F08EF818B1AC2007B05DF804FB8B
S315080004900020FAE761C400082DE9F041BEB01C4609
S315080004A0449D2B6853B10746884616466B68B3F5D4
S315080004B0007F05D22F203EB0BDE8F0812F20FAE755
S315080004C012A813F0CFFF002102913C2203A814F0D2
S315080004D058F963687BB10196CDF800802368214AF4
S315080004E0402102A809F09AFD02A912A813F0D2FF2A
S315080004F048B1AC20DFE7009643461B4A402102A8D4
S3150800050009F08CFDF0E7092112A813F0BFFF38683F
S31508000510FFF736FF16A812F0B8FA396816A807F0DA
S31508000520AFF808B1AC20C6E716A912A813F0B0FFB9
S31508000530002300936A68296812A809F02BF908B104
S31508000540AC20B8E7286814F05EF901306A68904272
S3150800055005D8686012A813F08BFF0020ABE714F0EB
S315080005604DF800BF205701083C57010870B598B0F0
S3150800057005460C461646002106913C2207A814F0AB
S3150800058000F94023059305A90291019306AB009350
S31508000590636822680949286813F03DF810B1AC2051
S315080005A018B070BD06AB1693059B1793324618AB69
S315080005B013E903000BF027FFF2E700BF0906000660
S315080005C008B5044800680FF0B8F908B1AE2008BDB0
S315080005D00020FCE72410002008B5034B18680FF02C
S315080005E099F9002008BD00BF24100020114AC0F860
S315080005F0B820114AC0F8B8201049C0F8B010C0F8A1
S31508000600B0200F4A026002F19801416002F1E00150
S31508000610816002F58672C2600A4AC0F8A8200A4AB2
S31508000620C0F8A8200949C1600949816009494160A3
S3150800063002607047645801083C5801085058010880
S31508000640145A0108545B01086C5701081858010828
S31508000650EC570108A457010838B50446134D056040
S31508000660134B4360134B8360134BC360134B0360F8
S3150800067003F19802426003F1E002826003F5867393
S31508000680C3600021018241828182C1828161C16188
S31508000690016241628022283014F073F8C4F8A85029
S315080006A0074BC4F8A830204638BD00BF6C57010870
S315080006B0A4570108EC57010818580108145A0108EC
S315080006C0545B010810B50446FFF7C6FF094BC4F88A
S315080006D0B030C4F8B440084AC4F8B020C4F8B830FA
S315080006E0C4F8BC40054BC4F8B830012384F8C030C0
S315080006F0204610BD3C5801085058010864580108A6
S31508000700012800D070474FF6FF739942FAD110B509
S31508000710044C2046FFF7D6FF034A0449204613F047
S3150800072064FF10BDE81B002000100020ED0500083E
S3150800073070B586B006460024059403E0059B1C4464
S315080007400023059306F1AC0505ABC4F50072104904
S3150800075021442846FFF734FF0028EFD01CB996F845
S31508000760C00006B070BD0A4B01930294094B03936F
S315080007704FF40073049303AA01A930460CF0BEFA9D
S3150800078086F8C000049A03992846FFF725FFE6E78E
S31508000790AC1E0020AC1C002000487047E81B002057
S315080007A0024A0260024A0260704700BF50580108B8
S315080007B03C58010810B50446044B0360044B03601B
S315080007C0082113F017FF204610BD00BF5058010836
S315080007D03C58010870B584B006460C4615460023F9
S315080007E08DF80F3002938DF8073000930DF10F0145
S315080007F020460CF0D9F808B104B070BD9DF80F304A
S31508000800013BDBB2032B01D92F20F5E702A92046CD
S315080008100CF0FCF80028EFD10DF1070120460CF08A
S31508000820C3F80028E8D16B464FF4007227492046E2
S315080008300CF005F90028DFD19DF80F30013B032B9A
S3150800084041D8DFE803F0021F2A3570680368DC6ABE
S31508000850009B1E4A4FF4CB71A0470028CCD1706884
S315080008600DF04FF90028C7D1029928460CF07AF8FE
S31508000870002128460CF076F8009928460CF072F804
S315080008800020B9E770680368DC6A009B0F4A40F2EB
S315080008909511A0470028E2D0AEE770680368DC6AC5
S315080008A0009B0A4A40F29311A0470028D7D0A3E735
S315080008B070680368DC6A009B044A4FF4C171A0475C
S315080008C00028CCD098E72F2096E700BF20260020E6
S315080008D0F0B585B006460C4615460023ADF80E3031
S315080008E08DF80D30A26821688A4240F28880521A33
S315080008F0E368994280F085805B1A9A4200F083800B
S315080009000DF10E0120460CF068F800287CD10DF197
S315080009100D0120460CF048F8002875D1BDF80E10D8
S3150800092028460CF012F800286ED19DF80D102846BE
S315080009300BF0FEFF002867D19DF80D30013B032B15
S315080009405BD8DFE803F002182E4100238DF8083043
S3150800095070680368DB6802AABDF80E109847D828A5
S3150800096001D0002850D19DF8081028460BF0E0FF6A
S315080009700028B7D048E00023ADF80830706803684F
S315080009805B6902AABDF80E109847D82801D000283E
S315080009903AD1BDF8081028460BF0D7FF0028A1D099
S315080009A032E00023029370680368DB6902AABDF887
S315080009B00E109847D82800D030BB029928460BF06D
S315080009C0D1FF00288ED01FE00023029370680368C9
S315080009D002AA00929F6A4FF400730C4ABDF80E10E3
S315080009E0B847D82800D078B9029A084928460BF0A3
S315080009F0C6FF00283FF476AF06E0262004E0002272
S31508000A0076E7002379E7002005B0F0BD2026002010
S31508000A10014B0360704700BF78580108024A02601C
S31508000A20024A0260704700BF185901087858010841
S31508000A30024A0260024A0260704700BFF058010885
S31508000A4078580108024A0260024A0260704700BFED
S31508000A50C858010878580108024A0260024A02602A
S31508000A60704700BFA058010878580108024A02607A
S31508000A70024A0260704700BF645801083C580108E2
S31508000A8010B50446044B0360044B0360142113F0AD
S31508000A90B1FD204610BD00BFA058010878580108CE
S31508000AA010B50446034B03600C2113F0A3FD204642
S31508000AB010BD00BF7858010810B50446044B036002
S31508000AC0044B03600C2113F095FD204610BD00BFB2
S31508000AD0C85801087858010810B50446044B036045
S31508000AE0044B03600C2113F085FD204610BD00BFA2
S31508000AF0F05801087858010810B50446044B0360FD
S31508000B00044B03600C2113F075FD204610BD00BF91
S31508000B10185901087858010810B50446044B0360B3
S31508000B20044B0360082113F065FD204610BD00BF85
S31508000B30645801083C58010870B584B00C4615463F
S31508000B40CB783BB18068A378032B6DD8DFE803F038
S31508000B504F051E378068A830F5E700238DF80C305E
S31508000B600368DB6803AA218898470346D82800D07B
S31508000B7040B9D82B08D003A92A4620880BF0EFFFE6
S31508000B8000B9002004B070BD0021F5E70023ADF8D8
S31508000B900C3003685B6903AA218898470346D8285E
S31508000BA001D00028EED1D82B07D003A92A462088E1
S31508000BB00BF0EAFF0028E4D0E4E70021F6E700237B
S31508000BC003930368DB6903AA218898470346D82854
S31508000BD001D00028D6D1D82B07D003A92A462088C9
S31508000BE00BF0E8FF0028CCD0CCE70021F6E700237D
S31508000BF00393036803AA00929E6A4FF400730B4A94
S31508000C002188B0470346D82801D00028BAD1D82B66
S31508000C1008D006492B46039A20880BF0E1FF0028E6
S31508000C20AFD0AFE70021F5E72620ABE72026002066
S31508000C3038B505460C46A26821688A4219D9521A5F
S31508000C40E368994217D25B1A9A4216D00D49204694
S31508000C500BF0DDFF0D2800D098B90028EBD12B68E2
S31508000C609B6908492846984758B906480CF0B5FBC9
S31508000C70E1E70022E4E70023E6E72B689B682846BD
S31508000C80984738BDE4210020012800D0704708B5F0
S31508000C904FF6FF73994200D008BD4FF40172084918
S31508000CA008480CF0B0FB4FF40272074907480CF0ED
S31508000CB0AAFB074B0022C3F80021C3F80421EBE77F
S31508000CC01C240020E421002014220020B421002046
S31508000CD0AC20002008B54B8AB3F5817F15D007D81C
S31508000CE040F20112934213D1CB6AC360002008BDBB
S31508000CF0A3F2031292B2012A0AD80A7D19460548B8
S31508000D000CF09DFB0028F1D0F1E7CB6A0361EDE713
S31508000D10A620ECE7AC20002010B50A46498AB1F5B2
S31508000D20A27F07D00CD840F20513994213D0B1F52B
S31508000D30A17F18D1806803681B692C32984710BDBB
S31508000D4040F2A11399420ED180680368DC6A936960
S31508000D50D26AA047F3E7127D04480CF070FB00281E
S31508000D60EDD10020EBE7A620E9E700BFAC20002084
S31508000D7070B50C4691F8263053B1856894F827303B
S31508000D804BB9237D032B42D8DFE803F0340D1A272D
S31508000D908568A835F2E7227D618A1E480CF04FFB6C
S31508000DA00028EED00BE02B689B68618A94F8242013
S31508000DB012B904F12C0200E000222846984770BDBB
S31508000DC02B681B69618A94F8242012B904F12C0255
S31508000DD000E0002228469847F1E72B689B69618A5C
S31508000DE094F8242012B904F12C0200E000222846C7
S31508000DF09847E4E72B68DE6A618A94F824300BB9D1
S31508000E00E26A00E00022A3692846B047D7E7262011
S31508000E10D5E700BFAC20002008B50A7D498A0248FC
S31508000E200CF00DFB08BD00BFAC20002030B587B024
S31508000E3005460C464B680968994201D25B1A00E0E0
S31508000E400023A268914201D2521A00E00022981AA1
S31508000E509A4243D03B4B9A681968914214D2521A67
S31508000E60384BDB68994211D25B1AD11A9A4235D0AF
S31508000E700290039188420BD802AB1A683149204682
S31508000E800BF0D3FB50B35AE00022E9E70023ECE766
S31508000E9003ABF2E7002052E00346A268914201D272
S31508000EA0521A00E002469B1A0493264A9168126871
S31508000EB0914200D9881A2349C9688A4201D2A1EB0E
S31508000EC0020CA0EB0C00059098422ED304AB1A68CE
S31508000ED01C4920460BF0A9FB002830D1626821681E
S31508000EE08A4224D9521AA368994222D25B1A9A4294
S31508000EF021D0154BD3F80431EBB1124B1A68DA60DE
S31508000F009A6001A910480CF0C9FAD828C2D02B68F3
S31508000F10DB690C4A01A928469847844678B963686C
S31508000F2021688B42B8D95B1AB7E705ABCFE7002231
S31508000F30D9E70023DBE72B68DB682846984707B024
S31508000F4030BD00BFB4210020AC20002038B50446CF
S31508000F500A4B0360012303718160094B0360002576
S31508000F60C560056107480CF038FA074B1A68DA605D
S31508000F709A60064BC3F80451204638BD78580108D4
S31508000F80A0580108E4210020B4210020AC2000204C
S31508000F902DE9F0419AB0144600238DF867308DF894
S31508000FA066308DF865304B68052B42D81927002521
S31508000FB02368159303F108021692179318930023D2
S31508000FC00D930E930F9310931193129313931493F7
S31508000FD0022115A80BF073FA9DF8661041F08001FE
S31508000FE015A80BF06CFA9DF8651015A80BF067FAB2
S31508000FF0394615A80BF09EFA294615A80BF05FFA94
S3150800100005F10A036268934200F2A180636008351D
S315080010100DAA2946206800F0DBFF2368BDF83420B6
S315080010205A539DF86600023818BF01201AB0BDE869
S31508001030F08106460D460A68023B00921344019366
S31508001040029303920DF1670168460BF074FB07469D
S3150800105008B10025ACE70DF1660168460BF06BFB9D
S3150800106007460028F5D10DF1650168460BF063FBCC
S31508001070074680460028ECD16B68802B14D8636835
S315080010807F2B13D9236803F1080204927E33059354
S31508001090069207929DF86630013B042B55D8DFE887
S315080010A003F0071530421E00C227D2E71927D0E7FA
S315080010B0716808A8FFF74AFF04AA694608A80CF051
S315080010C006FA0746234B0893234B0893069A049B74
S315080010D09A4201D9A2EB03085FFA88F568E77368B4
S315080010E01D4D089501228DF824200A931B4E08965B
S315080010F004AA694608A80CF0EAF90746089608956E
S31508001100E4E77368144D089503228DF824200A93A2
S31508001110134E089604AA694608A80CF0D8F907469B
S3150800112008960895D2E773680B4D089504228DF842
S3150800113024200A930B4E089604AA694608A80CF0C0
S31508001140C6F9074608960895C0E72A27BEE713F0AA
S3150800115055FA00BFA058010878580108C858010870
S31508001160F0580108185901080C4A026002F1980162
S31508001170416002F1E001816002F58672C260084AA8
S31508001180C0F8A820074AC0F8A8200749C16007493F
S315080011908160074941600260704700BF145A010820
S315080011A0545B01086C57010818580108EC570108E8
S315080011B0A4570108A0F10400D6E7A0F10800D3E778
S315080011C0A0F10C00D0E700BF08B540F263139942BE
S315080011D008D040F2971399421CD0B1F5B17F12D0CE
S315080011E0A62014E02AB11168B1F57A7F03D22F2020
S315080011F00DE02F200BE00B4B994201D92F2006E07A
S3150800120000F0B6FD03E01AB113680362002008BDBA
S315080012100023FAE71AB1136843620020F7E70023B0
S31508001220FAE700BFA0860100F0B587B00F4616465C
S315080012301D46002403940494CDF8134002940194A7
S3150800124002AB0B2203A900F043FD044618B9029B22
S315080012500A2B08D02F241CB140F201239C4229D125
S31508001260204607B0F0BD0A2201A903A809F02CF808
S315080012703880019A04AB9A4201D02F24EBE70A2260
S3150800128001A90DF1110009F01FF83070019A0DF14E
S3150800129013039A4201D02F24DDE70A2201A905A8E3
S315080012A009F012F82870019A0DF116039A42D2D065
S315080012B02F24D0E701200CF00DFE0028D0D003AB78
S315080012C0024A01211F200CF0F7FDC9E73859010829
S315080012D030B587B00C460023059305AB4A68096804
S315080012E000F006FD40F20123984208D028B9059B74
S315080012F0626893421BD86360002007B030BD0D4B6F
S315080013000DF1040C0FCB8CE80F0063680F2B01D886
S315080013101920F2E725680DF1040CBCE80F002860D7
S315080013206960AA60EB60102305930020DEE713F0DE
S3150800133065F900BF3C5B010870B596B004460E46D9
S3150800134000250A952A2229460BA813F01AFA0995A8
S3150800135009AB2E220AA9204600F02CFD40F20123F3
S31508001360984202D068B116B070BD182309930AAC2A
S31508001370144D0FCD0FC495E8030084E80300002040
S31508001380F0E70023019302930393049305930693CE
S315080013900793089301AA09990AA800F02FFE0446A4
S315080013A07368984201D91920DDE7024601A9306819
S315080013B013F01CFA73689C4202D874600020D2E7C6
S315080013C013F01CF9585901084B68602B01D81920ED
S315080013D07047F0B5A5B005460C4616460027029795
S315080013E08222394603A813F0CCF9019701AB86226D
S315080013F002A9284600F0EEFC40F20123984202D0EA
S3150800140048B125B0F0BD842201920A4902A813F01A
S31508001410EDF93846F4E72268019902A800F0EEFDD6
S3150800142030606368984202D860600020E9E713F0EC
S31508001430E5F800BF7459010810B504460E4B036061
S3150800144003F19802426003F1E002826003F58673B5
S31508001450C3600A4BC0F8A830094BC0F8A830094A3F
S31508001460C260094A8260094A42600360AC2113F0EF
S31508001470C1F8204610BD00BF145A0108545B010884
S315080014806C57010818580108EC570108A4570108B9
S31508001490A0F10400D0E7A0F10800CDE7A0F10C0008
S315080014A0CAE700BF60B5A3B0064610461D46A1F2BE
S315080014B01111912900F2E281DFE811F09200E001B2
S315080014C0E001E001E001E001E001E001E001E00106
S315080014D0E001E001E001E001E001E001E001E001F6
S315080014E0E001E001E001E001E001E001E001E001E6
S315080014F0E001E001E001E001E001E001E001E001D6
S31508001500E001E001E001E001E001E001E001E001C5
S31508001510E001E001E001E001E001E0019800E001FE
S31508001520A600E001B400C200D000DE00E001E00140
S31508001530E001E001E001E001E001E001E001EC008A
S3150800154009011701E001E001E001E001E001E00125
S31508001550E001E001E001E001E001E001E001E00175
S31508001560E001470151015701E001E001E001E00116
S31508001570E001E001E001E001E001E001E001E00155
S31508001580E001E001E001E001E001E001E001E00145
S31508001590E001E001E001E001E001E00176018A01F5
S315080015A0E001E001E001E001E001E001E001E00125
S315080015B0E001E001E001E001E001E001E001E00115
S315080015C09601E001A201AE01E001E001E001E001BF
S315080015D0E001E001E001E001E001E001BA01D80123
S315080015E02A460146304600F0BDFC48E102B12DB955
S315080015F000229B49304600F069FA40E12A46014636
S31508001600304600F063FA3AE102B12DB90022944956
S31508001610304600F08BFA32E12A460146304600F0A1
S3150800162085FA2CE102B12DB900228D49304600F029
S31508001630ADFA24E12A460146304600F0A7FA1EE133
S3150800164002B12DB900228649304600F0B5FA16E1F6
S315080016502A460146304600F0AFFA10E102B12DB92C
S3150800166000227F49304600F0BDFA08E12A460146C5
S31508001670304600F0B7FA02E102B12DB900227849E6
S31508001680304600F0C5FAFAE02A460146304600F030
S31508001690BFFAF4E002B1A5B9002309930A930B93A4
S315080016A00C930D930E930F931093B38A6D4A2021D2
S315080016B009A808F0B3FC024609A9304600F0D6FA94
S315080016C0DDE02A460146304600F0D0FAD7E002B1FE
S315080016D02DB90A226449304600F0F2FACFE02A46CC
S315080016E00146304600F0ECFAC9E002B1EDB9102126
S315080016F005A80CF069FA02230093212309AA1021F0
S3150800170005A80CF08FFB002840F0B98009A813F053
S315080017107AF8129020231393984214D812AB1A68B9
S3150800172009A9304600F0DCFAA9E0102D01D92F20CE
S31508001730A5E002230093212309AA29460CF072FB8F
S315080017400028E3D09BE013ABE9E702B10DB92F20DF
S3150800175095E02A460146304600F024FB8FE02A46EB
S315080017600146304600F02EFB89E002B1B5B90023E8
S3150800177009930A93CDF82B30F38A326A02920193C1
S31508001780F3690093B369728A318A09A80CF01FF9C4
S315080017900B2209A9304600F0F5FB70E02A460146FF
S315080017A0304600F0EFFB6AE002B155B900238DF828
S315080017B0243009AA1492159314A930460CF0E3F9BB
S315080017C05DE01692179516A930460CF0DCF956E03E
S315080017D01892199522B118A9304600F003FB4EE07D
S315080017E0002DF8D012F00AFF1A921B9522B11AA9F9
S315080017F0304600F017FB42E0002DF8D012F0FEFE4E
S315080018001C921D9522B11CA9304600F02BFB36E030
S31508001810002DF8D012F0F2FE1E921F9522B11EA9D5
S31508001820304600F03FFB2AE0002DF8D012F0E6FE25
S315080018301AB17F2D08D92F2021E08022002106F138
S31508001840280012F09EFF09E02A46014606F1280004
S3150800185012F0CCFF3544002385F8283000200EE02E
S315080018609C600108FC590108005A010832B120920F
S31508001870219520A9304600F095FB00E0A62023B06C
S3150800188060BD00BF012901D0A620704722B1127899
S31508001890024B1A70002070470022F9E70760002003
S315080018A0012901D0A6207047024B1B78137000202F
S315080018B0704700BF07600020024A0260024A0260C1
S315080018C0704700BF545B01086C57010810B584B017
S315080018D00193022902D0A62004B010BD1446202286
S315080018E00021094812F04DFF54B120230393019BB0
S315080018F0202B07D801AB1A682146034812F076FF59
S315080019000020E9E703ABF6E72028002000B585B0FC
S3150800191001930AB110461BB92F2005B05DF804FBE8
S31508001920022901D0A620F8E720220392934208D87C
S3150800193001AB1A68069B1A60034912F057FF00208C
S31508001940EBE703ABF5E700BF2028002010B50446F7
S31508001950044B0360044B0360042112F04BFE20463F
S3150800196010BD00BF545B01086C57010810B50A4B3F
S3150800197000201860094C22B92146094800F0F8FCF5
S3150800198010BD13460B44A3F5005401F04FFB204647
S3150800199008F094F8F0E700BF4028002000E00F08A0
S315080019A02172080008B5024800F01AFC08BD00BFFD
S315080019B02172080070B584B00D4616461C460023F1
S315080019C0039303A9FFF7EEFF08B104B070BD254BDA
S315080019D01B6823B903980CF048F80028F5D162680B
S315080019E02168214812F002FF6368B3F5007F25D30A
S315080019F002200CF06FFA48BB1A4B18684FF40072B5
S31508001A001949039B18440CF035F80028DDD1154B0D
S31508001A101968284600F0ACFC0028D6D16168304623
S31508001A2000F0A6FC0028D0D160680E4C236840213F
S31508001A3018440CF024F820600020C6E7C3F50072AD
S31508001A40FF210948184412F09CFED1E76368019308
S31508001A50044B1B680093039B044A02211F200CF0C9
S31508001A602BFAC9E74028002020260020845B0108BD
S31508001A70F0B589B00E4615461F460024079407A9F7
S31508001A80FFF790FF70B9079828440590069758B154
S31508001A9002200CF01FFA58B90E9A05AB93E803001A
S31508001AA00AF0B1FC09B0F0BD002FF1D012F0A6FD86
S31508001AB002970195079B00933346034A02211F208C
S31508001AC00CF0FAF9E8E700BFAC5B010808B5024874
S31508001AD000F066FC08BD00BF0072080000B583B0C0
S31508001AE00023019301AB034800F0A2FB03B05DF8A5
S31508001AF004FB00BF0072080008B5024800F01EFC8F
S31508001B0008BD00BF0C72080010B50C46064800F068
S31508001B103BFB40F20123984200D010BD4FF6F1730B
S31508001B2023800020F9E700BF0C72080008B50248B8
S31508001B3000F036FC08BD00BF0D72080000B583B082
S31508001B400023019301AB034800F072FB03B05DF874
S31508001B5004FB00BF0D72080008B5024800F0EEFB52
S31508001B6008BD00BF0B72080010B50C46064800F009
S31508001B700BFB40F20123984200D010BD48F2010346
S31508001B8023800020F9E700BF0B72080008B5024859
S31508001B9000F006FC08BD00BF0E72080000B583B051
S31508001BA00023019301AB034800F042FB03B05DF844
S31508001BB004FB00BF0E72080008B5024800F0F0FBEF
S31508001BC008BD00BF1072080000B583B0002301935A
S31508001BD001AB034800F02CFB03B05DF804FB00BF23
S31508001BE01072080008B5024800F0DAFB08BD00BF0D
S31508001BF01172080000B583B00023019301AB0348B6
S31508001C0000F016FB03B05DF804FB00BF1172080074
S31508001C1008B5024800F0C4FB08BD00BF12720800F0
S31508001C2000B583B00023019301AB034800F000FB25
S31508001C3003B05DF804FB00BF1272080008B502483D
S31508001C4000F07CFB08BD00BF0873080010B50C4601
S31508001C50054800F099FA40F20123984200D010BDD9
S31508001C6000202080FBE700BF0873080008B502487B
S31508001C7000F096FB08BD00BF0F72080030B583B0B0
S31508001C800C4615460023019301AB0B4800F0D0FA29
S31508001C9040F20123984201D003B030BD1CB10C2D8F
S31508001CA003D81920F8E70B20F6E7044A2946204608
S31508001CB00BF0EDFE0020EFE70F720800CC5B010881
S31508001CC008B5024800F06CFB08BD00BF04720800A6
S31508001CD008B5024800F0ACFA08BD00BF0472080057
S31508001CE008B5024800F078FB08BD00BF1F7208005F
S31508001CF008B5024800F0EEFA08BD00BF1F720800DA
S31508001D0008B5024800F01AFB08BD00BF07720800B4
S31508001D1010B582B00C46134800F036FA40F201239B
S31508001D20984207D020B92388B3F5805F07D20020F0
S31508001D3002B010BD4FF4706323800020F2E7012043
S31508001D400CF0C8F808B92F20F2E72F23019340F2C8
S31508001D506D130093044B054A012100200CF0ACF8E2
S31508001D60F1E700BF07720800DC5B0108FC5B0108AD
S31508001D7008B5024800F0FCFA08BD00BF0872080062
S31508001D8010B50C46064800F02BFA40F2012398429B
S31508001D9000D010BD4FF47A7323600020F9E700BF26
S31508001DA00872080008B5024800F0FAFA08BD00BF34
S31508001DB00972080008B5024800F03AFA08BD00BFE3
S31508001DC00972080008B5024800F0EAFA08BD00BF23
S31508001DD00A72080008B5024800F02AFA08BD00BFD2
S31508001DE00A72080008B50B46034A0449FFF7E2FDE4
S31508001DF000B9002008BD00BF277208002672080037
S31508001E0000B583B00091044B044A05490BF04EFE19
S31508001E1003B05DF804FB00BF2772080026720800AD
S31508001E20105C010808B50B46034A0449FFF7C2FDD2
S31508001E3000B9002008BD00BF2572080024720800FA
S31508001E4000B583B00091044B044A05490BF02EFEF9
S31508001E5003B05DF804FB00BF257208002472080071
S31508001E602C5C010808B50B46034A0449FFF7A2FD96
S31508001E7000B9002008BD00BF2372080022720800BE
S31508001E8000B583B00091044B044A05490BF00EFED9
S31508001E9003B05DF804FB00BF237208002272080035
S31508001EA0545C010800B583B0002301930223019313
S31508001EB04A68096801A8FEF7D7FA10B103B05DF8B9
S31508001EC004FB0199014800F053FAF7E7207208006D
S31508001ED000B585B000200390022003900698009074
S31508001EE003A8FEF7D9FA10B105B05DF804FB03990B
S31508001EF0014800F03DFAF7E72072080070B586B091
S31508001F000E461546D82400230593144800F028F9F0
S31508001F1080B105A9114800F063F980B9059B002234
S31508001F20049203B9022304932A46314604A8FEF70D
S31508001F301DFB044602200BF0CDFF10B9204606B063
S31508001F4070BD73686A68029401920093059B044AFF
S31508001F5002211F200BF0B0FFF0E700BF2072080037
S31508001F60705C010808B5024800F01AFA08BD00BFFF
S31508001F702972080008B5024800F05AF908BD00BFE2
S31508001F802972080008B5024800F026FA08BD00BF05
S31508001F900572080008B5024800F09CF908BD00BFA4
S31508001FA00572080000B583B000230193032301934B
S31508001FB04A68096801A800F053F810B103B05DF843
S31508001FC004FB0199014800F0D3F9F7E730720800DD
S31508001FD000B585B013460022039203AA0192202277
S31508001FE000920A460146044811F029FA00B1AC20CD
S31508001FF005B05DF804FB00BF0900000208B5024BF6
S315080020000BF070FE08BD00BFE9DB0008282800D9E0
S315080020100020024B03EB8000704700BFBC5C010840
S31508002020F8B50C4616461D46FFF7F0FF074BD3E8F2
S31508002030AF3F2BB11F462B4632462146B847F8BD5F
S315080020402B46324621460BF04EFFF8E7442800207F
S31508002050024BD3E88F0FC0B2704700BF04100020B0
S3150800206070B58CB004460D46164600680BF055FF51
S315080020702422002103A812F084FB23680593012378
S3150800208004934FF4105103A80BF03DFF8023ADF8DD
S315080020900E300D4B07934FF40073019301A80BF014
S315080020A023FF019B069302AB3246294603A811F08B
S315080020B05BF910B900200CB070BD0146034808F062
S315080020C00DF9AC20F7E700BF0010C004605D0108F9
S315080020D000B583B00F4B1B684BB10E4B1868B0B1F7
S315080020E04FF0FF310EF027F803B05DF804FB032329
S315080020F00093094B0022114601200DF03DFE054BC9
S31508002100186000231A4619460DF07AFEE5E712F024
S3150800211075FA00BF982800204828002008B5054B06
S31508002120186828B100231A4619460DF069FE08BD3D
S3150800213012F064FA9828002050B1084A904209D053
S31508002140C0B200F5300020F07F4040F0A060704734
S315080021500020704740F20120704700BF0BE000F0F6
S3150800216000B583B001466B4601AA0648006809F027
S3150800217061FFFFF7E1FFB0FA80F0400903B05DF8B0
S3150800218004FB00BF5810002030B585B004460D4644
S315080021900023ADF806300BF0D3FE18B940F2012043
S315080021A005B030BD02AB03AA21460C48006809F009
S315080021B041FFFFF7C1FF0028F2D1029B0DF106028D
S315080021C021460648006809F093FEFFF7B5FF002888
S315080021D0E6D1BDF806302B80E2E700BF5810002094
S315080021E030B585B004460D46002301930BF0A8FED2
S315080021F018B940F2012005B030BD02AB03AA21464A
S315080022000A48006809F016FFFFF796FF0028F2D182
S31508002210029B01AA21460548006809F069FEFFF7F6
S315080022208BFF0028E7D1019B2B60E4E758100020BC
S31508002230F0B585B005460E4617461C4600232360B2
S315080022400BF07EFE18B940F2012005B0F0BD02ABD6
S3150800225003AA29461E48006809F0ECFEFFF76CFF42
S315080022600028F2D1029B23B1DEB1BB4203D3192069
S31508002270EBE71E20E9E7324629461548006809F0CB
S3150800228037FEFFF759FF0028DFD1029B012B03D049
S3150800229023600022F254D8E731780029F8D10346A2
S315080022A0F6E7012B01D92360CFE701230DF10702D9
S315080022B029460748006809F01BFEFFF73DFF03465D
S315080022C00028C2D19DF8072002B1029B2360BCE713
S315080022D058100020F0B583B005460E4617461C4632
S315080022E0002323600BF02CFE18B940F2012003B03E
S315080022F0F0BD6B4601AA29460F48006809F09AFE08
S31508002300FFF71AFF0028F2D1009B2BB1002EEED062
S31508002310BB4203D91920EAE71E20E8E732462946D8
S315080023200548006809F0E4FDFFF706FF0028DED13E
S31508002330009B2360DBE700BF5810002010B582B071
S315080023400446ADF806100BF0FBFD18B940F2012063
S3150800235002B010BD02230DF10602214603480068AB
S3150800236009F07CFDFFF7E8FEF2E700BF58100020F1
S3150800237010B582B0044601910BF0E2FD18B940F29F
S31508002380012002B010BD04230DEB030221460348C9
S31508002390006809F063FDFFF7CFFEF2E7581000204A
S315080023A0F8B507460D4614460BF0CAFD78B12F2638
S315080023B05DB1084B186804B9012423462A463946F4
S315080023C009F04CFDFFF7B8FE06463046F8BD40F268
S315080023D00126FAE758100020F8B507460C461646B7
S315080023E00BF0AEFD68B12F2574B133462246394647
S315080023F00748006809F032FDFFF79EFE05462846A5
S31508002400F8BD40F20125FAE7002EF8D1EDE700BF46
S31508002410581000200346064A10680344054A9342AA
S3150800242002D8034A136070474FF0FF30704700BF69
S31508002430081000200000022008B50448044A121AB1
S31508002440921004490BF0A7FD08BD00BF00790108EA
S31508002450007901081460002008B500F02FF8FFF78E
S31508002460EBFF124A0AE01068516850F8230041F859
S315080024702300013391688B42F5D30C320C4B9A42F8
S3150800248001D20023F6E70B4A08E01168002041F85C
S315080024902300013351688B42F7D30832064B9A4220
S315080024A001D20023F6E7FDF731FF00BF746D01087E
S315080024B0806D0108806D0108806D010810B4144B09
S315080024C0144A9A60D3F8882042F47002C3F8882028
S315080024D0114A4FF480419166104901F500524FF0B8
S315080024E0FF3010660E4850660220C3F8D000BFF3CE
S315080024F04F8FBFF36F8F0B480124C0F880414FF40C
S315080025004033D36004600B615DF8044B704700BF2D
S3150800251000ED00E000000008009000500080004434
S31508002520F7FF370000E100E0014B1868704700BF6D
S315080025301010002008B5094B1B6F03F00703022B88
S3150800254004D0032B05D0012B06D0FEE7FFF7ECFFDE
S3150800255003E0034B186800E0024808BD00800050FD
S3150800256018100020002D310108B5FFF7E3FF054BD1
S315080025701B6FC3F303330133B0FBF3F0024B186050
S3150800258008BD00BF008000500C10002000487047AE
S3150800259000B4C404014B1868704700BF1810002027
S315080025A000487047002D31014FF0B4439868C0F3D6
S315080025B004400C2808D8DFE800F0090707070707D2
S315080025C022181A071C1E2000002070474FF0B4433B
S315080025D09B6803F04073B3F1807F12D0B3F1007F9C
S315080025E011D003B170470948704709487047094830
S315080025F070470948704709487047094870470948AD
S315080026007047094870470948ECE700BF00093D00D4
S315080026100024F400C0EA210180BA8C010048E801D0
S31508002620005A6202405DC60080841E0040420F00C8
S31508002630014B1868704700BF14100020B0F1FF3F27
S3150800264001D010B97047024870470248704700BF6A
S3150800265021E000F024E000F0F8B505460E469400A7
S31508002660224613F03DF8FFF7E9FF074628B9224648
S315080026703146284612F05BF808B93846F8BD014FCE
S31508002680FBE700BF10E000F038B5044613F024F865
S31508002690FFF7D4FF054608B1284638BD00F0FAFC16
S315080026A0014620460BF089FC0028F5D1004DF3E7DA
S315080026B00EE000F0024B4FF480321A67704700BFF5
S315080026C00090005038B505460C460F4BD3F88030BD
S315080026D003F00303022B0ED0032B10D0012B06D0D8
S315080026E00023184605B1286004B1236038BDFFF7FA
S315080026F021FF0E23F6E7FFF757FF0723F2E7FFF759
S3150800270013FF0623EEE700BF0080005038B50546E4
S315080027100C46174BD3F8200100F00700062823D8EB
S31508002720DFE800F0040A0E16121A1E00012305B18E
S31508002730286004B1236038BDFFF7F6FE0523F6E7E7
S31508002740FFF728FF0323F2E7FFF72EFF0723EEE73D
S31508002750FFF726FF0223EAE7FFF7E6FE0623E6E78A
S31508002760FFF718FF0423E2E700231846DFE700BF58
S315080027700080005038B505460C46164BD3F828316C
S3150800278003F00703013B052B20D8DFE803F003130A
S315080027901B0F0B17FFF7C8FE052305B1286004B108
S315080027A0236038BDFFF7C0FE0623F6E7FFF7FCFEF9
S315080027B00723F2E7FFF7EEFE0323EEE7FFF7EAFE4D
S315080027C00423EAE7FFF7ECFE0223E6E700231846B0
S315080027D0E3E700BF0080005070B582B006460D469C
S315080027E000230193104BD3F8804104F00304022C14
S315080027F016D0032C0FD0012C07D000240EB1019B54
S31508002800336005B12C6002B070BD002101A8FFF746
S315080028107DFF1024F2E7FFF7C7FE01900724EDE7D6
S31508002820FFF7BEFE0190E9E70080005030B583B09F
S3150800283005460C4600230193154BD3F8203203F0C6
S315080028400703042B21D8DFE803F0030B11161B003E
S3150800285001230DB1019A2A6004B1236003B030BD8B
S31508002860002101A8FFF786FF1223F2E7FFF79CFE77
S3150800287001900723EDE70BF09AFB01900A23E8E79E
S31508002880FFF7D6FE01900923E3E70023E1E700BF3F
S315080028900080005038B505460C46104BD3F8400169
S315080028A000F00300032815D8DFE800F002080C1032
S315080028B0012305B1286004B1236038BD0BF077FB0E
S315080028C00A23F6E7FFF7B4FE0923F2E70BF072FBDB
S315080028D00C23EEE700231846EBE700BF0080005004
S315080028E030B583B005460C4600230193144BD3F844
S315080028F0603203F00703013B032B1FD8DFE803F020
S31508002900020E1914002101A8FFF700FF10230DB1CC
S31508002910019A2A6004B1236003B030BD002101A8E2
S31508002920FFF7B8FF1123F2E7FFF73EFE01900723F2
S31508002930EDE7FFF735FE01900223E8E70023E6E717
S315080029400080005030B583B005460C46002301933D
S31508002950144BD3F8943203F00703013B032B1FD81B
S31508002960DFE803F0020E1914002101A8FFF7CEFED6
S3150800297010230DB1019A2A6004B1236003B030BD5B
S31508002980002101A8FFF786FF1123F2E7FFF70CFEE7
S3150800299001900723EDE7FFF703FE01900223E8E71E
S315080029A00023E6E70080005030B583B005460C46A4
S315080029B0002301930C4BD3F8703203F00303012B69
S315080029C009D0022B0DD115230DB1019A2A6004B145
S315080029D0236003B030BD002101A8FFF75BFF112378
S315080029E0F2E70023F0E700BF0080005038B505463F
S315080029F00C46134BD3F8000200F0070004281BD836
S31508002A00DFE800F003090D111500012305B1286060
S31508002A1004B1236038BD0BF0CAFA0A23F6E7FFF7BC
S31508002A2007FE0923F2E70BF0C5FA0C23EEE7FFF7DA
S31508002A309BFD800A0F23E9E700231846E6E700BF57
S31508002A400080005038B505460C46134BD3F80802EB
S31508002A5000F0070004281BD8DFE800F003090D1171
S31508002A601500012305B1286004B1236038BD0BF0B9
S31508002A709EFA0A23F6E7FFF7DBFD0923F2E70BF0D8
S31508002A8099FA0C23EEE7FFF76FFD800A0F23E9E7B3
S31508002A9000231846E6E700BF0080005038B5054613
S31508002AA00C46104BD3F8400200F00300032815D853
S31508002AB0DFE800F002080C10012305B1286004B114
S31508002AC0236038BD0BF073FA0A23F6E7FFF7B0FD6B
S31508002AD00923F2E70BF06EFA0C23EEE700231846FB
S31508002AE0EBE700BF0080005038B505460C46104B92
S31508002AF0D3F8600100F00300032815D8DFE800F0DA
S31508002B0002080C10012305B1286004B1236038BD02
S31508002B100BF04DFA0A23F6E7FFF78AFD0923F2E7D9
S31508002B200BF048FA0C23EEE700231846EBE700BF44
S31508002B3000800050B0F5207F20D00ED8B0F5007F79
S31508002B4016D020D810B1B0F5C07F04D10F4B186F3E
S31508002B50C0F3033018E0002016E0B0F5607F05D119
S31508002B600A4BD3F88000C0F301100DE000200BE0FB
S31508002B70064BD3F89000C0F3046005E0034B186FCA
S31508002B80C0F3802000E0002001307047008000502C
S31508002B9038B505460C46174B4FF480329A66002026
S31508002BA0FFF7C8FF05FB00F0134BDA6902F4803221
S31508002BB041F67131D9635B6823F440136CB90F4948
S31508002BC0884207D800210B430B494B600AB1002203
S31508002BD0CA6338BD4FF48011F5E7002C07DD0849B4
S31508002BE0884201D80021EEE74FF48011EBE74FF455
S31508002BF04011E8E70090005000000350005A6202B6
S31508002C00002D3101430905D0012B0DD0022B0DD023
S31508002C10002200E0002200F01F0049B102F58052B0
S31508002C200123834013607047034AF4E7034AF2E737
S31508002C3002F50052F4E700BF648000506880005037
S31508002C4008B580200BF022FA034B984203D8034BB1
S31508002C504FF480321A6708BD005A620200A000507D
S31508002C60B0F5207F5DD02DD8B0F5007F4ED061D865
S31508002C7010B1B0F5C07F24D110B54C1E0BF0FFF98A
S31508002C800BF0D4FBFFF716FD2B4A136F23F47043A2
S31508002C9043EA04331367FFF767FC284BD3F88430FD
S31508002CA013F0100FF9D1254BD3F88410C1F3811115
S31508002CB0C1F102010BF0AFFB00F044F8FFF7C0FFCB
S31508002CC010BD7047B0F5607F1FD11D4BD3F8FC20AF
S31508002CD012F0807206D01846D3F8FC3023F08073C1
S31508002CE0C0F8FC3001391448D0F8803023F030039E
S31508002CF043EA0113C0F88030E2B1114AD2F8FC3039
S31508002D0043F08073C2F8FC307047704701390A4AAD
S31508002D10D2F8903023F0F85343EA0163C2F89030B2
S31508002D2070470139044A136F23F4806343EA812309
S31508002D3013677047704700BF00800050004000507E
S31508002D4000ED00E008B54FF4C0700BF09FF9054B95
S31508002D50984205D902214FF42070FFF781FF08BD7C
S31508002D600121F8E780F0FA0208B5FFF7FDFB0C4BE6
S31508002D70D3F8843013F0100FF9D1094BD3F8841027
S31508002D80C1F38111C1F102010BF045FB01210020BD
S31508002D9000F058F8FFF7D6FFFFF752FF08BD00BF4F
S31508002DA000400050034AD36E23F0300301790B43E9
S31508002DB0D366704700400050F8B50446204BD3F858
S31508002DC0843013F0100FF9D11D4BD3F88430C3F3B8
S31508002DD081139C422DD0FFF7ADFB0646012C11D07E
S31508002DE00BF037FB0546164F07F500534FF00072F8
S31508002DF05A6620460BF03DFB621E4FF480639340F3
S31508002E003B6706E001210BF006FBE9E70C4BD3F81C
S31508002E1084300B4B5B6E13F0007F05D1084BD3F85B
S31508002E20843013F0200FF1D028460BF016FB022C45
S31508002E3000D0F8BD002130460BF0EDFAF9E700BFE7
S31508002E400040005010B50C46034650B1094A1278A6
S31508002E5012B1094A934208D921460220FFF7ACFF6E
S31508002E6010BDFFF767FB0346F0E721460120FFF791
S31508002E70A3FFF5E74C290020005A620238B52F4B0C
S31508002E804FF000425A6603F50B235C6C04F001040C
S31508002E904AF6CD321A64E8B9294B5B6B13F0010385
S31508002EA0FAD1274A556815F0010539D002F50052BE
S31508002EB0012151601A462249096B11F0010F04D10C
S31508002EC020498A4201D80132F5E71E498A422FD89D
S31508002ED01D4625E000231A4A126B12F0080F04D08B
S31508002EE0184A934201D80133F5E7164A934221D886
S31508002EF0134B03F500522021916203F580530122FA
S31508002F005A60002300E001330D4A926A12F0200F3E
S31508002F1002D10C4A9342F6D90A4A93420CD80025A4
S31508002F2014B1074B084A1A640BF0A4FA284638BDB0
S31508002F300725F5E70725F3E70725F1E70090005091
S31508002F40004009503F420F003254FFFF10B51A4B9C
S31508002F504FF000425A6603F50B235C6C04F001043B
S31508002F604AF6CD321A6443785B0043F00103134AEC
S31508002F70D363134B5B6B13F00B0FFAD1104A5368EC
S31508002F8023F4F873817843EA01135360C1784379CF
S31508002F9043EA012393600179837943EA01231361A4
S31508002FA00078FFF76BFF14B1054B064A1A640BF05D
S31508002FB061FA012010BD00BF00900050004000508B
S31508002FC0004009503254FFFF10B50F2800D90F20D2
S31508002FD0124B5C6E03F580534FF000425A6603F5B8
S31508002FE00B235A6C02F001024AF6CD3119640C4BD8
S31508002FF05B6B13F0800FFAD109490B6A23F00F03B4
S3150800300003430B620AB1074A0A64002C03DB064B2A
S315080030104FF000425A660BF02DFA10BD00800050A2
S31508003020004009503254FFFF00A00050064B4FF4F1
S3150800303080329A6603F51C3341F67132DA6303F57A
S3150800304000530122DA60704700900050074B41F6A2
S315080030507132DA6303F500520121D1600022DA6386
S31508003060A3F518334FF480329A6670470000035070
S31508003070074B4FF480325A6603F5E6239B69C3F380
S315080030808512827003F03F0242701B0B0370704773
S3150800309000900050034B9B680A3303F01F0301207E
S315080030A0984070470080E00F074B9B6813F0020FAB
S315080030B0FAD1054B5B6813F0020FF5D1024BDB69B9
S315080030C0002BF1D1704700BF00800A50064B5B68A1
S315080030D013F0010F03D0044BDB69002BF6D1024B2A
S315080030E002221A61704700BF00800A5008B5FFF730
S315080030F0DBFF034B03F5805101224A601A6108BDC4
S3150800310000800A5008B5054B5B68012B00D008BD46
S31508003110FFF7DCFF024B01225A60F8E700800A50ED
S3150800312000A00A5010B50446FFF7BEFF084B5B68BF
S31508003130012B05D0237843B10122054BDA6010BD77
S31508003140FFF7E0FFFFF7B0FFF4E70022F5E700BF5F
S3150800315000800A50D8B90B78D3B101234A6812B156
S31508003160127843EAC2034A78A2B1022213438A6854
S3150800317012B1127843EA82138A786AB10422134399
S31508003180CA6812B1127843EA4223044A9364704724
S315080031900023E3E70022E9E70022F0E700800A506F
S315080031A008B9014B5964704700900A5008B9014B99
S315080031B05964704700A00A5008B9014B1964704752
S315080031C000A00A5010B9024B186C704700207047CF
S315080031D000800A5048B911B1012903D07047044B41
S315080031E0D86C7047024B186D70470020704700BFB7
S315080031F000800A5040B911B1012903D07047034B2A
S31508003200DA647047014B1A65704700BF00800A50A0
S3150800321070B501F09BFF0446012808D80025154B18
S315080032201B7853B10026012C1DD8304670BD01F01D
S31508003230C9FF051EF3DA0126F7E70F480BF05BF91D
S3150800324006460028EFD10D480BF06CF90646002813
S31508003250E9D10B4B302283F8412302229A60054BB1
S3150800326001221A70DFE7284601F0D0FF0028DCDAD1
S315080032700126DAE708600020B4290020502900203A
S3150800328000E100E008B504480BF065F918B9034BEE
S315080032904FF480629A6608BDB42900200090005059
S315080032A008B5044B4FF480629A6603480BF067F939
S315080032B008BD00BF00A00050B429002008B54FF093
S315080032C098435B6C13F4801F11D14FF098435B6CE5
S315080032D013F4801FF9D04FF098435B6D03F4702305
S315080032E0054A1360054B0222C3F8882108BD044825
S315080032F00BF057F9E9E700BF1C10002000E100E0D9
S3150800330050290020002835D010B50446FFF7BAFF2B
S3150800331000B110BD20460BF0CCF894F8203093B9D4
S315080033204FF098435B6C13F4801FF9D04FF0984325
S315080033305C6D04F47024FFF7B3FF002CE9D0204637
S315080033400BF056F9E5E74FF09844A36D43F00203F6
S31508003350A3654FF0FF3108480BF036F9A36D23F04B
S315080033600203A3650028D4D1044B1C684FF4A0229D
S315080033701A60E0E721207047502900201C10002021
S315080033802DE9F04385B00023039300285FD00D464E
S31508003390144607460AB100295BD004F0030634F048
S315080033A0030804D12EBB304605B0BDE8F0834FF0C4
S315080033B0E0633B6000237B60BB60FB6100950123F3
S315080033C0019348F000530293694638460BF05DF8BE
S315080033D0414638460BF063F83846FFF793FF8146B7
S315080033E00028DFD042460021284611F0CAF94E4689
S315080033F0D9E74FF0E0633B6000237B60BB60FB616D
S3150800340003AB009301230193134B02936946384695
S315080034100BF03BF8042138460BF041F83846FFF725
S3150800342071FF074608B903460DE0224600212846E3
S3150800343011F0A7F93E46B6E7D900039ACA4003EB4E
S3150800344008016A540133B342F6D33E46ABE7212658
S31508003450A9E72126A7E700BF040000202DE9F041CF
S315080034608AB00C4617460178022934D0032938D089
S31508003470012901D021202BE000F10C064FF0140899
S315080034801B4A226000226260A260E2619D01294611
S3150800349020460BF004F807970122089245F00055DC
S315080034A009950496059248F00053069301960292F0
S315080034B0039304A920460AF0DEFF07A920460AF06E
S315080034C0DAFF01A920460AF0E0FF2046FFF71AFFB7
S315080034D00AB0BDE8F08100F10C064FF02008054A55
S315080034E0CFE700F10C064FF02008034AC9E700BFF2
S315080034F0000201030003010300040103A9B170B42B
S315080035000446A0B10026466086600A4D0FCDE060ED
S3150800351021616261A3610FCDE06121626262A362EB
S3150800352002232370304670BC704721207047212043
S31508003530F9E700BFF85D0108A9B170B40446A0B167
S315080035400026466086600A4D0FCDE0602161626103
S31508003550A3610FCDE06121626262A3620323237037
S31508003560304670BC7047212070472120F9E700BF1C
S315080035701C5E0108002873D02DE9F04F8BB00C466D
S3150800358016460146002C6DD0002A6DD00078022818
S3150800359015D003281ED0012803D021200BB0BDE882
S315080035A0F08F01F10C0901F1040801F12C054FF027
S315080035B0140A2F4A57469F4217D92120EEE701F1F0
S315080035C00C0901F1040801F12C054FF0200A294ADB
S315080035D01C27F0E701F10C0901F1040801F12C059B
S315080035E04FF0200A244A5746E5E70123012B32D932
S315080035F0D8F8003003F03F0B226000236360A36015
S31508003600E361594620460AF04AFFD8F800102046DA
S315080036100AF045FFCDF81C90012208924AF00053A3
S315080036200993049505924BF000530693019602926E
S3150800363047F00057039707A920460AF01CFF04A97C
S3150800364020460AF018FF01A920460AF01EFF204668
S31508003650FFF758FEA2E758F8231039B90133C5E732
S3150800366021207047212099E7212097E70F2095E729
S315080036700002030300030303000403032DE9F041DA
S3150800368086B00C9C002840D090461E460746002C63
S315080036903DD04AB1022931D0032933D0012907D0B8
S315080036A0212006B0BDE8F081002BF3D02120F8E7F1
S315080036B01425194A0D9B9D422BD83A6000237B603E
S315080036C0BB60FB61314638460AF0E9FECDF80C804E
S315080036D00122049246F0005605960094019245F0A0
S315080036E00055029503A938460AF0C5FE69463846CC
S315080036F00AF0CBFE3846FFF705FED2E71C254FF049
S315080037000322D7E72025054AD4E72120C9E7212047
S31508003710C7E72120C5E700BF000200030004000335
S315080037202DE9F04192B0002800F09A800C46154623
S315080037301E468046002900F09580002A00F09480F5
S31508003740002B00F0938000231A46294620460BF0EA
S3150800375085F8074618B1384612B0BDE8F0810FA9BA
S3150800376028460BF010F807460028F4D12268424B89
S315080037709A426FD073690F9AB3EB420F78D33368C6
S31508003780002B77D14FF06063C8F800300023C8F8E3
S315080037900430C8F80830C8F81C3010A920460BF0C9
S315080037A0BDF807460028D6D1109921F4F06110918A
S315080037B040460AF074FE11A930460BF0AFF80746EA
S315080037C00028C8D1119940460AF069FE06A9204684
S315080037D00BF06EF907460028BDD106A940460AF047
S315080037E04AFE03A920460BF070F907460028B2D115
S315080037F003A940460AF03FFEF36853B109A93046CB
S315080038000BF056F907460028A5D109A940460AF043
S3150800381032FE0CA928460BF058F9074600289AD11B
S315080038200CA940460AF027FE694630460BF04DF9CA
S31508003830074600288FD1694640460AF026FE3C46D0
S31508003840022C88D84046FFF75DFD0746012882D13D
S315080038500134F5E772690F9B9A4290D221277AE7DD
S31508003860212778E7212776E7212774E7212772E7BA
S31508003870212770E721276EE7200000B0F0B58DB04C
S3150800388000286FD00C461546074600296CD0002A3A
S315080038906CD001231A46294620460AF0DFFF064661
S315080038A050B9A36813F4C04F62D0AB6803F4C043A1
S315080038B0B3F5005F03D0212630460DB0F0BD2F4B7F
S315080038C03B6000237B60BB60FB6101A920460BF0CF
S315080038D025F806460028EFD1019938460AF0DFFD9B
S315080038E009A920460BF0E4F806460028E4D109A900
S315080038F038460AF0C0FD06A920460BF0E6F806464B
S315080039000028D9D106A938460AF0B5FDEB688BBB65
S31508003910AB6803F4C043B3F5005F01D02126CBE7BB
S3150800392005A928460AF059FF06460028C4D16A693F
S31508003930059B9A4220D32A6902920122039243F0F8
S315080039400053049302A938460AF09FFD344600E066
S315080039500134022CB0D83846FFF7D4FC06460128B5
S31508003960F6D0A9E72126A7E72126A5E72126A3E77A
S315080039702126A1E721269FE71D269DE700000102D3
S31508003980002877D0F0B591B00C460546002973D0CB
S315080039901699002972D01899002971D0216801F06A
S315080039A07041B1F1404F0AD05BB9022A17D0032AF9
S315080039B017D0012A01D021200FE0324B03E0324B09
S315080039C001E04FF0C0632B6000236B60AB60EB61D6
S315080039D0694620460AF0A2FF28B111B0F0BD2B4B6C
S315080039E0F1E72B4BEFE7009928460AF058FD17999F
S315080039F028460AF054FD0DA920460BF059F8002870
S31508003A00EBD10DA928460AF036FD0AA920460BF087
S31508003A105CF80028E1D10AA928460AF02CFD169B75
S31508003A20079301270897179B43F00056099607A99D
S31508003A3028460AF020FD169B0493059706962368E8
S31508003A4003F07043B3F1404F0FD0189B0193012345
S31508003A500293199B43F00053039301A928460AF0E1
S31508003A6014FD2846FFF74EFCB7E704A928460AF0D6
S31508003A7002FDEAE7212070472120AEE72120ACE7C6
S31508003A802120AAE70002000600000206000300063D
S31508003A9000040006002879D030B58FB00C460546DC
S31508003AA0002975D01299002974D01499002973D069
S31508003AB0A16811F4005F71D0216801F07041B1F17D
S31508003AC0404F0AD05BB9022A16D0032A16D0012A1B
S31508003AD001D021200EE0324B02E0324B00E0324B9F
S31508003AE02B6000236B60AB60EB6101A920460AF0EE
S31508003AF015FF28B10FB030BD2C4BF1E72C4BEFE783
S31508003B00019928460AF0CBFC139928460AF0C7FC07
S31508003B100BA920460AF0CCFF0028EBD10BA92846B2
S31508003B200AF0A9FC08A920460AF0CFFF0028E1D12F
S31508003B3008A928460AF09FFC129B059301220692C3
S31508003B40139B43F000530793149B02930392159B10
S31508003B5043F000530493236803F07043B3F1404FD6
S31508003B600BD005A928460AF086FC02A928460AF0C1
S31508003B7082FC2846FFF7C6FBBCE702A928460AF0DE
S31508003B807AFC05A928460AF076FCF2E72120704758
S31508003B902120AFE72120ADE72120ABE72120A9E7C7
S31508003BA000020106000003060000010600030106E4
S31508003BB00004010610F1860F14D00EDC10F1930FE5
S31508003BC013D010F1870F05D10B4B994207D06FF030
S31508003BD06D0070474FF0FF30704748B970476FF077
S31508003BE0730070476FF0710070476FF06F00704791
S31508003BF04FF0FF30704700BF0900000201290ADCB8
S31508003C0008B531B1054900F099FF0549FFF7D2FF1C
S31508003C1008BD0349F7E76FF0730070470800000214
S31508003C200900000208B50BF008FE0249FFF7C2FFBB
S31508003C3008BD00BF0900000200B583B00023019348
S31508003C4001AB20220BF01BFE0249FFF7B3FF03B0BE
S31508003C505DF804FB0900000210B5FFF7D9FA0D4B11
S31508003C600D4A0E490E4805F0D1FA0E4B1B7803B1E2
S31508003C7010BD0AF0DDFF04460A4B1B7833B90A4B20
S31508003C801B680A489847074B01221A7020460AF013
S31508003C90D9FFEDE7ABEB0008D3EB0008FFEB000814
S31508003CA00DEC000809600020501000200C58002078
S31508003CB000F01F0201239340A0F50620A0F55060EE
S31508003CC04009074951F820201A4341F820200549A0
S31508003CD051F8202022EA030241F82020704700BF4D
S31508003CE02C2A0020182A002000F01F0CA0F5062018
S31508003CF0A0F5506040090F4951F82030012202FA18
S31508003D000CF2134341F8203000231A4604E00A490E
S31508003D1051F823100A440133042BF8D902B170472D
S31508003D20042A05D8034B002143F822100132F7E78D
S31508003D30704700BF182A00202C2A002000F01F0C0C
S31508003D40A0F50620A0F550604009054951F8203035
S31508003D50012202FA0CF2534041F82030704700BFA6
S31508003D602C2A002000B583B03A238DF807300123AA
S31508003D700DF1070205490648006808F06FF810B902
S31508003D8003B05DF804FB6FF09100F9E7FF6C0800DB
S31508003D905810002010B582B0144602B969B90094CB
S31508003DA0049A01460648006808F0F0F810B90020A1
S31508003DB002B010BD6FF09100FAE76FF09800F7E7D0
S31508003DC0581000202DE9F041A2B0402422460021D7
S31508003DD012A810F0D6FC2246002102A810F0D1FC49
S31508003DE0214F23E0DFF88C8029E022AB03EB840324
S31508003DF053F8400CFFF75CFF0134AC42F5D3CDF81D
S31508003E0000803B46102202A91848006811F0D1FA32
S31508003E100546002407E022AB03EB840353F8800C25
S31508003E20FFF762FF0134AC42F5D33746104B9F4289
S31508003E3013D807F110060F4B9E42D3D8B04608F1A7
S31508003E40FF38CDF800803B46102212A907480068C3
S31508003E5011F0A6FA05460024CFE7074B01221A708F
S31508003E6022B0BDE8F08100BF006D080058100020A0
S31508003E70FF700800007108000A6000202DE9F04173
S31508003E8088B006460C461D4617460AB1002313603D
S31508003E900DB100232B6010230093002322463146E0
S31508003EA02448006808F072F8804600283ED1226847
S31508003EB0214B9A4217D00FB110233B6022681F4B43
S31508003EC09A4231D1002F31D0002D2FD02B4602AA8D
S31508003ED031461848006808F0ADF818BB2B683A68F0
S31508003EE09B1A2B6022E00023029303930493059305
S31508003EF0069307931822009202AA31460D480068D5
S31508003F0008F044F8804688B9069B6360DDE9042317
S31508003F10C4E90223094B23600FB118233B60DFF87D
S31508003F202080CBE7804601E0DFF81880404608B0DD
S31508003F30BDE8F08158100020D175E105105D175EC7
S31508003F40FEDF00F0FFDF00F010B59AB000238DF811
S31508003F50673001230DF167022F493048006807F0E2
S31508003F60C7FF10B12E4A904253D19DF867303A2BBD
S31508003F7019D04022002109A810F003FC294B2A4A2F
S31508003F80934241D803F11004284A944211D8224694
S31508003F90013A0092102209A92048006811F000FA97
S31508003FA048B92346EBE7224B3A221A6000201AB09A
S31508003FB010BD1E4AECE70023049305930693079366
S31508003FC00293039302AB03AA04A90998FFF756FFC5
S31508003FD0184B984212D010B1013B984211D1049B5C
S31508003FE0154A934205D0154A934202D06FF09100C4
S31508003FF0DDE70F4B74221A600020D8E76FF08B00BC
S31508004000D5E76FF09100D2E7094B3A221A600020F3
S31508004010CDE76FF09100CAE7FF6C08005810002042
S315080040200BE000F000310800FF34080000350800F6
S3150800403020100020FFDF00F0D175E105105D175E46
S3150800404010B50C4B1B7823B10B4B1B680B489847D4
S3150800405010BD0AF015FE0446064B1B7833B9084B0B
S315080040601B6806489847034B01221A7020460AF037
S3150800407011FEE9E70B60002048100020402A0020C6
S315080040805010002008B5044B1B781BB1034B1B6866
S315080040900348984708BD00BF0B6000204410002065
S315080040A0402A00202DE9F04F87B006460D4698466F
S315080040B0DDF840A091462AB1002B56D040F26C7329
S315080040C09A4255D8BAF1010F55D80023059309F13C
S315080040D01007394601200BF0ABFC044600284DD0EA
S315080040E03A46002110F04DFBFFF7AAFF05AB0293F5
S315080040F0002301930093234601223046294600F007
S3150800410009F9834600BB1F4B2360A660E560C4F827
S3150800411004A0B9F1000F1DD13B46224605991A485D
S31508004120006807F09BFEE0B16FF0910B3A4600215C
S31508004130204610F026FB20460BF08AFCFFF7A2FF6C
S31508004140584607B0BDE8F08F10F18C0FEED16FF02E
S315080041508D0BEBE74A46414604F1100010F046FB8A
S31508004160DAE70598FFF7A4FDE0E76FF0860BE7E7C7
S315080041706FF0910BE4E76FF0850BE1E76FF08C0BBE
S31508004180DEE700BF105D175E581000202DE9F043EA
S3150800419099B04022002108A810F0F3FA00230493EE
S315080041A00593069307930393534B544A934200F29D
S315080041B0848003F11007514A97420BD83A46013AD0
S315080041C00092102208A94E48006811F0E9F8064640
S315080041D0002442E04B4AF2E7DDF80C90049B4A4A79
S315080041E0934202D0494A93427FD109F11001012036
S315080041F00BF01EFC054600287AD00090029B039A15
S31508004200002118A800EB840C5CF8400CFFF7C2FDEF
S315080042108046002854D1049B3C4A934237D03A4AF8
S3150800422093423ED0B8F1000F02D018F1850F49D15C
S3150800423018AB03EB840353F8401C314B186807F09E
S315080042403DFF00284BD1039A10320021284610F072
S3150800425098FA28460BF0FCFB0134B4422BD2002313
S315080042600393029303AB02AA04A918A800EB8405DA
S3150800427055F8400CFFF702FE254B984232D000282D
S31508004280AAD0013B9842A7D06FF0910823E0059B7E
S3150800429000932B464A46DDE9060100F015F98046EB
S315080042A0C0E7059B00932B464A46DDE90601FFF762
S315080042B0F9FE8046B6E73B4677E74FF000080AE086
S315080042C06FF09108039A10320021284610F059FA27
S315080042D028460BF0BDFB404619B0BDE8F0836FF0E9
S315080042E09108EFE76FF08B08F5E76FF09108F2E7B2
S315080042F06FF08C08EFE700BF00310800FF340800B4
S315080043005810002000350800105D175ED175E105CC
S31508004310FFDF00F02DE9F0478046894617461E461E
S315080043200AF09DFC604CA4FB0034E40804EBC414BA
S31508004330041B04F5062404F550645C4B1B7813B182
S315080043400025AA4668E005F0ADFB002840F09780F6
S31508004350574B1B68E82B02D0FFF734FDF0E7FFF751
S31508004360F3FD002840F08E80514B1B68742B02D059
S31508004370FFF728FDE4E7FFF709FF00286CD1FFF7F0
S31508004380F1FC0028DCD067E0BAF1000F00D1A246A4
S31508004390A4F50624A4F6FF44434BA3FB0423DB0839
S315080043A003EBC313E31A03F5062404F5506432E05D
S315080043B00A9B1C6000204FE0099B089A314620465C
S315080043C0FFF75CFD3B4B984209D01233984206D062
S315080043D060B1394B984209D06FF091003CE0214614
S315080043E0364B186807F06AFE002851D1B268F368A0
S315080043F04B4508BF424531D0A4F50624A4F6FF4430
S31508004400294BA3FB0423DB0803EBC313E31A03F5C9
S31508004410062404F550640135802D27D8A4F5062C0A
S31508004420ACF5506C4FEA5C1C254B53F82C3004F065
S315080044301F02D34013F0010FBED1224B53F82C3084
S31508004440D34013F0010F9FD1FFB1BAF1000FAFD0DF
S315080044500A9BC3F800A00020BDE8F08717B173686F
S31508004460012B18D00A9B1C600020F5E7B7B1BAF1FA
S31508004470000F16D00A9BC3F800A00020ECE76FF0E7
S315080044809100E9E76FF09100E6E76FF08B00E3E74C
S315080044906FF08B00E0E76FF08400DDE76FF08B00CC
S315080044A0DAE76FF08B00D7E7813FE00F0A6000205C
S315080044B020100020FFDF00F0FEDF00F0581000207B
S315080044C02C2A0020182A00202DE9F04F8BB006462A
S315080044D00D469846DDF850A091460AB1002B52D0F9
S315080044E0BAF1010F52D80023099309F11807394682
S315080044F001200BF09DFA044600284AD03A460021CE
S3150800450010F03FF9FFF79CFD09AB029300230193D6
S31508004510009304AB012230462946FFF7FBFE83468B
S3150800452000BB1D4B2360A660E560C4F810A0B9F176
S31508004530000F1DD13B46224609991848006807F026
S315080045408DFCE0B16FF0910B3A460021204610F041
S3150800455018F920460BF07CFAFFF794FD58460BB085
S31508004560BDE8F08F10F18C0FEED16FF08D0BEBE7F5
S315080045704A46414604F1180010F038F9DAE7099876
S31508004580FFF796FBE0E76FF0860BE7E76FF0850B22
S31508004590E4E76FF08C0BE1E7D175E10558100020D0
S315080045A02DE9F0478CB007460E461546DDF85080D3
S315080045B0DDF854A0994673B1BAF1000F51D0B8F19D
S315080045C0000F51D0B8F1005F51D3C3F1005303F582
S315080045D0003398454ED80024089409940A940B94FD
S315080045E007940694FFF72CFD05AB029307AB0193DE
S315080045F006AB009308AB224638463146FFF78AFEDB
S315080046000446F8B9079BB9F1000F06D0AB4206D8A5
S315080046100BBB25B16FF0860414E0AB421ED35B1BBF
S315080046204B4515D2CAF80030DAF800300093069BDD
S315080046302B44424605991148006807F0A7FC08B1C3
S315080046406FF09104FFF71EFD20460CB0BDE8F08719
S31508004650CAF80090E8E76FF08604F3E76FF086047F
S31508004660F0E76FF08604EFE76FF08604ECE76FF08B
S315080046708604E9E76FF08604E6E700BF58100020D5
S3150800468070B58CB006460D460024089409940A9421
S315080046900B9407940694FFF7D3FC05AB029307AB7C
S315080046A0019306AB009308AB224630462946FFF72E
S315080046B031FE044670B9099B012B10D005990B4BA6
S315080046C0186807F0FBFC68B90598FFF737FB0598EB
S315080046D0FFF70AFBFFF7D6FC20460CB070BD6FF05B
S315080046E08404F7E76FF09104F4E700BF5810002040
S315080046F0002800F0BC802DE9F043B3B00D461446FF
S315080047001E46002900F0B680002A00F0B680002E6A
S3150800471000F0B680028802F44F41B1F5824F40F0AE
S31508004720B280D1B2122940F0B18022F0FF02B2F570
S31508004730E24F0BD0B2F5824F40F0AE802B78042BB7
S315080047401BD06FF0860033B0BDE8F0834388336032
S3150800475063B9E30033603368B3F5807F40F099802E
S3150800476022464F4928460AF0FDFAECE70733B4EB30
S31508004770D30FF0D06FF08600E5E72422002119A8B0
S315080047800FF0FFFF19A809F071FF002866D100276E
S3150800479022973C22394623A80FF0F3FF01238DF810
S315080047A088304FF020084246394601A80FF0E9FF45
S315080047B001350595013C06944246394609A80FF08D
S315080047C0E0FF22AD0D954FF04009CDF838904246EE
S315080047D0394611A80FF0D5FF1595CDF85890E40085
S315080047E064083460B4F5C07F3BD024D8E02C02D0EE
S315080047F0B4F5807F1CD12B4B01930993039B43F49B
S31508004800005303930B9B43F480430B93336807339E
S31508004810DB085B00129311AB01AA09A919A8FEF7D8
S315080048207FFF33680733DB085A008BB122AB0CE0F5
S315080048306FF0860087E7B4F5047F15D16FF0850021
S3150800484081E7002203F8012B0A46511E002AF8D1F7
S3150800485000283FF478AF6FF0860074E76FF0920097
S3150800486071E76FF085006EE76FF086006BE76FF013
S31508004870860070476FF0860065E76FF0860062E78E
S315080048806FF086005FE76FF085005CE76FF08500E4
S3150800489059E76FF0850056E76FF0960053E700BFBB
S315080048A0405E0108200000802DE9F0410C461546BF
S315080048B043880733072B02D9DA088A4268D1068863
S315080048C0D0F80C8047683F0A2022002128460FF0BE
S315080048D058FF002F5FD1002C60D041F201039E42A1
S315080048E02BD0B6F5885F28D0B6F5905F25D0B6F5FB
S315080048F0105F26D006F44F43B3F5824F51D1F3B279
S31508004900122B51D1202C52D12D4B2B6026F0FF06AD
S31508004910B6F5E24F29D0B6F5824F4BD14FF4005386
S31508004920AB6008F4864218F4705322D04ABBAB68D1
S3150800493043F48063AB60002001E06C600020BDE8B2
S31508004940F081182C0BD0202C0CD0102C02D06FF034
S315080049508600F4E710232B606C600020EFE718232D
S315080049602B60F9E720232B60F6E74FF48043AB6012
S31508004970D7E72AB1AB6823F48063AB600020DEE793
S3150800498003B1D2B9AB6823F48063AB600020D6E7E5
S315080049906FF08600D3E76FF08B00D0E76FF08600E4
S315080049A0CDE76FF08500CAE76FF08500C7E76FF0BF
S315080049B08500C4E76FF08600C1E76FF08500BEE7A3
S315080049C020000080038803F44F42B2F5824F12D0CC
S315080049D0002321F0FF01154A914217D002F58052B3
S315080049E0914216D0A2F58852914215D0122B04D0C6
S315080049F06FF085007047DBB2EBE74388B3F5807F3D
S31508004A000DD1B1F1062F0DD1002070476FF0860049
S31508004A1070476FF0860070476FF0860070476FF03A
S31508004A20850070476FF08500704700BF00030006D9
S31508004A3020F0FF03164A934216D002F5805293429D
S31508004A4012D0A2F5885293420ED020F4FF7222F0BB
S31508004A500102B2F1062F07D00E498B4204D00E4B45
S31508004A609A4201D00020704710F0FF0009D040F0AC
S31508004A7000700A4B984206D00133984205D10320AC
S31508004A80704700207047022070470020704700BF1B
S31508004A9000030006000900060004000608000002DC
S31508004AA02DE9F0438DB017461C46149E159D884681
S31508004AB059B17CB1002D39D01F4B98420FD0013324
S31508004AC0984224D06FF085001EE0002AF1D06FF0DE
S31508004AD0860019E0002EEDD06FF0860014E01C2346
S31508004AE02B604FF002092B68B34215D803A809F0CA
S31508004AF0BDFDF0B9019600943B464246494603A8D7
S31508004B00FEF7BCFD68B900200DB0BDE8F083202390
S31508004B102B604FF00309E6E700232B606FF089004E
S31508004B20F2E700232B606FF09200EDE76FF0860046
S31508004B30EAE76FF09200E7E70800000218B330B51D
S31508004B408BB00D4604466C22002104300FF019FE86
S31508004B50104B9D4205D001339D420CD06FF0850065
S31508004B6007E02046022300F8043B01A9FEF7C6FC2D
S31508004B7060B90BB030BD2046032300F8043B01A9F9
S31508004B80FEF7DAFCF4E76FF0860070476FF09200E4
S31508004B90EFE700BF0800000200B583B0094B93E8B1
S31508004BA003000090ADF80410090C8DF8061068464D
S31508004BB0FEF7CCF90C20FEF707FA002003B05DF8E3
S31508004BC004FB00BF605E010810B582B0074A536F48
S31508004BD043F001035367002400948DF804406846A7
S31508004BE0FEF7E0F8204602B010BD00BF00400050B6
S31508004BF06FF0040307E003F00F010A4A0A44502144
S31508004C00117601335BB24B2B09DC002BF3DB03F186
S31508004C10604202F56142502182F80013F1E7002054
S31508004C20704700BFFCEC00E030B583B009F011FC1A
S31508004C300E4B1D780E4B1C6809F00FFC0AF020FF7E
S31508004C4008B1FF2D03D154B1204603B030BD01AAE7
S31508004C50064B1978002009F096F9019CF3E709F04C
S31508004C60F8FB044B1C6809F0F8FBEDE7D4100020AC
S31508004C70A42A0020A82A002010B5044609F0E9FB5A
S31508004C80024B1C6009F0E9FB002010BDA82A002091
S31508004C9010B582B00124009400231A461946184616
S31508004CA004F06CFE009400231A461946184604F0D0
S31508004CB09FFE0348FFF7E0FF002002B010BD00BFCB
S31508004CC0281000204161114B1B68CBB110B4002499
S31508004CD003E0891A41611C469B6823B15A698A42D6
S31508004CE0F7D9002AF5D044B1A060836013B15A6998
S31508004CF0521A5A615DF8044B7047044A1060F4E78B
S31508004D00024B186000238360704700BFB42A002056
S31508004D100E4B1B68002201E01A469B680BB18342C2
S31508004D20FAD183420ED14AB18368936083685BB136
S31508004D305A6941690A445A61002070478268034BE0
S31508004D401A60F3E70220704700207047B42A002053
S31508004D500A4B1B6800220A490A7005E0084B012223
S31508004D601A70704759690A44012A06D8D98811F079
S31508004D70020FF3D19B68002BF4D17047B42A0020A8
S31508004D800D60002008B500F055F90B4B1B680B4A5F
S31508004D901268821A03E0521A002159619B683BB1D6
S31508004DA032B159699142F6D3891A59610022F5E759
S31508004DB0024B186008BD00BFB42A0020B02A0020A4
S31508004DC010B50B4B1B685B695BB10A4A14681C4437
S31508004DD002200AF0EAFD204600F03AF9FFF7B8FF8C
S31508004DE010BD02200AF0E1FD022000F087F9F5E780
S31508004DF0B42A0020B02A002010B509F031FB044679
S31508004E00144B1B78DBB9144A1360144A1360144A0E
S31508004E10138000F0D3F801200AF0C7FD0AF0F3FD6D
S31508004E200246104B186078B100230F4840F2E7316C
S31508004E3004F09CFE0D4B1860064B01221A702046A2
S31508004E4009F014FB002010BD204609F00FFB2320B3
S31508004E50F9E700BF0E600020B42A0020B02A00201F
S31508004E6004600020B82A002018FCFFFFAC2A0020A6
S31508004E702DE9F843044610F0010F04D114F0020F8F
S31508004E8010D1BDE8F8834A4A13889BB201339BB216
S31508004E901380FFF777FF474B1B68002BEED0FFF711
S31508004EA08FFFEBE709F0DCFA0546FFF76BFF0027F3
S31508004EB03E4643E09B683BB15A692AB921791A797B
S31508004EC09142F7D91C46F5E7284609F0CFFA256935
S31508004ED0002D3AD10025A8462F46002D47D0236934
S31508004EE003B3FDB9B8EB0707A38B6BB1E28B134489
S31508004EF09BB2E383B3F57A7F06D3A3F57A73E3838C
S31508004F00013FA369013BA36109F0AAFA05463946A0
S31508004F102046FFF7D7FEA36922691344A3612846F2
S31508004F2009F0A4FAE7880136E36813B12168204638
S31508004F30984709F095FA0546FFF724FF1D4B1C68AC
S31508004F40FCB16369EBB92346B5E7A84600F072F8E9
S31508004F50A369C71AF917BD424FF000028A4104DA5D
S31508004F6022691344A3610125B7E70025B5E709F0CF
S31508004F7077FA81462046FFF7CBFE484609F076FACF
S31508004F80ADE70D4B00221A70012E06D05CB1FFF773
S31508004F9017FF284609F06AFA73E717F0020FF5D0EB
S31508004FA001221A70F2E7022000F08CF8F1E700BF40
S31508004FB004600020B42A00200C60002010B586B0DA
S31508004FC000248DF8144001218DF804108DF8054051
S31508004FD08DF806400294039404943E20FDF712FED1
S31508004FE005A8FEF79FF88DF8044001A92046FEF7AC
S31508004FF0B1F80F212046FEF7D9F80F212046FEF713
S31508005000DBF8FEF773F8094B5B6813F0010F03D062
S31508005010064BDB69002BF6D1044B00229A61044B40
S315080050200822C3F888219A6006B010BD00800A508D
S3150800503000E100E0054B5B6813F0010F03D0034B5A
S31508005040DB69002BF6D1014B9869704700800A503E
S31508005050F8B5044609F0FDF90646FFF7EBFF0546E5
S315080050600AF09DFC07460020FEF7ACF810F0020F88
S3150800507004D17B1B032B01D8BD420FD1631B022B26
S3150800508000D8EC1CB4F1FF3F2CBF2246621E00215B
S315080050900846FEF7AFF802200AF087FC304609F00A
S315080050A0DCF9064B1B783BB1054A936C43F00103C8
S315080050B09364024B00221A70F8BD00BFD510002079
S315080050C000800A5008B510F0010F11D1002110F028
S315080050D0020F09D041F00201064B01221A70064A56
S315080050E0936C23F0010393640020FEF75FF808BD74
S315080050F00121ECE7D510002000800A5010F0020FBD
S3150800510002D0024B02221A64704700BF00900A5070
S31508005110EFF305837BB9EFF3108313B9EFF311832C
S315080051201BB1094B1B68022B08D0074B186840B9FE
S3150800513001221A6070476FF0050070476FF005008E
S3150800514070474FF0FF3070477C30002008B500F0FC
S31508005150B3FF40B10346022806D0044B1B68012B57
S3150800516002D0002300E00323184608BD7C30002047
S31508005170EFF30583C3B9EFF3108313B9EFF3118384
S315080051801BB10E4B1B68022B11D00C4B1B68012B55
S3150800519010D110B500240A4BDC77084B02221A609E
S315080051A000F032FD204610BD6FF0050070476FF025
S315080051B0050070474FF0FF30704700BF7C30002075
S315080051C000ED00E008B5EFF3058393B9EFF310831C
S315080051D013B9EFF311831BB10B4B1B68022B0BD0D2
S315080051E000F06AFF58B102280BD100F049FD0020F3
S315080051F009E06FF0050006E06FF0050003E0012006
S3150800520001E04FF0FF3008BD7C30002010B5EFF309
S31508005210058313BB0446EFF3108313B9EFF3118329
S315080052201BB1144B1B68022B1AD000F045FF08B1BE
S31508005230022818D1012C06D0C4B900F0B1FD012806
S3150800524004D1204610BD00F01BFDFAE700F034FF3C
S315080052500228F6D04FF0FF34F3E76FF00504F0E7C5
S315080052606FF00504EDE74FF0FF34EAE74FF0FF343F
S31508005270E7E700BF7C30002070B5EFF30583002B0D
S3150800528046D10446EFF3108212B9EFF311821AB130
S31508005290244A1268022A3ED004B1636813F0010654
S315080052A000D0012613F0080F37D144B3A16811B115
S315080052B0E3684F2B18D891B14FF0FF337BBB16B379
S315080052C004200AF023FE05461DB304B124682146CE
S315080052D0284600F069FBE6B145F0010519E0E368E8
S315080052E07BB14FF0FF33E9E726B104200AF019FE37
S315080052F00546E9E701200AF014FE0546E4E700231F
S31508005300DCE70023DAE701200AF000FE0546DBE7C2
S315080053100025284670BD0025FBE70025F9E700258E
S31508005320F7E700BF7C300020EFF305822ABB10B5F3
S3150800533003460C4620F0010003F00101EFF310824A
S3150800534012B9EFF311821AB1154A1268022A17D058
S31508005350012B18D941B121460AF082FF012815D040
S31508005360B4B16FF0010012E021460AF0E4FE01280C
S3150800537011D094B16FF0010009E06FF00500704795
S315080053806FF0050003E06FF0030000E0002010BD99
S315080053906FF00200FBE70020F9E76FF00200F6E77E
S315080053A07C300020EFF305820ABB08B5034620F0DF
S315080053B0010003F00101EFF3108212B9EFF3118235
S315080053C01AB1124A1268022A14D0012B15D929B12A
S315080053D00AF0B6FD012813D1002008BD00231A469D
S315080053E019460AF00DFD01280DD10020F5E76FF0EA
S315080053F0050070476FF00500EFE76FF00300ECE774
S315080054006FF00200E9E76FF00200E6E77C30002063
S31508005410EFF30583B3B910B520F00104EFF3108359
S3150800542013B9EFF311831BB10B4B1B68022B0CD07E
S3150800543001280DD9204600F0CBFA20460AF060FF75
S31508005440002010BD6FF0050070476FF00500F8E703
S315080054506FF00300F5E700BF7C30002070B582B01E
S31508005460EFF30583002B52D10E461546EFF3108352
S3150800547013B9EFF311831BB12B4B1B68022B4AD0D0
S3150800548000284AD0B0424AD34DB1AC6814B1EB6893
S315080054904F2B14D8002C44D1EB680BB138E000230D
S315080054A001280ED06BBB31460AF0A1FC04467CB33A
S315080054B005B12D682946204600F076FA28E0012332
S315080054C0EEE7ABB90322002101200AF068FC044686
S315080054D0F4B1002EEBD000231A46194620460AF0EE
S315080054E08FFC0128E3D020460AF00AFF00240FE0CB
S315080054F0AB6803220092002211460AF03DFC0446DE
