S01C00006275696C642F64656275672F67656E657261746F722E7333379C
S214000000001000201D240000A1EB0000A1EB000062
S214000010A1EB0000A1EB0000A1EB0000A1EB0000AB
S214000020A1EB0000A1EB0000A1EB00001101000015
S214000030A1EB00006452010041010000EBF2000059
S214000040A1EB0000A1EB0000A1EB0000A1EB00007B
S214000050A1EB0000A1EB0000A1EB0000A1EB00006B
S214000060A1EB0000A1EB0000A1EB0000A1EB00005B
S214000070A1EB0000A1EB0000A1EB0000A1EB00004B
S214000080A1EB0000A1EB0000A1EB0000A1EB00003B
S214000090A1EB0000A1EB0000A1EB0000A1EB00002B
S2140000A0A1EB0000A1EB0000A1EB0000A1EB00001B
S2140000B0A1EB0000A1EB0000CD5B0000A1EB00006F
S2140000C0A1EB0000A1EB0000A1EB0000A1EB0000FB
S2140000D0A1EB0000A1EB0000A1EB0000A1EB0000EB
S2140000E0A1EB0000A1EB0000A1EB0000A1EB0000DB
S2140000F0A1EB0000A1EB0000A1EB0000A1EB0000CB
S214000100A1EB0000A1EB0000A1EB00000000000046
S214000110074B19680868B0E8F04F80F30988BFF30A
S2140001206F8F4FF0000080F311887047AFF30080A8
S21400013068540020000000000000000000000000DE
S214000140EFF30980BFF36F8F154B1A681EF0100F80
S21400015008BF20ED108A20E9F04F10602DE9090055
S2140001604FF0600080F31188BFF34F8FBFF36F8F9F
S21400017006F08AFB4FF0000080F3118809BC19686E
S2140001800868B0E8F04F1EF0100F08BFB0EC108AF9
S21400019080F30988BFF36F8F704700BFAFF300800E
S2140001A0685400200000000000000000000000006E
S2140001B001F0FF01102A2BDB10F0070F08D010F813
S2140001C0013B013A8B422DD010F0070F42B3F6D117
S2140001D0F0B441EA012141EA014122F007047FF030
S2140001E000070023F0E80256083C85EA010586EA87
S2140001F0010685FA47F5A3FA87F586FA47F6A5FAC3
S21400020087F68EB9EED1F0BC01F0FF0102F00702CE
S21400021032B110F8013B013A83EA010313B1F8D179
S2140002200020704701387047002D06BF354603385A
S214000230073815F0010F07D1013015F4807F02BF93
S214000240013015F4C03F0130F0BC0138704700BFE4
S2140002500348044B834202D0034B03B11847704750
S2140002609019002090190020000000000548064B59
S2140002701B1AD90F01EBA301491002D0034B03B19F
S21400028018477047901900209019002000000000C1
S21400029010B5064C237843B9FFF7DAFF044B13B1C9
S2140002A00448AFF300800123237010BD885E002051
S2140002B000000000C462010008B5054B1BB10549EB
S2140002C00548AFF30080BDE80840FFF7CFBF00BF8A
S2140002D000000000E0190020C4620100A3F5803A87
S2140002E0704700BF174B002B08BF134B9D46FFF708
S2140002F0F5FF00218B460F461348144A121A13F0D6
S214000300C0FC0E4B002B00D098470D4B002B00D0A6
S21400031098470020002104000D000D48002802D058
S2140003200C48AFF300800AF01DFE2000290013F0F1
S214000330AEFB0AF0BFFB00BF000008000000000094
S214000340000000000010002090190020985E002099
S214000350000000000000000010B58CB004460CF051
S21400036072FE2422002103A813F08BFC05940123BF
S214000370049347F2121103A80CF041FE4FF4807369
S214000380ADF80E300E4B07934FF47053019301A84F
S2140003900CF026FE019B06930EF0EBFD000240F0EB
S2140003A00100049010F0FF0F01D1002305930023F5
S2140003B0029302A903A812F083FC0CB010BD00BF84
S2140003C00906000670B58CB006460C4615460CF0BD
S2140003D03AFE2422002103A813F053FC05960123BD
S2140003E0049347F2121103A80CF009FE4FF4807331
S2140003F0ADF80E30114B07934FF47053019301A8DC
S2140004000CF0EEFD019B06930EF0B3FD000240F0EB
S2140004100100049010F0FF0F01D100230593002384
S214000420029302AB2A46214603A812F05CFA044661
S21400043003A812F0F9FC20460CB070BD09060006B1
S21400044000B587B0944605910390084B02930022AE
S214000450019200921346614405A80FF084FC18B17F
S214000460AC2007B05DF804FB0020FAE76DD0000072
S2140004702DE9F041BEB01C46449D2B6853B107469B
S214000480884616466B68B3F5007F05D22F203EB02F
S214000490BDE8F0812F20FAE712A813F061FA0021D8
S2140004A002913C2203A813F0ECFB63687BB1019633
S2140004B0CDF800802368214A402102A80AF0B6FB46
S2140004C002A912A813F064FA48B1AC20DFE7009640
S2140004D043461B4A402102A80AF0A8FBF0E7092180
S2140004E012A813F051FA3868FFF736FF16A811F075
S2140004F09EFD396816A807F033FE08B1AC20C6E7A3
S21400050016A912A813F042FA002300936A68296815
S21400051012A809F043FF08B1AC20B8E7286813F02A
S214000520F3FB01306A68904205D8686012A813F0A1
S2140005301DFA0020ABE713F0E1FA00BF004C010003
S2140005401C4C010070B598B005460C4616460021B6
S21400055006913C2207A813F094FB4023059305A9B7
S2140005600291019306AB00936368226809492868E4
S21400057012F0D2FA10B1AC2018B070BD06AB1693CC
S214000580059B1793324618AB13E903000CF041FDA8
S214000590F2E700BF0906000608B5044800680EF03A
S2140005A046FE08B1AE2008BD0020FCE7241000205F
S2140005B008B5034B18680EF027FE002008BD00BFE4
S2140005C024100020114AC0F8B820114AC0F8B820FC
S2140005D01049C0F8B010C0F8B0200F4A026002F10F
S2140005E09801416002F1E001816002F58672C26006
S2140005F00A4AC0F8A8200A4AC0F8A8200949C160DB
S214000600094981600949416002607047444D010014
S2140006101C4D0100304D0100F44E01003450010025
S2140006204C4C0100F84C0100CC4C0100844C0100FD
S21400063038B50446134D0560134B4360134B836077
S214000640134BC360134B036003F19802426003F13F
S214000650E002826003F58673C36000210182418256
S2140006608182C1828161C16101624162802228303B
S21400067013F007FBC4F8A850074BC4F8A830204670
S21400068038BD00BF4C4C0100844C0100CC4C01002E
S214000690F84C0100F44E01003450010010B5044639
S2140006A0FFF7C6FF094BC4F8B030C4F8B440084A98
S2140006B0C4F8B020C4F8B830C4F8BC40054BC4F841
S2140006C0B830012384F8C030204610BD1C4D010010
S2140006D0304D0100444D0100012800D070474FF610
S2140006E0FF739942FAD110B5044C2046FFF7D6FFA7
S2140006F0034A0449204613F0F8F910BDF819002003
S21400070000100020C505000070B586B0064600241F
S214000710059403E0059B1C440023059306F1AC05F5
S21400072005ABC4F50072104921442846FFF734FF94
S2140007300028EFD01CB996F8C00006B070BD0A4B72
S21400074001930294094B03934FF40073049303AA96
S21400075001A930460DF0D8F886F8C000049A03992F
S2140007602846FFF725FFE6E7BC1C0020BC1A002041
S21400077000487047F8190020024A0260024A0260E8
S214000780704700BF304D01001C4D010010B50446F7
S214000790044B0360044B0360082113F0ABF92046BA
S2140007A010BD00BF304D01001C4D010070B584B077
S2140007B006460C46154600238DF80F3002938DF83A
S2140007C0073000930DF10F0120460CF0F3FE08B140
S2140007D004B070BD9DF80F30013BDBB2032B01D98E
S2140007E02F20F5E702A920460CF016FF0028EFD1CF
S2140007F00DF1070120460CF0DDFE0028E8D16B461F
S2140008004FF40072274920460CF01FFF0028DFD166
S2140008109DF80F30013B032B41D8DFE803F0021FA1
S2140008202A3570680368DC6A009B1E4A4FF4CB7159
S214000830A0470028CCD170680DF069FF0028C7D10A
S214000840029928460CF094FE002128460CF090FEF3
S214000850009928460CF08CFE0020B9E77068036803
S214000860DC6A009B0F4A40F29511A0470028E2D0B0
S214000870AEE770680368DC6A009B0A4A40F2931190
S214000880A0470028D7D0A3E770680368DC6A009BFF
S214000890044A4FF4C171A0470028CCD098E72F2017
S2140008A096E700BF30240020F0B585B006460C461B
S2140008B015460023ADF80E308DF80D30A26821687D
S2140008C08A4240F28880521AE368994280F0858016
S2140008D05B1A9A4200F083800DF10E0120460CF060
S2140008E082FE00287CD10DF10D0120460CF062FE40
S2140008F0002875D1BDF80E1028460CF02CFE0028F6
S2140009006ED19DF80D1028460CF018FE002867D111
S2140009109DF80D30013B032B5BD8DFE803F002188F
S2140009202E4100238DF8083070680368DB6802AA41
S214000930BDF80E109847D82801D0002850D19DF851
S214000940081028460CF0FAFD0028B7D048E000232F
S214000950ADF80830706803685B6902AABDF80E102F
S2140009609847D82801D000283AD1BDF80810284664
S2140009700CF0F1FD0028A1D032E00023029370684D
S2140009800368DB6902AABDF80E109847D82800D085
S21400099030BB029928460CF0EBFD00288ED01FE0F5
S2140009A0002302937068036802AA00929F6A4FF4BD
S2140009B000730C4ABDF80E10B847D82800D078B996
S2140009C0029A084928460CF0E0FD00283FF476AF6E
S2140009D006E0262004E0002276E7002379E70020E0
S2140009E005B0F0BD30240020014B0360704700BF07
S2140009F0584D0100024A0260024A0260704700BF7A
S214000A00F84D0100584D0100024A0260024A026099
S214000A10704700BFD04D0100584D0100024A0260E9
S214000A20024A0260704700BFA84D0100584D010001
S214000A30024A0260024A0260704700BF804D010011
S214000A40584D0100024A0260024A0260704700BF29
S214000A50444D01001C4D010010B50446044B0360D4
S214000A60044B0360142113F045F8204610BD00BF68
S214000A70804D0100584D010010B50446034B03603D
S214000A800C2113F037F8204610BD00BF584D01006A
S214000A9010B50446044B0360044B03600C2113F0AE
S214000AA029F8204610BD00BFA84D0100584D010092
S214000AB010B50446044B0360044B03600C2113F08E
S214000AC019F8204610BD00BFD04D0100584D01005A
S214000AD010B50446044B0360044B03600C2113F06E
S214000AE009F8204610BD00BFF84D0100584D010022
S214000AF010B50446044B0360044B0360082112F053
S214000B00F9FF204610BD00BF444D01001C4D0100FA
S214000B1070B584B00C461546CB783BB18068A37898
S214000B20032B6DD8DFE803F04F051E378068A8302A
S214000B30F5E700238DF80C300368DB6803AA2188EC
S214000B4098470346D82800D040B9D82B08D003A928
S214000B502A4620880CF009FE00B9002004B070BDBB
S214000B600021F5E70023ADF80C3003685B6903AAA3
S214000B70218898470346D82801D00028EED1D82BE4
S214000B8007D003A92A4620880CF004FE0028E4D0EB
S214000B90E4E70021F6E7002303930368DB6903AA72
S214000BA0218898470346D82801D00028D6D1D82BCC
S214000BB007D003A92A4620880CF002FE0028CCD0D5
S214000BC0CCE70021F6E700230393036803AA00920C
S214000BD09E6A4FF400730B4A2188B0470346D82814
S214000BE001D00028BAD1D82B08D006492B46039A44
S214000BF020880CF0FBFD0028AFD0AFE70021F5E71A
S214000C002620ABE73024002038B505460C46A268FF
S214000C1021688A4219D9521AE368994217D25B1A98
S214000C209A4216D00D4920460CF0F7FD0D2800D04C
S214000C3098B90028EBD12B689B6908492846984745
S214000C4058B906480DF0CFF9E1E70022E4E70023A3
S214000C50E6E72B689B682846984738BDF41F0020B7
S214000C60012800D0704708B54FF6FF73994200D0B0
S214000C7008BD4FF40172084908480DF0CAF94FF450
S214000C800272074907480DF0C4F9074B0022C3F863
S214000C900021C3F80421EBE72C220020F41F0020DB
S214000CA024200020C41F0020BC1E002008B54B8A4C
S214000CB0B3F5817F15D007D840F20112934213D1C5
S214000CC0CB6AC360002008BDA3F2031292B2012AC9
S214000CD00AD80A7D194605480DF0B7F90028F1D064
S214000CE0F1E7CB6A0361EDE7A620ECE7BC1E002027
S214000CF010B50A46498AB1F5A27F07D00CD840F253
S214000D000513994213D0B1F5A17F18D18068036806
S214000D101B692C32984710BD40F2A11399420ED1A0
S214000D2080680368DC6A9369D26AA047F3E7127D9D
S214000D3004480DF08AF90028EDD10020EBE7A62044
S214000D40E9E700BFBC1E002070B50C4691F82630BF
S214000D5053B1856894F827304BB9237D032B42D8CE
S214000D60DFE803F0340D1A278568A835F2E7227D00
S214000D70618A1E480DF069F90028EED00BE02B685A
S214000D809B68618A94F8242012B904F12C0200E0D2
S214000D9000222846984770BD2B681B69618A94F824
S214000DA0242012B904F12C0200E0002228469847BD
S214000DB0F1E72B689B69618A94F8242012B904F144
S214000DC02C0200E0002228469847E4E72B68DE6AFB
S214000DD0618A94F824300BB9E26A00E00022A36925
S214000DE02846B047D7E72620D5E700BFBC1E002020
S214000DF008B50A7D498A02480DF027F908BD00BFEC
S214000E00BC1E002030B587B005460C464B68096806
S214000E10994201D25B1A00E00023A268914201D2F7
S214000E20521A00E00022981A9A4243D03B4B9A6826
S214000E301968914214D2521A384BDB68994211D283
S214000E405B1AD11A9A4235D00290039188420BD889
S214000E5002AB1A68314920460CF0EDF950B35AE05F
S214000E600022E9E70023ECE703ABF2E7002052E0BC
S214000E700346A268914201D2521A00E002469B1A2B
S214000E800493264A91681268914200D9881A234929
S214000E90C9688A4201D2A1EB020CA0EB0C000590B7
S214000EA098422ED304AB1A681C4920460CF0C3F9AE
S214000EB0002830D1626821688A4224D9521AA36871
S214000EC0994222D25B1A9A4221D0154BD3F80431AC
S214000ED0EBB1124B1A68DA609A6001A910480DF05F
S214000EE0E3F8D828C2D02B68DB690C4A01A928464B
S214000EF09847844678B9636821688B42B8D95B1AEC
S214000F00B7E705ABCFE70022D9E70023DBE72B687E
S214000F10DB682846984707B030BD00BFC41F0020D6
S214000F20BC1E002038B504460A4B0360012303713B
S214000F308160094B03600025C560056107480DF018
S214000F4052F8074B1A68DA609A60064BC3F80451E9
S214000F50204638BD584D0100804D0100F41F00208A
S214000F60C41F0020BC1E00202DE9F0419AB0144694
S214000F7000238DF867308DF866308DF865304B6845
S214000F80052B42D8192700252368159303F108027C
S214000F9016921793189300230D930E930F931093A6
S214000FA01193129313931493022115A80CF08DF845
S214000FB09DF8661041F0800115A80CF086F89DF8A3
S214000FC0651015A80CF081F8394615A80CF0B8F88D
S214000FD0294615A80CF079F805F10A0362689342D1
S214000FE000F2A180636008350DAA2946206800F04B
S214000FF0DBFF2368BDF834205A539DF8660002389C
S21400100018BF01201AB0BDE8F08106460D460A68F2
S214001010023B009213440193029303920DF1670181
S21400102068460CF08EF9074608B10025ACE70DF1CE
S214001030660168460CF085F907460028F5D10DF1E3
S214001040650168460CF07DF9074680460028ECD11D
S2140010506B68802B14D863687F2B13D9236803F141
S214001060080204927E330593069207929DF8663036
S214001070013B042B55D8DFE803F0071530421E006D
S214001080C227D2E71927D0E7716808A8FFF74AFFFA
S21400109004AA694608A80DF020F80746234B0893D3
S2140010A0234B0893069A049B9A4201D9A2EB0308A5
S2140010B05FFA88F568E773681D4D089501228DF87C
S2140010C024200A931B4E089604AA694608A80DF029
S2140010D004F8074608960895E4E77368144D0895E3
S2140010E003228DF824200A93134E089604AA694614
S2140010F008A80CF0F2FF074608960895D2E7736832
S2140011000B4D089504228DF824200A930B4E089662
S21400111004AA694608A80CF0E0FF0746089608955A
S214001120C0E72A27BEE712F0E9FC00BF804D0100A9
S214001130584D0100A84D0100D04D0100F84D0100AA
S2140011400C4A026002F19801416002F1E001816000
S21400115002F58672C260084AC0F8A820074AC0F89E
S214001160A8200749C16007498160074941600260BD
S214001170704700BFF44E0100345001004C4C010093
S214001180F84C0100CC4C0100844C0100A0F1040096
S214001190D6E7A0F10800D3E7A0F10C00D0E700BF27
S2140011A008B540F26313994208D040F2971399426B
S2140011B01CD0B1F5B17F12D0A62014E02AB1116878
S2140011C0B1F57A7F03D22F200DE02F200BE00B4BDA
S2140011D0994201D92F2006E000F0B6FD03E01AB1CF
S2140011E013680362002008BD0023FAE71AB11368EB
S2140011F043620020F7E70023FAE700BFA08601005D
S214001200F0B587B00F4616461D4600240394049496
S214001210CDF813400294019402AB0B2203A900F010
S21400122043FD044618B9029B0A2B08D02F241CB194
S21400123040F201239C4229D1204607B0F0BD0A2285
S21400124001A903A809F048FE3880019A04AB9A4227
S21400125001D02F24EBE70A2201A90DF1110009F0B5
S2140012603BFE3070019A0DF113039A4201D02F24F1
S214001270DDE70A2201A905A809F02EFE2870019ACA
S2140012800DF116039A42D2D02F24D0E701200DF09C
S21400129027FC0028D0D003AB024A01211F200DF006
S2140012A011FCC9E7184E010030B587B00C46002384
S2140012B0059305AB4A68096800F006FD40F2012375
S2140012C0984208D028B9059B626893421BD8636091
S2140012D0002007B030BD0D4B0DF1040C0FCB8CE891
S2140012E00F0063680F2B01D81920F2E725680DF16F
S2140012F0040CBCE80F0028606960AA60EB6010234D
S21400130005930020DEE712F0F9FB00BF1C50010039
S21400131070B596B004460E4600250A952A22294640
S2140013200BA812F0AEFC099509AB2E220AA920469E
S21400133000F02CFD40F20123984202D068B116B0AE
S21400134070BD182309930AAC144D0FCD0FC495E851
S214001350030084E803000020F0E7002301930293D3
S21400136003930493059306930793089301AA099998
S2140013700AA800F02FFE04467368984201D9192087
S214001380DDE7024601A9306812F0B0FC73689C42A3
S21400139002D874600020D2E712F0B0FB384E01008D
S2140013A04B68602B01D819207047F0B5A5B00546EC
S2140013B00C461646002702978222394603A812F0EA
S2140013C060FC019701AB862202A9284600F0EEFCDD
S2140013D040F20123984202D048B125B0F0BD8422E5
S2140013E001920A4902A812F081FC3846F4E7226806
S2140013F0019902A800F0EEFD30606368984202D8BA
S21400140060600020E9E712F079FB00BF544E01004F
S21400141010B504460E4B036003F19802426003F1D8
S214001420E002826003F58673C3600A4BC0F8A830FA
S214001430094BC0F8A830094AC260094A8260094AC6
S21400144042600360AC2112F055FB204610BD00BF81
S214001450F44E0100345001004C4C0100F84C0100E1
S214001460CC4C0100844C0100A0F10400D0E7A0F1B0
S2140014700800CDE7A0F10C00CAE700BF60B5A3B036
S214001480064610461D46A1F21111912900F2E2818E
S214001490DFE811F09200E001E001E001E001E00188
S2140014A0E001E001E001E001E001E001E001E0012F
S2140014B0E001E001E001E001E001E001E001E0011F
S2140014C0E001E001E001E001E001E001E001E0010F
S2140014D0E001E001E001E001E001E001E001E001FF
S2140014E0E001E001E001E001E001E001E001E001EF
S2140014F0E001E0019800E001A600E001B400C200AF
S214001500D000DE00E001E001E001E001E001E001E2
S214001510E001E001E001EC0009011701E001E00153
S214001520E001E001E001E001E001E001E001E001AE
S214001530E001E001E001E001E0014701510157014F
S214001540E001E001E001E001E001E001E001E0018E
S214001550E001E001E001E001E001E001E001E0017E
S214001560E001E001E001E001E001E001E001E0016E
S214001570E001E00176018A01E001E001E001E0011E
S214001580E001E001E001E001E001E001E001E0014E
S214001590E001E001E001E0019601E001A201AE01F8
S2140015A0E001E001E001E001E001E001E001E0012E
S2140015B0E001E001BA01D8012A460146304600F0B3
S2140015C0BDFC48E102B12DB900229B49304600F02F
S2140015D069FA40E12A460146304600F063FA3AE1ED
S2140015E002B12DB900229449304600F08BFA32E160
S2140015F02A460146304600F085FA2CE102B12DB9A4
S21400160000228D49304600F0ADFA24E12A46014614
S214001610304600F0A7FA1EE102B12DB90022864935
S214001620304600F0B5FA16E12A460146304600F08C
S214001630AFFA10E102B12DB900227F49304600F022
S214001640BDFA08E12A460146304600F0B7FA02E144
S21400165002B12DB900227849304600F0C5FAFAE00A
S2140016602A460146304600F0BFFAF4E002B1A5B9BA
S214001670002309930A930B930C930D930E930F93E9
S2140016801093B38A6D4A202109A809F0CFFA0246C2
S21400169009A9304600F0D6FADDE02A460146304673
S2140016A000F0D0FAD7E002B12DB90A2264493046DC
S2140016B000F0F2FACFE02A460146304600F0ECFA97
S2140016C0C9E002B1EDB9102105A80DF083F8022398
S2140016D00093212309AA102105A80DF0A9F90028D6
S2140016E040F0B98009A812F00FFB12902023139344
S2140016F0984214D812AB1A6809A9304600F0DCFAF2
S214001700A9E0102D01D92F20A5E002230093212364
S21400171009AA29460DF08CF90028E3D09BE013AB0C
S214001720E9E702B10DB92F2095E02A46014630467A
S21400173000F024FB8FE02A460146304600F02EFBE0
S21400174089E002B1B5B9002309930A93CDF82B308E
S214001750F38A326A02920193F3690093B369728A3C
S214001760318A09A80CF039FF0B2209A9304600F08F
S214001770F5FB70E02A460146304600F0EFFB6AE0D3
S21400178002B155B900238DF8243009AA1492159396
S21400179014A930460CF0FDFF5DE01692179516A9C9
S2140017A030460CF0F6FF56E01892199522B118A9AB
S2140017B0304600F003FB4EE0002DF8D012F09EF904
S2140017C01A921B9522B11AA9304600F017FB42E088
S2140017D0002DF8D012F092F91C921D9522B11CA98A
S2140017E0304600F02BFB36E0002DF8D012F086F9DC
S2140017F01E921F9522B11EA9304600F03FFB2AE03C
S214001800002DF8D012F07AF91AB17F2D08D92F20C2
S21400181021E08022002106F1280012F032FA09E0C9
S2140018202A46014606F1280012F060FA35440023E5
S21400183085F8283000200EE0F4550100DC4E01004B
S214001840E04E010032B12092219520A9304600F0EA
S21400185095FB00E0A62023B060BD00BF012901D0A3
S214001860A620704722B11278024B1A7000207047EB
S2140018700022F9E7895E0020012901D0A6207047E2
S214001880024B1B7813700020704700BF895E002053
S214001890024A0260024A0260704700BF34500100EC
S2140018A04C4C010010B584B00193022902D0A6204A
S2140018B004B010BD144620220021094812F0E1F9B8
S2140018C054B120230393019B202B07D801AB1A6841
S2140018D02146034812F00AFA0020E9E703ABF6E7D0
S2140018E03026002000B585B001930AB110461BB91A
S2140018F02F2005B05DF804FB022901D0A620F8E7EA
S21400190020220392934208D801AB1A68069B1A60FD
S214001910034912F0EBF90020EBE703ABF5E700BF55
S2140019203026002010B50446044B0360044B0360C9
S214001930042112F0DFF8204610BD00BF345001002D
S2140019404C4C010010B50A4B00201860094C22B917
S2140019502146094800F0FEFC10BD13460B44A3F5D3
S214001960006401F093FE204608F0ACFEF0E700BFEE
S21400197050260020000008002172080008B5024822
S21400198000F020FC08BD00BF2172080070B584B0CE
S2140019900D4616461C460023039303A9FFF7EEFFE9
S2140019A008B104B070BD254B1B6823B903980CF032
S2140019B06AFE0028F5D162682168214812F096F97F
S2140019C06368B3F5007F25D302200DF089F848BB85
S2140019D01A4B18684FF400721949039B18440CF010
S2140019E057FE0028DDD1154B1968284600F0B2FCDA
S2140019F00028D6D16168304600F0ACFC0028D0D173
S214001A0060680E4C2368402118440CF034FE2060B9
S214001A100020C6E7C3F50072FF210948184412F0FB
S214001A2030F9D1E763680193044B1B680093039B6E
S214001A30044A02211F200DF045F8C9E75026002071
S214001A403024002064500100F0B589B00E461546DB
S214001A501F460024079407A9FFF790FF70B9079860
S214001A6028440590069758B102200DF039F858B969
S214001A700E9A05AB93E803000BF0CBFA09B0F0BD65
S214001A80002FF1D012F03AF802970195079B0093C9
S214001A903346034A02211F200DF014F8E8E700BF82
S214001AA08C50010008B5024800F06CFC08BD00BF71
S214001AB00072080000B583B00023019301AB034811
S214001AC000F0A8FB03B05DF804FB00BF007208003E
S214001AD008B5024800F024FC08BD00BF0C720800E0
S214001AE010B50C46064800F041FB40F20123984230
S214001AF000D010BD4FF6F17323800020F9E700BF39
S214001B000C72080008B5024800F03CFC08BD00BF97
S214001B100D72080000B583B00023019301AB0348A3
S214001B2000F078FB03B05DF804FB00BF0D72080000
S214001B3008B5024800F0F4FB08BD00BF0B720800B1
S214001B4010B50C46064800F011FB40F201239842FF
S214001B5000D010BD48F2010323800020F9E700BF43
S214001B600B72080008B5024800F00CFC08BD00BF68
S214001B700E72080000B583B00023019301AB034842
S214001B8000F048FB03B05DF804FB00BF0E720800CF
S214001B9008B5024800F0F6FB08BD00BF107208004A
S214001BA000B583B00023019301AB034800F032FB7D
S214001BB003B05DF804FB00BF1072080008B50248C9
S214001BC000F0E0FB08BD00BF1172080000B583B04E
S214001BD00023019301AB034800F01CFB03B05DF843
S214001BE004FB00BF1172080008B5024800F0CAFBEB
S214001BF008BD00BF1272080000B583B00023019331
S214001C0001AB034800F006FB03B05DF804FB00BF21
S214001C101272080008B5024800F082FB08BD00BF3B
S214001C200873080010B50C46054800F09FFA40F20D
S214001C300123984200D010BD00202080FBE700BFA3
S214001C400873080008B5024800F09CFB08BD00BFFA
S214001C500F72080030B583B00C461546002301937A
S214001C6001AB0B4800F0D6FA40F20123984201D0AF
S214001C7003B030BD1CB10C2D03D81920F8E70B209B
S214001C80F6E7044A294620460CF007FD0020EFE759
S214001C900F720800AC50010008B5024800F072FB55
S214001CA008BD00BF0472080008B5024800F0B2FA8A
S214001CB008BD00BF0472080008B5024800F07EFBAD
S214001CC008BD00BF1F72080008B5024800F0F4FA0D
S214001CD008BD00BF1F72080008B5024800F020FBD0
S214001CE008BD00BF0772080010B582B00C46134846
S214001CF000F03CFA40F20123984207D020B923882E
S214001D00B3F5805F07D2002002B010BD4FF47063B9
S214001D1023800020F2E701200CF0E2FE08B92F2015
S214001D20F2E72F23019340F26D130093044B054A0C
S214001D30012100200CF0C6FEF1E700BF0772080084
S214001D40BC500100DC50010008B5024800F002FB60
S214001D5008BD00BF0872080010B50C46064800F023
S214001D6031FA40F20123984200D010BD4FF47A7346
S214001D7023600020F9E700BF0872080008B5024893
S214001D8000F000FB08BD00BF0972080008B5024855
S214001D9000F040FA08BD00BF0972080008B5024806
S214001DA000F0F0FA08BD00BF0A72080008B5024845
S214001DB000F030FA08BD00BF0A72080008B50B46EE
S214001DC0034A0449FFF7E2FD00B9002008BD00BF42
S214001DD0277208002672080000B583B00091044BF5
S214001DE0044A05490CF068FC03B05DF804FB00BF2C
S214001DF02772080026720800F050010008B50B464E
S214001E00034A0449FFF7C2FD00B9002008BD00BF21
S214001E10257208002472080000B583B00091044BB8
S214001E20044A05490CF048FC03B05DF804FB00BF0B
S214001E3025720800247208000C51010008B50B46F4
S214001E40034A0449FFF7A2FD00B9002008BD00BF01
S214001E50237208002272080000B583B00091044B7C
S214001E60044A05490CF028FC03B05DF804FB00BFEB
S214001E7023720800227208003451010000B583B0B6
S214001E8000230193022301934A68096801A8FEF71C
S214001E90D7FA10B103B05DF804FB0199014800F0D1
S214001EA059FAF7E72072080000B585B000200390C5
S214001EB0022003900698009003A8FEF7D9FA10B106
S214001EC005B05DF804FB0399014800F043FAF7E714
S214001ED02072080070B586B00E461546D82400233A
S214001EE00593144800F02EF980B105A9114800F0BA
S214001EF069F980B9059B0022049203B90223049372
S214001F002A46314604A8FEF71DFB044602200CF0C4
S214001F10E7FD10B9204606B070BD73686A68029483
S214001F2001920093059B044A02211F200CF0CAFD73
S214001F30F0E700BF207208005051010008B50248C3
S214001F4000F020FA08BD00BF2972080008B5024854
S214001F5000F060F908BD00BF2972080008B5024805
S214001F6000F02CFA08BD00BF0572080008B502484C
S214001F7000F0A2F908BD00BF0572080000B583B0E6
S214001F8000230193032301934A68096801A800F01F
S214001F9059F810B103B05DF804FB0199014800F050
S214001FA0D9F9F7E73072080000B585B0134600226D
S214001FB0039203AA0192202200920A460146044890
S214001FC010F0FCFC00B1AC2005B05DF804FB00BFCF
S214001FD00900000208B5024B0CF08AFC08BD00BFE1
S214001FE0F5E70000282800D90020024B03EB80000C
S214001FF0704700BF9C510100F8B50C4616461D46BA
S214002000FFF7F0FFBFF35B8F084B1B68BFF35B8FD8
S2140020102BB11F462B4632462146B847F8BD2B4605
S214002020324621460CF065FDF8E700BF5426002036
S214002030BFF35B8F024B1878BFF35B8F704700BF10
S2140020400410002070B58CB004460D461646006895
S2140020500CF069FD2422002103A811F012FE23686B
S2140020600593012304934FF4105103A80CF051FD7F
S2140020708023ADF80E300D4B07934FF40073019399
S21400208001A80CF037FD019B069302AB32462946A9
S21400209003A810F028FC10B900200CB070BD014653
S2140020A0034808F023FFAC20F7E700BF0010C00489
S2140020B04052010000B583B00F4B1B684BB10E4B6E
S2140020C01868B0B14FF0FF310DF043FC03B05DF877
S2140020D004FB03230093094B0022114601200DF058
S2140020E071FA054B186000231A4619460DF097FA48
S2140020F0E5E711F003FD00BFA826002058260020C3
S21400210008B5054B186828B100231A4619460DF085
S21400211086FA08BD11F0F2FCA826002050B1084A45
S214002120904209D0C0B200F5300020F07F4040F069
S214002130A06070470020704740F20120704700BF43
S2140021400BE000F000B583B001466B4601AA0648D6
S21400215000680AF075FDFFF7E1FFB0FA80F040096D
S21400216003B05DF804FB00BF5810002030B585B002
S21400217004460D460023ADF806300CF0E7FC18B90F
S21400218040F2012005B030BD02AB03AA21460C4840
S21400219000680AF055FDFFF7C1FF0028F2D1029B48
S2140021A00DF106022146064800680AF0A7FCFFF774
S2140021B0B5FF0028E6D1BDF806302B80E2E700BF69
S2140021C05810002030B585B004460D460023019314
S2140021D00CF0BCFC18B940F2012005B030BD02ABD3
S2140021E003AA21460A4800680AF02AFDFFF796FF70
S2140021F00028F2D1029B01AA2146054800680AF091
S2140022007DFCFFF78BFF0028E7D1019B2B60E4E7FE
S21400221058100020F0B585B005460E4617461C46F9
S214002220002323600CF092FC18B940F2012005B0A0
S214002230F0BD02AB03AA29461E4800680AF000FD5E
S214002240FFF76CFF0028F2D1029B23B1DEB1BB4240
S21400225003D31920EBE71E20E9E732462946154846
S21400226000680AF04BFCFFF759FF0028DFD1029BFD
S214002270012B03D023600022F254D8E731780029DE
S214002280F8D10346F6E7012B01D92360CFE70123F7
S2140022900DF107022946074800680AF02FFCFFF7F1
S2140022A03DFF03460028C2D19DF8072002B1029BDD
S2140022B02360BCE758100020F0B583B005460E46F4
S2140022C017461C46002323600CF040FC18B940F269
S2140022D0012003B0F0BD6B4601AA29460F480068EE
S2140022E00AF0AEFCFFF71AFF0028F2D1009B2BB1D4
S2140022F0002EEED0BB4203D91920EAE71E20E8E7FD
S21400230032462946054800680AF0F8FBFFF706FF44
S2140023100028DED1009B2360DBE700BF58100020BA
S21400232010B582B00446ADF806100CF00FFC18B9D4
S21400233040F2012002B010BD02230DF10602214634
S214002340034800680AF090FBFFF7E8FEF2E700BFDC
S2140023505810002010B582B0044601910CF0F6FB30
S21400236018B940F2012002B010BD04230DEB0302A1
S2140023702146034800680AF077FBFFF7CFFEF2E736
S21400238058100020F8B507460D4614460CF0DEFB44
S21400239078B12F265DB1084B186804B9012423468E
S2140023A02A4639460AF060FBFFF7B8FE0646304676
S2140023B0F8BD40F20126FAE758100020F8B50746A7
S2140023C00C4616460CF0C2FB68B12F2574B1334696
S2140023D022463946074800680AF046FBFFF79EFE8D
S2140023E005462846F8BD40F20125FAE7002EF8D14A
S2140023F0EDE700BF581000200346064A1068034465
S214002400054A934202D8034A136070474FF0FF30E4
S214002410704700BF081000200000012008B500F03B
S21400242075F8124A0AE01068516850F8230041F81F
S2140024302300013391688B42F5D30C320C4B9A4241
S21400244001D20023F6E70B4A08E01168002041F8A5
S2140024502300013351688B42F7D30832064B9A4269
S21400246001D20023F6E7FDF73DFF00BFCC62010076
S214002470D8620100D8620100D862010000487047A7
S21400248000F04902114BD3F8943003F00703023BE7
S214002490032B0DD8DFE803F0050F02080C4B186875
S2140024A00BE00C4B186808E00B4B1868400804E07B
S2140024B0094B186801E04FF40040044BD3F8003194
S2140024C0C3F304230133B0FBF3F0704700400E4023
S2140024D014100020181000200C10002008B5FFF77C
S2140024E0D1FF054BD3F80831C3F308230133B0FB03
S2140024F0F3F0024B186008BD00400E40101000209C
S214002500014B1868704700BF18100020044B054A9E
S2140025109A60D3F8882042F47002C3F88820704787
S21400252000ED00E000000000014B1868704700BF97
S21400253014100020B0F1FF3F01D010B970470248D8
S21400254070470248704700BF21E000F024E000F02A
S214002550F8B505460E46940022460CF0DEFBFFF763
S214002560E9FF074628B922463146284611F05FFBA8
S21400257008B93846F8BD014FFBE700BF10E000F091
S21400258038B5044601F03CF9FFF7D4FF054608B11C
S214002590284638BD01F010FA014620460CF007FB2D
S2140025A00028F5D1004DF3E70EE000F0074BDB6B9B
S2140025B013F0400F04D1064BD3F8C830002BFAD1E5
S2140025C0024B5868C0F30140704700BF00300E4011
S2140025D00000C6430C4B984205D90C4B984210D8C5
S2140025E001210A4601E000210A46094B1A64094AFD
S2140025F0D2F8003123F0807343EA0163C2F8003159
S214002600704702210122F0E70048E8010090D0035D
S2140026100000C84300400E40014B1868704700BFDA
S2140026201C100020114B5B68002300E00133042BD4
S2140026300CD80F4A02EBC30292F804C0CAB2944503
S214002640F4D10B4A52F833208242EFD3052B0BD03D
S214002650074A02EBC3035979044A536823F04073D0
S21400266043EA0163536070470321F5E700000E401C
S214002670D852010008B5FFF705FF044BD3F8003128
S214002680C3F3042303FB000008BD00BF00400E4058
S21400269010B5084B1C6CA4B241F671321A64FFF7F1
S2140026A0EDFE0021FFF7BEFF14B1024B00221A64B4
S2140026B010BD00BF00000E4010B5064B1C6CA4B247
S2140026C041F671321A64FFF7ADFF14B1014B0022D8
S2140026D01A6410BD00000E4010B4C0F30323013B83
S2140026E0092B21D8DFE803F0050820203023262018
S2140026F0292D0024164A01E00024164AC0F30430AF
S21400270054B1134BD3F8443113F0010F04D1104BDE
S214002710D3F840311C42FAD102F1424303F580134C
S21400272000EBC300800001605DF8044B7047012495
S214002730094AE3E71024094AE0E74FF48034084AE0
S214002740DCE70024074AD9E70024074AD6E700BF9B
S21400275000400E40C0400E40E0400E40E8400E40B4
S214002760F0400E4050410E40B0400E40C0F3031300
S214002770013B092B6BD8DFE803F0050B111B6A6AD7
S2140027802127415F334BD3F80001C0F30420704784
S214002790304BD3F81401C0F3042070472D4BD3F808
S2140027A00031C3F3006301330120984001387047BD
S2140027B0284BD3F80C01C0F308207047254BD3F8FC
S2140027C00801C0F308207047234B984204D0234BDF
S2140027D098420AD0002070471E4BD3F8203103F0F1
S2140027E00F0301209840013870471A4BD3F8203168
S2140027F0C3F301130120984001387047184B9842E4
S21400280007D003F5B01303F5805398420AD0002092
S2140028107047104BD3F82831C3F3011301209840BA
S214002820013870470B4BD3F82831C3F30123043328
S21400283001209840013870470A4B984201D000208A
S2140028407047044BD3F8300100F0030070470020B7
S214002850704700BF00400E408006160080162E000F
S21400286090171A00A009140000F00F00013807287E
S21400287065D8DFE800F0041B2A643E4D64553B4BE8
S214002880D3F8943003F00703023B052B0CD8DFE89F
S21400289003F0055803070B09022070470420704711
S2140028A00B2070470C207047052070472F4BD3F83D
S2140028B0803003F00703022B45D0042B45D0012BB4
S2140028C001D00120704703207047284BD3F884308E
S2140028D003F00703013B032B09D8DFE803F00238B7
S2140028E00604032070470A20704706207047012020
S2140028F070471E4BD3F8883003F00703022B28D00E
S214002900042B28D0012B01D00120704703207047EC
S214002910164B1B6F13F001031FD003B3092070473B
S214002920124BD3F85C3103F03003202B19D0302B38
S21400293019D0102B01D001207047072070470020C7
S214002940704703207047022070470A207047022015
S2140029507047022070470A20704707207047012002
S2140029607047042070470820704700BF00400E40A4
S21400297010B50446FFF778FF1B4B9C4212D01B4B4A
S2140029809C4215D01A4B9C4206D00138032828D802
S214002990DFE800F014171D1A164BD3F8800000F07D
S2140029A00700F2E7134BD3F8840000F00700ECE7CB
S2140029B0104BD3F8880000F00700E6E70CF0F1F8BB
S2140029C010BDFFF7B1FDFBE70CF0EEF8F8E7FFF7F8
S2140029D059FD084BD3F80031C3F300630133D840E8
S2140029E0EEE70020ECE700BF03002000050024000F
S2140029F002001E0000400E4008B50748FFF734FFEF
S214002A00072804D0092805D1FFF73CFD03E0FFF7AF
S214002A1003FE00E0002008BD06000E0008B10020FE
S214002A20704710B504460A48FFF71EFF072805D072
S214002A30082809D0042804D0204610BDFFF7ECFD76
S214002A40FBE7FFF75DFDF8E7FFF714FEF5E700BFCD
S214002A50B800320038B500F47813B3F5B01F00F0B4
S214002A60938005463BD8B3F5402F00F0828010D9FE
S214002A70B3F5801F00F0AA80B3F5A01F27D15748F2
S214002A80FFF776FF564BD3F8303103F00303D840F8
S214002A901CE0B3F5802F61D005D9B3F5202F14D1F3
S214002AA0FFF7F0FC12E0002B55D0B3F5003F0AD13B
S214002AB0FFF7E8FC4A4BD3F80831C3F30823013389
S214002AC0B0FBF3F002E0002000E0002038BDB3F5D4
S214002AD0602F02D1FFF790FFF8E70020F6E7B3F586
S214002AE0381F5BD00ED9B3F5481F72D0B3F5781FE8
S214002AF021D1FFF7C7FC044628460CF0A1F8B4FB2A
S214002B00F0F0E3E7B3F5001F52D006D9B3F5101F77
S214002B100FD13248FFF72CFFD8E7B3F5D01F4BD0C4
S214002B20B3F5F01F03D12F48FFF722FFCEE70020B2
S214002B30CCE70020CAE7B3F5401F0AD12A48FFF7C2
S214002B4017FF274BD3F82831C3F301230433D840AB
S214002B50BCE70020BAE7FFF795FCB7E7FFF792FC63
S214002B601F4BD3F80C31C3F308230133B0FBF3F04B
S214002B70ACE7FFF787FC1A4BD3F81431C3F30423F2
S214002B800133B0FBF3F0A1E71648FFF7F1FE144B54
S214002B90D3F8203103F00F03D84097E71148FFF72A
S214002BA0E7FE0F4BD3F82031C3F30113D8408DE76F
S214002BB00D48FFF7DDFE89E70B48FFF7D9FE084B07
S214002BC0D3F82831C3F30113D8407FE7FFF724FD7D
S214002BD07CE70020FFF722FF78E700BF050024000F
S214002BE000400E4002001E0003002000014B186843
S214002BF0704700BF0C10002004281ED8DFE800F045
S214002C00180312080D000E4B186AC0F30800704730
S214002C100B4B186900F07F007047094B986900F06D
S214002C207F007047064BD3F89C00C0F30A0070473D
S214002C30034B986B00F07F0070470020704700BF82
S214002C4000400E4038B50C46042813D8DFE800F0E4
S214002C5043032F132100C1F30804274BD3F8683829
S214002C60002BFAD1254A136A23F4FF7323F00103DD
S214002C702343136238BD01F07F041F4BD3F860383E
S214002C80002BFAD11D4A136923F07F0323431361F7
S214002C90F0E701F07F04184BD3F86438002BFAD124
S214002CA0164A936923F07F0323439361E2E7134DAB
S214002CB0D5F890306B6A23F0300343F010036B6254
S214002CC0C1F3C3100BF0B6FF2A6B0D4B1340234322
S214002CD003432B63CEE74F2928BF4F24064BD3F878
S214002CE07438002BFAD1054A936B23F07F03E4B2C5
S214002CF01C439463BEE700BF0020C84300400E405C
S214002D0000F8FF0F134B5B6A13F0300F09D0202931
S214002D1014D0302915D009B10F4A04E04FF4400210
S214002D2001E04FF440020B4BD3F8903032EA030335
S214002D30F9D112F4800F07D1012070474FF400023A
S214002D40F1E74FF44002EEE7024BD3F8A000C0F3E1
S214002D508020704700400E40FF33E107022801D074
S214002D600120704710B529B1054B4FF48064C3F8B5
S214002D70A84059660AB9012010BDFFF7C3FFFBE75C
S214002D8000400E4070B5042800F28580DFE800F0B1
S214002D90484250033C00022301250024AC4600298B
S214002DA067D002284AD000213B4B1D663B4B23448C
S214002DB09B001B68002BF9D0002A6CD0374C64446B
S214002DC0A4002368002BF9D0022864D1002962D021
S214002DD0314B5B6A13F0010F46D001222021FFF72A
S214002DE0BDFF0220FFF708FF064601220021022051
S214002DF0FFF7C8FF31460220FFF724FF264B1D666B
S214002E002368002BFCD046E02023102504244FF036
S214002E10050CC4E78023402506244FF0070CBEE7C8
S214002E204FF400734FF4807508244FF0090CB6E792
S214002E300823042502244FF0030CB0E7164B5B6A08
S214002E4013F0300F0ED1164BDB6B134B5B6A13F08F
S214002E50010FA9D0104E736A23F0300343F010031D
S214002E607362A1E700219FE700210220FFF74AFFD7
S214002E70B7E709490B66084BD3F890100123A34027
S214002E801942F8D13AB1044BD3F89020012303FA43
S214002E900CF31A42F7D170BD00400E408004F210C9
S214002EA000300E4038B5FFF7A1FE1B4B984205D9FF
S214002EB0044620B1002100F0A5F900E000241748E0
S214002EC0FFF788FB012211460320FFF75BFFFFF7A1
S214002ED0DFFB4CB1124BDB6B13F0400F04D1114BF0
S214002EE0D3F8C830002BFAD10F4B01225A67FFF7F0
S214002EF0C9FAFFF76FFBFFF7F1FA0546FFF756FB37
S214002F0001462846FFF7D8FB04B138BD0121002052
S214002F1000F078F9F9E700BF002D31010148E8011B
S214002F2000300E400000C64300400E40074BDB6BEF
S214002F3013F0400F04D1064BD3F8C830002BFAD15B
S214002F40024B5868C0F30140704700BF00300E4087
S214002F500000C6431A48C26CC2F30322194B1B88F2
S214002F6003F1280103EB51032833013202EB8201FF
S214002F70B3FBF1F3013B072B28BF0723C16C21F0FD
S214002F80EE6141EA036343F48013C3640E4BB3F966
S214002F900030002B13DB9BB203F1280103EB510337
S214002FA02833510801EB4202B3FBF2F3072B28BF8C
S214002FB00723026D22F0700242EA0313036570478E
S214002FC000300E40845E0020805E0020024B188099
S214002FD0024B1980704700BF845E0020805E002090
S214002FE010B1012804D07047034B044A9A65704715
S214002FF0014B034A9A65704700300E4077402057D1
S214003000372110B71A4BD3F83032032929D8DFE816
S21400301001F002121518DBB24AB91B0333F47041F3
S21400302021D11448C16E21F470411943C166012AAA
S21400303009D001207047C3F30723EDE7C3F3074326
S214003040EAE71B0EE8E71B0333F470420DD109498B
S214003050D1F8EC2022F470421343C1F8EC30012082
S214003060704700207047002070470020704700BF60
S2140030700081E00F00300E401B02A2B10122134374
S214003080B3F5007F4DD022D8B3F5807F42D00CD95F
S21400309040F20112934215D1294BD3F824321A0E6E
S2140030A0C3F3074310E00022E9E763B3012B06D120
S2140030B0234BD3F82432C3F30722DBB204E000220A
S2140030C0134601E00022134603600A607047B3F51A
S2140030D0407F2DD040F20132934206D1184BD3F8F0
S2140030E028321A0EC3F30743EEE740F2012293425A
S2140030F006D1134BD3F82832C3F30722DBB2E3E73B
S21400310000221346E0E70E4BD3F81C32C3F3072227
S214003110DBB2D9E70A4BD3F81C321A0EC3F30743C7
S214003120D2E7074BD3F82032C3F30722DBB2CBE754
S214003130034BD3F820321A0EC3F30743C4E700BF8D
S2140031400081E00F134B9A6922F03F020378D3B157
S21400315004234178C9B102210B438178B9B1082113
S2140031600B43C178012900D000210B4301790B43A2
S2140031701343084A9361136823F44033417943EAC2
S2140031800143136070470023E3E70021E4E70021D2
S214003190E6E700BF00300E40174BDB6B13F0400F26
S2140031A029D170B504460D46FFF7C0FEA04218D0E0
S2140031B0124BD3F80031FFF765F90646022C11D002
S2140031C0C4F10202102393400B4A136145B1D36B3E
S2140031D013F0400F04D10A4BD3F8C830002BFAD1B5
S2140031E024B170BD0221FFF767FAE9E700213046F7
S2140031F0FFF762FAF5E7704700300E4000400E40D9
S2140032000000C64338B5114BDB6B13F0400F0BD1F3
S2140032100C4650B10E4B1B7813B10E4B98420FD98B
S21400322021460020FFF7B8FF38BD0B4BD3F80051FE
S214003230C5F304250135FFF725F905FB00F0E9E79E
S21400324021460220FFF7A8FFEEE700BF00300E4041
S2140032505C270020002D310100400E4010B42C4B9E
S2140032605A6B4AF6E8515963294B9B6F13F0010FCE
S214003270FAD1274B1B6C13F0030303D02549012416
S214003280C1F8B44AD9B2814221D0032B00D01BB971
S214003290431EDBB2012B21D91D4B9B6F13F0010F90
S2140032A0FAD11B490B6C23F0030303430B64184B42
S2140032B09B6F13F0010FFAD1003818BF0120154B91
S2140032C0C3F8B40A012A1FD05DF8044B70470028E3
S2140032D0FAD1104B0022C3F8B42AF5E70C4B4FF492
S2140032E00021D9620A4B9B6F13F0010FFAD10849EF
S2140032F00B6C23F0030343F001030B64044B5B6A7F
S21400330013F4002FFAD0C7E7014B00225A63DBE71D
S21400331000300E400000C6432DE9F04F8DB00091FE
S2140033200192002309930A930B930693079308933D
S214003330039304930593654A1288ADF808208DF828
S2140033400A30A0F5E163B3F5966F00F2AE8006464C
S214003350B0F5E16F8CBF4FF001094FF000096DD951
S2140033604FF4966A4FF4E164B6F5E16F6BD9584BAB
S214003370D3F8183208931A0E0592C3F3074308933E
S214003380544DEF6CC7F301778DF808703B464A46FC
S21400339003A906A8FFF770FED5F8EC30C3F30128A2
S2140033A08DF8098043464A4604A907A8FFF764FE3D
S2140033B0321B089B0599C91A02FB01F1B1FBFAF111
S2140033C00B9119440B91DDF80CB0DDF818C0ABEB8F
S2140033D00C0502FB05F5B5FBFAF50995654409955C
S2140033E0DDF810E00798AEEB000404FB02F2B2FB37
S2140033F0FAF20A9284180A94059A8A4259D38B42A2
S21400340059D8A64559D3A04259D8AB4559D3AC454F
S21400341059D8019B73B12F4BDB6D23F4FE4323F089
S214003420020343EA0123B6F5E16F16D902221343DD
S214003430284AD365009B93B9012037E04FF4167AEB
S2140034404FF4966490E7224BD3F818320893C3F3F0
S21400345007220592DBB2089392E70022E7E70022F4
S21400346039464846FFF7CEFD00B30122414648469E
S214003470FFF7C8FDD0B1A54238BF25460995E72D10
S21400348028BFE7250995134B5B6E23F4FF7323F0E3
S214003490010343EA4503B6F5E16F04D9012213435D
S2140034A00C4A536602E00022F9E700200DB0BDE8A2
S2140034B0F08F0020FAE70020F8E70020F6E700206B
S2140034C0F4E70020F2E70020F0E700BF0053010019
S2140034D00081E00F00300E4008B5214B1A6FDB6C00
S2140034E013F0010F09D012F0060F06D013281FD9CB
S2140034F0143813281ED8082323E0194BDB6C13F06E
S214003500010F09D112F0060F06D1092814D90A387E
S214003510092813D8082314E0114BDB6C13F00103C1
S2140035200FD012F0060F0BD1272817D8082308E073
S214003530042306E0102304E0042302E0102300E046
S2140035400023013B1A0342EA03220549CB6C23F40D
S2140035507F431343CB64FFF7FDFC08BD1023F0E761
S21400356000300E4008B5074BD3F88039064A136F73
S21400357023F0070303431367044B1888FFF7ACFFD9
S21400358008BD00BF0000C64300300E40825E00202B
S21400359008B5084AD36E43F08073D366064BD3F85B
S2140035A080391BB10420FFF7DDFF08BD0020FFF7C0
S2140035B0D9FFFAE700300E400000C64338B5304B5E
S2140035C002229A639B6B03F00F03934254D1044686
S2140035D0B0F90C10C3884A2B09D9B3F5FA7F41D34A
S2140035E040F6C312934240D84FF0005200E000224B
S2140035F0234BDB6C23F0405323F00103002937DB19
S21400360001210A4313431E4AD364D2F8EC3043F434
S2140036104073C2F8EC30A2881A4B1A80FFF7B8FF46
S214003620B4F90C102089FFF7D1FCA088FFF754FFEF
S214003630A07BFFF7D5FC012211466088FFF76CFEE1
S2140036400546D0B10E4AD36B43F48063D3636078EB
S214003650FFF704FEA37A202B0CD000220A4BC3F8F7
S21400366094270AE04FF08052C2E74FF04052BFE77F
S2140036700021C6E70122F1E70025284638BD00BF35
S21400368000300E40825E00200000C643054B5A689C
S2140036905B68054B41F671321A649A6822F00102A3
S2140036A09A60704700300E4000000E40034B9A6848
S2140036B022F001029A6000221A64704700000E4051
S2140036C00C4B0D4AD26912F0010F02D00BB1013B30
S2140036D0F7E74BB1084B18610122DA60DB6913F09B
S2140036E0040F04D1002070476FF0020070474FF0BF
S2140036F0FF3070478096980000000E408C46E9B96F
S21400370000207047013B124AD26912F0010F04D024
S214003710002BF7D16FF0020070479BB10C4BDB69B2
S21400372013F0020F11D161450AD250F8042B084B52
S2140037309A6101310822DA60064BE4E70021F2E7DD
S214003740002070476FF0020070476FF0010070476E
S21400375000000E40809698002DE9F04780460E4601
S214003760254B196C1FFA81F941F67131196423490A
S21400377048684968996841F00101996097080023F4
S2140037801D4614E01C498A6822F001028A60B9F1DD
S214003790000F2DD00A460021116429E0514630461C
S2140037A0FFF7ACFF0346C0B9554406EB8A06BD4298
S2140037B013D208EB85042046FFF782FF0346002855
S2140037C0E0D1C4F30A04C4F50064A308A7EB050A15
S2140037D0BAEB940FE2D39A46E0E707498A6822F0EC
S2140037E001028A60B9F1000F02D00A460021116476
S2140037F01846BDE8F08700BF00000E4000300E40BF
S21400380010B42B4B196C89B241F671321A64294AEE
S214003810546852689A6842F001029A601861012260
S214003820DA60DB6913F0040F0BD1214B0222DA6059
S214003830214B1F4AD26912F0010F0ED06BB1013B2B
S214003840F7E71B4A936823F00103936011B1134610
S21400385000221A644FF0FF300DE0154AD26912F0CC
S214003860020F0BD1B3B1124A936823F001039360A1
S214003870E1B1002010645DF8044B70470C4A936871
S21400388023F00103936011B1134600221A646FF00F
S2140038900100F0E7064A936823F00103936011B134
S2140038A0134600221A646FF00200E4E70020E2E705
S2140038B000000E4000300E40809698004A790B7843
S2140038C091F801C043EA8C0391F802C043EA8C13D6
S2140038D091F803C043EA0C1391F804C043EACC23E2
S2140038E043EA02338A7943EA424304300001014A3C
S2140038F01350704700200440014B1860704700BF0B
S21400390000008442037813B3012342780AB30422EA
S21400391013438278FAB110221343C278EAB1202208
S2140039201343027943EA0223427943EA0233827957
S214003930AAB14FF400421343C27943EA0243027A23
S2140039407AB14FF400321343074A136070470023DE
S214003950DBE70022DCE70022DEE70022E0E70022C9
S214003960E9E70022EFE700BF002004400D4AD2F846
S214003970E4309B0003F03C03D2F8E010C1F3811161
S2140039800B438370D2F8E03003F03F034370D2F865
S214003990E83003F0F003D2F8EC20C2F3031213432E
S2140039A00370704700FF0FE0024BD3F8FC00000ED8
S2140039B0704700BF0081E00F044BD3F8E4301B0EC5
S2140039C00A3303F01F030120984070470081E00F80
S2140039D038B505460C460BF038F9054B2B656B6978
S2140039E023600BF036F92068C0F3006038BD00BFD6
S2140039F035393801002303600D4A026343630B78B0
S214003A00032B12D110B5044605210BF06FF963683D
S214003A1023F4407343F400736360636823F44063E5
S214003A2043F400636360002010BD6FF071007047C0
S214003A30200010002DE9F0438BB0044688469146DE
S214003A401E4601AD186859689A68DB680FC530696C
S214003A507169B269F3690FC5002509950BF0F5F891
S214003A600746494604F582700BF015F9414604F501
S214003A7084700BF010F9314604F586700BF00BF9E4
S214003A8038460BF0E6F85D4B236568E0002D24DB36
S214003A905B4B2365636913F4407F33D1013D0120FE
S214003AA08823A3606369C3F30723564A226501226D
S214003AB062656269C2F3072253492165012824D052
S214003AC013F0010F31D112F0010F2ED04F4B2365AA
S214003AD04F4B63650123A3652BE04E4B23654E4B8E
S214003AE063650BF0B2F8074601A904F580700BF089
S214003AF0DDF86369C3F30343099338460BF0A9F86E
S214003B006D42C5E74FF0FF30CAE713F0010F07D04C
S214003B1012F0010F04D0414B2365414B636514E05E
S214003B20404B2365404B63650FE0404B2365404B9D
S214003B30636501A904F580700BF0ADF8099B03F0EE
S214003B400F03C4F848318323A3609022A260626901
S214003B5012F4807F11D1374B23658822A260694614
S214003B602046FFF735FFD0B99DF8012012F0010F6F
S214003B708CD1314B2365013DE7E72E4B23650BF0D7
S214003B8064F80746314604F580700BF084F8384632
S214003B900BF05FF8294B2365294B6365DDE7294B5E
S214003BA0236569462046FFF713FF68B10BF04DF812
S214003BB00546129904F588700BF078F828460BF045
S214003BC048F80BB0BDE8F0830BF03FF8054604F567
S214003BD08077314638460BF05EF828460BF039F809
S214003BE0194B23650BF031F80446129938460BF052
S214003BF05DF820460BF02DF8E3E700BF308488011F
S214003C00D9080100C93E8198DB3E010083D93411F2
S214003C1081E2148290A2848899830100C8340981C5
S214003C20E20C8201C80881E20C82010083D910816F
S214003C30E2148201D23E8201C93E8101C024D03402
S214003C400982010098390100E01001002DE9F04FCB
S214003C5089B007468A469146984620220021684643
S214003C6010F00FF800262FE0202269464046C8478D
S214003C700446A4BB00F0B8FC05463946FFF7BAFE7A
S214003C800AF0E3FF0446694605F582700BF003F878
S214003C9020460AF0DEFF404B2B652C6914F0030F1C
S214003CA0FBD10AF0D2FF044605F5807B69465846EC
S214003CB00AF0FCFF20460AF0CCFF009B012B23D81D
S214003CC0284600F0CDFC01360A2E62D03B78022B47
S214003CD009D0032BC8D0012B0DD06FF071042046FD
S214003CE009B0BDE8F08F1C2269464046C847044626
S214003CF000230793BDE7182269464046C847044696
S214003D00002306930793B4E70AF09FFF0446514644
S214003D1005F584700BF005F80AF10806314605F53E
S214003D2086700AF0FEFF0AF11007394605F588701E
S214003D300AF0F7FF20460AF08CFF184B2B652B691C
S214003D4013F0030FFBD1394658460BF02FF8044604
S214003D50D8B9134B2B65134B6B652B6913F0030F08
S214003D60FBD1514658460BF021F8044668B90E4B75
S214003D702B654FF48E736B652B6913F0030FFBD125
S214003D80314658460BF012F80446284600F068FC08
S214003D90A5E7064CA3E700BF30C80C0181E11C0173
S214003DA08CE11C81D11C0100E11C81D900B3FFFF0E
S214003DB02DE9F84305460E461746984610460DF080
S214003DC057FF002840F0D380D8F810302BB140467B
S214003DD00DF04EFF002840F0D080D8F810303BB1F0
S214003DE0012108F110000CF08BFB002840F0CB807E
S214003DF000F0FAFB04462946FFF7FCFD0AF025FF13
S214003E00814604F5807507F1100128460AF089FFFF
S214003E1048460AF01EFF5D4B236540F2811363653A
S214003E20226912F0030FFBD10AF00FFF81464146CC
S214003E3028460AF076FF48460AF00BFF544B2365E7
S214003E4001236365206910F0030FFBD1514B2365F6
S214003E50206910F0030FFBD10AF0F7FE814608F147
S214003E60080128460AF05DFF48460AF0F2FE4A4B73
S214003E702365236913F0030FFBD10AF0E6FE8146A3
S214003E8007F10808414604F582700AF04AFF4846E2
S214003E900AF0DFFE414B2365236913F0030FFBD1C5
S214003EA00AF0D3FE8146394628460AF03AFF4846CD
S214003EB00AF0CFFE3A4B23653A4B6365236913F04D
S214003EC0030FFBD106F1100128460AF06FFF0746E4
S214003ED0002846D1344B2365236913F0030FFBD12A
S214003EE0324B2365236913F0030FFBD1304B236558
S214003EF0236913F0030FFBD12E4B23654FF48A730F
S214003F006365236913F0030FFBD12B4B23652369ED
S214003F1013F0030FFBD1314628460AF047FF074649
S214003F20F8B9264B2365264B6365236913F0030F08
S214003F30FBD10AF08AFE0746414628460AF0F1FE03
S214003F4038460AF086FE1F4B23651F4B63652369C0
S214003F5013F0030FFBD106F1080128460AF026FFEE
S214003F600746204600F07CFB3846BDE8F88341460D
S214003F7030460DF0A0FD0746F6E7394630460DF010
S214003F809AFD0746F0E7114FEEE700BF8184E11C7B
S214003F9083D91C83E11C810182D11C01C8148201D3
S214003FA09983D91481E11C018CE11C01811C8401D8
S214003FB0D91C830191D11CE0D814140181CB148143
S214003FC0D11C820181E11C84E214010080B0FFFF55
S214003FD02DE9F04188B005460E46174600F004FB72
S214003FE004462946FFF706FD0AF02FFE804604F534
S214003FF0807507F1100128460AF093FE40460AF045
S21400400028FE444B236540F283136365236913F04F
S214004010030FFBD10AF019FE804607F10801284677
S2140040200AF07FFE40460AF014FE3B4B2365012350
S2140040306365236913F0030FFBD106F110012846D0
S2140040400AF0B4FE804600285CD1344B23654FF45A
S21400405086736365236913F0030FFBD10AF0F5FD41
S2140040608046394604F588700AF05BFE69462846A5
S2140040700AF01CFE40460AF0ECFD294B2365294B4E
S2140040806365294BA365236913F0030FFBD1274B08
S2140040902365274B6365236913F0030FFBD1254B7C
S2140040A02365254B63650123A365236913F0030F7E
S2140040B0FBD1314628460AF079FE804610BB1F4BDE
S2140040C023651F4B6365236913F0030FFBD10AF0CA
S2140040D0BCFD0746694628460AF0DDFD38460AF06C
S2140040E0B8FD0C4B2365174B63654FF48A73A365C5
S2140040F0236913F0030FFBD106F1080128460AF0E6
S21400410055FE8046204600F0ABFA404608B0BDE8B3
S214004110F08100BF8182D11C821CC00C91D11CC0D2
S214004120C00C81E11C82DC0C81148401E11C81C876
S2140041300C0C8101D20C848BD91CE01484E214820E
S214004140D11C8301C00C82D32DE9F043A3B00646F0
S2140041500D4600F049FA04463146FFF74BFC202294
S21400416000211AA80FF08DFD012206E01A9B23F00D
S214004170FF0343F001031A93013A002AF6D105F132
S2140041801008414612A80AF064FE311D0AA80AF07B
S21400419060FE02AE00960AAB12AA1AA92046FFF7E6
S2140041A049FC0AF052FD8146314604F582700AF059
S2140041B072FD04F58677294638460AF0B2FD05F109
S2140041C00806314604F588700AF0ABFD48460AF04A
S2140041D040FD194B2365236913F0030FFBD1174BE2
S2140041E02365236913F0030FFBD1154B2365236961
S2140041F013F0030FFBD1134B2365236913F0030F52
S214004200FBD1314604F580700AF0D0FD034618B1A4
S214004210184623B0BDE8F083294638460AF0C6FDA6
S21400422003460028F4D1204600F01AFA0121404641
S2140042300CF04AF80346EBE78AD11C0181D91C0131
S21400424083D11C0181E11C012DE9F04F9BB0814612
S2140042500E461546202200210AA80FF012FD012D59
S21400426013D9202128460BF024F88246002800F0B7
S214004270F680316810310AF0ECFD00F0B5F904461E
S2140042804946FFF7B7FB01272EE031684846FFF79F
S2140042905BFF8346DFE00AF0D8FC804656F827101E
S2140042A0103104F582700AF03CFD07F10061013917
S2140042B00AEB411104F584700AF0EDFC40460AF062
S2140042C0C8FC684B2365236913F0030FFBD10AF083
S2140042D0BCFC80460AEB471104F580700AF0E6FC49
S2140042E040460AF0B6FC0137AF42D4D3012206E0BE
S2140042F00A9B23F0FF0343F001030A93013A002AC6
S214004300F6D109F1040102A80AF0A3FD05F1006246
S214004310013A12AB009302AB0AEB42120AA92046FE
S214004320FFF788FB013D81E00AF08FFC074612A9E3
S21400433004F582700AF0AFFC05F1006101390AEB62
S214004340411104F584700AF0A6FC56F825101031C9
S21400435004F586700AF0E5FC38460AF07AFC424B13
S2140043602365236913F0030FFBD1404B23652369B4
S21400437013F0030FFBD10AF068FC074612A904F5F8
S21400438080700AF093FC38460AF063FC0AF05DFC85
S214004390834604F58678AF0056F8251040460AF0A6
S2140043A0C0FC56F82510083104F588700AF0B9FCF0
S2140043B058460AF04EFC2E4B2365236913F0030F74
S2140043C0FBD12C4B2365236913F0030FFBD12A4B3B
S2140043D02365236913F0030FFBD1284B236523695C
S2140043E013F0030FFBD1F159083104F580700AF081
S2140043F0DDFC834648BBF15940460AF0D7FC8346AD
S21400440018BBB9F80A10F0590BF0EFFE8346E0B976
S214004410F059B9F80A1008300BF0E7FE8346A0B949
S214004420F05910300BF08FFE7DB1013D002D7FF46A
S2140044307BAF0AF00AFC074612A904F584700AF05E
S2140044402AFC38460AF005FCA0E7204600F008F9EA
S21400445050460AF03EFF58461BB0BDE8F08FDFF826
S21400446020B0F8E7D11C0100D11C8201D91C010044
S21400447091D11C0181D91C0183D11C0181E11C0151
S21400448080B2FFFF10F1860F14D00EDC10F1930FF0
S21400449013D010F1870F05D10B4B994207D06FF060
S2140044A06D0070474FF0FF30704748B970476FF0A7
S2140044B0730070476FF0710070476FF06F007047C1
S2140044C04FF0FF30704700BF0900000201290ADCE8
S2140044D008B531B1054900F0D5FF0549FFF7D2FF11
S2140044E008BD0349F7E76FF0730070470800000245
S2140044F00900000208B50AF0BAFD0249FFF7C2FF3C
S21400450008BD00BF0900000200B583B00023019378
S21400451001AB202200F0EAFF0249FFF7B3FF03B029
S2140045205DF804FB0900000210B50D4B0D4A0E495C
S2140045300E4805F06FFC0E4B1B7803B110BD0AF059
S21400454003FD04460A4B1B7833B90A4B1B680A481E
S2140045509847074B01221A7020460AF0FFFCEDE749
S214004560C3EE0000EBEE000017EF000025EF0000A2
S2140045708A5E00205010002088560020F8B5174BA1
S2140045801B7803F0FF040BB12046F8BD01F062FB78
S2140045900546012805D80027104B1B789BB9002636
S2140045A00CE001F093FB071EF6DAEDE70C4B1B68F8
S2140045B064200C4A00FB062098470136012EF5DDE4
S2140045C0064B01221A70012D01D80124DCE738467B
S2140045D001F0A0FB0028D7DB0124D5E78B5E002086
S2140045E0501000206427002010B5FFF7C7FF0024F6
S2140045F0012C0CD86420154B00FB04300AF0BBFCE1
S21400460008B10134F4E7124B53F8340000E0002000
S21400461068B10F4B03EBC4035A680E4B13449B0060
S21400462001221A600C4A13680133136010BD0A4B4E
S2140046301C6804F00104094B1B686420034A00FB55
S21400464004209847024B53F83400E2E76427002022
S214004650045301008005F210602700204810002057
S21400466008B50E4B984206D003F58063984200D0FA
S21400467008BD012200E00022094B03EBC203596883
S214004680084B0B449B0000211960074B1B686420F5
S214004690064900FB02109847EAE700BF00000F40FB
S2140046A0045301008005F210441000206427002007
S2140046B000F01F0201239340A0F50620A0F55060ED
S2140046C04009074951F820201A4341F8202005499F
S2140046D051F8202022EA030241F82020704700BF4C
S2140046E0402800202C28002000F01F0CA0F50620F3
S2140046F0A0F5506040090F4951F82030012202FA17
S2140047000CF2134341F8203000231A4604E00A490D
S21400471051F823100A440133042BF8D902B170472C
S214004720042A05D8034B002143F822100132F7E78C
S214004730704700BF2C2800204028002000F01F0CE7
S214004740A0F50620A0F550604009054951F8203034
S214004750012202FA0CF2534041F82030704700BFA5
S2140047604028002000B583B03A238DF80730012397
S2140047700DF1070205490648006808F075F910B9FA
S21400478003B05DF804FB6FF09100F9E7FF6C0800DA
S2140047905810002010B582B0144602B969B90094CA
S2140047A0049A01460648006808F0F6F910B9002099
S2140047B002B010BD6FF09100FAE76FF09800F7E7CF
S2140047C0581000202DE9F041A2B0402422460021D6
S2140047D012A80FF056FA2246002102A80FF051FA4E
S2140047E0214F23E0DFF88C8029E022AB03EB840323
S2140047F053F8400CFFF75CFF0134AC42F5D3CDF81C
S21400480000803B46102202A91848006810F041F8C4
S2140048100546002407E022AB03EB840353F8800C24
S214004820FFF762FF0134AC42F5D33746104B9F4288
S21400483013D807F110060F4B9E42D3D8B04608F1A6
S214004840FF38CDF800803B46102212A907480068C2
S21400485010F016F805460024CFE7074B01221A7021
S21400486022B0BDE8F08100BF006D0800581000209F
S214004870FF700800007108008C5E00202DE9F041F2
S21400488088B006460C461D4617460AB1002313603C
S2140048900DB100232B6010230093002322463146DF
S2140048A02448006808F078F9804600283ED122683F
S2140048B0214B9A4217D00FB110233B6022681F4B42
S2140048C09A4231D1002F31D0002D2FD02B4602AA8C
S2140048D031461848006808F0B3F918BB2B683A68E8
S2140048E09B1A2B6022E00023029303930493059304
S2140048F0069307931822009202AA31460D480068D4
S21400490008F04AF9804688B9069B6360DDE904230F
S214004910C4E90223094B23600FB118233B60DFF87C
S2140049202080CBE7804601E0DFF81880404608B0DC
S214004930BDE8F08158100020D175E105105D175EC6
S214004940FEDF00F0FFDF00F010B59AB000238DF810
S214004950673001230DF167022F493048006808F0E0
S214004960CDF810B12E4A904253D19DF867303A2BBD
S21400497019D04022002109A80FF083F9294B2A4AB2
S214004980934241D803F11004284A944211D8224693
S214004990013A0092102209A9204800680FF070FF23
S2140049A048B92346EBE7224B3A221A6000201AB099
S2140049B010BD1E4AECE70023049305930693079365
S2140049C00293039302AB03AA04A90998FFF756FFC4
S2140049D0184B984212D010B1013B984211D1049B5B
S2140049E0154A934205D0154A934202D06FF09100C3
S2140049F0DDE70F4B74221A600020D8E76FF08B00BB
S214004A00D5E76FF09100D2E7094B3A221A600020F2
S214004A10CDE76FF09100CAE7FF6C08005810002041
S214004A200BE000F000310800FF34080000350800F5
S214004A3020100020FFDF00F0D175E105105D175E45
S214004A4010B50C4B1B7823B10B4B1B680B489847D3
S214004A5010BD0AF0B6FA0446064B1B7833B9084B6D
S214004A601B6806489847034B01221A7020460AF036
S214004A70B2FAE9E78D5E0020481000205428002096
S214004A805010002008B5044B1B781BB1034B1B6865
S214004A900348984708BD00BF8D5E002044100020E4
S214004AA0542800202DE9F04F87B006460D4698465C
S214004AB0DDF840A091462AB1002B56D040F26C7328
S214004AC09A4255D8BAF1010F55D80023059309F13B
S214004AD01007394601200AF0ECFB044600284DD0AA
S214004AE03A4600210FF0CDF8FFF7AAFF05AB029378
S214004AF0002301930093234601223046294600F006
S214004B0009F9834600BB1F4B2360A660E560C4F826
S214004B1004A0B9F1000F1DD13B46224605991A485C
S214004B20006807F0A1FFE0B16FF0910B3A46002154
S214004B3020460FF0A6F820460AF0CBFBFFF7A2FFB0
S214004B40584607B0BDE8F08F10F18C0FEED16FF02D
S214004B508D0BEBE74A46414604F110000FF0C6F80D
S214004B60DAE70598FFF7A4FDE0E76FF0860BE7E7C6
S214004B706FF0910BE4E76FF0850BE1E76FF08C0BBD
S214004B80DEE700BF105D175E581000202DE9F043E9
S214004B9099B04022002108A80FF073F80023049370
S214004BA00593069307930393534B544A934200F29C
S214004BB0848003F11007514A97420BD83A46013ACF
S214004BC00092102208A94E4800680FF059FE0646CB
S214004BD0002442E04B4AF2E7DDF80C90049B4A4A78
S214004BE0934202D0494A93427FD109F11001012035
S214004BF00AF05FFB054600287AD00090029B039AD5
S214004C00002118A800EB840C5CF8400CFFF7C2FDEE
S214004C108046002854D1049B3C4A934237D03A4AF7
S214004C2093423ED0B8F1000F02D018F1850F49D15B
S214004C3018AB03EB840353F8401C314B186808F09C
S214004C4043F800284BD1039A1032002128460FF073
S214004C5018F828460AF03DFB0134B4422BD2002354
S214004C600393029303AB02AA04A918A800EB8405D9
S214004C7055F8400CFFF702FE254B984232D000282C
S214004C80AAD0013B9842A7D06FF0910823E0059B7D
S214004C9000932B464A46DDE9060100F015F98046EA
S214004CA0C0E7059B00932B464A46DDE90601FFF761
S214004CB0F9FE8046B6E73B4677E74FF000080AE085
S214004CC06FF09108039A1032002128460EF0D9FFA3
S214004CD028460AF0FEFA404619B0BDE8F0836FF0A9
S214004CE09108EFE76FF08B08F5E76FF09108F2E7B1
S214004CF06FF08C08EFE700BF00310800FF340800B3
S214004D005810002000350800105D175ED175E105CB
S214004D10FFDF00F02DE9F0478046894617461E461D
S214004D200AF03EF9604CA4FB0034E40804EBC4141B
S214004D30041B04F5062404F550645C4B1B7813B181
S214004D400025AA4668E005F0B1FC002840F09780F0
S214004D50574B1B68E82B02D0FFF734FDF0E7FFF750
S214004D60F3FD002840F08E80514B1B68742B02D058
S214004D70FFF728FDE4E7FFF709FF00286CD1FFF7EF
S214004D80F1FC0028DCD067E0BAF1000F00D1A246A3
S214004D90A4F50624A4F6FF44434BA3FB0423DB0838
S214004DA003EBC313E31A03F5062404F5506432E05C
S214004DB00A9B1C6000204FE0099B089A314620465B
S214004DC0FFF75CFD3B4B984209D01233984206D061
S214004DD060B1394B984209D06FF091003CE0214613
S214004DE0364B186807F070FF002851D1B268F36898
S214004DF04B4508BF424531D0A4F50624A4F6FF442F
S214004E00294BA3FB0423DB0803EBC313E31A03F5C8
S214004E10062404F550640135802D27D8A4F5062C09
S214004E20ACF5506C4FEA5C1C254B53F82C3004F064
S214004E301F02D34013F0010FBED1224B53F82C3083
S214004E40D34013F0010F9FD1FFB1BAF1000FAFD0DE
S214004E500A9BC3F800A00020BDE8F08717B173686E
S214004E60012B18D00A9B1C600020F5E7B7B1BAF1F9
S214004E70000F16D00A9BC3F800A00020ECE76FF0E6
S214004E809100E9E76FF09100E6E76FF08B00E3E74B
S214004E906FF08B00E0E76FF08400DDE76FF08B00CB
S214004EA0DAE76FF08B00D7E7813FE00F8C5E0020DB
S214004EB020100020FFDF00F0FEDF00F0581000207A
S214004EC0402800202C2800202DE9F04F8BB0064605
S214004ED00D469846DDF850A091460AB1002B52D0F8
S214004EE0BAF1010F52D80023099309F11807394681
S214004EF001200AF0DEF9044600284AD03A4600218E
S214004F000EF0BFFEFFF79CFD09AB02930023019352
S214004F10009304AB012230462946FFF7FBFE83468A
S214004F2000BB1D4B2360A660E560C4F810A0B9F175
S214004F30000F1DD13B46224609991848006807F025
S214004F4093FDE0B16FF0910B3A46002120460EF03B
S214004F5098FE20460AF0BDF9FFF794FD58460BB0C0
S214004F60BDE8F08F10F18C0FEED16FF08D0BEBE7F4
S214004F704A46414604F118000EF0B8FEDAE70998F2
S214004F80FFF796FBE0E76FF0860BE7E76FF0850B21
S214004F90E4E76FF08C0BE1E7D175E10558100020CF
S214004FA02DE9F0478CB007460E461546DDF85080D2
S214004FB0DDF854A0994673B1BAF1000F51D0B8F19C
S214004FC0000F51D0B8F1005F51D3C3F1005303F581
S214004FD0803398454ED80024089409940A940B947C
S214004FE007940694FFF72CFD05AB029307AB0193DD
S214004FF006AB009308AB224638463146FFF78AFEDA
S2140050000446F8B9079BB9F1000F06D0AB4206D8A4
S2140050100BBB25B16FF0860414E0AB421ED35B1BBE
S2140050204B4515D2CAF80030DAF800300093069BDC
S2140050302B44424605991148006807F0ADFD08B1BB
S2140050406FF09104FFF71EFD20460CB0BDE8F08718
S214005050CAF80090E8E76FF08604F3E76FF086047E
S214005060F0E76FF08604EFE76FF08604ECE76FF08A
S2140050708604E9E76FF08604E6E700BF58100020D4
S21400508070B58CB006460D460024089409940A9420
S2140050900B9407940694FFF7D3FC05AB029307AB7B
S2140050A0019306AB009308AB224630462946FFF72D
S2140050B031FE044670B9099B012B10D005990B4BA5
S2140050C0186807F001FE68B90598FFF737FB0598E2
S2140050D0FFF70AFBFFF7D6FC20460CB070BD6FF05A
S2140050E08404F7E76FF09104F4E700BF581000203F
S2140050F008B5044B1B781BB1034B1B680348984745
S21400510008BD00BF8E5E002044100020B828002096
S214005110074B5B685BB182B0054BD3F80031019357
S214005120019B034B5B68002BF6D102B070477047BB
S21400513000D00140144B5B6810F0030F06D018E057
S214005140114BD3F8003140F8043B04390329F7D853
S214005150C1B10D4BD3F8003112E00B4BD3F8003140
S21400516003701A0A42701A0C82701B0EC370043940
S21400517004300329F1D8EBE700F8013B1B0A01399C
S2140051800029F9D1704700BF00D0014010B50024B7
S21400519003E0124B5B68FBB90134092C14D80F4AA4
S2140051A0136843F48071116023F4807313600C4815
S2140051B0FDF750FC800A0023084A5268002AE8D10E
S2140051C08342E6D20133F7E7044A136823F001036B
S2140051D013606FF0920010BD0020FCE700D0014085
S2140051E07000020008B50D4B40F271621A60FFF7BE
S2140051F0CDFF90B9094B5B68032BFBD9074BD3F85F
S21400520000211A61D3F800215A61D3F800219A616F
S214005210D3F80021DA61FFF7B9FF08BD00D00140DE
S21400522010B50E4B1C6B14F45C7F11D014F4807F09
S21400523006D1FFF7ABFF10B914F41C7F0AD110BDDE
S21400524024F480741C63FFF763FF6FF09300F6E7A7
S2140052500020F4E76FF09300F1E700BF00D00140B4
S21400526010B50E4B1B782BB10D4B1B680D4898479D
S21400527088B910BD09F0E6FE0446084B1B7833B922
S214005280094B1B6807489847044B01221A702046B2
S21400529009F0E2FEE8E70120EBE700BF8E5E0020A3
S2140052A048100020B8280020501000202DE9F04FAC
S2140052B083B001900F469146FFF7D2FF04460028C0
S2140052C05AD1364AD2F8C03043F40033C2F8C03060
S2140052D0334B1B6813F0010F07D0DDF804A03E46E1
S2140052E04FF0000B4FF00A082DE0FFF77BFF044657
S2140052F00028F2D0FFF7FCFE3EE02A48FDF7AAFBA6
S214005300C00A844204D2264B5B680BB90134F8E726
S214005310234B5B68E3B9D84637466FF0930423E027
S214005320DDF804A03E464FF0000B0CE01C4B5D6819
S214005330AD00B54228BF354629465046FFF7FAFE6F
S214005340AA44AB44761BDEB1154B5C68A400D4D0EF
S214005350FFF766FF044610F1930F14D010F1940F78
S214005360E4D1B8F10108DBD1FFF7C2FE14B114F1A5
S214005370940F0BD1C9F80080204603B0BDE8F08F2B
S214005380D8463746F0E7D8463746EDE73A46002196
S21400539001980EF076FC4FF00008EBE700400E4058
S2140053A000D00140700002002DE9F04389B00446A9
S2140053B00D4690461F46DDF84090FFF715F9064665
S2140053C004F17E400838012855D8042333600024B1
S2140053D07460F464736823F44063736034637463C6
S2140053E0A44609E055F82C301BBA08AA02EB8C023A
S2140053F042F8203C0CF1010CBCF1070FF2D909F081
S21400540024FC0446694606F5827009F044FC2046F2
S21400541009F01FFC194B336500240EE009F015FC5B
S214005420054608EB841106F5D27009F04AFC2846BA
S21400543009F00FFC124B336501344C45EED309F0EE
S21400544004FC0446394606F5807009F02FFC204619
S21400545009F0FFFB3046FFF703F9002205E057F896
S21400546022301BBA47F822300132072AF7D900202B
S21400547009B0BDE8F0836FF08800F9E7888AC801B4
S214005480070D810148B370B50D4604466C22002115
S2140054900EF0F7FB124B9D4205D001339D4210D013
S2140054A06FF085000CE00F4E0FCEE0602161626168
S2140054B0A3610FCEE06121626262A36225600020D4
S2140054C070BD094E0FCEE06021616261A3610FCE10
S2140054D0E06121626262A362F0E76FF086007047C7
S2140054E00800000214530100385301002DE9F04172
S2140054F082B0002860D00E461D46044673B196B1B1
S214005500236833498B4213D001318B4257D1202771
S21400551097425AD84FF0000CE6462BE0002AEED011
S2140055206FF086084DE0002AEAD06FF0860848E063
S2140055301C27EDE7CCF10202920004EB8C035B68BB
S214005540D900C9B27144D01D684400F8081C580937
S214005550911D694401F8080C580B511D694401F867
S214005560080C590D04326A4402F8081C4FEA537EB0
S2140055700CF1010CBCF1010FDCD9626802F03F02AD
S214005580372A16D8C2F138021249204609F06FFDB4
S2140055908046B0B908226946204609F068FD804674
S2140055A078B92F603A4604F10C0130460EF09EFBA7
S2140055B007E0C2F17802E7E76FF0860801E06FF0D7
S2140055C08808404602B0BDE8F0816FF08908F8E729
S2140055D0080000025C5301002DE9F0419CB015461E
S2140055E01C46229F239E884601B324B346B3014639
S2140055F001A8FFF747FF034658BB019B184A934292
S21400560023D00132934222D12023BB4225D82A46FA
S214005610414601A809F02BFD0346D0B933463A4669
S214005620214601A8FFF762FF034612E0002ADCD0FD
S2140056306FF086030DE0002FD8D06FF0860308E0E9
S214005640002FD4D06FF0860303E01C23DDE76FF055
S214005650880318461CB0BDE8F0816FF08903F8E7B0
S2140056600800000200B585B0054BEC460FCB8CE871
S2140056700F006046FDF7A2FF002005B05DF804FBB2
S2140056809C5301006FF0040307E003F00F010A4A81
S2140056900A44A021117601335BB2322B09DC002BC1
S2140056A0F3DB03F1604202F56142A02182F80013A9
S2140056B0F1E70020704700BFFCEC00E030B583B097
S2140056C009F0C3FA0E4B1D780E4B1C6809F0C1FAA0
S2140056D009F017FE08B1FF2D03D154B1204603B0E0
S2140056E030BD01AA064B1978002009F052FA019C39
S2140056F0F3E709F0AAFA044B1C6809F0AAFAEDE7EA
S214005700D41000201C2900202029002010B50446B3
S21400571009F09BFA024B1C6009F09BFA002010BDB2
S2140057202029002010B582B00124009400231A46D8
S2140057301946184604F026FF009400231A46194618
S214005740184604F059FF0348FFF7E0FF002002B0B8
S21400575010BD00BF281000204161114B1B68CBB163
S21400576010B4002403E0891A41611C469B6823B1EB
S2140057705A698A42F7D9002AF5D044B1A0608360FE
S21400578013B15A69521A5A615DF8044B7047044ABD
S2140057901060F4E7024B186000238360704700BF78
S2140057A02C2900200E4B1B68002201E01A469B683D
S2140057B00BB18342FAD183420ED14AB1836893601B
S2140057C083685BB15A6941690A445A610020704790
S2140057D08268034B1A60F3E7022070470020704788
S2140057E02C2900200A4B1B6800220A490A7005E093
S2140057F0084B01221A70704759690A44012A06D8D4
S214005800D98811F0020FF3D19B68002BF4D17047B2
S2140058102C290020905E002008B500F05DF90B4BA7
S2140058201B680B4A1268821A03E0521A002159615B
S2140058309B683BB132B159699142F6D3891A5961D6
S2140058400022F5E7024B186008BD00BF2C29002097
S2140058502829002010B50B4B1B685B695BB10A4A10
S21400586014681C44022000F043F9204600F052F968
S214005870FFF7B8FF10BD022000F03AF9022000F052
S2140058809BF9F5E72C2900202829002010B509F0FF
S214005890E3F90446144B1B78DBB9144A1360144A28
S2140058A01360144A138000F0D3F8012000F020F9AA
S2140058B000F0AAF90246104B186078B100230F4892
