S01C00006275696C642F64656275672F67656E657261746F722E7333379C
S3152000600000100020F57E0020030601200306012053
S3152000601003060120030601200306012003060120B2
S3152000602003060120030601200306012003060120A2
S31520006030030601206C6201200306012003060120CD
S315200060400306012003060120030601200306012082
S315200060500306012003060120030601200306012072
S315200060600306012003060120030601200306012062
S315200060700306012003060120030601200306012052
S315200060800306012003060120030601200306012042
S315200060900306012003060120030601200306012032
S315200060A00306012003060120030601200306012022
S315200060B00306012003060120030601200306012012
S315200060C00306012003060120030601200306012002
S315200060D003060120030601200306012003060120F2
S315200060E003060120030601200306012003060120E2
S315200060F003060120030601200306012003060120D2
S3152000610003060120030601200306012003060120C1
S3152000611003060120030601200306012003060120B1
S3152000612003060120030601200306012003060120A1
S315200061300306012003060120030601200306012091
S315200061400306012003060120030601200306012081
S315200061500306012003060120030601200306012071
S315200061600306012003060120030601200306012061
S315200061700348044B834202D0034B03B118477047B0
S31520006180181B0020181B002000000000064B0749A2
S31520006190C91A891048BF0131491003D0044B0BB1ED
S315200061A001481847704700BF181B0020181B002005
S315200061B00000000010B5064C237843B9FFF7D8FF3E
S315200061C0044B13B10448AFF300800123237010BDA4
S315200061D00C270020000000003C70012008B5054B6C
S315200061E01BB105490548AFF30080BDE80840FFF71D
S315200061F0CDBF00BF00000000781B00203C700120AE
S31520006200A3F5803A704700BF174B002B08BF134BEE
S315200062109D46FFF7F5FF00218B460F461348144A8B
S31520006220121A0EF0B9FD0E4B002B00D098470D4BDD
S31520006230002B00D098470020002104000D000D48B7
S31520006240002802D00C48AFF3008006F05BFF200048
S3152000625029000EF0AEFC06F0FDFC00BF0000080091
S31520006260000000000000000000100020181B002085
S3152000627040310020000000000000000010B58CB066
S31520006280044608F08CFF0021102208A80EF084FD99
S3152000629001230E4A02A8CDE903230D4B059407934B
S315200062A04FF47053029308F06DFF029B06930AF099
S315200062B0DAFC0023000240F00100049001A903A8A3
S315200062C001930DF076FE0CB010BD00BF12710001D7
S315200062D00906000670B58CB00C461546064608F031
S315200062E05EFF0021102208A80EF056FD0123114A58
S315200062F002A8CDE90323104B059607934FF470535C
S31520006300029308F03FFF029B06930AF0ACFC0023A1
S31520006310000240F0010021462A460490019303A87A
S3152000632001AB0DF03CFC044603A80DF004FF20460B
S315200063300CB070BD127100010906000610B50A4B9B
S3152000634086B0144602930023059103901A46CDE9A0
S315200063500033214405A80BF099F9002814BFAC207E
S31520006360002006B010BD00BFC1F100202DE9F0418C
S31520006370BEB0449D98462B6804460E461746002B11
S3152000638057D06B68B3F5007F53D302A80EF094FB69
S3152000639000213C2207A806910EF0FEFCD8F8043016
S315200063A08BB1CDE900674021D8F80030224A06A8F3
S315200063B006F00CFD06A902A80EF095FB58B1AC20FC
S315200063C03EB0BDE8F081334640211C4A009706A81E
S315200063D006F0FCFCEEE7092102A80EF080FB2068FF
S315200063E0FFF74CFF16A80CF033FF216816A804F01F
S315200063F0C3FD04460028E2D116A902A80EF071FBBF
S3152000640000942346D5E9001202A806F0EDF80446CA
S315200064100028D4D128680EF001FD6B68013098421F
S3152000642001D90EF0F6FB686002A80EF049FB204663
S31520006430C6E72F20C4E700BF205D01203A5D01207A
S31520006440F0B50C46002197B00646154607A83C2213
S3152000645006910EF0A1FC402305AACDE9013206AF34
S31520006460009705930E49D4E9002330680DF0BDFC52
S31520006470044698B9059E6B689E420DD83246394629
S3152000648028680EF0BEFC6B689E4201D90EF0C1FB57
S3152000649020466E6017B0F0BD1920FBE7AC20F9E767
S315200064A009060006044808B500680BF04CF80028D9
S315200064B014BFAE20002008BD1810002008B5034BDD
S315200064C018680BF02FF8002008BD00BF1810002018
S315200064D038B504460D46204608F081FE2B7C002860
S315200064E057D0052B59D0032B17D0042B38D0012B8E
S315200064F04DD102222146284608F02FFF002833D10D
S315200065002946284608F06DFF70BB95F82430002BED
S315200065100CBF032305232B74DDE795F825209AB1BC
S31520006520214628462A7F08F018FFE8B9294628463A
S3152000653008F098FFC0B995F8253073B90223AA69E7
S315200065401A442A620423E6E72B7D013BDBB2022BA9
S315200065509CBF134AD25CAA61F0E72B7F0233EEE799
S3152000656095F824300BB1232038BDAA690AB9182022
S31520006570FAE72146284608F0F0FE0028F4D12946FD
S31520006580284608F097FF0028EED10523C3E703200D
S31520006590EAE7052B01D00D20E6E70020E4E700BF5F
S315200065A05F5D01202DE9F04100240546A046154FE8
S315200065B086B000F1AC06304601ABC4F5007239193D
S315200065C0CDF80480FFF76EFFC0B194B10E4B04AA3C
S315200065D004934FF4007302A92846CDE9027405936B
S315200065E009F001F9DDE9041285F8C0003046FFF70D
S315200065F065FF95F8C00006B0BDE8F081019B1C44FC
S31520006600D9E700BF0D2900200D270020004870473C
S31520006610901B00200021174B10B5174C03F1980250
S31520006620626003F1E0022360A26003F58673802294
S3152000663004F12800C4E90411C4E90611C4E90811CB
S31520006640E3600EF0A9FB0D4B2046C4F8A8300C4B96
S31520006650C4F8B440C4F8B0300A4BC4F8BC40C4F8FF
S31520006660B8300123084A84F8C0300849BDE81040F4
S315200066700EF0C6BA005F0120901B00204C6001205E
S315200066806C5D0120805D012000100020E5F70020D0
S315200066907FB50E46002304460DF106013046154609
S315200066A08DF8063002938DF80730039308F076FFB5
S315200066B058BB9DF80630013B032B01D92F2024E03F
S315200066C0304602A908F09CFFF8B930460DF10701C3
S315200066D008F064FFC8B94FF400723046224903AB74
S315200066E008F0A7FF88B99DF80630013B032BE5D8B3
S315200066F0DFE803F0020D151D4FF4CB7160681A4ACE
S315200067000368DE6A039BB047C8B104B070BD6068F9
S3152000671040F295110368144ADE6A039BF3E760682A
S3152000672040F293110368104ADE6A039BEBE7606828
S315200067304FF4C17103680C4ADE6A039BE3E7606885
S3152000674009F093FD044608B12046DEE70299284663
S3152000675008F003FF2146284608F0FFFE2846039945
S3152000676008F0FBFEF0E700BF192F00200023F0B54C
S3152000677006460D46144685B0ADF80A308DF8093028
S31520006780A9682A68EB68914258D893425AD80020C3
S3152000679013E0002370688DF80C300368BDF80A10EA
S315200067A0DB6803AA9847D82800D030B920469DF840
S315200067B00C1008F0B6FE0028E2D005B0F0BD00238C
S315200067C07068ADF80C300368BDF80A105B6903AA3F
S315200067D09847D82801D00028EFD12046BDF80C10C4
S315200067E008F0ADFEE7E70023706803930368BDF861
S315200067F00A10DB6903AA9847D82801D00028DCD1E3
S315200068002046039908F0A9FED5E700237068039374
S3152000681003AA036800929F6A204A4FF40073BDF8CA
S315200068200A10B847D82801D00028C6D12046039A96
S315200068301A4908F0A0FEBEE72620BEE7934201D9FA
S315200068408B42A4D028460DF10A0108F0C0FE00288C
S31520006850B3D128460DF1090108F0A0FE0028ACD1DD
S315200068602046BDF80A1008F06AFE0028A5D1204669
S315200068709DF8091008F055FE00289ED19DF8093094
S31520006880013B032BD8D801A252F823F093670020AE
S31520006890BF670020E76700200B680020192F002023
S315200068A0F0B5CB780C461546806885B003B9A8307C
S315200068B0A378032B5AD8DFE803F041021A2E0026CC
S315200068C08DF80C6003682188DB6803AA9847D828CE
S315200068D002D050B105B0F0BD31462A46208808F0D6
S315200068E032FF0028F6D10020F4E703A9F5E70026B9
S315200068F0036821885B69ADF80C6003AA9847D828FD
S3152000690003D00028E6D103A900E031462A46208894
S3152000691008F02CFFE5E7002603682188DB6903964B
S3152000692003AA9847D82803D00028D3D103A900E08A
S3152000693031462A46208808F02DFFD2E70026036834
S3152000694003AA00929F6A0A4A4FF40073218803968D
S31520006950B847D82803D00028BCD1054900E03146E5
S315200069602B46039A208808F029FFBAE72620B1E7AC
S31520006970192F00202DE9F341054608460C4608F05C
S315200069803BFC064678B1254808F029FC58B18642DA
S315200069903246224928BF0246204608F0C2FC10B1E2
S315200069A002B0BDE8F0811E4F1C4E27E03368013A45
S315200069B0C6E90233D7F80031C7F8042157F8230077
S315200069C0013303F03F030190C7F800312846CB6915
S315200069D0124A01A998470028E2D1204608F00CFC6B
S315200069E08046304608F0FBFB80454246314628BFAC
S315200069F00246204608F095FC0028D1D1204608F012
S31520006A00FBFB296818B1D7F80421002ACED12846E5
S31520006A10CB6802B0BDE8F041184700BF5C1D0020DE
S31520006A20541C002070B504460D460E4E284608F02C
S31520006A30D6FB28B923682046BDE870409B681847D6
S31520006A4031462846FFF744FD0D28EFD048B9236884
S31520006A5020469B690349984718B9024809F067FA06
S31520006A60E4E770BD8C1D002008B50B46498AB1F5B8
S31520006A70817F15D005D840F2011291420CD0A62074
S31520006A8009E06FF481728A18012AF8D81A7D06481F
S31520006A9009F05CFA10B108BDDB6AC3600020FAE792
S31520006AA0DB6A0361FAE700BF541C002008B50348DF
S31520006AB00A7D498A09F04AFA08BD00BF541C002005
S31520006AC091F8263070B50C46866803B9A83694F836
S31520006AD02730257D2BB12A46618A174809F036FAD8
S31520006AE048BB032D26D8DFE805F016020E113368C1
S31520006AF09B6894F82420618A5AB904F12C02304606
S31520006B00BDE87040184733681B69F2E733689B6914
S31520006B10EFE70022F3E73368618ADD6A94F82430D0
S31520006B2033B9E26A3046AC46A369BDE87040604797
S31520006B300022F7E7262070BD541C00202DE9F041E5
S31520006B4000254B6892B0052B0746884616468DF8D9
S31520006B5005508DF806508DF8075040F2AF800A6830
S31520006B60023B13440DF1050102A8CDE9033302923D
S31520006B70059208F010FC0446002840F09B800DF199
S31520006B80060102A808F007FC0446002840F092807F
S31520006B900DF1070102A808F0FEFB0446002840F08C
S31520006BA08980D8F804203368802A00F282807268AF
S31520006BB07F2A40F2818003F108027E33CDE9073235
S31520006BC09DF806300692013B0992042B6FD8DFE828
S31520006BD003F037035F6751000020089A069B9A420C
S31520006BE088BFD41AE5B20446002133680BA803F106
S31520006BF00802CDE907231C22069309930A910EF079
S31520006C00CBF8022106A808F004FB9DF8061006A87A
S31520006C1041F0800108F0FDFA9DF8071006A808F05B
S31520006C20F8FA214606A808F019FB294606A808F016
S31520006C30F0FA726805F10A03934241D90DF0E9FF93
S31520006C40012200257B6828480C93284B8DF82C20A0
S31520006C500A93CDE90D5509F06AF9254B1A68C3E95F
S31520006C600222244BC3F8045106AA02A90AA809F055
S31520006C7092F9B2E701227B688DF82C200C931E4BEB
S31520006C80002240F205111B480A9309F05FF9EBE751
S31520006C9003227B688DF82C200C93184B0A93E3E78C
S31520006CA004227B688DF82C200C93154BF6E72A20BE
S31520006CB093E7C224002597E71924FBE7192493E7D5
S31520006CC0083573600AAA2946306800F02FFF9DF820
S31520006CD00600BDF82820023818BF012033685A5311
S31520006CE012B0BDE8F08100BF8C1D0020945D01200C
S31520006CF05C1D0020541C0020BC5D0120E45D0120A9
S31520006D000C5E012038B500240125144B144803F5E8
S31520006D100172C0E901230360C360C0E90844057419
S31520006D204482047584610477846209F000F90D4B6E
S31520006D300D4803F50272C0E901230360C360C0E970
S31520006D40084405744482047584610477846209F0DA
S31520006D50EEF8064BC3E9404438BD00BF152D002090
S31520006D608C1D00200D2B00205C1D0020541C0020B3
S31520006D702DE9F041002486B0884617461E460B2290
S31520006D8001AB03A9CDE90344CDE90144CDF8134075
S31520006D9000F092FD044670B140F20123984231D0B2
S31520006DA0012009F0EFFB68B301211F20174A03AB2E
S31520006DB009F0DBFB26E0019D0A2D01D02F24EFE709
S31520006DC02A4602A903A806F057F9029A04AB9A426A
S31520006DD0A8F80000F2D12A4602A90DF1110006F00A
S31520006DE04BF9029A0DF113039A423870E6D12A46DE
S31520006DF002A905A806F040F9029A0DF116039A4257
S31520006E003070DBD1204606B0BDE8F0812C5E012033
S31520006E100023F0B587B001930C46D1E9001201ABEF
S31520006E2000F056FD40F20123984225D102AD2A46B4
S31520006E30144B03F110072E4618685968083303C609
S31520006E40BB423546F7D163680F2B02D8192007B00D
S31520006E50F0BD256806AE134603CBB34228606960B1
S31520006E601A4605F10805F6D110230193019B6268A5
S31520006E70934204D90DF0CDFE0028E8D1F6E7002094
S31520006E806360E4E72860012010B540F26314A14254
S31520006E90034608D040F29710814215D0B1F5B17F54
S31520006EA00DD0A62010BD42B11168094BA1F57A720A
S31520006EB09A4202D800F044FDF4E72F20F2E702B10F
S31520006EC012681A620020EDE702B112685A62F9E7E9
S31520006ED0B8820100F0B5B1F5AA7F97B015460646EF
S31520006EE01A461C9C3CD8B1F5A07F09D840F2051360
S31520006EF0994266D040F2111399425BD0A6205EE0FB
S31520006F006FF4A07319441329F8D801A353F821F07C
S31520006F10FD6F0020FD6E002017700020FD6E002002
S31520006F201D70002023700020297000202F70002063
S31520006F30FD6E0020FD6E0020FD6E0020FD6E0020FF
S31520006F40FD6E0020FD6E0020FD6E0020FD6E0020EF
S31520006F50FD6E0020357000203B700020457000201B
S31520006F60B1F5C17F00F08B800ED840F265139942AF
S31520006F707BD0B1F5B37F7DD0B1F5B27FBED12346AC
S31520006F80294600F0F9FC19E040F29313994200F0EB
S31520006F90848040F295139942B0D1CDE90D5205B9BE
S31520006FA0EAB933683046D3F880300DA9984730B90E
S31520006FB00E9B21E02346294600F094FD48B317B0E6
S31520006FC0F0BD00F12807384603920DF027FF039AFB
S31520006FD00130CDE906050597089215B90AB10DF0DD
S31520006FE018FE07AB00933046728A318A05AB00F053
S31520006FF02FFD0028E3D1089B23600AE003681B6B62
S315200070002946304698470028D9D128460DF006FF54
S3152000701020600020D3E703689B6BF1E703681B6CB5
S31520007020EEE703685B6CEBE703689B6CE8E70368B5
S31520007030DB6CE5E703685B6DE2E72346294600F053
S315200070403BFCBBE721230C9303680DAF0392DB6D5A
S315200070500B970BA99847039A0028B0D113462021F5
S315200070602A46384609F07AFAD2E72346294600F01E
S315200070708FFCA3E72346294600F040FD9EE7CDE995
S3152000708009530DB9002BAAD1336830469B6F09A945
S315200070909847002893D10A9BAEE7CDE90B520DB94C
S315200070A0002A9CD133683046DB6F0BA9984700280D
S315200070B085D10C9BA0E700BFF0B54B680646602B38
S315200070C00C461546A5B029D900278222394603A8A1
S315200070D002970DF061FE01AB8622304602A9019788
S315200070E000F056FC40F20123984210D184220C492C
S315200070F002A801920DF085FE2268019902A800F0EF
S315200071002BFD28606368984205D90DF082FD002882
S31520007110F2D025B0F0BD60600020FAE71920F8E72C
S315200071204B5E012070B50026044696B02A220D46F5
S315200071300BA831460A960DF02FFE01AB2E222046D3
S315200071400AA9019600F018FC40F20123984227D1A3
S3152000715018230193174B0AAC03F118062246186828
S315200071605968083303C2B3421446F7D100241C22BF
S31520007170214603A802940DF00FFE019902AA0AA83F
S3152000718000F0EAFC6B680646984210D8024602A92F
S3152000719028680DF036FE6B689E4205D90DF039FD44
S315200071A00028E3D016B070BD20466E60FAE719209D
S315200071B0F8E700BFD05E012070B5B1F5B27F054675
S315200071C016461C4692B000F0088117D840F21113DB
S315200071D0994260D06FF4A07319448BB2132B26D832
S315200071E0132924D8DFE801F05E236B237885929F4C
S315200071F0232323232323232323ACC8D540F293130D
S31520007200994200F02F81B1F5CA7F1DD240F2811339
S31520007210994200F01481B1F5C17F0AD240F265137C
S31520007220994200F0E580B1F5B37F00F0E880A62012
S3152000723099E0FCD13146224609A809F002F82846F1
S3152000724009A900F0ABFB8EE040F2A113994200F0B1
S315200072501D81B1F5D17F11D240F29513994200F0EC
S315200072600B81B1F5CB7FE2D13146224609A808F041
S31520007270E8FF284609A900F0D9FB74E0D7D1002AF7
S31520007280D5D03146224609A808F0DBFF284609A9B1
S3152000729000F03AFC67E02246314612B0BDE8704065
S315200072A000F01ABC02B13CB900228249284612B02D
S315200072B0BDE8704000F024BA22463146F6E702B116
S315200072C03CB900227B49284612B0BDE8704000F048
S315200072D03FBA22463146F6E702B13CB9002275494B
S315200072E0284612B0BDE8704000F05ABA2246314610
S315200072F0F6E702B13CB900226E49284612B0BDE835
S31520007300704000F05FBA22463146F6E702B13CB93A
S3152000731000226849284612B0BDE8704000F064BAE1
S3152000732022463146F6E702B13CB900226149284699
S3152000733012B0BDE8704000F069BA22463146F6E741
S3152000734002B194B900211C220AA809910DF024FD4E
S315200073502021594AAB8A09A805F038FD09A9024619
S31520007360284600F079FA12B070BD2246314612B096
S31520007370BDE8704000F070BA02B13CB90A224F490C
S31520007380284612B0BDE8704000F090BA2246314639
S31520007390F6E702B1B4B9102105A808F0BDFF022313
S315200073A010210093212309AA05A809F097F800289F
S315200073B0D9D109A80DF032FD09A90246284600F0C8
S315200073C081FAD0E7102C01D92F20CCE702232146C1
S315200073D000933046212309AAE7E7002AF4D0002BA0
S315200073E0F2D01A46314612B0BDE8704000F0BEBA5F
S315200073F02246314612B0BDE8704000F0C3BA02B151
S31520007400B4B90023CDE90933CDF82B302B6A09A86E
S315200074100293EB8A0193EB6900936A8A298AAB6906
S3152000742008F0CAFE0B22284609A900F061FB9AE75C
S315200074302246314612B0BDE8704000F059BB02B179
S3152000744054B9002305AACDE909238DF8143028461E
S3152000745009A908F048FF86E72246314609A808F020
S31520007460F0FEF4E73146224609A808F0EAFE28464F
S3152000747009A900F0ABFA76E73146224609A808F0BA
S31520007480E0FE284609A900F0B9FA6CE732B9802255
S31520007490314628300DF080FC002064E77F2C93D8FD
S315200074A02246314628300DF0ACFC00232C4484F8CB
S315200074B02830F1E7C6640120E95E0120EC5E012058
S315200074C0012903BF034B00201B78A62008BF137099
S315200074D0704700BF39310020022938B514461D46B1
S315200074E00FD12022002108480DF056FC3CB1202D5A
S315200074F02A46214628BF202203480DF082FC002080
S3152000750038BDA620FCE700BF19310020104608B57B
S315200075106AB163B102290CD1202B28BF20231A4639
S31520007520029B05491A600DF06CFC002008BD2F2037
S31520007530FCE7A620FAE700BF19310020012905D172
S3152000754002B11278024B00201A707047A6207047AD
S31520007550393100200023F0B585B007460E46254870
S3152000756003A91546039300F093FB002840D1224C33
S31520007570236813B90398F9F7E5FDD5E900121F4BE7
S3152000758018460DF03EFC03466868B0F5007F05D22C
S31520007590C0F50072FF2118440DF0FEFB022008F012
S315200075A0F1FF48B16B680221019323681F200093E5
S315200075B0134A039B08F0D9FF236803980F494FF419
S315200075C000721844F9F710FE3846216800F02AFCAC
S315200075D070B93046696800F025FC48B90020226859
S315200075E06B68134413F03F021CBF40339B1A236081
S315200075F005B0F0BD21720800BC1D0020192F002007
S315200076007C6001202DE9F0431D46002389B0074602
S3152000761008460E461446CDE9053300F0FFFA18B9A0
S31520007620D82009B0BDE8F083304605A900F030FB2C
S315200076300028F6D1204600F0F1FA0028F0D02046A6
S3152000764006A900F025FB0028EBD1DDE90596079079
S3152000765007A9184800F01CFB044600BB079919EB44
S3152000766001081ED10EB10DF0D4FA022008F08AFFCF
S31520007670A0B1079B022100931F203B46CDE901962E
S315200076800D4A08F072FF6B689E4210D8324641467A
S3152000769028680DF0B6FB6B689E42E4D86E602046E3
S315200076A0BFE7022008F06EFF0028ECD0E1E719249E
S315200076B0F5E700BF21720800A160012000200A4BD7
S315200076C010B5186032B9094C2146BDE8104008486B
S315200076D000F0A8BBA1F500518C1801F067FA2046EE
S315200076E005F0C8F8F0E700BFBC1D002000E00F0839
S315200076F021720800014800F0CBBA00BF21720800B1
S31520007700014800F0A7BB00BF00720800002307B5A0
S315200077100348019301AB00F0DFFA03B05DF804FBE8
S3152000772000720800014800F065BB00BF0C7208001B
S3152000773010B506480C4600F083FA40F20123984221
S3152000774002BF4FF6F1730020238010BD0C72080093
S31520007750014800F07FBB00BF0D720800002307B56B
S315200077600348019301AB00F0B7FA03B05DF804FBC0
S315200077700D720800014800F03DBB00BF0B720800E7
S3152000778010B506480C4600F05BFA40F201239842F9
S3152000779002BF48F201030020238010BD0B720800AF
S315200077A0014800F057BB00BF0E720800002307B542
S315200077B00348019301AB00F08FFA03B05DF804FB98
S315200077C00E720800014800F045BB00BF1072080089
S315200077D0002307B50348019301AB00F07DFA03B0FF
S315200077E05DF804FB10720800014800F033BB00BFAF
S315200077F011720800002307B50348019301AB00F07E
S315200078006BFA03B05DF804FB11720800014800F022
S3152000781021BB00BF12720800002307B5034801935D
S3152000782001AB00F059FA03B05DF804FB12720800B0
S31520007830014800F0DFBA00BF0873080010B50548FC
S315200078400C4600F0FDF940F20123984204BF0020C7
S31520007850208010BD08730800014800F0FBBA00BF65
S315200078600F72080073B5002601AB0E480C4615466C
S31520007870019600F031FA40F2012398420BD164B10F
S315200078800C2D0CD920462A4607490DF048FA3046D9
S315200078902C4404F8016C02B070BD0B20FBE71920C4
S315200078A0F9E700BF0F720800BF600120014800F011
S315200078B0D1BA00BF04720800014800F00DBA00BF1B
S315200078C004720800014800F0DFBA00BF1F720800EA
S315200078D0014800F057BA00BF1F720800014800F0A7
S315200078E089BA00BF0772080037B512480D4600F066
S315200078F0A7F940F201239842044604D14FF470635D
S315200079002B80002014E098B92B88B3F5805FF8D33C
S31520007910012008F037FE50B140F26D132F220121CD
S31520007920CDE900322046044B044A08F01EFE2F20E3
S3152000793003B030BD07720800CC600120EC60012046
S31520007940014800F06FBA00BF0872080010B506485B
S315200079500C4600F09DF940F20123984202BF4FF4F5
S315200079607A730020236010BD08720800014800F0D9
S3152000797071BA00BF09720800014800F0ADB900BF16
S3152000798009720800014800F065BA00BF0A720800B3
S31520007990014800F0A1B900BF0A72080008B50A46DE
S315200079A002480349FFF7D6FD08BD00BF267208002E
S315200079B0277208000B46024A02490348FFF722BEF7
S315200079C02772080026720800FD60012008B50A46C5
S315200079D002480349FFF7BEFD08BD00BF2472080018
S315200079E0257208000B46024A02490348FFF70ABEE1
S315200079F025720800247208001961012008B50A467C
S31520007A0002480349FFF7A6FD08BD00BF2272080001
S31520007A10237208000B46024A02490348FFF7F2BDCB
S31520007A2023720800227208003F610120022307B555
S31520007A30D1E9001201A80193FEF780FC18B901993B
S31520007A40024800F0EFF903B05DF804FB207208004D
S31520007A501FB5022003900698009003A8FEF786FC27
S31520007A6018B90399024800F0DDF905B05DF804FB6A
S31520007A7020720800002370B5154886B00D461646BC
S31520007A80049300F0CBF808B3114804A900F000F9DC
S31520007A90D0B9049B3246002B08BF0223294605A8ED
S31520007AA00593FEF7CDFC0446022008F06BFD50B18D
S31520007AB002947368022101936B681F200093054A84
S31520007AC0049B08F052FD204606B070BDD824EBE793
S31520007AD02072080058610120014800F0BBB900BFA0
S31520007AE029720800014800F0F7B800BF2972080083
S31520007AF0014800F0C9B900BF05720800014800F02E
S31520007B0041B900BF05720800032307B5D1E9001269
S31520007B1001A8019300F046F818B90199024800F02F
S31520007B2081F903B05DF804FB307208001FB51346D7
S31520007B300022039203AA0192202200920A460146BD
S31520007B4004480CF094F8002814BFAC20002005B09F
S31520007B505DF804FB09000002014B08F057BC00BF8A
S31520007B6031030120292828BF002010B4074C04EB3C
S31520007B708000074CD4E8AF4F1CB1A4465DF8044BF7
S31520007B8060475DF8044B08F006BD00BFA3610120E5
S31520007B90C01D0020024BD3E88F0FC0B2704700BF34
S31520007BA0B010002070B504468AB000680D4616460F
S31520007BB008F0F2FC1022002106A80DF0EDF823684B
S31520007BC00B4A03930123CDE901234FF4007309499E
S31520007BD03246CDE9043101A829466B460BF0DFFF7A
S31520007BE0014618B1044805F051FAAC200AB070BD20
S31520007BF0002480000010C0044762012050B1064BCB
S31520007C00984205D0C0B200F5300040F0A060704721
S31520007C1040F20120704700BF0BE000F007B5014697
S31520007C20064801AB6A46006807F0DCF8FFF7E6FF76
S31520007C30B0FA80F0400903B05DF804FB3410002050
S31520007C407FB5002304460D46ADF8063008F0B7FC94
S31520007C50C0B10E4E03AB2146306802AA07F0C2F827
S31520007C60FFF7CCFF60B9039B214630680DF1060271
S31520007C7007F016F8FFF7C2FF10B9BDF806302B80C3
S31520007C8004B070BD40F20120FAE700BF3410002096
S31520007C907FB5002304460D46039308F090FCB0B14F
S31520007CA00C4E02AB2146306801AA07F09BF8FFF77D
S31520007CB0A5FF50B9029B2146306803AA06F0F0FFC3
S31520007CC0FFF79CFF08B9039B2B6004B070BD40F200
S31520007CD00120FAE7341000202DE9F0431D46002349
S31520007CE085B02B6007460E46914608F068FC0028B2
S31520007CF03ED0DFF88C8003AB3946D8F8000002AAC4
S31520007D0007F070F8FFF77AFF0446B8B9039B93B3E0
S31520007D10C6B14B4531D232463946D8F8000006F076
S31520007D20BFFFFFF76BFFD8B9039B012B03D1337835
S31520007D30003B18BF012300222B60F254204605B0D9
S31520007D40BDE8F083012B01D02B60F7E73946D8F840
S31520007D5000000DF1070206F0A3FFFFF74FFF08B161
S31520007D600446EBE79DF8073003B103982860E5E762
S31520007D7040F20124E2E71E24E0E71924DEE700BFF3
S31520007D80341000202DE9F7431D4600232B600646BC
S31520007D900F46904608F013FC00B3DFF8549001AB71
S31520007DA06A463146D9F8000007F01CF8FFF726FF8F
S31520007DB0044678B9019BA3B167B1434513D83A4627
S31520007DC03146D9F8000006F06BFFFFF717FF60B9C0
S31520007DD0019B2B60204603B0BDE8F08340F20124CE
S31520007DE0F8E71E24F6E71924F4E70446F2E700BF75
S31520007DF03410002013B50446ADF8061008F0DFFB5A
S31520007E0058B107480223214600680DF1060206F004
S31520007E10FDFEFFF7F3FE02B010BD40F20120FAE7A7
S31520007E203410002013B50446019108F0C8FB58B160
S31520007E30042307480DEB03022146006806F0E6FE00
S31520007E40FFF7DCFE02B010BD40F20120FAE700BFCA
S31520007E503410002010B5044608F0B1FB68B179B1A2
S31520007E600848012A1346006838BF01230A462146DE
S31520007E7006F0CCFEFFF7C2FE10BD40F20120FBE764
S31520007E802F20F9E73410002010B5044608F097FBA0
S31520007E9058B101B962B90748134600680A46214617
S31520007EA006F0B4FEFFF7AAFE10BD40F20120FBE764
S31520007EB02F20F9E7341000200346054A05491068AB
S31520007EC003448B428CBF4FF0FF301360704700BFD6
S31520007ED004100020006000200348044A0449121AB6
S31520007EE0921008F08FBB00BF687B0120687B0120C1
S31520007EF04031002008B500F02FF8FFF7EDFF124BB8
S31520007F0012498B4212D30020114B12498B4218D3AF
S31520007F10FEF77AF9186850F82240586840F822404F
S31520007F20013298688242F5D30C33EAE70022F8E75B
S31520007F301C6844F8220001325C68A242F8D3083358
S31520007F40E4E70022F8E700BF4470012050700120CA
S31520007F5050700120507001204FF480414FF0FF30C7
S31520007F60114B124A10B59A60D3F8882042F4700259
S31520007F70C3F888200E4A91660E4901F50052106614
S31520007F800D4850660220C3F8D000BFF34F8FBFF3D1
S31520007F906F8F01244FF440330848C0F88041D360E6
S31520007FA004600B6110BD00BF00ED00E00060002002
S31520007FB00090005000800044F7FF370000E100E009
S31520007FC0014B1868704700BF0C100020084B1B6F30
S31520007FD003F00703022B04D0032B05D0012B05D079
S31520007FE0FEE7044B18687047034BFBE703487047CE
S31520007FF0008000500C10002014100020002D3101AC
S3152000800008B5FFF7E3FF054B1B6FC3F303330133BB
S31520008010B0FBF3F0024B186008BD00BF0080005093
S31520008020081000200048704700B4C404014B1868AB
S31520008030704700BF1410002000487047002D310102
S315200080404FF0B4439868C0F304400C280AD8DFE800
S3152000805000F00B0909090909072119091B1D1F0031
S315200080600F487047002070479B6803F04073B3F1B8
S31520008070807F11D0B3F1007F10D00A4A002B08BFB1
S3152000808010467047084870470848704708487047A8
S31520008090084870470848704708487047084870479E
S315200080A0405DC60000093D00C0EA210180BA8C016E
S315200080B00048E801005A62020024F40080841E0071
S315200080C040420F00014B1868704700BF1010002077
S315200080D070B59400224605460E46F9F785F8431CEE
S315200080E00AD058B92246314628460CF02BFE0028E5
S315200080F0034808BF002070BD0248FCE70248FAE7A3
S3152000810010E000F021E000F024E000F010B5044675
S31520008110F9F718F8431C10D088B900F07BFD2346E8
S3152000812020F003002044984201D1002010BD53F8CE
S31520008130042B0132F7D00348F8E70348F6E7034853
S31520008140F4E700BF0EE000F021E000F024E000F0AC
S31520008150044BD3F88420D206FBD4D3F88400C0F392
S31520008160811070470040005038B5104B0546D3F8B3
S3152000817080300C4603F00303022B0BD0032B0DD0CB
S31520008180012B0FD1FFF722FF0E2305B1286004B182
S31520008190236038BDFFF754FF0723F6E7FFF710FFEC
S315200081A00623F2E700231846EFE700BF00800050C1
S315200081B038B5184B0546D3F820010C4600F00700C9
S315200081C0062823D8DFE800F0040A0E16121A1E002D
S315200081D0012305B1286004B1236038BDFFF7F0FE06
S315200081E00523F6E7FFF722FF0323F2E7FFF728FF31
S315200081F00723EEE7FFF720FF0223EAE7FFF7E0FE7B
S315200082000623E6E7FFF712FF0423E2E700231846DA
S31520008210DFE700BF0080005038B5174B0546D3F87E
S3152000822028310C4603F00703013B052B20D8DFE855
S3152000823003F003131B0F0B17FFF7C2FE052305B12F
S31520008240286004B1236038BDFFF7BAFE0623F6E79F
S31520008250FFF7F6FE0723F2E7FFF7E8FE0323EEE734
S31520008260FFF7E4FE0423EAE7FFF7E6FE0223E6E74C
S3152000827000231846E3E700BF0080005073B50D4683
S315200082800021114B0191D3F88041064604F00304E6
S31520008290022C13D0032C0CD0012C13D101A8FFF7EC
S315200082A087FF10240EB1019B336005B12C6002B00C
S315200082B070BDFFF7C5FE07240190F3E7FFF7BCFE6C
S315200082C00190EFE70C46EDE700800050002337B51C
S315200082D00193164B0546D3F820320C4603F00703CC
S315200082E0042B21D8DFE803F0030B11161B00012312
S315200082F00DB1019A2A6004B1236003B030BD00217C
S3152000830001A8FFF789FF1223F2E7FFF799FE07235B
S315200083100190EDE708F081F90A230190E8E7FFF7DD
S31520008320D1FE09230190E3E70023E1E70080005016
S3152000833038B5104B0546D3F840310C4603F00303FD
S31520008340022B0BD0032B0DD0012B0FD108F065F992
S315200083500A2305B1286004B1236038BDFFF7B2FEB9
S315200083600923F6E708F05CF90C23F2E70123002045
S31520008370EFE700BF00800050002337B50193164B6E
S315200083800546D3F860320C4603F00703013B032B66
S315200083901FD8DFE803F0020E1914002101A8FFF709
S315200083A007FF10230DB1019A2A6004B1236003B0A0
S315200083B030BD002101A8FFF7BBFF1123F2E7FFF72D
S315200083C03FFE07230190EDE7FFF736FE02230190DB
S315200083D0E8E70023E6E700BF00800050002337B51A
S315200083E00193164B0546D3F894320C4603F0070347
S315200083F0013B032B1FD8DFE803F0020E19140021DE
S3152000840001A8FFF7D5FE10230DB1019A2A6004B109
S31520008410236003B030BD002101A8FFF789FF112397
S31520008420F2E7FFF70DFE07230190EDE7FFF704FEC5
S3152000843002230190E8E70023E6E700BF0080005012
S3152000844038B5144B0546D3F800020C4600F0070059
S3152000845004281BD8DFE800F003090D1115000123BD
S3152000846005B1286004B1236038BD08F0D6F80A2388
S31520008470F6E7FFF727FE0923F2E708F0D1F80C23E9
S31520008480EEE7FFF7BDFD0F23800AE9E70023184634
S31520008490E6E700BF0080005038B5144B0546D3F8F8
S315200084A008020C4600F0070004281BD8DFE800F07D
S315200084B003090D111500012305B1286004B12360BD
S315200084C038BD08F0AAF80A23F6E7FFF7FBFD0923D3
S315200084D0F2E708F0A5F80C23EEE7FFF791FD0F234E
S315200084E0800AE9E700231846E6E700BF008000502F
S315200084F038B5104B0546D3F840320C4603F003033B
S31520008500022B0BD0032B0DD0012B0FD108F085F8B1
S315200085100A2305B1286004B1236038BDFFF7D2FDD8
S315200085200923F6E708F07CF80C23F2E70123002064
S31520008530EFE700BF0080005038B5104B0546D3F852
S3152000854060310C4603F00303022B0BD0032B0DD016
S31520008550012B0FD108F061F80A2305B1286004B178
S31520008560236038BDFFF7AEFD0923F6E708F058F87B
S315200085700C23F2E701230020EFE700BF0080005024
S31520008580B0F5207F1FD009D8B0F5007F15D003D8CD
S3152000859068B1B0F5C07F0AD000200CE0B0F5607F4E
S315200085A0FAD10B4BD3F88000C0F3011003E0084B3F
S315200085B0186FC0F3033001307047054BD3F8900095
S315200085C0C0F30460F7E7024B186FC0F38020F2E790
S315200085D00080005002464FF48030104B10B598664C
S315200085E00020FFF7CDFF504341F671320C4BDC697A
S315200085F0DA635A6804F4803422F4401259B90949DE
S31520008600884294BF00200120000502435A600CB125
S315200086100022DA6310BD0449F2E700BF0090005043
S3152000862000000350005A6202002D31011FB50021BF
S3152000863080280446CDE9001100F0998029D8002829
S3152000864000F09980A0F120043D2C35D83D2C33D85C
S31520008650DFE804F091999199A9A9A9A9A999B33C10
S31520008660C9603C99999932323232323232329999F2
S315200086709968D3993232323232323232323232320F
S3152000868032A9919191CE3C3CD8774DAE32323232DE
S315200086903288B0F5B06F00F090802DD8B0F5207FED
S315200086A071D00CD8B0F5C07F65D0B0F5007F65D00D
S315200086B0B0F5807F00F08680009804B010BDB0F53C
S315200086C0607F6BD00DD8B0F5407FF5D1FFF798FCD1
S315200086D002464FF42070FFF753FFB2FBF0F2520828
S315200086E05AE0B0F5806F5ED0B0F5A06FE4D10021DE
S315200086F06846FFF7EBFDDFE7B0F5106F78D016D8A8
S31520008700B0F5E06F79D00AD8B0F5C06F6BD0B0F570
S31520008710D06FD1D100216846FFF792FECCE7B0F5A5
S31520008720F06FC9D100216846FFF706FFC4E7B0F510
S31520008730406F3DD013D8B0F5206F63D0B0F5286FC9
S31520008740BAD10021324B0391D3F8703203F00303E0
S31520008750012B02D103A8FFF7EBFD039B3CE0B0F50C
S31520008760486FA9D100216846FFF738FEA4E7FFF736
S315200087702DFC0090A0E7FFF743FCFAE7FFF726FC65
S315200087800246204604E0FFF73BFC02464FF42070E9
S31520008790FFF7F6FEB2FBF0F200928DE701A8FFF795
S315200087A0E3FC019AEDE700216846FFF701FD83E728
S315200087B000216846FFF730FD7EE700216846FFF777
S315200087C05DFD79E74FF0E02302911B695B0705D534
S315200087D0FFF716FC0290029B00936DE703A902A8FF
S315200087E0FFF7A6FDF7E700216846FFF7A1FD63E73F
S315200087F000216846FFF750FE5EE700216846FFF736
S3152000880077FE59E700216846FFF7B6FD54E700BF1B
S315200088100080005008B58020FFF708FF034B9842E0
S315200088209EBF4FF48032024B1A6708BD005A62027F
S3152000883000A00050B0F5207F10B50C465DD008D8BA
S31520008840B0F5007F4ED003D8C0B1B0F5C07F15D0AB
S3152000885010BDB0F5607FFBD12C4B4C1ED3F8FC200D
S315200088602B4912F0807F4FEA041427D1D1F88030AB
S3152000887023F030032343C1F88030E9E707F004FFF3
S3152000888007F010FF4FF48031224B214A1967136FEE
S31520008890013C23F4704343EA04331367FFF7B0FB2C
S315200088A00446FFF755FCC0F10201204607F0F4FE0E
S315200088B000F042F8BDE81040FFF7ACBFD3F8FC202B
S315200088C022F08072C3F8FC20D1F8802022F03002FA
S315200088D02243C1F88020D3F8FC2042F08072C3F8EE
S315200088E0FC20B5E70A4A4C1ED2F8903023F0F85304
S315200088F043EA0463C2F89030AAE7054A4C1E136F78
S3152000890023F4806343EA84231367A1E700ED00E0A4
S31520008910008000500090005008B50121022000F090
S315200089202FF807F0B1FE07F0BDFE4FF48032014B61
S315200089301A6708BD0090005008B54FF4C070FFF7C5
S3152000894075FEBDE808400449884294BF01210221F2
S315200089504FF42070FFF76EBF80F0FA02024A536B85
S315200089600342FCD1704700BF00400950034A0179F9
S31520008970D36E23F030030B43D3667047004000507C
S31520008980F8B504461C4BD3F88420D106FBD4D3F883
S315200089908430C3F381139C422CD0FFF717FB012CA4
S315200089A0064602D1214607F077FE07F095FE4FF0E6
S315200089B00072124B07465A66204607F094FE4FF483
S315200089C080630D4D621E93402B676B6E9A0103D414
S315200089D0D5F884309B060AD5384607F081FE022C4E
S315200089E008D13046BDE8F840002107F055BED5F83D
S315200089F08430EAE7F8BD00BF004000500060005018
S31520008A0010B50C4608B9FFF7E1FA074B21461B784B
S31520008A103BB1064B984204D80120BDE81040FFF731
S31520008A20AFBF0220F9E700BF3A310020005A6202A8
S31520008A304FF0004238B5244B244C5A664AF6CD33C3
S31520008A40656C014605F00105236428BB0120FFF76C
S31520008A5085FF6368DB0715D51D4B586008461D4BFF
S31520008A60226BD2070CD4984208D1072415B1174B94
S31520008A70194A1A6407F038FE204638BD0130EFE760
S31520008A809842F2D00024F1E70132236B13F0080359
S31520008A9005D08A42F8D1E8E700220E49F5E78A4256
S31520008AA0E3D020210A4A91620121A2F58052516029
S31520008AB00649084A886A800603D49342D5D00133F2
S31520008AC0F8E79342DDE700BF0090005000400950D0
S31520008AD00060095040420F003254FFFF4FF0004221
S31520008AE038B5164B01465A664AF6CD33144C154A0C
S31520008AF0656C236443780B205B0043F00103D3634A
S31520008B00FFF72CFF63688A7823F4F87343EA02138D
S31520008B106360CA784B7943EA0223A3600A798B798A
S31520008B2043EA022323610878FFF782FFEB0744BF5D
S31520008B30054B236407F0D8FD012038BD0090005076
S31520008B4000400950004000503254FFFF4FF00042D1
S31520008B50124B70B55D6E03F580535A664AF6CD33D7
S31520008B6004460F4980204E6C0B64FFF7F7FE0B6A14
S31520008B7023F00F030F2C94BF234343F00F030B6204
S31520008B80F30744BF074B0B64002DA2BF4FF00042F2
S31520008B90054B5A6607F0A8FD70BD00BF0080005047
S31520008BA0004009503254FFFF00A000504FF480329D
S31520008BB0054B9A6641F6713203F51C33DA630122BE
S31520008BC003F50053DA6070470090005041F6713289
S31520008BD00121064BDA6303F50052D1600022DA63E5
S31520008BE04FF48032A3F518339A667047000003507D
S31520008BF04FF48032064B5A6603F5E6239B69C3F38E
S31520008C008512827003F03F021B0B4270037070477F
S31520008C10009000500120034B9B680A3303F01F038A
S31520008C20984070470080E00F08B5B0B14FF48062DD
S31520008C300B4B9A6607F076FD4FF098435A6CD2029A
S31520008C40FCD54FF48062586D064B10F470209A665E
S31520008C5004D0BDE8084007F084BD212008BD00BF30
S31520008C600090005000A000502DE9FF474FF000086B
S31520008C700E4617460446CDF80080002859D022B962
S31520008C800025284604B0BDE8F087002951D032F0EF
S31520008C90030902F0030A1FD04FF0E063C0E9003851
S31520008CA001230191C0F808800293C0F81C8049F086
S31520008CB0005301A9039307F022FD4946204607F0F9
S31520008CC028FD2046FFF7B0FF054628B14A46414613
S31520008CD030460CF061F8D4E7BAF1000FD0D04FF04F
S31520008CE000084FF0E063C4E900380123CDF804D032
S31520008CF00293114B204601A9C4F80880C4F81C80B1
S31520008D00039307F0FCFC0421204607F002FD2046D1
S31520008D10FFF78AFF054608B13A46D8E7009A4E443F
S31520008D20EB00013522FA03F3AA4506F8013BF7D1F9
S31520008D30A6E72125A5E700BF040000202DE9F04184
S31520008D40904602780C46022A8AB032D0032A35D0C1
S31520008D50012A38D114271D4A00F10C052260002271
S31520008D609E01C4E90122E2613146204607F0D1FC8A
S31520008D700123204647F0005704A946F00056CDF8B7
S31520008D800480029303960495059306970795089306
S31520008D90099707F0AAFC204601A907F0A6FC204661
S31520008DA007A907F0ACFC2046FFF73EFF0AB0BDE856
S31520008DB0F0812027064A00F10C05CFE72027054A37
S31520008DC000F10C05CAE72120F0E700BF00020103ED
S31520008DD0000301030004010310B591B188B10023FB
S31520008DE0C0E90133084B00F10C0203F1200153F8CE
S31520008DF0044B8B4242F8044BF9D102230370002026
S31520008E0010BD2120FCE700BFDD62012010B591B125
S31520008E1088B10023C0E90133084B00F10C0203F1AD
S31520008E20200153F8044B8B4242F8044BF9D103231B
S31520008E300370002010BD2120FCE700BFFE62012048
S31520008E402DE9F04F0D46914604468BB000285ED0A2
S31520008E5000295CD0002A5AD00278022A0CD0032A94
S31520008E604DD0012A53D114262B4900F10C0B00F1C9
S31520008E7004082C34374607E020261C27274900F112
S31520008E800C0B00F104082C349F4240D8D8F804205B
S31520008E90002A3ED1D8F80030284603F03F0AC5E91B
S31520008EA00012AA60EA61514607F033FC2846D8F83A
S31520008EB0001007F02EFC01224AF00053284601A993
S31520008EC046F0005647F00057CDF804B002920396BC
S31520008ED0049405920693CDF81C900892099707F002
S31520008EE004FC284604A907F000FC284607A907F039
S31520008EF006FC2846FFF798FE0BB0BDE8F08F20262B
S31520008F00074900F10C0B00F104082C34B2E72120AC
S31520008F10F2E70F20F0E700BF00020303000303037C
S31520008F20000403032DE9F04387B00D4691461E4603
S31520008F300446DDF83880002836D0B8F1000F33D04B
S31520008F4002B98BBB6B1EDBB2022B2DD8174AD75C1E
S31520008F500F9B9F4228D80023280200F1407000F57D
S31520008F6080703146C4E901332060E361204607F072
S31520008F70D0FB01236946204646F0005647F00057AD
S31520008F80CDF8009001930296CDF80C8004930597B6
S31520008F9007F0ABFB204603A907F0B1FB2046FFF7FD
S31520008FA043FE07B0BDE8F0832120FAE71F630120C6
S31520008FB0F0B50F4616461D46044693B010B921203B
S31520008FC013B0F0BD0029FAD0002AF8D0002BF6D035
S31520008FD0002331461A46384607F0A9FC0028EFD16F
S31520008FE0304602A907F050FC0028E9D138683449F8
S31520008FF0029A88426B695ED19342E0D32B68002B9C
S31520009000DDD14FF060623846C4E90023A360E361F6
S3152000901001A907F0E7FC0028D2D10199204621F4C6
S31520009020F061019107F075FB6946284607F0DAFCE6
S315200090300028C5D12046009907F06BFB384609A9C0
S3152000904007F07EFD0028BBD1204609A907F04DFB7D
S3152000905038460CA907F07FFD0028B1D120460CA97F
S3152000906007F043FBEB684BB1284606A907F068FDDD
S315200090700028A5D1204606A907F037FB304603A9CC
S3152000908007F069FD00289BD1204603A907F02DFB98
S3152000909028460FA907F05FFD002891D120460FA989
S315200090A007F02DFB03252046FFF7BEFD012887D1BB
S315200090B0013DF8D184E7B3EB420F9FD27FE700BF93
S315200090C0200000B070B50E46154604468AB000282A
S315200090D05CD000295AD0002A58D0012329461A46A6
S315200090E0304607F024FC00284ED1B36813F4C04F55
S315200090F04CD0AB6803F4C043B3F5005F46D1254B93
S31520009100A060C4E90030E06107A9304607F06AFC98
S31520009110002839D12046079907F0FBFA012302934C
S315200091204FF00053204601A9039307F0DEFA30469C
S3152000913004A907F010FD38BB204604A907F0D5FA8C
S31520009140EB681BBBAB6803F4C043B3F5005F1DD1CE
S315200091506946284607F0BBFBB0B9009B6A699A426C
S3152000916016D32A6943F0005307920122204607A905
S3152000917008920325099307F0C2FA2046FFF754FD0B
S31520009180012801D1013DF8D10AB070BD2120FBE7AD
S315200091901D20F9E7000001022DE9F04391B00D46AC
S315200091A0DDE918760446DDF8688000286DD00029B0
S315200091B06BD0002F69D0B8F1000F66D0096801F096
S315200091C07041B1F1404F5BD0002B5BD1531E022B77
S315200091D05BD8120202F1C06202F580720023284693
S315200091E0C4E901332260E3610DA907F0FBFB0028E7
S315200091F043D120460D9907F08CFA3146204607F0D8
S3152000920088FA284601A907F09BFC002835D120467C
S3152000921001A907F06AFA284604A907F09CFC60BB5E
S315200092204FF00109204604A907F05FFA46F00056E0
S31520009230204607A90797CDF82090099607F055FAFA
S315200092402B680A9703F07043B3F1404FCDF82C906A
S315200092500C9603D120460AA907F047FA0123CDF838
S3152000926034800E931B9B204643F000530DA90F9389
S3152000927007F045FA2046FFF7D7FC11B0BDE8F0838A
S31520009280034AABE74FF0C062A8E72120F5E700BF0D
S31520009290000002062DE9F0418CB00D46DDE912866C
S315200092A00446149F002867D0002965D0B8F1000F26
S315200092B062D0002F60D0896889045DD5296801F0C5
S315200092C07041B1F1404F4DD0002B4DD1531E022B92
S315200092D052D82A4B03EB022200232846C4E9013345
S315200092E02260E36109A907F07DFB002837D12046DB
S315200092F0099907F00EFA3146204607F00AFA694620
S31520009300284607F01DFC50BB6946204607F0EDF9BC
S31520009310284603A907F01FFC08BB204603A907F02F
S31520009320E4F9012346F00056CDF8188007930896F5
S3152000933009970A93159B43F000530B932B6803F070
S315200093407043B3F1404F11D109A9204607F0CDF95A
S3152000935006A9204607F0C9F92046FFF765FC0CB0A0
S31520009360BDE8F081064AB7E7064AB5E706A92046D2
S3152000937007F0BBF909A9ECE72120F0E70001010677
S315200093800000030600000106012908B50BDC074B87
S31520009390074A00290CBF1146194600F089FCBDE892
S315200093A0084007F02BBC6FF0730008BD08000002D0
S315200093B0090000020123A0F50320064AA0F58070CB
S315200093C0410900F01F00834052F82100034342F870
S315200093D021307047741E00202DE9F04780460F4645
S315200093E01E46154688B00AB1002313600EB100232D
S315200093F033604FF0100ADFF8B090CDF800A00023BC
S315200094003A464146D9F8000005F098FC0446F8B9DA
S315200094103B68214A93422ED14FF0180A0146524604
S3152000942002A80BF0B9FCCDF800A023464146D9F896
S31520009430000002AA05F082FC044648B9069B7B6020
S31520009440DDE90423C7E90223144B3B6025B9144CFC
S31520009450204608B0BDE8F087114CC5F800A0002EC4
S31520009460F6D033464146D9F8000002AA05F0BAFCE8
S3152000947060B10446ECE7094A1DB99342E8D0094C8D
S31520009480E6E79342C5F800A0E9D0F8E733682A68F2
S315200094909B1A3360DCE700BFD175E105105D175ECE
S315200094A0FEDF00F0FFDF00F0341000202DE9F04F42
S315200094B093B00746884603F0D3F90446002848D1DE
S315200094C0384E3378FBB90146402202A80BF064FCE3
S315200094D0354D364A2B461035AA4228BF2A463448EF
S315200094E0013A00920068102202A90CF064FA4FF0AB
S315200094F0000982460DF1080BCA4512D12D4B9D421B
S31520009500E7D1012333702C4E337B8BB1D6E9002370
S31520009510984508BF97420BD1B568284613B0BDE8D9
S31520009520F08F5BF8040BFFF745FF09F10109E3E72C
S31520009530DFF89090DFF890A0DFF890B0630959F833
S31520009540233004F01F02D340DB0704D40134812CDE
S31520009550F4D11A4DE1E7002304F5032505F58075BE
S315200095601A46284602A9FFF737FF08B150450BD106
S31520009570DDE90423984508BF9742E7D10123C6E9D0
S3152000958000783373B560C8E70D4B984201D0584533
S31520009590DCD1074B2946186805F068FC0028D5D091
S315200095A0D7E700BF3B310020003108008131080099
S315200095B03410002090310800181B0020823108004A
S315200095C0FFDF00F0741E0020FEDF00F011E000F047
S315200095D02DE9F84F994640F26C739A4283460E461F
S315200095E01746DDF828A06DD812B1B9F1000F6CD05E
S315200095F0BAF1010F6CD831465846FFF757FF07F1ED
S31520009600100805464146012007F0DEFF04460028E3
S3152000961061D0424600210BF0BFFB304B9D4234D92E
S315200096202F480368D90713D42E4D2F4BC4E902B611
S315200096302360002614E05A0950F8222003F01F0167
S31520009640CA40D20705D405F5032505F20115ECE736
S3152000965000231D460133812BEDD16FF08D06234D5E
S31520009660C4F804A02FB13A46494604F110000BF085
S31520009670C8FB1F48434622462946006805F0C6FA1D
S3152000968068B92846FFF796FE0BE0002321461A46C6
S315200096902846FFF7A1FE78B1164B98420CD06FF002
S315200096A091064246002120460BF076FB204607F025
S315200096B09BFF3046BDE8F88F6368012BB9D16FF068
S315200096C08406EEE76FF09106F3E76FF08606F0E783
S315200096D06FF08506EDE76FF08C06EAE7813108002A
S315200096E0741E002000310800105D175E82310800CC
S315200096F034100020FEDF00F02DE9F04389B08146CA
S31520009700DDE910780E4615461C4693B1B8F1000FD8
S3152000971004D16FF0860009B0BDE8F083002FF8D0A1
S31520009720B7F1005FF5D3C3F1005303F500339F4231
S31520009730EFD8102200210DEB02000BF02DFB0023A9
S3152000974031464846CDE90233FFF7B0FE184B0646B0
S31520009750984202D96FF08B00DDE702AB03AA04A979
S31520009760FFF73AFE134B9842F4D010B1013B9842D2
S3152000977013D1029BA4B1AB4215D853EA0504C8D134
S31520009780039B0D48C8F8004000943A4631460068CD
S315200097902B4405F0D3FA0028BDD06FF09100BAE72C
S315200097A0AB42EDD2B5E75B1B9C4228BF1C46E7E7E0
S315200097B081310800FFDF00F03410002070B5064626
S315200097C00D46144686B022B31022002102A80BF0C3
S315200097D0E3FA002330462946CDE90033FFF766FE3B
S315200097E00F4B984203D96FF08B0006B070BD6B46C5
S315200097F001AA02A9FFF7F0FD0A4B9842F3D010B157
S31520009800013B984208D1039B00206360009B2360A4
S31520009810EBE76FF08600E8E76FF09100E5E700BF21
S3152000982081310800FFDF00F070B586B006460D4690
S315200098301022002102A80BF0AFFA00233046294659
S31520009840CDE90033FFF732FE1F4B0446984203D979
S315200098506FF08B0006B070BD6B4601AA02A9FFF718
S31520009860BBFD1A4B9842F3D028B1013B984202D057
S315200098706FF09100EEE7039B012B21D0144B21467C
S31520009880186805F0F3FA0028F2D1124B1A7B32B190
S31520009890D3E90012AA4208BFB14208BF18730123B8
S315200098A0A4F503200C4AA0F58070410900F01F00A2
S315200098B0834052F82100434042F821300020C9E776
S315200098C06FF08400C6E700BF81310800FFDF00F09B
S315200098D034100020181B0020741E0020F8B51346F3
S315200098E042880C460732072A4FEAD20101D0A1420C
S315200098F04DD146680588C7682022184600210BF0FE
S315200099004BFA360A0346002E44D1002C3FD041F2B2
S315200099100102954205D0B5F5885F02D0B5F5905F76
S3152000992002D15C60002011E0B5F5105F07D1182C3C
S3152000993003D0202C01D0102C29D11C60F1E705F48E
S315200099404F42B2F5824F02D06FF08500F8BDEAB2E1
S31520009950122AF9D1202CF7D1104A25F0FF05B5F5AA
S31520009960E24F02600CD0B5F5824F10D14FF4005271
S3152000997017F4705F09D017F4864F04D09A60E3E796
S315200099804FF48042F4E742F480629A60CAE76FF0AF
S315200099908600DBE76FF08B00D8E700BF2000008051
S315200099A02DE9F04F99460388164603F44F42B1B08D
S315200099B0B2F5824F0F46DDF8F08002D06FF08500B9
S315200099C002E021B96FF0860031B0BDE8F08F002E9D
S315200099D0F8D0B8F1000FF5D0DAB2122AEED123F082
S315200099E0FF03B3F5E24F34D14388C8F800305BBBA0
S315200099F0F300C8F80030B3F5807FDFD10023184686
S31520009A004F49BC19314411F8015D14F8012D10435A
S31520009A10521B0CBF4FF0FF350025A74203EA050372
S31520009A2043EA0203EFD10028CCD0002BCADA3A9BB6
S31520009A309E4200F281803246394648460BF0E1F9D3
S31520009A403B9B00201E60BFE7DA1DB6EBD20FD2D0BB
S31520009A50B8E7B3F5824F6CD10B78042BB2D1202214
S31520009A60002168460BF098F9684606F0A8FE824663
S31520009A7000285BD101463C22209021A80BF08CF9CE
S31520009A80202201234FF0400B51460DEB0200741E9D
S31520009A908DF880300BF080F97B1C202251460D94E6
S31520009AA010A8E4000C9320AD0BF076F96408202270
S31520009AB0514618A81495CDF854B00BF06DF9B4F5AD
S31520009AC0C07FCDE91C5BC8F800403FF477AF28D8AB
S31520009AD0E02C03D0B4F5807F7FF474AF194B0734A4
S31520009AE0089310934FF400530A934FF48043E408ED
S31520009AF0129308AA18AB6846640010A91994FFF7B8
S31520009B0057FAD8F800300733DB085A0033B1002162
S31520009B10531E013B297005F10105FAD2002886D093
S31520009B2050E7B4F5047F3FF449AF4BE76FF092005E
S31520009B304AE76FF0960047E76FF0890044E700BFD9
S31520009B402263012020000080038810B503F44F42D1
S31520009B50B2F5824F21F0FF0221F4FF71134C21F060
S31520009B60010109D0A1421AD0114B9A4214BF6FF0BD
S31520009B7085006FF0860010BDA142DBB20FD00C49E4
S31520009B808A420CD0122B0DD14388B3F5807F09D1A0
S31520009B90B2F1062F0CBF00206FF08500EBE76FF0C7
S31520009BA08600E8E76FF08500E5E700BF00020006C3
S31520009BB000130006134A20F4FF7323F00103934297
S31520009BC00ED0114B20F0FF029A4209D00F4920F403
S31520009BD07F7323F003038B4202D00D4B9A420DD1A3
S31520009BE010F0FF000DD00B4B40F00070984207D0CC
S31520009BF0013398420CBF0320002070470020704795
S31520009C00022070470002000600130006000400062A
S31520009C1000090006080000022DE9F0478AB0174621
S31520009C20DDE9129498460E4609B9002A3BD1B8F1CF
S31520009C30000F0CD1B9F1000F35D1A4B31B4B9842BC
S31520009C4012D0013398420FD06FF0850010E054B344
S31520009C50164B98420FD001339842F5D120234FF06E
S31520009C60030A994523600AD200236FF089002360F6
S31520009C700AB0BDE8F0871C234FF0020AF1E702A8DC
S31520009C8006F09DFD054610B16FF09200F0E73B46C9
S31520009C9032465146CDE9008902A8FFF743F900284C
S31520009CA0E6D02560F0E76FF08600E1E708000002C5
S31520009CB030B50D46044689B000B3031D6C22002141
S31520009CC018460BF069F80F4A954206D001329542A4
S31520009CD00ED06FF0850009B030BD02226946227091
S31520009CE0FFF77AF8002814BF6FF092000020F2E701
S31520009CF0032269462270FFF789F8F3E76FF08600A2
S31520009D00E9E700BF0800000207B5094B18689A88E2
S31520009D109B7900906846ADF804208DF80630FEF752
S31520009D20DDFE0C20FEF712FF002003B05DF804FBD9
S31520009D304263012013B50024064A6846536F43F058
S31520009D400103536700948DF80440FEF70FFE20466A
S31520009D5002B010BD004000506FF00403502110B532
S31520009D600A480B4C13F0800F03F1010207D123445C
S31520009D704C2A83F800131346F4D1002010BD03F0BB
S31520009D800F03043B034419761346EBE700ED00E08E
S31520009D9000E100E010B5044606F09EFC024B1C6074
S31520009DA006F09EFC002010BD881E002010B506F08F
S31520009DB093FC034B1C6806F093FC204610BD00BFA5
S31520009DC0881E002013B5002301241A46194618467A
S31520009DD0009402F0E3FC002300941A461946184624
S31520009DE002F00EFD0248FFF7D5FF002002B010BD9D
S31520009DF01C10002030B5074C256824686A40D2B272
S31520009E00891A101A090A41EA1021634023EA01003F
S31520009E10C0B230BD8C1E0020044B1B68584043083E
S31520009E205B4240421843C017704700BF8C1E00207B
S31520009E30F8B50E46C9880546144607F09AFE074629
S31520009E40D0B92046FFF7E8FF0446E4430F4B3168BC
S31520009E501A68B5F90430424023EA0203B6F9042011
S31520009E6002401343AB80F2880346286800F00CFAC0
S31520009E70F388E888834201D33846F8BD296851F82B
S31520009E802320224041F823200133F3E78C1E0020B3
S31520009E902DE9F04F834699B00F4618460021164605
S31520009EA0049307F0DCFF002800F0878100240125B9
S31520009EB0774B30461493049915ABCDE90B45CDE984
S31520009EC00D45CDE90F45CDE91145139307F050FF18
S31520009ED0A04228DABBF1000F05D1E7B900242046BD
S31520009EE019B0BDE8F08F2146584607F0B6FE044665
S31520009EF00028F2D00BA807F02EFE0DA807F02BFEA7
S31520009F000FA807F028FE11A807F025FE0C2115A89A
S31520009F1001F04CFBE3E73146384607F069FE04467C
S31520009F200028E7D1DAE731460BA807F061FE0446A0
S31520009F300028DFD104990DA807F05AFE0446002810
S31520009F40D8D1F1880FA80231ADF83850ADF830508D
S31520009F5007F00FFE04460028CCD101460FA807F0D3
S31520009F607CFE04460028C5D1F18811A8023107F0ED
S31520009F7000FE04460028BDD10DA807F0ADFE00F076
S31520009F801F001F2873D0C0F11F0319460BA8019389
S31520009F9007F0C8FE04460028ACD101990DA807F0A9
S31520009FA0C1FE04460028A5D1BDF83250BDF83A803E
S31520009FB00DA8A5EB080A4FEA4A19494607F0B2FE52
S31520009FC00446002896D14FEA8A0A0DA90BA807F065
S31520009FD0FEFE00284DDA49460DA807F0C0FE0446CD
S31520009FE0002887D108F1FF3302939B0005F1FF3A41
S31520009FF0069305F1804508F18043023B013D9B0015
S3152000A000A5EB08050993AB000393029B9A4541D81B
S3152000A010BBF1000F0DD058460FA907F0E9FD002827
S3152000A02040F0C780049AB388928813FB02F3ABF8FA
S3152000A0300430002F3FF45EAF01990BA807F08FFE86
S3152000A040002840F0B680B3880BA93846ADF83030EA
S3152000A05007F0CEFD0146002840F0AD80384607F0D7
S3152000A060FEFE00287FF446AF0123BB8042E7019421
S3152000A0709AE70F9A0BA952F80A300846013342F89C
S3152000A0800A300DAA07F0D0FF044600289DD031E7FC
S3152000A090010003000D9B069A05931344DDF82C90CE
S3152000A0A00893059B4FEA8A089A5859F82A10A8F16E
S3152000A0B004030F9D0793039B91421D4474D2079876
S3152000A0C0002359F8000002F029FC002914BF4FF0A4
S3152000A0D0FF330346BAF1010F2B600EBF002309EBB5
S3152000A0E0080353F8083C099A1593079B59F803303F
S3152000A0F0169359F8083017932B6801332B60059B6C
S3152000A100134498462B680021013B2B6011A807F0C9
S3152000A110A4FD00284DD1029B002B48D0D8F8002062
S3152000A120119B11A91A60089A084612685A602A6873
S3152000A13008F002F800283CD113A911A807F047FE21
S3152000A1400028DFDC2A680DA911A807F0F5FF80BBDF
S3152000A150039B11A84FEAC308414607F0E3FD40BB25
S3152000A1600BA9084611AA07F05FFF014618BB0BA8EA
S3152000A17007F075FE002812DA0DA911A807F038FDA0
S3152000A180B8B9414611A807F0CDFD90B90BA90846EC
S3152000A19011AA07F046FF60B92B68013B2B60039B91
S3152000A1A00AF1FF3A043B2FE74FF0FF3392E7029A7A
S3152000A1B0B6E704469EE60C469CE66FF00B048EE658
S3152000A1C0044B1B68584043085B4240421843C01763
S3152000A1D0704700BF8C1E002010B50B4C22682368E8
S3152000A1E04240594081EA0200C00FFFF7E9FF236889
S3152000A1F0521A434022EA030208401043C00FBDE82A
S3152000A2001040FFF7DDBF00BF8C1E0020F8B50D46BD
S3152000A210014628681746FFF7DFFF0124C143074B95
S3152000A2201E68BC4202D346EA0100F8BD55F8240058
S3152000A230FFF7C6FF01340643F3E700BF8C1E00205C
S3152000A2402DE9F04707460F4B88461E6819681D689A
S3152000A250541E631C02D13046BDE8F08758F824A06E
S3152000A26057F8249050464946FFF7B6FF5146054316
S3152000A2704846FFF7B1FF20EA05031E430543013C8C
S3152000A280E7E700BF8C1E00208842F0B504D00025E9
S3152000A290084F0438AA4200D1F0BD3E6850F8044F5A
S3152000A2A05E4024EA060451F8256001351E403443F9
S3152000A2B00460EFE78C1E00202DE9F04F1C4685B088
S3152000A2C0DFF884900391064621461046D9F80030DF
S3152000A2D0D9F8003008F080F9C51D272D90468CBF8F
S3152000A2E04FF01E0A4FF0FA0AEB0825F007050293F5
S3152000A2F02D1A0F9B2146009330460E9B029A08F09A
S3152000A30068FB0746C0B92A462146304608F0DDF9E3
S3152000A310BAF1010A14D0224631460398FFF776FF98
S3152000A3202246834641463046FFF78AFFD9F8002069
S3152000A3300BEA00039A42DCD0384605B0BDE8F08F20
S3152000A3406FF00D07F8E700BF8C1E002070B50C4695
S3152000A3500646114620461A4607F082FE0546A0B953
S3152000A360B36C33B921462046321DBDE8704007F054
S3152000A37014BFB4F90430002B09DB204607F0ACFCEF
S3152000A380F36BB0EB430F09D9184D284670BD014633
S3152000A390204607F064FD0028EFD0F5E72046B36C91
S3152000A3A0984705460028F0D10436B4F90430002B2E
S3152000A3B004DA0021204607F052FD68B931462046CE
S3152000A3C007F005FD0028E0DB32462146204607F04F
S3152000A3D0A6FD0028F2D006E032462146204607F0A8
S3152000A3E020FE0028E1D00546CFE700BF80B0FFFF62
S3152000A3F0F0B514461F46054685B002A80E4607F05E
S3152000A400A5FB2346022100972A1D02A807F073FF09
S3152000A410044648BB06F110021146284602ABFFF758
S3152000A42095FF044600BB06F108073A4639462846FA
S3152000A43002ABFFF78BFF0446B0B902AB1A461946AA
S3152000A4402846FFF783FF044670B932463146284630
S3152000A45002ABFFF77BFF044630B93A463946284619
S3152000A46002ABFFF773FF044602A807F074FB03480C
S3152000A47014F10E0F18BF204605B0F0BD00B3FFFF44
S3152000A4800246044803780BB9184670479342FCD01D
S3152000A4900C30F7E7546301202DE9F14F9A461B69EA
S3152000A4A004460E4691460A9D1BB9724801B0BDE886
S3152000A4B0F08F02F110070021384607F0D0FC30B9A2
S3152000A4C05146304601B0BDE8F04F08F05ABD0AF1BA
S3152000A4D010080021404607F0C2FC08B94946F0E7BB
S3152000A4E00121404607F0BBFC0028DED13B463A4618
S3152000A4F029462046FFF72AFF0028D7D105F108086C
S3152000A5003B462A4641462046FFF720FF0028CDD16C
S3152000A51053462A4629462046FFF718FF0028C5D16C
S3152000A5204246414620460AF10803FFF70FFF00285E
S3152000A530BCD14B462A462946204608F015FB002862
S3152000A540B4D109F1080B5B4642464146204608F045
S3152000A5500BFB0028AAD10021284607F080FC0146E3
S3152000A56090B9404607F07BFC40B92B464A46314617
S3152000A570204601B0BDE8F04F08F073BB304601B06D
S3152000A580BDE8F04F08F013BD2B463A46204606F1AB
S3152000A5901001FFF7DBFE002888D105F110072B46B6
S3152000A5A02A4639462046FFF7D1FE00287FF47EAFA3
S3152000A5B005F1180A2B463A4651462046FFF7C6FEB5
S3152000A5C000287FF473AF4B463A4639462046FFF7BC
S3152000A5D0BDFE00287FF46AAF3946284607F008FBFF
S3152000A5E000287FF463AF2946204608F02BFB00287D
S3152000A5F07FF45CAF4346424631462046FFF7A6FE2F
S3152000A60000287FF453AF2B4632463146204608F0C9
S3152000A610ABFA00287FF44AAF5346324631462046ED
S3152000A62008F0A2FA00287FF441AF33463A4639466D
S3152000A630204608F099FA00287FF438AF43463A4678
S3152000A64039462046FFF782FE00287FF42FAF5B466F
S3152000A650524651462046FFF779FE00287FF426AF62
S3152000A66053463A46204606F1080101B0BDE8F04FB0
S3152000A67008F07ABA80B0FFFF2DE9F047012A82461A
S3152000A680DDE908490E4690461F4644D8043007F0B7
S3152000A69027FB0546504608F0EAFB012882463CD1B6
S3152000A6A0002106F1100007F0DAFB48B9B9F1000FD6
S3152000A6B002D11B48BDE8F0872070C7F800A0F9E753
S3152000A6C0B8F1000F17D16B0001334B453B60F0D832
S3152000A6D0214604232A46304601F8013B07F01CFB9D
S3152000A6E00028E7D12A46691C214406F10800BDE866
S3152000A6F0F04707F011BB6B1C4B453B60D9D80021B6
S3152000A70006F1080007F0C5FA2146023001F8010BD0
S3152000A7102A463046EBE70348CCE70348CAE700BFA2
S3152000A72000B1FFFF80B0FFFF80B1FFFF2DE9F843A6
S3152000A73080460C4615461F4613B91D48BDE8F883CA
S3152000A740043007F0CDFA0646404608F090FB012873
S3152000A75081462AD12B7833B9012FEED12046BDE888
S3152000A760F84308F024BC06F10108B845E5D832467E
S3152000A7702046691C07F0BAFA0028DFD1494604F1C1
S3152000A780100007F06AFA0028D8D12B78042BD4D1F0
S3152000A79073000133BB42D0D1324605EB080104F1E8
S3152000A7A00800BDE8F84307F0A1BA0248C6E700BF93
S3152000A7B080B0FFFF80B1FFFF2DE9FF410E46054621
S3152000A7C0012106F1100007F04AFB044650B928463D
S3152000A7D008F04DFB01287AD12146304607F03FFB91
S3152000A7E0002801DA3B4C6EE006F108082146404677
S3152000A7F007F035FB0028F5DB2F1D3946304607F0DC
S3152000A800E6FA0028EEDA3946404607F0E0FA002854
S3152000A810E8DA684607F09AF902A807F097F943465E
S3152000A820424669462846FFF791FD0446002844D152
S3152000A83033463246284602A9FFF788FD04460028FB
S3152000A8403BD1EB687BBB02A90322084607F0F0FB4D
S3152000A850044690BBBDF90C30002B04DA002102A877
S3152000A86007F0FDFAC8B902AA334611462846FFF773
S3152000A8706DFD044608BB02AA1146284605F11403BD
S3152000A88008F062F90446C0B9684602A907F09FFAA3
S3152000A890104B041E18BF1C460FE002A93A46084674
S3152000A8A007F0BFFBD4E702AA1146284605F10C03A0
S3152000A8B008F04AF904460028D5D0684607F04BF937
S3152000A8C002A807F048F9204604B0BDE8F081024C02
S3152000A8D0F9E700BF80B3FFFF80B0FFFF38B505461C
S3152000A8E008F0C5FA01280C4601460DD1204607F08E
S3152000A8F0B6FA002806DB204605F1340107F067FA90
S3152000A900002803DB024838BD0248FCE70020FAE7AE
S3152000A91080B3FFFF80B0FFFF2DE9F04F0F46B5B0A3
S3152000A920114606469A460292FFF7D8FF04460028AB
S3152000A93040F09F8151463046FFF73EFF04460028EF
S3152000A94040F09781304608F092FA012840F09A812B
S3152000A950336C1821013302204FEA530906F034FEE6
S3152000A9600546002800F08C8105F1180808F088FAC1
S3152000A970404608F085FA0DF14C0B0BEB0400083429
S3152000A98007F0E4F8202CF8D15146284608F0F9FAC9
S3152000A990044698BB8246D1451ED14146304608F032
S3152000A9A058F8044650BB43462A4641463046CDF821
S3152000A9B000B0FFF771FD044600BB4146304608F063
S3152000A9C048F80446D0B905F1100007F0C4F805F19F
S3152000A9D0280007F0C0F811E0BAFBF9F1012318228C
S3152000A9E08B4009FB11A1DBB202FB0352F9B11146E0
S3152000A9F0304613AB08F035F9044638B34FF0000A59
S3152000AA000BEB0A000AF1080A07F0A5F8BAF1200FA5
S3152000AA10F6D1F4B1B36D9D422DD0284608F06DFADB
S3152000AA20404608F06AFA284606F0DEFD23E003F0E9
S3152000AA30FE0101EB5301104605EBC101039208F01C
S3152000AA40A0FA039A04460028D1D0D7E70AF1010AD2
S3152000AA50A1E705A807F07AF806F1340B0BA807F052
S3152000AA6075F82146584607F014F9012811D0B36D20
S3152000AA709D4204D1844C384608F03FFAF9E0284636
S3152000AA8008F03BFA404608F038FA284606F0ACFDB6
S3152000AA90F0E72146029807F0FCF80299824605A8BD
S3152000AAA007F0A6F8044630B10BA807F054F805A81D
S3152000AAB007F051F8AEE75946029A0BA807F0B4FA08
S3152000AAC004460028F0D1BAFA8AFA4FEA5A1A5246B0
S3152000AAD00BA905A8FFF7ACF904460028E4D10146E6
S3152000AAE009F1010213A80AF057F913AB1A46A34637
S3152000AAF0D94502925DD0594605A8039307F0C9F8B7
S3152000AB00029A09EB0B0114780BF1010B044305A8FB
S3152000AB1007F0BFF8E4B2029A44EA4004039B02F825
S3152000AB20014BE5E75C781A7884EA010E6FEA0E009D
S3152000AB3000F0010012FB00F20C4002EA0E0182EA4C
S3152000AB400E0203F8012F13F8012C214342EAC0120A
S3152000AB5003F8012C0CF1010CE345E3D20BA806F017
S3152000AB60FAFF05A806F0F7FF05A808F089F90024E2
S3152000AB700BAB1819083406F0E9FF202CF8D10BF19D
S3152000AB80D0036B442A463946304613F8843C08F0F5
S3152000AB9018F80446002831D13E9B002B6DD0DDE904
S3152000ABA03E2339463046FFF723FC002865D004466D
S3152000ABB024E000214FF0010CCEE74B463A463946B9
S3152000ABC030460BF1FF3B08F04CF80028EFD113ABD1
S3152000ABD02A46304613F80B3005A907F0F2FF002865
S3152000ABE0E5D13A4639463046CDF8009005ABFFF719
S3152000ABF053FC0028DBD1BBF1000FDED105A807F0FE
S3152000AC00D2FF4FF000090BAB03EB090009F108094D
S3152000AC1006F0A1FFB9F1200FF5D1002C7FF4FAAE92
S3152000AC2052463946304607F058FF044600287FF43E
S3152000AC30F1AE3E9B4BB1DDE93E2339463046FFF768
S3152000AC40D7FB044600287FF4E5AE3946304607F0A8
S3152000AC5000FFB36D04469D4208D0284608F04DF902
S3152000AC60404608F04AF9284606F0BEFC002C7FF440
S3152000AC7002AF204635B0BDE8F08F0DF12C09BAE7BA
S3152000AC80024CF8E6004CF4E780B0FFFF80B2FFFFED
S3152000AC9030B4DDE9024524B1CDE9024530BCFFF7E9
S3152000ACA03BBE014830BC704780B0FFFF73B50546F8
S3152000ACB01E4608F0DCF801280C4601460ED1134644
S3152000ACC02046009605F1340207F015FB044B10F1DF
S3152000ACD00E0F18BF0346184602B070BD014BFAE7A7
S3152000ACE000B3FFFF80B0FFFF10B5044608F0BFF8A1
S3152000ACF0012805D104F16000BDE8104007F00CB82A
S3152000AD00004810BD80B1FFFF38B504460D4608F057
S3152000AD10F8F8204608F0C2F8032D257023D1144BED
S3152000AD20144AA360A361A3632362A362124B6260E9
S3152000AD3063624FF00113114A23636261104A114B7B
S3152000AD406263114AE362E261201D06F0C5FFE063FB
S3152000AD5004F1340006F0C0FF206400200123C4E97A
S3152000AD601600636438BD002308482370FAE700BF45
S3152000AD7001000800EC6301208C630120CC630120D4
S3152000AD806C63012028100020AC63012080B1FFFFF6
S3152000AD90082804D00928034818BF00207047024815
S3152000ADA0704700BF0C6401200F6401200023F0B51A
S3152000ADB0044603600A276FF067000C4E0B68934227
S3152000ADC003D21D78303D092D00D9F0BD2568B54246
S3152000ADD009D87D43256013F8010B284430382060BC
S3152000ADE000200B60EAE76FF06700EEE79999991962
S3152000ADF070B5094C256815B96FF02D0009E0667C01
S3152000AE00864207D1267C8E4204D1002015606268D6
S3152000AE101A6070BD1434EDE7A86B012030B5084BDD
S3152000AE201C6814B96FF02D0006E01D7C854204D104
S3152000AE3000205B680C60136030BD1433F0E700BF60
S3152000AE40586B012030B5084B1C6814B96FF02D00E3
S3152000AE5006E01D7C854204D100205B680C601360EF
S3152000AE6030BD1433F0E700BF306B01202DE9F04FE1
S3152000AE700F460021054687B00846009390469B461C
S3152000AE80134605AA109E06F0DAFD284609F0C6FFED
S3152000AE900446384609F0C2FF059902290A4638BFFA
S3152000AEA002224B1C023A03EB921323441844119BB3
S3152000AEB0984207D96FF02908129B1860404607B0C0
S3152000AEC0BDE8F08F39B1012006F07EFB044618B9A3
S3152000AED0DFF8A080F2E70C46434620460599CDF8D8
S3152000AEE000B005AA06F0ABFD804618B1204606F054
S3152000AEF07BFBE3E7284609F091FF294602463046C8
S3152000AF0009F07FFF284609F089FFA1464FF00A0A7B
S3152000AF103518DDF814B0BBF1000F18D1384609F00A
S3152000AF207DFF39460246284609F06BFF384609F070
S3152000AF3075FF02462B18581C129B05F802B0821B7F
S3152000AF401A60119B59469A1A09F026FFCEE75A46EF
S3152000AF50402A28BF402249462846039209F051FF3D
S3152000AF60039AABEB020015440590914405F801AB1A
S3152000AF70CFE700BF80EEFFFFF0B505468BB00E464B
S3152000AF802422002101A809F007FF1DB9114C2046F3
S3152000AF900BB0F0BD2B68002BF8D1304601A908F084
S3152000AFA066FD04460028F1D1BDF8047001A809F019
S3152000AFB0C2F827F0FF03B3F5E24F07D047F20103AB
S3152000AFC09F4205D1044B2B60AE60E0E7034BFAE7C6
S3152000AFD0034CDCE780C1FFFFFC6B01202C6C0120B9
S3152000AFE080C6FFFF2DE9F74F1646DDE90C89DDE91E
S3152000AFF00EAB04460D46109AE1B92BB9036803BB84
S3152000B000164803B0BDE8F08F002EF9D0016800295C
S3152000B010F6D021684F69FFB1CDE90FB229463246F5
S3152000B0202046BC46CDE90D9ACDF8308003B0BDE868
S3152000B030F04F6047002EE3D001680029E0D0002BB6
S3152000B040E7D128460192FFF7A3FE08F039F8019AC6
S3152000B05003460028DDD1D3E70148D2E780C1FFFFB0
S3152000B06000C1FFFF0048704780C6FFFF2DE9F04F63
S3152000B07007468FB00C46DDE918650021914605A8E4
S3152000B08024229A46DDF8688009F086FE384605A90E
S3152000B09008F0EDFC30B10722294B2A4909F0B8FB0C
S3152000B0A0044647E0DDF824B005A809F044F8264A0E
S3152000B0B02BF0FF039342384608BF44EA03014A4671
S3152000B0C05346CDE9015818BF44F00621009608F0F2
S3152000B0D09BFE07460028DED1D8F8001035444FEAFB
S3152000B0E051094A4606EB510104A8049508F004F9D3
S3152000B0F0041E1FDB4A46314604A808F0FDF8051E4B
S3152000B1001CDB25442A46314604A806F02BFB041EE8
S3152000B11010DB3022314604A806F048FB0028BFDBAE
S3152000B12025443C4605442A463046049909F01AFE31
S3152000B130C8F8005020460FB0BDE8F08F2C46F9E73E
S3152000B140B1C00020846C0120000700062DE9F043E1
S3152000B1501D469FB004460E4617460021242205A808
S3152000B160DDF8A09009F018FE00230735ED080293BC
S3152000B1704FEA450827B9384C20461FB0BDE8F08372
S3152000B18047F482414FF0062705A808F021F94FF42D
S3152000B190005105A808F081F83246214602AB0997EE
S3152000B1A008F0FDFC78B100F083FF0546029808F010
S3152000B1B04AFC0446002D4DD1002CDDD0204600F05F
S3152000B1C077FF0446D8E7B8F1400F3FD8299E3023B1
S3152000B1D04E44314604AA03A8CDF80C9006F042FA54
S3152000B1E0044618B1029808F02EFCC5E70DF138097F
S3152000B1F02B464A46314603A808F0BCF804460028E8
S3152000B200F0D12B46314609EB050203A808F0B2F827
S3152000B21004460028E6D1DDE926233946CDE9009803
S3152000B220029808F08AFE28B107220C4B0C4909F037
S3152000B230EFFABAE7DDE902039E4203D108F003FCE8
S3152000B2400446B9E708F0FFFB064C95E7029808F09C
S3152000B250FAFB90E72C468FE780C1FFFFB1C00020A4
S3152000B260846C012000C7FFFF2DE9F0410546A0B000
S3152000B2700021164606A824221F4609F08DFDA8683F
S3152000B28006A908F0F4FB38B10722144B144909F03B
S3152000B290BFFA20B0BDE8F081BDF8184006A804F436
S3152000B2A04F43B3F5824F18BF0024BDF81A8008F02B
S3152000B2B042FF4122A86805AB0FA908F036FC0028FA
S3152000B2C0E2D1279B05990393269B0096CDE901732E
S3152000B2D0E2B243460FA8FFF739FFDAE7B1C00020F4
S3152000B2E0846C012070B5002306460846BEB0CDE921
S3152000B2F003334122806803AB05A908F016FC0446F7
S3152000B30018B100F0D5FE3EB070BD16ADA022314674
S3152000B310284609F076FD284607F0BAFF023831465E
S3152000B32002284FF0A002284698BF179C09F069FD15
S3152000B330284607F0ADFF0238022888BF00214FF0CB
S3152000B340410398BF1799CDE900530022204604AB4C
S3152000B3506831FFF791F90028D5D1DDE903239A4218
S3152000B36008D1294605A809F0EDFC034B002818BF93
S3152000B3701846C8E70048C6E780C1FFFF2DE9F0411F
S3152000B38090460027ACB004ACA02205460E462046C7
S3152000B3904146039709F035FD204607F079FF02382C
S3152000B3A00228404698BF059F07F072FF072812D152
S3152000B3B041222146D8F8080003AB08F0B6FB00BBB3
S3152000B3C0039A2868801A2146286009F01AFD0398F6
S3152000B3D02CB0BDE8F08141230022CDE90043384658
S3152000B3E003AB07F16801FFF747F90028F0D1286879
S3152000B3F0B04203D3039A861B9642E3D26FF06B00CA
S3152000B400E6E70148E4E700BF80C1FFFF73B50546C4
S3152000B41010460C46164607F03BFF022809D1324655
S3152000B42021462846FFF7AAFF00280DDB03461846CB
S3152000B4300AE0304607F02CFF07281BD100232A6894
S3152000B4400193944202D90C4802B070BD2146B068DF
S3152000B45001AB121B08F069FB0028F4D12868019A79
S3152000B4602146801A286009F07DFC019B002B184696
S3152000B470DDDAE9E70148E7E780C1FFFF80C6FFFF85
S3152000B4802DE9F047002786B080460E46CDE90477A1
S3152000B4902AB96FF06B04204606B0BDE8F0870A444F
S3152000B4A00392024603A8FFF7B1FF041EF3DB039BBA
S3152000B4B09A1B002AEDDD5A1E651C039231462A4648
S3152000B4C003F8017C03A806F04DF9B0F1000A66DB0B
S3152000B4D00322314603A806F069F9B0F1000960DBC2
S3152000B4E0404607F0D5FE022837D1404607F08EFFAA
S3152000B4F004AA05A9074607F008FE0446002843D0FB
