S01C00006275696C642F64656275672F67656E657261746F722E7333379C
S3152000600000100020F57E0020F7080120F708012067
S31520006010F7080120F7080120F7080120F7080120DA
S31520006020F7080120F7080120F7080120F7080120CA
S31520006030F7080120AC650120F7080120F7080120A8
S31520006040F7080120F7080120F7080120F7080120AA
S31520006050F7080120F7080120F7080120F70801209A
S31520006060F7080120F7080120F7080120F70801208A
S31520006070F7080120F7080120F7080120F70801207A
S31520006080F7080120F7080120F7080120F70801206A
S31520006090F7080120F7080120F7080120F70801205A
S315200060A0F7080120F7080120F7080120F70801204A
S315200060B0F7080120F7080120F7080120F70801203A
S315200060C0F7080120F7080120F7080120F70801202A
S315200060D0F7080120F7080120F7080120F70801201A
S315200060E0F7080120F7080120F7080120F70801200A
S315200060F0F7080120F7080120F7080120F7080120FA
S31520006100F7080120F7080120F7080120F7080120E9
S31520006110F7080120F7080120F7080120F7080120D9
S31520006120F7080120F7080120F7080120F7080120C9
S31520006130F7080120F7080120F7080120F7080120B9
S31520006140F7080120F7080120F7080120F7080120A9
S31520006150F7080120F7080120F7080120F708012099
S31520006160F7080120F7080120F7080120F708012089
S315200061700348044B834202D0034B03B118477047B0
S315200061801C1B00201C1B002000000000064B07499A
S31520006190C91A891048BF0131491003D0044B0BB1ED
S315200061A001481847704700BF1C1B00201C1B0020FD
S315200061B00000000010B5064C237843B9FFF7D8FF3E
S315200061C0044B13B10448AFF300800123237010BDA4
S315200061D018270020000000007C73012008B5054B1D
S315200061E01BB105490548AFF30080BDE80840FFF71D
S315200061F0CDBF00BF00000000701B00207C73012073
S31520006200A3F5803A704700BF174B002B08BF134BEE
S315200062109D46FFF7F5FF00218B460F461348144A8B
S31520006220121A0EF056FF0E4B002B00D098470D4B3E
S31520006230002B00D098470020002104000D000D48B7
S31520006240002802D00C48AFF3008007F0D5F82000D4
S3152000625029000EF04BFE06F077FE00BF0000080076
S315200062600000000000000000001000201C1B002081
S315200062704C310020000000000000000010B58CB05A
S31520006280044609F006F90021102208A80EF021FF85
S3152000629001230E4A02A8CDE903230D4B059407934B
S315200062A04FF47053029309F0E7F8029B06930AF025
S315200062B054FE0023000240F00100049001A903A827
S315200062C001930EF013F80CB010BD00BF127100013F
S315200062D00906000670B58CB00C461546064609F030
S315200062E0D8F80021102208A80EF0F3FE0123114A47
S315200062F002A8CDE90323104B059607934FF470535C
S31520006300029309F0B9F8029B06930AF026FE0023B1
S31520006310000240F0010021462A460490019303A87A
S3152000632001AB0DF0D9FD044603A80EF0A1F82046D6
S315200063300CB070BD127100010906000610B50A4B9B
S3152000634086B0144602930023059103901A46CDE9A0
S315200063500033214405A80BF036FB002814BFAC20DF
S31520006360002006B010BD00BFB5F400202DE9F04195
S31520006370BEB0449D98462B6804460E461746002B11
S3152000638057D06B68B3F5007F53D302A80EF031FDCA
S3152000639000213C2207A806910EF09BFED8F8043077
S315200063A08BB1CDE900674021D8F80030224A06A8F3
S315200063B006F086FE06A902A80EF032FD58B1AC20E2
S315200063C03EB0BDE8F081334640211C4A009706A81E
S315200063D006F076FEEEE7092102A80EF01DFD2068E4
S315200063E0FFF74CFF16A80DF0D0F8216816A804F088
S315200063F03DFF04460028E2D116A902A80EF00EFDA4
S3152000640000942346D5E9001202A806F067FA04464E
S315200064100028D4D128680EF09EFE6B680130984281
S3152000642001D90EF093FD686002A80EF0E6FC204626
S31520006430C6E72F20C4E700BF606001207A600120F4
S31520006440F0B50C46002197B00646154607A83C2213
S3152000645006910EF03EFE402305AACDE9013206AF95
S31520006460009705930E49D4E9002330680DF05AFEB3
S31520006470044698B9059E6B689E420DD83246394629
S3152000648028680EF05BFE6B689E4201D90EF05EFD19
S3152000649020466E6017B0F0BD1920FBE7AC20F9E767
S315200064A009060006044808B500680BF0E9F900283B
S315200064B014BFAE20002008BD1C10002008B5034BD9
S315200064C018680BF0CCF9002008BD00BF1C10002076
S315200064D038B504460D46204608F0FBFF2B7C0028E5
S315200064E057D0052B59D0032B17D0042B38D0012B8E
S315200064F04DD102222146284609F0A9F8002833D199
S315200065002946284609F0E7F870BB95F82430002B79
S315200065100CBF032305232B74DDE795F825209AB1BC
S31520006520214628462A7F09F092F8E8B929462846C6
S3152000653009F012F9C0B995F8253073B90223AA6972
S315200065401A442A620423E6E72B7D013BDBB2022BA9
S315200065509CBF134AD25CAA61F0E72B7F0233EEE799
S3152000656095F824300BB1232038BDAA690AB9182022
S31520006570FAE72146284609F06AF80028F4D1294688
S31520006580284609F011F90028EED10523C3E7032098
S31520006590EAE7052B01D00D20E6E70020E4E700BF5F
S315200065A09F6001202DE9F04100240546A046154FA5
S315200065B086B000F1AC06304601ABC4F5007239193D
S315200065C0CDF80480FFF76EFFC0B194B10E4B04AA3C
S315200065D004934FF4007302A92846CDE9027405936B
S315200065E009F07BFADDE9041285F8C0003046FFF792
S315200065F065FF95F8C00006B0BDE8F081019B1C44FC
S31520006600D9E700BF19290020192700200048704724
S31520006610881B00200021174B10B5174C03F1980258
S31520006620626003F1E0022360A26003F58673802294
S3152000663004F12800C4E90411C4E90611C4E90811CB
S31520006640E3600EF046FD0D4B2046C4F8A8300C4BF7
S31520006650C4F8B440C4F8B0300A4BC4F8BC40C4F8FF
S31520006660B8300123084A84F8C0300849BDE81040F4
S315200066700EF063BC40620120881B00208C63012041
S31520006680AC600120C060012000100020D9FA002053
S315200066907FB50E46002304460DF106013046154609
S315200066A08DF8063002938DF80730039309F0F0F841
S315200066B058BB9DF80630013B032B01D92F2024E03F
S315200066C0304602A909F016F9F8B930460DF107014E
S315200066D009F0DEF8C8B94FF400723046224903AB00
S315200066E009F021F988B99DF80630013B032BE5D83E
S315200066F0DFE803F0020D151D4FF4CB7160681A4ACE
S315200067000368DE6A039BB047C8B104B070BD6068F9
S3152000671040F295110368144ADE6A039BF3E760682A
S3152000672040F293110368104ADE6A039BEBE7606828
S315200067304FF4C17103680C4ADE6A039BE3E7606885
S3152000674009F00DFF044608B12046DEE702992846E7
S3152000675009F07DF82146284609F079F8284603995C
S3152000676009F075F8F0E700BF252F00200023F0B5CB
S3152000677006460D46144685B0ADF80A308DF8093028
S31520006780A9682A68EB68914258D893425AD80020C3
S3152000679013E0002370688DF80C300368BDF80A10EA
S315200067A0DB6803AA9847D82800D030B920469DF840
S315200067B00C1009F030F80028E2D005B0F0BD002317
S315200067C07068ADF80C300368BDF80A105B6903AA3F
S315200067D09847D82801D00028EFD12046BDF80C10C4
S315200067E009F027F8E7E70023706803930368BDF8EC
S315200067F00A10DB6903AA9847D82801D00028DCD1E3
S315200068002046039909F023F8D5E7002370680393FF
S3152000681003AA036800929F6A204A4FF40073BDF8CA
S315200068200A10B847D82801D00028C6D12046039A96
S315200068301A4909F01AF8BEE72620BEE7934201D985
S315200068408B42A4D028460DF10A0109F03AF8002817
S31520006850B3D128460DF1090109F01AF80028ACD168
S315200068602046BDF80A1008F0E4FF0028A5D12046EE
S315200068709DF8091008F0CFFF00289ED19DF8093019
S31520006880013B032BD8D801A252F823F093670020AE
S31520006890BF670020E76700200B680020252F002017
S315200068A0F0B5CB780C461546806885B003B9A8307C
S315200068B0A378032B5AD8DFE803F041021A2E0026CC
S315200068C08DF80C6003682188DB6803AA9847D828CE
S315200068D002D050B105B0F0BD31462A46208809F0D5
S315200068E0ACF80028F6D10020F4E703A9F5E7002646
S315200068F0036821885B69ADF80C6003AA9847D828FD
S3152000690003D00028E6D103A900E031462A46208894
S3152000691009F0A6F8E5E7002603682188DB690396D7
S3152000692003AA9847D82803D00028D3D103A900E08A
S3152000693031462A46208809F0A7F8D2E700260368C0
S3152000694003AA00929F6A0A4A4FF40073218803968D
S31520006950B847D82803D00028BCD1054900E03146E5
S315200069602B46039A208809F0A3F8BAE72620B1E738
S31520006970252F00202DE9F341054608460C4608F050
S31520006980B5FD064678B1254808F0A3FD58B18642E4
S315200069903246224928BF0246204608F03CFE10B166
S315200069A002B0BDE8F0811E4F1C4E27E03368013A45
S315200069B0C6E90233D7F80031C7F8042157F8230077
S315200069C0013303F03F030190C7F800312846CB6915
S315200069D0124A01A998470028E2D1204608F086FDF0
S315200069E08046304608F075FD80454246314628BF30
S315200069F00246204608F00FFE0028D1D1204608F096
S31520006A0075FD296818B1D7F80421002ACED1284669
S31520006A10CB6802B0BDE8F041184700BF541D0020E6
S31520006A204C1C002070B504460D460E4E284608F034
S31520006A3050FD28B923682046BDE870409B6818475A
S31520006A4031462846FFF744FD0D28EFD048B9236884
S31520006A5020469B690349984718B9024809F0E1FB8B
S31520006A60E4E770BD841D002008B50B46498AB1F5C0
S31520006A70817F15D005D840F2011291420CD0A62074
S31520006A8009E06FF481728A18012AF8D81A7D06481F
S31520006A9009F0D6FB10B108BDDB6AC3600020FAE717
S31520006AA0DB6A0361FAE700BF4C1C002008B50348E7
S31520006AB00A7D498A09F0C4FB08BD00BF4C1C002092
S31520006AC091F8263070B50C46866803B9A83694F836
S31520006AD02730257D2BB12A46618A174809F0B0FB5D
S31520006AE048BB032D26D8DFE805F016020E113368C1
S31520006AF09B6894F82420618A5AB904F12C02304606
S31520006B00BDE87040184733681B69F2E733689B6914
S31520006B10EFE70022F3E73368618ADD6A94F82430D0
S31520006B2033B9E26A3046AC46A369BDE87040604797
S31520006B300022F7E7262070BD4C1C00202DE9F041ED
S31520006B4000254B6892B0052B0746884616468DF8D9
S31520006B5005508DF806508DF8075040F2AF800A6830
S31520006B60023B13440DF1050102A8CDE9033302923D
S31520006B70059208F08AFD0446002840F09B800DF11E
S31520006B80060102A808F081FD0446002840F0928004
S31520006B900DF1070102A808F078FD0446002840F010
S31520006BA08980D8F804203368802A00F282807268AF
S31520006BB07F2A40F2818003F108027E33CDE9073235
S31520006BC09DF806300692013B0992042B6FD8DFE828
S31520006BD003F037035F6751000020089A069B9A420C
S31520006BE088BFD41AE5B20446002133680BA803F106
S31520006BF00802CDE907231C22069309930A910EF079
S31520006C0068FA022106A808F07EFC9DF8061006A860
S31520006C1041F0800108F077FC9DF8071006A808F0DF
S31520006C2072FC214606A808F093FC294606A808F01F
S31520006C306AFC726805F10A03934241D90EF086F97F
S31520006C40012200257B6828480C93284B8DF82C20A0
S31520006C500A93CDE90D5509F0E4FA254B1A68C3E9E4
S31520006C600222244BC3F8045106AA02A90AA809F055
S31520006C700CFBB2E701227B688DF82C200C931E4B6F
S31520006C80002240F205111B480A9309F0D9FAEBE7D6
S31520006C9003227B688DF82C200C93184B0A93E3E78C
S31520006CA004227B688DF82C200C93154BF6E72A20BE
S31520006CB093E7C224002597E71924FBE7192493E7D5
S31520006CC0083573600AAA2946306800F02FFF9DF820
S31520006CD00600BDF82820023818BF012033685A5311
S31520006CE012B0BDE8F08100BF841D0020D4600120D1
S31520006CF0541D00204C1C0020FC6001202461012032
S31520006D004C61012038B500240125144B144803F5A5
S31520006D100172C0E901230360C360C0E90844057419
S31520006D204482047584610477846209F07AFA0D4BF3
S31520006D300D4803F50272C0E901230360C360C0E970
S31520006D40084405744482047584610477846209F0DA
S31520006D5068FA064BC3E9404438BD00BF212D002008
S31520006D60841D0020192B0020541D00204C1C0020BF
S31520006D702DE9F041002486B0884617461E460B2290
S31520006D8001AB03A9CDE90344CDE90144CDF8134075
S31520006D9000F092FD044670B140F20123984231D0B2
S31520006DA0012009F069FD68B301211F20174A03ABB2
S31520006DB009F055FD26E0019D0A2D01D02F24EFE78D
S31520006DC02A4602A903A806F0D1FA029A04AB9A42EF
S31520006DD0A8F80000F2D12A4602A90DF1110006F00A
S31520006DE0C5FA029A0DF113039A423870E6D12A4663
S31520006DF002A905A806F0BAFA029A0DF116039A42DC
S31520006E003070DBD1204606B0BDE8F0816C610120F0
S31520006E100023F0B587B001930C46D1E9001201ABEF
S31520006E2000F056FD40F20123984225D102AD2A46B4
S31520006E30144B03F110072E4618685968083303C609
S31520006E40BB423546F7D163680F2B02D8192007B00D
S31520006E50F0BD256806AE134603CBB34228606960B1
S31520006E601A4605F10805F6D110230193019B6268A5
S31520006E70934204D90EF06AF80028E8D1F6E70020FC
S31520006E806360E4E76863012010B540F26314A14211
S31520006E90034608D040F29710814215D0B1F5B17F54
S31520006EA00DD0A62010BD42B11168094BA1F57A720A
S31520006EB09A4202D800F044FDF4E72F20F2E702B10F
S31520006EC012681A620020EDE702B112685A62F9E7E9
S31520006ED0B8820100F0B5B1F5AA7F97B015460646EF
S31520006EE01A461C9C3CD8B1F5A07F09D840F2051360
S31520006EF0994266D040F2111399425BD0A6205EE0FB
S31520006F006FF4A07319441329F8D801A353F821F07C
S31520006F10FD6F0020FD6E002017700020FD6E002002
S31520006F201D70002023700020297000202F70002063
S31520006F30FD6E0020FD6E0020FD6E0020FD6E0020FF
S31520006F40FD6E0020FD6E0020FD6E0020FD6E0020EF
S31520006F50FD6E0020357000203B700020457000201B
S31520006F60B1F5C17F00F08B800ED840F265139942AF
S31520006F707BD0B1F5B37F7DD0B1F5B27FBED12346AC
S31520006F80294600F0F9FC19E040F29313994200F0EB
S31520006F90848040F295139942B0D1CDE90D5205B9BE
S31520006FA0EAB933683046D3F880300DA9984730B90E
S31520006FB00E9B21E02346294600F094FD48B317B0E6
S31520006FC0F0BD00F12807384603920EF0C4F8039A64
S31520006FD00130CDE906050597089215B90AB10DF0DD
S31520006FE0B5FF07AB00933046728A318A05AB00F0B5
S31520006FF02FFD0028E3D1089B23600AE003681B6B62
S315200070002946304698470028D9D128460EF0A3F8BD
S3152000701020600020D3E703689B6BF1E703681B6CB5
S31520007020EEE703685B6CEBE703689B6CE8E70368B5
S31520007030DB6CE5E703685B6DE2E72346294600F053
S315200070403BFCBBE721230C9303680DAF0392DB6D5A
S315200070500B970BA99847039A0028B0D113462021F5
S315200070602A46384609F0F4FBD2E72346294600F0A3
S315200070708FFCA3E72346294600F040FD9EE7CDE995
S3152000708009530DB9002BAAD1336830469B6F09A945
S315200070909847002893D10A9BAEE7CDE90B520DB94C
S315200070A0002A9CD133683046DB6F0BA9984700280D
S315200070B085D10C9BA0E700BFF0B54B680646602B38
S315200070C00C461546A5B029D900278222394603A8A1
S315200070D002970DF0FEFF01AB8622304602A90197EA
S315200070E000F056FC40F20123984210D184220C492C
S315200070F002A801920EF022F82268019902A800F057
S315200071002BFD28606368984205D90DF01FFF0028E3
S31520007110F2D025B0F0BD60600020FAE71920F8E72C
S315200071208B61012070B50026044696B02A220D46B2
S315200071300BA831460A960DF0CCFF01AB2E22204635
S315200071400AA9019600F018FC40F20123984227D1A3
S3152000715018230193174B0AAC03F118062246186828
S315200071605968083303C2B3421446F7D100241C22BF
S31520007170214603A802940DF0ACFF019902AA0AA8A1
S3152000718000F0EAFC6B680646984210D8024602A92F
S3152000719028680DF0D3FF6B689E4205D90DF0D6FE08
S315200071A00028E3D016B070BD20466E60FAE719209D
S315200071B0F8E700BF1062012070B5B1F5B27F054631
S315200071C016461C4692B000F0088117D840F21113DB
S315200071D0994260D06FF4A07319448BB2132B26D832
S315200071E0132924D8DFE801F05E236B237885929F4C
S315200071F0232323232323232323ACC8D540F293130D
S31520007200994200F02F81B1F5CA7F1DD240F2811339
S31520007210994200F01481B1F5C17F0AD240F265137C
S31520007220994200F0E580B1F5B37F00F0E880A62012
S3152000723099E0FCD13146224609A809F07CF9284676
S3152000724009A900F0ABFB8EE040F2A113994200F0B1
S315200072501D81B1F5D17F11D240F29513994200F0EC
S315200072600B81B1F5CB7FE2D13146224609A809F040
S3152000727062F9284609A900F0D9FB74E0D7D1002A83
S31520007280D5D03146224609A809F055F9284609A93C
S3152000729000F03AFC67E02246314612B0BDE8704065
S315200072A000F01ABC02B13CB900228249284612B02D
S315200072B0BDE8704000F024BA22463146F6E702B116
S315200072C03CB900227B49284612B0BDE8704000F048
S315200072D03FBA22463146F6E702B13CB9002275494B
S315200072E0284612B0BDE8704000F05ABA2246314610
S315200072F0F6E702B13CB900226E49284612B0BDE835
S31520007300704000F05FBA22463146F6E702B13CB93A
S3152000731000226849284612B0BDE8704000F064BAE1
S3152000732022463146F6E702B13CB900226149284699
S3152000733012B0BDE8704000F069BA22463146F6E741
S3152000734002B194B900211C220AA809910DF0C1FEB0
S315200073502021594AAB8A09A805F0B2FE09A902469E
S31520007360284600F079FA12B070BD2246314612B096
S31520007370BDE8704000F070BA02B13CB90A224F490C
S31520007380284612B0BDE8704000F090BA2246314639
S31520007390F6E702B1B4B9102105A809F037F902239E
S315200073A010210093212309AA05A809F011FA002823
S315200073B0D9D109A80DF0CFFE09A90246284600F02A
S315200073C081FAD0E7102C01D92F20CCE702232146C1
S315200073D000933046212309AAE7E7002AF4D0002BA0
S315200073E0F2D01A46314612B0BDE8704000F0BEBA5F
S315200073F02246314612B0BDE8704000F0C3BA02B151
S31520007400B4B90023CDE90933CDF82B302B6A09A86E
S315200074100293EB8A0193EB6900936A8A298AAB6906
S3152000742009F044F80B22284609A900F061FB9AE7E7
S315200074302246314612B0BDE8704000F059BB02B179
S3152000744054B9002305AACDE909238DF8143028461E
S3152000745009A909F0C2F886E72246314609A809F0AB
S315200074606AF8F4E73146224609A809F064F8284666
S3152000747009A900F0ABFA76E73146224609A809F0B9
S315200074805AF8284609A900F0B9FA6CE732B98022E1
S31520007490314628300DF01DFE002064E77F2C93D85E
S315200074A02246314628300DF049FE00232C4484F82C
S315200074B02830F1E706680120296201202C6201208C
S315200074C0012903BF034B00201B78A62008BF137099
S315200074D0704700BF45310020022938B514461D46A5
S315200074E00FD12022002108480DF0F3FD3CB1202DBC
S315200074F02A46214628BF202203480DF01FFE0020E1
S3152000750038BDA620FCE700BF25310020104608B56F
S315200075106AB163B102290CD1202B28BF20231A4639
S31520007520029B05491A600DF009FE002008BD2F2098
S31520007530FCE7A620FAE700BF25310020012905D166
S3152000754002B11278024B00201A707047A6207047AD
S31520007550453100200023F0B585B007460E46254864
S3152000756003A91546039300F093FB002840D1224C33
S31520007570236813B90398F9F7E7FDD5E900121F4BE5
S3152000758018460DF0DBFD03466868B0F5007F05D28E
S31520007590C0F50072FF2118440DF09BFD022009F072
S315200075A06BF948B16B680221019323681F20009371
S315200075B0134A039B09F053F9236803980F494FF4A4
S315200075C000721844F9F712FE3846216800F02AFCAA
S315200075D070B93046696800F025FC48B90020226859
S315200075E06B68134413F03F021CBF40339B1A236081
S315200075F005B0F0BD21720800B41D0020252F002003
S31520007600BC6301202DE9F0431D46002389B00746BF
S3152000761008460E461446CDE9053300F0FFFA18B9A0
S31520007620D82009B0BDE8F083304605A900F030FB2C
S315200076300028F6D1204600F0F1FA0028F0D02046A6
S3152000764006A900F025FB0028EBD1DDE90596079079
S3152000765007A9184800F01CFB044600BB079919EB44
S3152000766001081ED10EB10DF071FC022009F004F9BB
S31520007670A0B1079B022100931F203B46CDE901962E
S315200076800D4A09F0ECF86B689E4210D83246414606
S3152000769028680DF053FD6B689E42E4D86E60204644
S315200076A0BFE7022009F0E8F80028ECD0E1E719242A
S315200076B0F5E700BF21720800E163012000200A4B94
S315200076C010B5186032B9094C2146BDE8104008486B
S315200076D000F0A8BBA1F500518C1801F067FA2046EE
S315200076E005F042FAF0E700BFB41D002000E00F08C5
S315200076F021720800014800F0CBBA00BF21720800B1
S31520007700014800F0A7BB00BF00720800002307B5A0
S315200077100348019301AB00F0DFFA03B05DF804FBE8
S3152000772000720800014800F065BB00BF0C7208001B
S3152000773010B506480C4600F083FA40F20123984221
S3152000774002BF4FF6F1730020238010BD0C72080093
S31520007750014800F07FBB00BF0D720800002307B56B
S315200077600348019301AB00F0B7FA03B05DF804FBC0
S315200077700D720800014800F03DBB00BF0B720800E7
S3152000778010B506480C4600F05BFA40F201239842F9
S3152000779002BF48F201030020238010BD0B720800AF
S315200077A0014800F057BB00BF0E720800002307B542
S315200077B00348019301AB00F08FFA03B05DF804FB98
S315200077C00E720800014800F045BB00BF1072080089
S315200077D0002307B50348019301AB00F07DFA03B0FF
S315200077E05DF804FB10720800014800F033BB00BFAF
S315200077F011720800002307B50348019301AB00F07E
S315200078006BFA03B05DF804FB11720800014800F022
S3152000781021BB00BF12720800002307B5034801935D
S3152000782001AB00F059FA03B05DF804FB12720800B0
S31520007830014800F0DFBA00BF0873080010B50548FC
S315200078400C4600F0FDF940F20123984204BF0020C7
S31520007850208010BD08730800014800F0FBBA00BF65
S315200078600F72080073B5002601AB0E480C4615466C
S31520007870019600F031FA40F2012398420BD164B10F
S315200078800C2D0CD920462A4607490DF0E5FB30463B
S315200078902C4404F8016C02B070BD0B20FBE71920C4
S315200078A0F9E700BF0F720800FF630120014800F0CE
S315200078B0D1BA00BF04720800014800F00DBA00BF1B
S315200078C004720800014800F0DFBA00BF1F720800EA
S315200078D0014800F057BA00BF1F720800014800F0A7
S315200078E089BA00BF0772080037B512480D4600F066
S315200078F0A7F940F201239842044604D14FF470635D
S315200079002B80002014E098B92B88B3F5805FF8D33C
S31520007910012008F0B1FF50B140F26D132F22012152
S31520007920CDE900322046044B044A08F098FF2F2068
S3152000793003B030BD077208000C6401202C640120BE
S31520007940014800F06FBA00BF0872080010B506485B
S315200079500C4600F09DF940F20123984202BF4FF4F5
S315200079607A730020236010BD08720800014800F0D9
S3152000797071BA00BF09720800014800F0ADB900BF16
S3152000798009720800014800F065BA00BF0A720800B3
S31520007990014800F0A1B900BF0A72080008B50A46DE
S315200079A002480349FFF7D6FD08BD00BF267208002E
S315200079B0277208000B46024A02490348FFF722BEF7
S315200079C027720800267208003D64012008B50A4681
S315200079D002480349FFF7BEFD08BD00BF2472080018
S315200079E0257208000B46024A02490348FFF70ABEE1
S315200079F025720800247208005964012008B50A4639
S31520007A0002480349FFF7A6FD08BD00BF2272080001
S31520007A10237208000B46024A02490348FFF7F2BDCB
S31520007A2023720800227208007F640120022307B512
S31520007A30D1E9001201A80193FEF780FC18B901993B
S31520007A40024800F0EFF903B05DF804FB207208004D
S31520007A501FB5022003900698009003A8FEF786FC27
S31520007A6018B90399024800F0DDF905B05DF804FB6A
S31520007A7020720800002370B5154886B00D461646BC
S31520007A80049300F0CBF808B3114804A900F000F9DC
S31520007A90D0B9049B3246002B08BF0223294605A8ED
S31520007AA00593FEF7CDFC0446022008F0E5FE50B112
S31520007AB002947368022101936B681F200093054A84
S31520007AC0049B08F0CCFE204606B070BDD824EBE718
S31520007AD02072080098640120014800F0BBB900BF5D
S31520007AE029720800014800F0F7B800BF2972080083
S31520007AF0014800F0C9B900BF05720800014800F02E
S31520007B0041B900BF05720800032307B5D1E9001269
S31520007B1001A8019300F046F818B90199024800F02F
S31520007B2081F903B05DF804FB307208001FB51346D7
S31520007B300022039203AA0192202200920A460146BD
S31520007B4004480CF031FA002814BFAC20002005B000
S31520007B505DF804FB09000002014B08F0D1BD00BF0F
S31520007B6025060120292828BF002010B4074C04EB45
S31520007B708000074CD4E8AF4F1CB1A4465DF8044BF7
S31520007B8060475DF8044B08F080BE00BFE364012027
S31520007B90B81D0020024BD3E88F0FC0B2704700BF3C
S31520007BA0B410002070B504468AB000680D4616460B
S31520007BB008F06CFE1022002106A80DF08AFA236830
S31520007BC00B4A03930123CDE901234FF4007309499E
S31520007BD03246CDE9043101A829466B460CF07CF9E2
S31520007BE0014618B1044805F0CBFBAC200AB070BDA5
S31520007BF0002480000010C0048765012050B1064B88
S31520007C00984205D0C0B200F5300040F0A060704721
S31520007C1040F20120704700BF0BE000F007B5014697
S31520007C20064801AB6A46006807F056FAFFF7E6FFFA
S31520007C30B0FA80F0400903B05DF804FB381000204C
S31520007C407FB5002304460D46ADF8063008F031FE18
S31520007C50C0B10E4E03AB2146306802AA07F03CFAAB
S31520007C60FFF7CCFF60B9039B214630680DF1060271
S31520007C7007F090F9FFF7C2FF10B9BDF806302B8048
S31520007C8004B070BD40F20120FAE700BF3810002092
S31520007C907FB5002304460D46039308F00AFEB0B1D3
S31520007CA00C4E02AB2146306801AA07F015FAFFF701
S31520007CB0A5FF50B9029B2146306803AA07F06AF94E
S31520007CC0FFF79CFF08B9039B2B6004B070BD40F200
S31520007CD00120FAE7381000202DE9F0431D46002345
S31520007CE085B02B6007460E46914608F0E2FD002837
S31520007CF03ED0DFF88C8003AB3946D8F8000002AAC4
S31520007D0007F0EAF9FFF77AFF0446B8B9039B93B365
S31520007D10C6B14B4531D232463946D8F8000007F075
S31520007D2039F9FFF76BFFD8B9039B012B03D13378C1
S31520007D30003B18BF012300222B60F254204605B0D9
S31520007D40BDE8F083012B01D02B60F7E73946D8F840
S31520007D5000000DF1070207F01DF9FFF74FFF08B1EC
S31520007D600446EBE79DF8073003B103982860E5E762
S31520007D7040F20124E2E71E24E0E71924DEE700BFF3
S31520007D80381000202DE9F7431D4600232B600646B8
S31520007D900F46904608F08DFD00B3DFF8549001ABF6
S31520007DA06A463146D9F8000007F096F9FFF726FF14
S31520007DB0044678B9019BA3B167B1434513D83A4627
S31520007DC03146D9F8000007F0E5F8FFF717FF60B94C
S31520007DD0019B2B60204603B0BDE8F08340F20124CE
S31520007DE0F8E71E24F6E71924F4E70446F2E700BF75
S31520007DF03810002013B50446ADF8061008F059FDDA
S31520007E0058B107480223214600680DF1060207F003
S31520007E1077F8FFF7F3FE02B010BD40F20120FAE733
S31520007E203810002013B50446019108F042FD58B1E0
S31520007E30042307480DEB03022146006807F060F88B
S31520007E40FFF7DCFE02B010BD40F20120FAE700BFCA
S31520007E503810002010B5044608F02BFD68B179B122
S31520007E600848012A1346006838BF01230A462146DE
S31520007E7007F046F8FFF7C2FE10BD40F20120FBE7EF
S31520007E802F20F9E73810002010B5044608F011FD20
S31520007E9058B101B962B90748134600680A46214617
S31520007EA007F02EF8FFF7AAFE10BD40F20120FBE7EF
S31520007EB02F20F9E7381000200346054A05491068A7
S31520007EC003448B428CBF4FF0FF301360704700BFD6
S31520007ED004100020006000200348044A0449121AB6
S31520007EE0921008F009BD00BFAC7E0120AC7E0120B7
S31520007EF04C31002008B500F02FF8FFF7EDFF124BAC
S31520007F0012498B4212D30020114B12498B4218D3AF
S31520007F10FEF77AF9186850F82240586840F822404F
S31520007F20013298688242F5D30C33EAE70022F8E75B
S31520007F301C6844F8220001325C68A242F8D3083358
S31520007F40E4E70022F8E700BF847301209073012044
S31520007F5090730120907301204FF480414FF0FF3041
S31520007F60114B124A10B59A60D3F8882042F4700259
S31520007F70C3F888200E4A91660E4901F50052106614
S31520007F800D4850660220C3F8D000BFF34F8FBFF3D1
S31520007F906F8F01244FF440330848C0F88041D360E6
S31520007FA004600B6110BD00BF00ED00E00060002002
S31520007FB00090005000800044F7FF370000E100E009
S31520007FC0014B1868704700BF0C100020084B1B6F30
S31520007FD003F00703022B04D0032B05D0012B05D079
S31520007FE0FEE7044B18687047034BFBE703487047CE
S31520007FF0008000500C10002014100020002D3101AC
S3152000800008B5FFF7E3FF054B1B6FC3F303330133BB
S31520008010B0FBF3F0024B186008BD00BF0080005093
S31520008020081000200048704700B4C404014B1868AB
S31520008030704700BF1410002000487047002D310102
S315200080404FF0B4439868C0F304400C280AD8DFE800
S3152000805000F00B0909090909072119091B1D1F0031
S315200080600F487047002070479B6803F04073B3F1B8
S31520008070807F11D0B3F1007F10D00A4A002B08BFB1
S3152000808010467047084870470848704708487047A8
S31520008090084870470848704708487047084870479E
S315200080A0405DC60000093D00C0EA210180BA8C016E
S315200080B00048E801005A62020024F40080841E0071
S315200080C040420F00014B1868704700BF1010002077
S315200080D070B59400224605460E46F9F787F8431CEC
S315200080E00AD058B92246314628460CF0C8FF002847
S315200080F0034808BF002070BD0248FCE70248FAE7A3
S3152000810010E000F021E000F024E000F010B5044675
S31520008110F9F71AF8431C10D088B900F07BFD2346E6
S3152000812020F003002044984201D1002010BD53F8CE
S31520008130042B0132F7D00348F8E70348F6E7034853
S31520008140F4E700BF0EE000F021E000F024E000F0AC
S31520008150044BD3F88420D206FBD4D3F88400C0F392
S31520008160811070470040005038B5104B0546D3F8B3
S3152000817080300C4603F00303022B0BD0032B0DD0CB
S31520008180012B0FD1FFF722FF0E2305B1286004B182
S31520008190236038BDFFF754FF0723F6E7FFF710FFEC
S315200081A00623F2E700231846EFE700BF00800050C1
S315200081B038B5184B0546D3F820010C4600F00700C9
S315200081C0062823D8DFE800F0040A0E16121A1E002D
S315200081D0012305B1286004B1236038BDFFF7F0FE06
S315200081E00523F6E7FFF722FF0323F2E7FFF728FF31
S315200081F00723EEE7FFF720FF0223EAE7FFF7E0FE7B
S315200082000623E6E7FFF712FF0423E2E700231846DA
S31520008210DFE700BF0080005038B5174B0546D3F87E
S3152000822028310C4603F00703013B052B20D8DFE855
S3152000823003F003131B0F0B17FFF7C2FE052305B12F
S31520008240286004B1236038BDFFF7BAFE0623F6E79F
S31520008250FFF7F6FE0723F2E7FFF7E8FE0323EEE734
S31520008260FFF7E4FE0423EAE7FFF7E6FE0223E6E74C
S3152000827000231846E3E700BF0080005073B50D4683
S315200082800021114B0191D3F88041064604F00304E6
S31520008290022C13D0032C0CD0012C13D101A8FFF7EC
S315200082A087FF10240EB1019B336005B12C6002B00C
S315200082B070BDFFF7C5FE07240190F3E7FFF7BCFE6C
S315200082C00190EFE70C46EDE700800050002337B51C
S315200082D00193164B0546D3F820320C4603F00703CC
S315200082E0042B21D8DFE803F0030B11161B00012312
S315200082F00DB1019A2A6004B1236003B030BD00217C
S3152000830001A8FFF789FF1223F2E7FFF799FE07235B
S315200083100190EDE708F0FBFA0A230190E8E7FFF762
S31520008320D1FE09230190E3E70023E1E70080005016
S3152000833038B5104B0546D3F840310C4603F00303FD
S31520008340022B0BD0032B0DD0012B0FD108F0DFFA17
S315200083500A2305B1286004B1236038BDFFF7B2FEB9
S315200083600923F6E708F0D6FA0C23F2E701230020CA
S31520008370EFE700BF00800050002337B50193164B6E
S315200083800546D3F860320C4603F00703013B032B66
S315200083901FD8DFE803F0020E1914002101A8FFF709
S315200083A007FF10230DB1019A2A6004B1236003B0A0
S315200083B030BD002101A8FFF7BBFF1123F2E7FFF72D
S315200083C03FFE07230190EDE7FFF736FE02230190DB
S315200083D0E8E70023E6E700BF00800050002337B51A
S315200083E00193164B0546D3F894320C4603F0070347
S315200083F0013B032B1FD8DFE803F0020E19140021DE
S3152000840001A8FFF7D5FE10230DB1019A2A6004B109
S31520008410236003B030BD002101A8FFF789FF112397
S31520008420F2E7FFF70DFE07230190EDE7FFF704FEC5
S3152000843002230190E8E70023E6E700BF0080005012
S3152000844038B5144B0546D3F800020C4600F0070059
S3152000845004281BD8DFE800F003090D1115000123BD
S3152000846005B1286004B1236038BD08F050FA0A230C
S31520008470F6E7FFF727FE0923F2E708F04BFA0C236D
S31520008480EEE7FFF7BDFD0F23800AE9E70023184634
S31520008490E6E700BF0080005038B5144B0546D3F8F8
S315200084A008020C4600F0070004281BD8DFE800F07D
S315200084B003090D111500012305B1286004B12360BD
S315200084C038BD08F024FA0A23F6E7FFF7FBFD092357
S315200084D0F2E708F01FFA0C23EEE7FFF791FD0F23D2
S315200084E0800AE9E700231846E6E700BF008000502F
S315200084F038B5104B0546D3F840320C4603F003033B
S31520008500022B0BD0032B0DD0012B0FD108F0FFF936
S315200085100A2305B1286004B1236038BDFFF7D2FDD8
S315200085200923F6E708F0F6F90C23F2E701230020E9
S31520008530EFE700BF0080005038B5104B0546D3F852
S3152000854060310C4603F00303022B0BD0032B0DD016
S31520008550012B0FD108F0DBF90A2305B1286004B1FD
S31520008560236038BDFFF7AEFD0923F6E708F0D2F900
S315200085700C23F2E701230020EFE700BF0080005024
S31520008580B0F5207F1FD009D8B0F5007F15D003D8CD
S3152000859068B1B0F5C07F0AD000200CE0B0F5607F4E
S315200085A0FAD10B4BD3F88000C0F3011003E0084B3F
S315200085B0186FC0F3033001307047054BD3F8900095
S315200085C0C0F30460F7E7024B186FC0F38020F2E790
S315200085D00080005002464FF48030104B10B598664C
S315200085E00020FFF7CDFF504341F671320C4BDC697A
S315200085F0DA635A6804F4803422F4401259B90949DE
S31520008600884294BF00200120000502435A600CB125
S315200086100022DA6310BD0449F2E700BF0090005043
S3152000862000000350005A6202002D31011FB50021BF
S3152000863080280446CDE9001100F0998029D8002829
S3152000864000F09980A0F120043D2C35D83D2C33D85C
S31520008650DFE804F091999199A9A9A9A9A999B33C10
S31520008660C9603C99999932323232323232329999F2
S315200086709968D3993232323232323232323232320F
S3152000868032A9919191CE3C3CD8774DAE32323232DE
S315200086903288B0F5B06F00F090802DD8B0F5207FED
S315200086A071D00CD8B0F5C07F65D0B0F5007F65D00D
S315200086B0B0F5807F00F08680009804B010BDB0F53C
S315200086C0607F6BD00DD8B0F5407FF5D1FFF798FCD1
S315200086D002464FF42070FFF753FFB2FBF0F2520828
S315200086E05AE0B0F5806F5ED0B0F5A06FE4D10021DE
S315200086F06846FFF7EBFDDFE7B0F5106F78D016D8A8
S31520008700B0F5E06F79D00AD8B0F5C06F6BD0B0F570
S31520008710D06FD1D100216846FFF792FECCE7B0F5A5
S31520008720F06FC9D100216846FFF706FFC4E7B0F510
S31520008730406F3DD013D8B0F5206F63D0B0F5286FC9
S31520008740BAD10021324B0391D3F8703203F00303E0
S31520008750012B02D103A8FFF7EBFD039B3CE0B0F50C
S31520008760486FA9D100216846FFF738FEA4E7FFF736
S315200087702DFC0090A0E7FFF743FCFAE7FFF726FC65
S315200087800246204604E0FFF73BFC02464FF42070E9
S31520008790FFF7F6FEB2FBF0F200928DE701A8FFF795
S315200087A0E3FC019AEDE700216846FFF701FD83E728
S315200087B000216846FFF730FD7EE700216846FFF777
S315200087C05DFD79E74FF0E02302911B695B0705D534
S315200087D0FFF716FC0290029B00936DE703A902A8FF
S315200087E0FFF7A6FDF7E700216846FFF7A1FD63E73F
S315200087F000216846FFF750FE5EE700216846FFF736
S3152000880077FE59E700216846FFF7B6FD54E700BF1B
S315200088100080005008B58020FFF708FF034B9842E0
S315200088209EBF4FF48032024B1A6708BD005A62027F
S3152000883000A00050B0F5207F10B50C465DD008D8BA
S31520008840B0F5007F4ED003D8C0B1B0F5C07F15D0AB
S3152000885010BDB0F5607FFBD12C4B4C1ED3F8FC200D
S315200088602B4912F0807F4FEA041427D1D1F88030AB
S3152000887023F030032343C1F88030E9E708F07EF87F
S3152000888008F08AF84FF48031224B214A1967136F7A
S31520008890013C23F4704343EA04331367FFF7B0FB2C
S315200088A00446FFF755FCC0F10201204608F06EF899
S315200088B000F042F8BDE81040FFF7ACBFD3F8FC202B
S315200088C022F08072C3F8FC20D1F8802022F03002FA
S315200088D02243C1F88020D3F8FC2042F08072C3F8EE
S315200088E0FC20B5E70A4A4C1ED2F8903023F0F85304
S315200088F043EA0463C2F89030AAE7054A4C1E136F78
S3152000890023F4806343EA84231367A1E700ED00E0A4
S31520008910008000500090005008B50121022000F090
S315200089202FF808F02BF808F037F84FF48032014B77
S315200089301A6708BD0090005008B54FF4C070FFF7C5
S3152000894075FEBDE808400449884294BF01210221F2
S315200089504FF42070FFF76EBF80F0FA02024A536B85
S315200089600342FCD1704700BF00400950034A0179F9
S31520008970D36E23F030030B43D3667047004000507C
S31520008980F8B504461C4BD3F88420D106FBD4D3F883
S315200089908430C3F381139C422CD0FFF717FB012CA4
S315200089A0064602D1214607F0F1FF08F00FF84FF0F6
S315200089B00072124B07465A66204608F00EF84FF40E
S315200089C080630D4D621E93402B676B6E9A0103D414
S315200089D0D5F884309B060AD5384607F0FBFF022CD3
S315200089E008D13046BDE8F840002107F0CFBFD5F8C2
S315200089F08430EAE7F8BD00BF004000500060005018
S31520008A0010B50C4608B9FFF7E1FA074B21461B784B
S31520008A103BB1064B984204D80120BDE81040FFF731
S31520008A20AFBF0220F9E700BF46310020005A62029C
S31520008A304FF0004238B5244B244C5A664AF6CD33C3
S31520008A40656C014605F00105236428BB0120FFF76C
S31520008A5085FF6368DB0715D51D4B586008461D4BFF
S31520008A60226BD2070CD4984208D1072415B1174B94
S31520008A70194A1A6407F0B2FF204638BD0130EFE7E5
S31520008A809842F2D00024F1E70132236B13F0080359
S31520008A9005D08A42F8D1E8E700220E49F5E78A4256
S31520008AA0E3D020210A4A91620121A2F58052516029
S31520008AB00649084A886A800603D49342D5D00133F2
S31520008AC0F8E79342DDE700BF0090005000400950D0
S31520008AD00060095040420F003254FFFF4FF0004221
S31520008AE038B5164B01465A664AF6CD33144C154A0C
S31520008AF0656C236443780B205B0043F00103D3634A
S31520008B00FFF72CFF63688A7823F4F87343EA02138D
S31520008B106360CA784B7943EA0223A3600A798B798A
S31520008B2043EA022323610878FFF782FFEB0744BF5D
S31520008B30054B236407F052FF012038BD00900050FA
S31520008B4000400950004000503254FFFF4FF00042D1
S31520008B50124B70B55D6E03F580535A664AF6CD33D7
S31520008B6004460F4980204E6C0B64FFF7F7FE0B6A14
S31520008B7023F00F030F2C94BF234343F00F030B6204
S31520008B80F30744BF074B0B64002DA2BF4FF00042F2
S31520008B90054B5A6607F022FF70BD00BF00800050CB
S31520008BA0004009503254FFFF00A000504FF480329D
S31520008BB0054B9A6641F6713203F51C33DA630122BE
S31520008BC003F50053DA6070470090005041F6713289
S31520008BD00121064BDA6303F50052D1600022DA63E5
S31520008BE04FF48032A3F518339A667047000003507D
S31520008BF04FF48032064B5A6603F5E6239B69C3F38E
S31520008C008512827003F03F021B0B4270037070477F
S31520008C10009000500120034B9B680A3303F01F038A
S31520008C20984070470080E00F08B5B0B14FF48062DD
S31520008C300B4B9A6607F0F0FE4FF098435A6CD2021F
S31520008C40FCD54FF48062586D064B10F470209A665E
S31520008C5004D0BDE8084007F0FEBE212008BD00BFB5
S31520008C600090005000A000502DE9FF474FF000086B
S31520008C700E4617460446CDF80080002859D022B962
S31520008C800025284604B0BDE8F087002951D032F0EF
S31520008C90030902F0030A1FD04FF0E063C0E9003851
S31520008CA001230191C0F808800293C0F81C8049F086
S31520008CB0005301A9039307F09CFE4946204607F07E
S31520008CC0A2FE2046FFF7B0FF054628B14A46414698
S31520008CD030460CF0FEF9D4E7BAF1000FD0D04FF0B1
S31520008CE000084FF0E063C4E900380123CDF804D032
S31520008CF00293114B204601A9C4F80880C4F81C80B1
S31520008D00039307F076FE0421204607F07CFE2046DA
S31520008D10FFF78AFF054608B13A46D8E7009A4E443F
S31520008D20EB00013522FA03F3AA4506F8013BF7D1F9
S31520008D30A6E72125A5E700BF040000202DE9F04184
S31520008D40904602780C46022A8AB032D0032A35D0C1
S31520008D50012A38D114271D4A00F10C052260002271
S31520008D609E01C4E90122E2613146204607F04BFE0E
S31520008D700123204647F0005704A946F00056CDF8B7
S31520008D800480029303960495059306970795089306
S31520008D90099707F024FE204601A907F020FE204669
S31520008DA007A907F026FE2046FFF73EFF0AB0BDE8DA
S31520008DB0F0812027064A00F10C05CFE72027054A37
S31520008DC000F10C05CAE72120F0E700BF00020103ED
S31520008DD0000301030004010310B591B188B10023FB
S31520008DE0C0E90133084B00F10C0203F1200153F8CE
S31520008DF0044B8B4242F8044BF9D102230370002026
S31520008E0010BD2120FCE700BF1D66012010B591B1E1
S31520008E1088B10023C0E90133084B00F10C0203F1AD
S31520008E20200153F8044B8B4242F8044BF9D103231B
S31520008E300370002010BD2120FCE700BF3E66012004
S31520008E402DE9F04F0D46914604468BB000285ED0A2
S31520008E5000295CD0002A5AD00278022A0CD0032A94
S31520008E604DD0012A53D114262B4900F10C0B00F1C9
S31520008E7004082C34374607E020261C27274900F112
S31520008E800C0B00F104082C349F4240D8D8F804205B
S31520008E90002A3ED1D8F80030284603F03F0AC5E91B
S31520008EA00012AA60EA61514607F0ADFD2846D8F8BF
S31520008EB0001007F0A8FD01224AF00053284601A918
S31520008EC046F0005647F00057CDF804B002920396BC
S31520008ED0049405920693CDF81C900892099707F002
S31520008EE07EFD284604A907F07AFD284607A907F043
S31520008EF080FD2846FFF798FE0BB0BDE8F08F2026B0
S31520008F00074900F10C0B00F104082C34B2E72120AC
S31520008F10F2E70F20F0E700BF00020303000303037C
S31520008F20000403032DE9F04387B00D4691461E4603
S31520008F300446DDF83880002836D0B8F1000F33D04B
S31520008F4002B98BBB6B1EDBB2022B2DD8174AD75C1E
S31520008F500F9B9F4228D80023280200F1407000F57D
S31520008F6080703146C4E901332060E361204607F072
S31520008F704AFD01236946204646F0005647F0005731
S31520008F80CDF8009001930296CDF80C8004930597B6
S31520008F9007F025FD204603A907F02BFD2046FFF705
S31520008FA043FE07B0BDE8F0832120FAE75F66012083
S31520008FB0F0B50F4616461D46044693B010B921203B
S31520008FC013B0F0BD0029FAD0002AF8D0002BF6D035
S31520008FD0002331461A46384607F023FE0028EFD1F3
S31520008FE0304602A907F0CAFD0028E9D1386834497D
S31520008FF0029A88426B695ED19342E0D32B68002B9C
S31520009000DDD14FF060623846C4E90023A360E361F6
S3152000901001A907F061FE0028D2D10199204621F44A
S31520009020F061019107F0EFFC6946284607F054FEEF
S315200090300028C5D12046009907F0E5FC384609A945
S3152000904007F0F8FE0028BBD1204609A907F0C7FC87
S3152000905038460CA907F0F9FE0028B1D120460CA904
S3152000906007F0BDFCEB684BB1284606A907F0E2FEE7
S315200090700028A5D1204606A907F0B1FC304603A951
S3152000908007F0E3FE00289BD1204603A907F0A7FCA2
S3152000909028460FA907F0D9FE002891D120460FA90E
S315200090A007F0A7FC03252046FFF7BEFD012887D140
S315200090B0013DF8D184E7B3EB420F9FD27FE700BF93
S315200090C0200000B070B50E46154604468AB000282A
S315200090D05CD000295AD0002A58D0012329461A46A6
S315200090E0304607F09EFD00284ED1B36813F4C04FDA
S315200090F04CD0AB6803F4C043B3F5005F46D1254B93
S31520009100A060C4E90030E06107A9304607F0E4FD1D
S31520009110002839D12046079907F075FC01230293D0
S315200091204FF00053204601A9039307F058FC304620
S3152000913004A907F08AFE38BB204604A907F04FFC95
S31520009140EB681BBBAB6803F4C043B3F5005F1DD1CE
S315200091506946284607F035FDB0B9009B6A699A42F0
S3152000916016D32A6943F0005307920122204607A905
S3152000917008920325099307F03CFC2046FFF754FD8F
S31520009180012801D1013DF8D10AB070BD2120FBE7AD
S315200091901D20F9E7000001022DE9F04391B00D46AC
S315200091A0DDE918760446DDF8688000286DD00029B0
S315200091B06BD0002F69D0B8F1000F66D0096801F096
S315200091C07041B1F1404F5BD0002B5BD1531E022B77
S315200091D05BD8120202F1C06202F580720023284693
S315200091E0C4E901332260E3610DA907F075FD00286B
S315200091F043D120460D9907F006FC3146204607F05C
S3152000920002FC284601A907F015FE002835D1204684
S3152000921001A907F0E4FB284604A907F016FE60BB67
S315200092204FF00109204604A907F0D9FB46F0005665
S31520009230204607A90797CDF82090099607F0CFFB7F
S315200092402B680A9703F07043B3F1404FCDF82C906A
S315200092500C9603D120460AA907F0C1FB0123CDF8BD
S3152000926034800E931B9B204643F000530DA90F9389
S3152000927007F0BFFB2046FFF7D7FC11B0BDE8F0830F
S31520009280034AABE74FF0C062A8E72120F5E700BF0D
S31520009290000002062DE9F0418CB00D46DDE912866C
S315200092A00446149F002867D0002965D0B8F1000F26
S315200092B062D0002F60D0896889045DD5296801F0C5
S315200092C07041B1F1404F4DD0002B4DD1531E022B92
S315200092D052D82A4B03EB022200232846C4E9013345
S315200092E02260E36109A907F0F7FC002837D1204660
S315200092F0099907F088FB3146204607F084FB69462A
S31520009300284607F097FD50BB6946204607F067FBC5
S31520009310284603A907F099FD08BB204603A907F0B4
S315200093205EFB012346F00056CDF818800793089679
S3152000933009970A93159B43F000530B932B6803F070
S315200093407043B3F1404F11D109A9204607F047FBDE
S3152000935006A9204607F043FB2046FFF765FC0CB024
S31520009360BDE8F081064AB7E7064AB5E706A92046D2
S3152000937007F035FB09A9ECE72120F0E700010106FB
S315200093800000030600000106012908B50BDC074B87
S31520009390074A00290CBF1146194600F003FEBDE816
S315200093A0084007F0A5BD6FF0730008BD0800000255
S315200093B009000002012300F01F02A0F5062009493A
S315200093C0A0F550604009934051F820201A4341F8F7
S315200093D02020054951F8202022EA030241F82020C6
S315200093E0704700BF801E00206C1E00200121A0F5C2
S315200093F006230E4AA3F550635B0900F01F00814047
S3152000940052F82300014342F823100949D1E90030DC
S31520009410034488680344C868096903445B1802BF8B
S31520009420C2E90033C2E90233136170476C1E002083
S31520009430801E00202DE9F047A2B04022002102A87C
S315200094400BF047FE4022002112A80BF042FE1C4CD6
S315200094501C4F254605F10F09CDF800902B4610220A
S31520009460386802A90CF044FC4FF000080646103478
S315200094700DF1080AB04516D1CDF800902B461022E2
S31520009480386812A90CF03DFC002605460DF1480867
S31520009490AE420FD10C4B9C42DBD101220B4B1A70F2
S315200094A022B0BDE8F0875AF8040BFFF783FF08F1D6
S315200094B00108DFE758F8040BFFF798FF0136E7E7C6
S315200094C0006D080038100020007108004731002088
S315200094D02DE9F04780460F461E46154688B00AB14C
S315200094E0002313600EB1002333604FF0100ADFF81B
S315200094F0B090CDF800A000233A464146D9F80000A6
S3152000950005F096FD0446F8B93B68214A93422ED1D0
S315200095104FF0180A0146524602A80BF0DAFDCDF8A4
S3152000952000A023464146D9F8000002AA05F080FD96
S31520009530044648B9069B7B60DDE90423C7E902237C
S31520009540144B3B6025B9144C204608B0BDE8F08783
S31520009550114CC5F800A0002EF6D033464146D9F866
S31520009560000002AA05F0B8FD60B10446ECE7094AFE
S315200095701DB99342E8D0094CE6E79342C5F800A00E
S31520009580E9D0F8E733682A689B1A3360DCE700BF26
S31520009590D175E105105D175EFEDF00F0FFDF00F0FC
S315200095A0381000202DE9F04F87B08246894698462C
S315200095B01646DDF840B02AB1002B4FD040F26C732E
S315200095C09A424ED8BBF1010F4ED8002406F110075F
S315200095D039460120059408F094F90546002846D01E
S315200095E021463A460BF075FD05ABCDE901430094C3
S315200095F02B4601225046494600F040F8044680B1E9
S3152000960010F18C0F08BF6FF08D043A4600212846D2
S315200096100BF05FFD284608F084F9204607B0BDE828
S31520009620F08F144BC5E902A92B60C5F804B02EB102
S315200096303246414605F110000BF080FD059E0E488E
S315200096403B462A463146006805F05AFC18B9304692
S31520009650FFF7B0FED9E76FF09104D6E76FF08604E6
S31520009660DBE76FF09104D8E76FF08504D5E76FF05C
S315200096708C04D2E7105D175E381000202DE9F04FDC
S315200096809FB002921F4604460822CDE903014140BD
S3152000969021FA02F34B40980702F1080218BF9B00FB
S315200096A0202A1C44F4D18123B4FBF3F303EBC31328
S315200096B0E41AA14B04F506241B7804F550640BBB71
S315200096C003F048FA002840F079819C4E3368E82B55
S315200096D016D1DFF880828DF81F0001239849D8F82B
S315200096E000000DF11F0205F055FC18B1954B98426C
S315200096F040F064819DF81F303A2B38D13A233360ED
S31520009700FFF798FE4FF081080026DFF85092DFF829
S3152000971050A2A4F50625A5F550635B0959F8232028
S3152000972004F01F01CA40D20700F11E815AF82330E7
S31520009730CB40DB0740F1F380002E08BF264681236D
S31520009740A5F6FF45B5FBF3F303EBC313ED1A05F5B9
S315200097500624B8F1010804F55064DAD1029B002BE7
S3152000976000F0DF80002E00F0DC803446DFE040226F
S3152000977000210EA80BF0ADFC734DDFF8DC9105F14E
S315200097800F0200922B461022D8F800000EA91035A1
S315200097900CF0AEFA002853D0102200210AA80BF0B4
S315200097A098FC00230E98CDE9083309AA08AB0AA92C
S315200097B0FFF78EFE654B984200F0008118B1013B01
S315200097C0984240F0FB800A9BDFF898914B4503D0E6
S315200097D05F4A934240F0F2807423402200210EA873
S315200097E033600BF076FC102200210AA80BF071FCE6
S315200097F00023DFF85481089308F10F03554800939E
S315200098001022434600680EA90CF072FA4FF0000AA7
S3152000981005900EAE059B534515D14F4B08F1100808
S315200098209845E9D13A234B488DF8383044490123ED
S3152000983000680EAA05F064FB00283FF463AFBDE084
S315200098404D459CD15AE700233068CDE9083309AA53
S3152000985008AB0AA9FFF73CFE3C4B984261D018B1F1
S31520009860013B984240F0AA800A9B394ADDF820B095
S31520009870934202D04B4540F0A18001200BF110010C
S3152000988008F03FF80546002800F09B80089B02461A
S31520009890304800933168099B006805F0C9FB30BB4E
S315200098A00A9B4B4519D1DDE90C010B9B5A460093C7
S315200098B02B4600F08FF8834690B110F1850F0FD01C
S315200098C0089A0021284610320BF003FC284608F09F
S315200098D028F858461FB0BDE8F08F1D4A934209D09C
S315200098E01C4B3168186805F03BFC014658B16FF0F7
S315200098F0910BE5E70B9B5A46DDE90C0100932B46BD
S31520009900FFF750FED7E7089A284610320BF0E1FB06
S31520009910284608F006F804360AF1010A7AE7029B7F
S3152000992013B96FF08B0BD4E7002E18BF34462A9B51
S315200099304FF0000B1C60CCE74731002018100020A8
S31520009940FF6C08000BE000F000310800FFDF00F09C
S31520009950105D175E3810002000350800801E00209C
S315200099606C1E0020D175E105DDE928233946204605
S31520009970FFF7AEFD144B984202D01233984218D10D
S31520009980124B2146186805F0EBFB0028C9D1D7E910
S315200099900223DDE90310834208BF8A427FF4CFAE5B
S315200099A0029B002BC3D07B68012BC0D16FF0840BA8
S315200099B08FE70028EBD0064B9842E8D06FF0910B4A
S315200099C087E76FF08C0B84E7FFDF00F0381000206C
S315200099D0FEDF00F02DE9F04F8BB08246894698468F
S315200099E01646DDF850B00AB1002B4BD0BBF1010F63
S315200099F04BD8002406F1180739460120059407F0B4
S31520009A0080FF0546002843D021463A460BF061FBED
S31520009A1005ABCDE90143009401225046494606ABE9
S31520009A20FFF72CFE044680B110F18C0F08BF6FF0B3
S31520009A308D043A46002128460BF04BFB284607F0BA
S31520009A4070FF20460BB0BDE8F08F134BC5E902A985
S31520009A502B60C5F810B02EB13246414605F11800EC
S31520009A600BF06CFB059E0D483B462A4631460068A6
S31520009A7005F046FA18B93046FFF79CFCD9E76FF097
S31520009A809104D6E76FF08604DBE76FF08504D8E70C
S31520009A906FF08C04D5E700BFD175E10538100020A2
S31520009AA02DE9F0438DB08146DDE914780E46154642
S31520009AB01C469BB1B8F1000F05D16FF086063046E3
S31520009AC00DB0BDE8F083002FF7D0B7F1005FF4D3D7
S31520009AD0C3F1005303F500339F42EED81022002134
S31520009AE008A80BF0F6FA002207AB029305AB019308
S31520009AF006AB31460093484608ABCDE90522FFF771
S31520009B00BDFD06460028DAD1059BA4B1AB4215D887
S31520009B1053EA0504D1D1069B0B48C8F800400094AF
S31520009B203A46079900682B4405F082FA002818BFA8
S31520009B306FF09106C3E7AB42EDD2BEE75B1B9C42BA
S31520009B4028BF1C46E7E700BF3810002030B58DB08F
S31520009B500C4605461022002108A80BF0BAFA00226E
S31520009B6007AB029305AB019306AB2146009328462B
S31520009B7008ABCDE90522FFF781FD0446D8B9099B3C
S31520009B80012B1BD0079D104B2946186805F0E8FAD3
S31520009B90B8B90122A5F506230C49A3F550635B0944
S31520009BA005F01F00824051F823004240284641F824
S31520009BB02320FFF71BFC20460DB030BD6FF0840438
S31520009BC0F9E76FF09104F6E738100020801E002098
S31520009BD0F8B5134642880C460732072A4FEAD201C7
S31520009BE001D0A1424DD146680588C7682022184673
S31520009BF000210BF06EFA360A0346002E44D1002CC3
S31520009C003FD041F20102954205D0B5F5885F02D0DA
S31520009C10B5F5905F02D15C60002011E0B5F5105FCC
S31520009C2007D1182C03D0202C01D0102C29D11C6050
S31520009C30F1E705F44F42B2F5824F02D06FF085006E
S31520009C40F8BDEAB2122AF9D1202CF7D1104A25F014
S31520009C50FF05B5F5E24F02600CD0B5F5824F10D165
S31520009C604FF4005217F4705F09D017F4864F04D0D2
S31520009C709A60E3E74FF48042F4E742F480629A6008
S31520009C80CAE76FF08600DBE76FF08B00D8E700BFEE
S31520009C90200000802DE9F04F99460388164603F4EC
S31520009CA04F42B1B0B2F5824F0F46DDF8F08002D0B8
S31520009CB06FF0850002E021B96FF0860031B0BDE873
S31520009CC0F08F002EF8D0B8F1000FF5D0DAB2122AB4
S31520009CD0EED123F0FF03B3F5E24F34D14388C8F821
S31520009CE000305BBBF300C8F80030B3F5807FDFD1CE
S31520009CF0002318464F49BC19314411F8015D14F868
S31520009D00012D1043521B0CBF4FF0FF350025A742F3
S31520009D1003EA050343EA0203EFD10028CCD0002B47
S31520009D20CADA3A9B9E4200F281803246394648463C
S31520009D300BF004FA3B9B00201E60BFE7DA1DB6EB52
S31520009D40D20FD2D0B8E7B3F5824F6CD10B78042B63
S31520009D50B2D12022002168460BF0BBF9684606F0F6
S31520009D60A8FE824600285BD101463C22209021A8ED
S31520009D700BF0AFF9202201234FF0400B51460DEB9B
S31520009D800200741E8DF880300BF0A3F97B1C202274
S31520009D9051460D9410A8E4000C9320AD0BF099F9D0
S31520009DA064082022514618A81495CDF854B00BF01B
S31520009DB090F9B4F5C07FCDE91C5BC8F800403FF4AC
S31520009DC077AF28D8E02C03D0B4F5807F7FF474AF2A
S31520009DD0194B0734089310934FF400530A934FF40A
S31520009DE08043E408129308AA18AB6846640010A9B9
S31520009DF01994FFF7DDF8D8F800300733DB085A004E
S31520009E0033B10021531E013B297005F10105FAD219
S31520009E10002886D050E7B4F5047F3FF449AF4BE7DE
S31520009E206FF092004AE76FF0960047E76FF08900DF
S31520009E3044E700BF6266012020000080038810B539
S31520009E4003F44F42B2F5824F21F0FF0221F4FF7155
S31520009E50134C21F0010109D0A1421AD0114B9A428C
S31520009E6014BF6FF085006FF0860010BDA142DBB2F3
S31520009E700FD00C498A420CD0122B0DD14388B3F552
S31520009E80807F09D1B2F1062F0CBF00206FF085002C
S31520009E90EBE76FF08600E8E76FF08500E5E700BFA7
S31520009EA00002000600130006134A20F4FF7323F075
S31520009EB0010393420ED0114B20F0FF029A4209D0A3
S31520009EC00F4920F47F7323F003038B4202D00D4BFE
S31520009ED09A420DD110F0FF000DD00B4B40F00070D0
S31520009EE0984207D0013398420CBF032000207047C8
S31520009EF0002070470220704700020006001300066B
S31520009F000004000600090006080000022DE9F047BB
S31520009F108AB01746DDE9129498460E4609B9002AFA
S31520009F203BD1B8F1000F0CD1B9F1000F35D1A4B354
S31520009F301B4B984212D0013398420FD06FF0850008
S31520009F4010E054B3164B98420FD001339842F5D106
S31520009F5020234FF0030A994523600AD200236FF08D
S31520009F60890023600AB0BDE8F0871C234FF0020A5F
S31520009F70F1E702A806F09DFD054610B16FF09200AC
S31520009F80F0E73B4632465146CDE9008902A8FEF766
S31520009F90C9FF0028E6D02560F0E76FF08600E1E7EC
S31520009FA00800000230B50D46044689B000B3031DF3
S31520009FB06C22002118460BF08CF80F4A954206D0E9
S31520009FC0013295420ED06FF0850009B030BD0222D5
S31520009FD069462270FEF700FF002814BF6FF092003A
S31520009FE00020F2E7032269462270FEF70FFFF3E70F
S31520009FF06FF08600E9E700BF0800000207B5094BAD
S3152000A00018689A889B7900906846ADF804208DF8E8
S3152000A0100630FEF763FD0C20FEF798FD002003B006
S3152000A0205DF804FB8266012013B50024064A6846C3
S3152000A030536F43F00103536700948DF80440FEF7F5
S3152000A04095FC204602B010BD004000506FF004037E
S3152000A050502110B50A480B4C13F0800F03F1010272
S3152000A06007D123444C2A83F800131346F4D1002049
S3152000A07010BD03F00F03043B034419761346EBE7A8
S3152000A08000ED00E000E100E010B5044606F09EFC7D
S3152000A090024B1C6006F09EFC002010BD941E002082
S3152000A0A010B506F093FC034B1C6806F093FC204683
S3152000A0B010BD00BF941E002013B5002301241A46AC
S3152000A0C019461846009402F0E3FC002300941A4631
S3152000A0D01946184602F00EFD0248FFF7D5FF00206C
S3152000A0E002B010BD2010002030B5074C256824682A
S3152000A0F06A40D2B2891A101A090A41EA102163402D
S3152000A10023EA0100C0B230BD981E0020044B1B6814
S3152000A110584043085B4240421843C017704700BF6F
S3152000A120981E0020F8B50E46C9880546144607F045
S3152000A130BDFE0746D0B92046FFF7E8FF0446E443B4
S3152000A1400F4B31681A68B5F90430424023EA0203FE
S3152000A150B6F9042002401343AB80F28803462868F0
S3152000A16000F00CFAF388E888834201D33846F8BD1C
S3152000A170296851F82320224041F823200133F3E7B0
S3152000A180981E00202DE9F04F834699B00F461846B9
S3152000A19000211646049307F0FFFF002800F0878170
S3152000A1A000240125774B30461493049915ABCDE94D
S3152000A1B00B45CDE90D45CDE90F45CDE91145139365
S3152000A1C007F073FFA04228DABBF1000F05D1E7B9EB
S3152000A1D00024204619B0BDE8F08F2146584607F0E6
S3152000A1E0D9FE04460028F2D00BA807F051FE0DA890
S3152000A1F007F04EFE0FA807F04BFE11A807F048FE09
S3152000A2000C2115A801F04CFBE3E73146384607F050
S3152000A2108CFE04460028E7D1DAE731460BA807F082
S3152000A22084FE04460028DFD104990DA807F07DFEA0
S3152000A23004460028D8D1F1880FA80231ADF838504D
S3152000A240ADF8305007F032FE04460028CCD1014646
S3152000A2500FA807F09FFE04460028C5D1F18811A853
S3152000A260023107F023FE04460028BDD10DA807F0D1
S3152000A270D0FE00F01F001F2873D0C0F11F0319461F
S3152000A2800BA8019307F0EBFE04460028ACD10199F8
S3152000A2900DA807F0E4FE04460028A5D1BDF83250EB
S3152000A2A0BDF83A800DA8A5EB080A4FEA4A19494697
S3152000A2B007F0D5FE0446002896D14FEA8A0A0DA952
S3152000A2C00BA807F021FF00284DDA49460DA807F014
S3152000A2D0E3FE0446002887D108F1FF3302939B0052
S3152000A2E005F1FF3A069305F1804508F18043023BCC
S3152000A2F0013D9B00A5EB08050993AB000393029B48
S3152000A3009A4541D8BBF1000F0DD058460FA907F04A
S3152000A3100CFE002840F0C780049AB388928813FB6D
S3152000A32002F3ABF80430002F3FF45EAF01990BA87F
S3152000A33007F0B2FE002840F0B680B3880BA9384655
S3152000A340ADF8303007F0F1FD0146002840F0AD8031
S3152000A350384607F021FF00287FF446AF0123BB8053
S3152000A36042E701949AE70F9A0BA952F80A30084659
S3152000A370013342F80A300DAA07F0F3FF04460028FD
S3152000A3809DD031E7010003000D9B069A05931344E7
S3152000A390DDF82C900893059B4FEA8A089A5859F8BD
S3152000A3A02A10A8F104030F9D0793039B91421D4495
S3152000A3B074D20798002359F8000002F029FC0029DE
S3152000A3C014BF4FF0FF330346BAF1010F2B600EBFC7
S3152000A3D0002309EB080353F8083C099A1593079BB9
S3152000A3E059F80330169359F8083017932B68013320
S3152000A3F02B60059B134498462B680021013B2B605C
S3152000A40011A807F0C7FD00284DD1029B002B48D08C
S3152000A410D8F80020119B11A91A60089A08461268DC
S3152000A4205A602A6808F025F800283CD113A911A8FB
S3152000A43007F06AFE0028DFDC2A680DA911A808F0BB
S3152000A44018F880BB039B11A84FEAC308414607F0C2
S3152000A45006FE40BB0BA9084611AA07F082FF01465B
S3152000A46018BB0BA807F098FE002812DA0DA911A830
S3152000A47007F05BFDB8B9414611A807F0F0FD90B989
S3152000A4800BA9084611AA07F069FF60B92B68013BA2
S3152000A4902B60039B0AF1FF3A043B2FE74FF0FF3373
S3152000A4A092E7029AB6E704469EE60C469CE66FF0D3
S3152000A4B00B048EE6044B1B68584043085B4240421F
S3152000A4C01843C017704700BF981E002010B50B4CCC
S3152000A4D0226823684240594081EA0200C00FFFF7F4
S3152000A4E0E9FF2368521A434022EA03020840104338
S3152000A4F0C00FBDE81040FFF7DDBF00BF981E00204B
S3152000A500F8B50D46014628681746FFF7DFFF0124F8
S3152000A510C143074B1E68BC4202D346EA0100F8BD80
S3152000A52055F82400FFF7C6FF01340643F3E700BFC2
S3152000A530981E00202DE9F04707460F4B88461E68D7
S3152000A54019681D68541E631C02D13046BDE8F08789
S3152000A55058F824A057F8249050464946FFF7B6FFEE
S3152000A560514605434846FFF7B1FF20EA05031E433F
S3152000A5700543013CE7E700BF981E00208842F0B55E
S3152000A58004D00025084F0438AA4200D1F0BD3E6809
S3152000A59050F8044F5E4024EA060451F82560013540
S3152000A5A01E4034430460EFE7981E00202DE9F04F4B
S3152000A5B01C4685B0DFF88490039106462146104656
S3152000A5C0D9F80030D9F8003008F0A3F9C51D272D99
S3152000A5D090468CBF4FF01E0A4FF0FA0AEB0825F082
S3152000A5E0070502932D1A0F9B2146009330460E9B9A
S3152000A5F0029A08F08BFB0746C0B92A462146304608
S3152000A60008F000FABAF1010A14D02246314603981E
S3152000A610FFF776FF2246834641463046FFF78AFFFC
S3152000A620D9F800200BEA00039A42DCD0384605B060
S3152000A630BDE8F08F6FF00D07F8E700BF981E0020E9
S3152000A64070B50C460646114620461A4607F0A5FE6A
S3152000A6500546A0B9B36C33B921462046321DBDE864
S3152000A660704007F037BFB4F90430002B09DB2046D1
S3152000A67007F0CFFCF36BB0EB430F09D9184D2846F2
S3152000A68070BD0146204607F087FD0028EFD0F5E78C
S3152000A6902046B36C984705460028F0D10436B4F915
S3152000A6A00430002B04DA0021204607F075FD68B936
S3152000A6B03146204607F028FD0028E0DB32462146B9
S3152000A6C0204607F0C9FD0028F2D006E03246214692
S3152000A6D0204607F043FE0028E1D00546CFE700BF1D
S3152000A6E080B0FFFFF0B514461F46054685B002A888
S3152000A6F00E4607F0C8FB2346022100972A1D02A812
S3152000A70007F096FF044648BB06F11002114628467C
S3152000A71002ABFFF795FF044600BB06F108073A4651
S3152000A7203946284602ABFFF78BFF0446B0B902AB89
S3152000A7301A4619462846FFF783FF044670B9324663
S3152000A7403146284602ABFFF77BFF044630B93A462E
S3152000A7503946284602ABFFF773FF044602A807F0E6
S3152000A76097FB034814F10E0F18BF204605B0F0BD25
S3152000A77000B3FFFF0246044803780BB9184670471A
S3152000A7809342FCD00C30F7E7946601202DE9F14F77
S3152000A7909A461B6904460E4691460A9D1BB9724885
S3152000A7A001B0BDE8F08F02F110070021384607F00E
S3152000A7B0F3FC30B95146304601B0BDE8F04F08F001
S3152000A7C07DBD0AF110080021404607F0E5FC08B9D6
S3152000A7D04946F0E70121404607F0DEFC0028DED19D
S3152000A7E03B463A4629462046FFF72AFF0028D7D17E
S3152000A7F005F108083B462A4641462046FFF720FF3A
S3152000A8000028CDD153462A4629462046FFF718FF71
S3152000A8100028C5D14246414620460AF10803FFF7E3
S3152000A8200FFF0028BCD14B462A462946204608F071
S3152000A83038FB0028B4D109F1080B5B464246414655
S3152000A840204608F02EFB0028AAD10021284607F032
S3152000A850A3FC014690B9404607F09EFC40B92B4622
S3152000A8604A463146204601B0BDE8F04F08F096BB77
S3152000A870304601B0BDE8F04F08F036BD2B463A46CB
S3152000A880204606F11001FFF7DBFE002888D105F1EE
S3152000A89010072B462A4639462046FFF7D1FE0028C8
S3152000A8A07FF47EAF05F1180A2B463A4651462046DC
S3152000A8B0FFF7C6FE00287FF473AF4B463A4639466B
S3152000A8C02046FFF7BDFE00287FF46AAF39462846AA
S3152000A8D007F02BFB00287FF463AF2946204608F0BB
S3152000A8E04EFB00287FF45CAF434642463146204665
S3152000A8F0FFF7A6FE00287FF453AF2B46324631469B
S3152000A900204608F0CEFA00287FF44AAF5346324656
S3152000A9103146204608F0C5FA00287FF441AF334679
S3152000A9203A463946204608F0BCFA00287FF438AF6C
S3152000A93043463A4639462046FFF782FE00287FF4F2
S3152000A9402FAF5B46524651462046FFF779FE002838
S3152000A9507FF426AF53463A46204606F1080101B059
S3152000A960BDE8F04F08F09DBA80B0FFFF2DE9F04713
S3152000A970012A8246DDE908490E4690461F4644D8FC
S3152000A980043007F04AFB0546504608F00DFC012826
S3152000A99082463CD1002106F1100007F0FDFB48B9A4
S3152000A9A0B9F1000F02D11B48BDE8F0872070C7F827
S3152000A9B000A0F9E7B8F1000F17D16B0001334B4522
S3152000A9C03B60F0D8214604232A46304601F8013B55
S3152000A9D007F03FFB0028E7D12A46691C214406F1EF
S3152000A9E00800BDE8F04707F034BB6B1C4B453B60C5
S3152000A9F0D9D8002106F1080007F0E8FA21460230EE
S3152000AA0001F8010B2A463046EBE70348CCE703481A
S3152000AA10CAE700BF00B1FFFF80B0FFFF80B1FFFF94
S3152000AA202DE9F84380460C4615461F4613B91D48A6
S3152000AA30BDE8F883043007F0F0FA0646404608F0F1
S3152000AA40B3FB012881462AD12B7833B9012FEED1C9
S3152000AA502046BDE8F84308F047BC06F10108B84592
S3152000AA60E5D832462046691C07F0DDFA0028DFD1FA
S3152000AA70494604F1100007F08DFA0028D8D12B782A
S3152000AA80042BD4D173000133BB42D0D1324605EB1F
S3152000AA90080104F10800BDE8F84307F0C4BA0248EB
S3152000AAA0C6E700BF80B0FFFF80B1FFFF2DE9FF4161
S3152000AAB00E460546012106F1100007F06DFB0446FF
S3152000AAC050B9284608F070FB01287AD12146304635
S3152000AAD007F062FB002801DA3B4C6EE006F108081D
S3152000AAE02146404607F058FB0028F5DB2F1D394646
S3152000AAF0304607F009FB0028EEDA3946404607F0D3
S3152000AB0003FB0028E8DA684607F0BDF902A807F03B
S3152000AB10BAF94346424669462846FFF791FD044660
S3152000AB20002844D133463246284602A9FFF788FD3D
S3152000AB30044600283BD1EB687BBB02A903220846CA
S3152000AB4007F013FC044690BBBDF90C30002B04DA49
S3152000AB50002102A807F020FBC8B902AA33461146F5
S3152000AB602846FFF76DFD044608BB02AA1146284673
S3152000AB7005F1140308F085F90446C0B9684602A910
S3152000AB8007F0C2FA104B041E18BF1C460FE002A99C
S3152000AB903A46084607F0E2FBD4E702AA11462846C1
S3152000ABA005F10C0308F06DF904460028D5D0684657
S3152000ABB007F06EF902A807F06BF9204604B0BDE84D
S3152000ABC0F081024CF9E700BF80B3FFFF80B0FFFFA2
S3152000ABD038B5054608F0E8FA01280C4601460DD19D
S3152000ABE0204607F0D9FA002806DB204605F1340175
S3152000ABF007F08AFA002803DB024838BD0248FCE742
S3152000AC000020FAE780B3FFFF80B0FFFF2DE9F04F69
S3152000AC100F46B5B0114606469A460292FFF7D8FF70
S3152000AC200446002840F09F8151463046FFF73EFFFC
S3152000AC300446002840F09781304608F0B5FA0128EE
S3152000AC4040F09A81336C1821013302204FEA5309D0
S3152000AC5006F057FE0546002800F08C8105F11808FD
S3152000AC6008F0ABFA404608F0A8FA0DF14C0B0BEBB6
S3152000AC700400083407F007F9202CF8D1514628465D
S3152000AC8008F01CFB044698BB8246D1451ED141469E
S3152000AC90304608F07BF8044650BB43462A464146D8
S3152000ACA03046CDF800B0FFF771FD044600BB4146A3
S3152000ACB0304608F06BF80446D0B905F1100007F0CD
S3152000ACC0E7F805F1280007F0E3F811E0BAFBF9F1FF
S3152000ACD0012318228B4009FB11A1DBB202FB035290
S3152000ACE0F9B11146304613AB08F058F9044638B38B
S3152000ACF04FF0000A0BEB0A000AF1080A07F0C8F821
S3152000AD00BAF1200FF6D1F4B1B36D9D422DD028466D
S3152000AD1008F090FA404608F08DFA284606F001FE23
S3152000AD2023E003F0FE0101EB5301104605EBC101C0
S3152000AD30039208F0C3FA039A04460028D1D0D7E735
S3152000AD400AF1010AA1E705A807F09DF806F1340BE0
S3152000AD500BA807F098F82146584607F037F901283E
S3152000AD6011D0B36D9D4204D1844C384608F062FA66
S3152000AD70F9E0284608F05EFA404608F05BFA2846D5
S3152000AD8006F0CFFDF0E72146029807F01FF9029959
S3152000AD90824605A807F0C9F8044630B10BA807F08B
S3152000ADA077F805A807F074F8AEE75946029A0BA87B
S3152000ADB007F0D7FA04460028F0D1BAFA8AFA4FEA01
S3152000ADC05A1A52460BA905A8FFF7ACF904460028E3
S3152000ADD0E4D1014609F1010213A80AF07AF913AB6E
S3152000ADE01A46A346D94502925DD0594605A8039333
S3152000ADF007F0ECF8029A09EB0B0114780BF1010B22
S3152000AE00044305A807F0E2F8E4B2029A44EA4004B3
S3152000AE10039B02F8014BE5E75C781A7884EA010E79
S3152000AE206FEA0E0000F0010012FB00F20C4002EA6D
S3152000AE300E0182EA0E0203F8012F13F8012C21439A
S3152000AE4042EAC01203F8012C0CF1010CE345E3D2CF
S3152000AE500BA807F01DF805A807F01AF805A808F0B2
S3152000AE60ACF900240BAB1819083407F00CF8202C89
S3152000AE70F8D10BF1D0036B442A463946304613F8F5
S3152000AE80843C08F03BF80446002831D13E9B002B39
S3152000AE906DD0DDE93E2339463046FFF723FC0028F6
S3152000AEA065D0044624E000214FF0010CCEE74B4646
S3152000AEB03A46394630460BF1FF3B08F06FF800283A
S3152000AEC0EFD113AB2A46304613F80B3005A908F00C
S3152000AED015F80028E5D13A4639463046CDF8009097
S3152000AEE005ABFFF753FC0028DBD1BBF1000FDED109
S3152000AEF005A807F0F5FF4FF000090BAB03EB09009F
S3152000AF0009F1080906F0C4FFB9F1200FF5D1002C8C
S3152000AF107FF4FAAE52463946304607F07BFF0446A8
S3152000AF2000287FF4F1AE3E9B4BB1DDE93E23394646
S3152000AF303046FFF7D7FB044600287FF4E5AE3946B6
S3152000AF40304607F023FFB36D04469D4208D02846BD
S3152000AF5008F070F9404608F06DF9284606F0E1FC45
S3152000AF60002C7FF402AF204635B0BDE8F08F0DF1FE
S3152000AF702C09BAE7024CF8E6004CF4E780B0FFFF54
S3152000AF8080B2FFFF30B4DDE9024524B1CDE90245A8
S3152000AF9030BCFFF73BBE014830BC704780B0FFFF96
S3152000AFA073B505461E4608F0FFF801280C460146F3
S3152000AFB00ED113462046009605F1340207F038FBE1
S3152000AFC0044B10F10E0F18BF0346184602B070BD91
S3152000AFD0014BFAE700B3FFFF80B0FFFF10B5044630
S3152000AFE008F0E2F8012805D104F16000BDE8104020
S3152000AFF007F02FB8004810BD80B1FFFF38B50446D2
S3152000B0000D4608F01BF9204608F0E5F8032D2570BB
S3152000B01023D1144B144AA360A361A3632362A362C2
S3152000B020124B626063624FF00113114A236362611F
S3152000B030104A114B6263114AE362E261201D06F059
S3152000B040E8FFE06304F1340006F0E3FF206400200B
S3152000B0500123C4E91600636438BD00230848237021
S3152000B060FAE700BF010008002C670120CC6601200A
S3152000B0700C670120AC6601202C100020EC66012014
S3152000B08080B1FFFF082804D00928034818BF0020F4
S3152000B09070470248704700BF4C6701204F67012068
S3152000B0A00023F0B5044603600A276FF067000C4EB4
S3152000B0B00B68934203D21D78303D092D00D9F0BD8F
S3152000B0C02568B54209D87D43256013F8010B28442D
S3152000B0D03038206000200B60EAE76FF06700EEE76B
S3152000B0E09999991970B5094C256815B96FF02D00F5
S3152000B0F009E0667C864207D1267C8E4204D1002058
S3152000B100156062681A6070BD1434EDE7E86E0120A0
S3152000B11030B5084B1C6814B96FF02D0006E01D7C75
S3152000B120854204D100205B680C60136030BD143367
S3152000B130F0E700BF986E012030B5084B1C6814B9A3
S3152000B1406FF02D0006E01D7C854204D100205B684F
S3152000B1500C60136030BD1433F0E700BF706E012021
S3152000B1602DE9F04F0F460021054687B0084600938B
S3152000B17090469B46134605AA109E06F0FDFD2846DE
S3152000B18009F0E9FF0446384609F0E5FF059902294A
S3152000B1900A4638BF02224B1C023A03EB9213234481
S3152000B1A01844119B984207D96FF02908129B186002
S3152000B1B0404607B0BDE8F08F39B1012006F0A1FB6B
S3152000B1C0044618B9DFF8A080F2E70C46434620462D
S3152000B1D00599CDF800B005AA06F0CEFD804618B137
S3152000B1E0204606F09EFBE3E7284609F0B4FF2946F1
S3152000B1F00246304609F0A2FF284609F0ACFFA146D8
S3152000B2004FF00A0A3518DDF814B0BBF1000F18D13B
S3152000B210384609F0A0FF39460246284609F08EFF37
S3152000B220384609F098FF02462B18581C129B05F841
S3152000B23002B0821B1A60119B59469A1A09F049FFDF
S3152000B240CEE75A46402A28BF40224946284603923E
S3152000B25009F074FF039AABEB020015440590914464
S3152000B26005F801ABCFE700BF80EEFFFFF0B505463E
S3152000B2708BB00E462422002101A809F02AFF1DB911
S3152000B280114C20460BB0F0BD2B68002BF8D1304670
S3152000B29001A908F089FD04460028F1D1BDF8047003
S3152000B2A001A809F0E5F827F0FF03B3F5E24F07D030
S3152000B2B047F201039F4205D1044B2B60AE60E0E7C5
S3152000B2C0034BFAE7034CDCE780C1FFFF3C6F01200C
S3152000B2D06C6F012080C6FFFF2DE9F74F1646DDE98A
S3152000B2E00C89DDE90EAB04460D46109AE1B92BB95F
S3152000B2F0036803BB164803B0BDE8F08F002EF9D0D3
S3152000B30001680029F6D021684F69FFB1CDE90FB257
S3152000B310294632462046BC46CDE90D9ACDF83080E6
S3152000B32003B0BDE8F04F6047002EE3D00168002946
S3152000B330E0D0002BE7D128460192FFF7A3FE08F0C4
S3152000B3405CF8019A03460028DDD1D3E70148D2E70D
S3152000B35080C1FFFF00C1FFFF0048704780C6FFFF86
S3152000B3602DE9F04F07468FB00C46DDE91865002120
S3152000B370914605A824229A46DDF8688009F0A9FEA0
S3152000B380384605A908F010FD30B10722294B2A4975
S3152000B39009F0DBFB044647E0DDF824B005A809F0F8
S3152000B3A067F8264A2BF0FF039342384608BF44EA43
S3152000B3B003014A465346CDE9015818BF44F00621F9
S3152000B3C0009608F0BEFE07460028DED1D8F8001009
S3152000B3D035444FEA51094A4606EB510104A8049523
S3152000B3E008F027F9041E1FDB4A46314604A808F058
S3152000B3F020F9051E1CDB25442A46314604A806F002
S3152000B4004EFB041E10DB3022314604A806F06BFBEF
S3152000B4100028BFDB25443C4605442A46304604998D
S3152000B42009F03DFEC8F8005020460FB0BDE8F08F69
S3152000B4302C46F9E7A5C30020C46F012000070006AB
S3152000B4402DE9F0431D469FB004460E4617460021BF
S3152000B450242205A8DDF8A09009F03BFE002307353D
S3152000B460ED0802934FEA450827B9384C20461FB00D
S3152000B470BDE8F08347F482414FF0062705A808F07F
S3152000B48044F94FF4005105A808F0A4F832462146A5
S3152000B49002AB099708F020FD78B100F083FF05463E
S3152000B4A0029808F06DFC0446002D4DD1002CDDD00D
S3152000B4B0204600F077FF0446D8E7B8F1400F3FD882
S3152000B4C0299E30234E44314604AA03A8CDF80C9079
S3152000B4D006F065FA044618B1029808F051FCC5E753
S3152000B4E00DF138092B464A46314603A808F0DFF805
S3152000B4F004460028F0D12B46314609EB050203A865
