S01C00006275696C642F64656275672F67656E657261746F722E7333379C
S31520006000001000201D7F0020950E0120950E0120F6
S31520006010950E0120950E0120950E0120950E01204A
S31520006020950E0120950E0120950E0120950E01203A
S31520006030950E0120CC5D0120950E0120950E0120A4
S31520006040950E0120950E0120950E0120950E01201A
S31520006050950E0120950E0120950E0120950E01200A
S31520006060950E0120950E0120950E0120950E0120FA
S31520006070950E0120950E0120950E0120950E0120EA
S31520006080950E0120950E0120950E0120950E0120DA
S31520006090950E0120950E0120950E0120950E0120CA
S315200060A0950E0120950E0120950E0120950E0120BA
S315200060B0950E0120950E0120950E0120950E0120AA
S315200060C0950E0120950E0120950E0120950E01209A
S315200060D0950E0120950E0120950E0120950E01208A
S315200060E0950E0120950E0120950E0120950E01207A
S315200060F0950E0120950E0120950E0120950E01206A
S31520006100950E0120950E0120950E0120000000001D
S3152000611001F0FF01102A2BDB10F0070F08D010F832
S31520006120013B013A8B422DD010F0070F42B3F6D136
S31520006130F0B441EA012141EA014122F007047FF04F
S3152000614000070023F0E80256083C85EA010586EAA6
S31520006150010685FA47F5A3FA87F586FA47F6A5FAE2
S3152000616087F68EB9EED1F0BC01F0FF0102F00702EE
S3152000617032B110F8013B013A83EA010313B1F8D199
S315200061800020704701387047002D06BF354603387A
S31520006190073815F0010F07D1013015F4807F02BFB3
S315200061A0013015F4C03F0130F0BC0138704700BF04
S315200061B00348044B834202D0034B03B11847704770
S315200061C07019002070190020000000000548064BB9
S315200061D01B1AD90F01EBA301491002D0034B03B1BF
S315200061E01847704770190020701900200000000021
S315200061F010B5064C237843B9FFF7DAFF044B13B1E9
S315200062000448AFF300800123237010BD6E250020C3
S3152000621000000000186C012008B5054B1BB105498C
S315200062200548AFF30080BDE80840FFF7CFBF00BFA9
S3152000623000000000C0190020186C0120A3F5803A48
S31520006240704700BF174B002B08BF134B9D46FFF727
S31520006250F5FF00218B460F461348144A121A0EF0FA
S315200062605CFB0E4B002B00D098470D4B002B00D02B
S3152000627098470020002104000D000D48002802D078
S315200062800C48AFF3008007F089FB200029000EF0B0
S315200062905EFA07F02BF900BF00000800000000009E
S315200062A0000000000010002070190020A02F002000
S315200062B0000000000000000010B58CB0044609F074
S315200062C0B8FB0021102208A80EF027FB0E4A0594E1
S315200062D00123CDE903230D4B079302A84FF47053F6
S315200062E0029309F099FB029B06930AF049FF0002EC
S315200062F040F001000490002301A903A801930DF0AA
S31520006300F0FB0CB010BD00BF12710001090600069B
S3152000631070B58CB00C461546064609F08AFB00215E
S31520006320102208A80EF0F9FA114A05960123CDE9A4
S315200063300323104B079302A84FF47053029309F0DE
S315200063406BFB029B06930AF01BFF000240F0010044
S3152000635000232146049001932A4601AB03A80DF0A1
S315200063602EFA044603A80DF06AFC20460CB070BD38
S31520006370127100010906000610B586B0094B02937A
S315200063801446002305910390CDE900331A46214493
S3152000639005A80BF084F8002814BFAC20002006B016
S315200063A010BD00BF55FA00202DE9F041BEB0984639
S315200063B0449D2B6804460E461746002B57D06B6823
S315200063C0B3F5007F53D302A80EF043F900213C22F7
S315200063D007A806910EF0A1FAD8F804308BB1CDE9C2
S315200063E00067244AD8F80030402106A807F03AF979
S315200063F006A902A80EF044F958B1AC203EB0BDE87B
S31520006400F0811D4A00973346402106A807F02AF955
S31520006410EEE7092102A80EF02FF92068FFF74CFFBE
S3152000642016A80CF04EFD216816A805F01FF90446A3
S315200064300028E2D116A902A80EF020F900942346DE
S31520006440D5E9001202A806F00FFD04460028D4D193
S3152000645028680EF0A5FA6B680130984201D90EF033
S3152000646099F9686002A80EF0F8F82046C6E72F20B2
S31520006470C4E700BF805801209A580120F0B597B094
S315200064800C4606460021154607A83C2206910EF02A
S3152000649044FA402305AACDE9013206AF00970593B9
S315200064A00E493068D4E900230DF06EFA044698B9F7
S315200064B0059E6B689E420DD82868324639460EF0F6
S315200064C061FA6B689E4201D90EF064F96E6020462F
S315200064D017B0F0BD1920FBE7AC20F9E70906000646
S315200064E0044808B500680AF037FF002814BFAE201C
S315200064F0002008BD1C10002008B5034B18680AF0C0
S315200065001AFF002008BD00BF1C10002038B5044625
S315200065100D46204609F0ADFA2B7C002857D0052BD6
S3152000652059D0032B17D0042B38D0012B4DD1022262
S315200065302146284609F05BFB002833D12946284608
S3152000654009F099FB70BB95F82430002B0CBF032370
S3152000655005232B74DDE795F825209AB12A7F21465D
S31520006560284609F044FBE8B92946284609F0C4FB29
S31520006570C0B995F8253073B90223AA691A442A624C
S315200065800423E6E72B7D013BDBB2022B9CBF134A9B
S31520006590D25CAA61F0E72B7F0233EEE795F8243030
S315200065A00BB1232038BDAA690AB91820FAE721467B
S315200065B0284609F01CFB0028F4D12946284609F074
S315200065C0C2FB0028EED10523C3E70320EAE7052B0B
S315200065D001D00D20E6E70020E4E700BFBF580120E8
S315200065E02DE9F0410024164F86B00546A04600F15D
S315200065F0AC0601ABC4F5007239193046CDF80480DB
S31520006600FFF76EFFC0B194B10E4B049304AA4FF46A
S31520006610007302A92846CDE90274059309F02CFDE2
S31520006620DDE9041285F8C0003046FFF765FF95F8CE
S31520006630C00006B0BDE8F081019B1C44D9E700BF2D
S315200066406F2700206F25002000487047D8190020AA
S31520006650174B10B5174C03F19802626003F1E00264
S3152000666000212360A26003F58673802204F12800AE
S31520006670C4E90411C4E90611C4E90811E3600EF067
S315200066804CF90D4BC4F8A8300C4BC4F8B0300C4B69
S31520006690C4F8B8300123C4F8B440C4F8BC4084F828
S315200066A0C0302046074A0849BDE810400EF069B8B8
S315200066B0605A0120D8190020AC5B0120CC5801205B
S315200066C0E058012000100020770001207FB50E46FB
S315200066D0002304460DF10601304615468DF8063096
S315200066E002938DF80730039309F0A1FB58BB9DF860
S315200066F00630013B032B01D92F2024E002A9304686
S3152000670009F0C7FBF8B90DF10701304609F08FFBF8
S31520006710C8B9244903AB4FF40072304609F0D2FBC6
S3152000672088B99DF80630013B032BE5D8DFE803F056
S31520006730020D151D60681B4A0368DE6A039B4FF431
S31520006740CB71B047C8B104B070BD6068154A036804
S3152000675040F29511DE6A039BF3E76068114A0368ED
S3152000676040F29311DE6A039BEBE760680D4A0368EB
S315200067704FF4C171DE6A039BE3E760680AF0BEF955
S31520006780044608B12046DEE70299284609F02EFB8A
S315200067902146284609F02AFB0399284609F026FBBC
S315200067A0F0E700BF7B2D0020F0B585B0002306461C
S315200067B00D461446ADF80A308DF80930A9682A68C6
S315200067C0EB68914258D893425AD8002013E070685B
S315200067D0BDF80A1000238DF80C30036803AADB6885
S315200067E09847D82800D030B99DF80C10204609F0DB
S315200067F0E1FA0028E2D005B0F0BD7068BDF80A10B5
S315200068000023ADF80C30036803AA5B699847D828A3
S3152000681001D00028EFD1BDF80C10204609F0D8FA97
S31520006820E7E77068BDF80A1000230393036803AAFC
S31520006830DB699847D82801D00028DCD10399204667
S3152000684009F0D4FAD5E77068BDF80A10002303933F
S3152000685003AA036800929F6A1F4A4FF40073B84741
S31520006860D82801D00028C6D1039A1B49204609F012
S31520006870CBFABEE72620BEE7934201D98B42A4D0AD
S315200068800DF10A01284609F0EBFA0028B3D10DF1E3
S315200068900901284609F0CBFA0028ACD1BDF80A1028
S315200068A0204609F095FA0028A5D19DF80910204622
S315200068B009F080FA00289ED19DF80930013B032B70
S315200068C0D8D801A252F823F0CF670020FB6700201A
S315200068D023680020476800207B2D0020F0B5CB7868
S315200068E0806885B00C46154603B9A830A378032BDB
S315200068F05AD8DFE803F041021A2E00268DF80C60E4
S3152000690003682188DB6803AA9847D82802D050B1AB
S3152000691005B0F0BD314620882A4609F05DFB0028E7
S31520006920F6D10020F4E703A9F5E7036821885B691F
S315200069300026ADF80C6003AA9847D82803D0002873
S31520006940E6D103A900E0314620882A4609F057FB04
S31520006950E5E703682188DB690026039603AA9847A2
S31520006960D82803D00028D3D103A900E031462088B7
S315200069702A4609F058FBD2E7036803AA00920026AC
S315200069809F6A0A4A218803964FF40073B847D8288D
S3152000699003D00028BCD1054900E03146039A20885F
S315200069A02B4609F054FBBAE72620B1E77B2D0020C1
S315200069B02DE9F341054608460C4609F067F80646D8
S315200069C078B1254809F055F858B186423246224911
S315200069D028BF0246204609F0EEF810B102B0BDE805
S315200069E0F0811E4F1C4E27E03368C6E90233D7F8E4
S315200069F0003157F823000190013303F03F03013A99
S31520006A00C7F80031C7F80421CB69134A01A92846E3
S31520006A1098470028E2D1204609F038F880463046CB
S31520006A2009F027F880454246314628BF02462046CF
S31520006A3009F0C1F80028D1D1204609F027F82968A5
S31520006A4018B1D7F80421002ACED1CB68284602B047
S31520006A50BDE8F041184700BFA41B00209C1A002067
S31520006A6070B50F4E04460D46284609F002F828B99F
S31520006A70236820469B68BDE8704018473146284663
S31520006A80FFF744FD0D28EFD048B9236804499B69D8
S31520006A902046984718B9024809F092FEE4E770BDEF
S31520006AA0D41B002008B50B46498AB1F5817F15D045
S31520006AB005D840F2011291420CD0A62009E06FF4CD
S31520006AC081728A18012AF8D81A7D064809F087FEAD
S31520006AD010B108BDDB6AC3600020FAE7DB6A0361F8
S31520006AE0FAE700BF9C1A002008B503480A7D498AA8
S31520006AF009F075FE08BD00BF9C1A002091F82630CB
S31520006B0070B586680C4603B9A83694F82730257DDB
S31520006B102BB1618A17482A4609F061FE48BB032D2E
S31520006B2026D8DFE805F016020E1133689B6894F824
S31520006B302420618A5AB904F12C023046BDE87040FF
S31520006B40184733681B69F2E733689B69EFE7002231
S31520006B50F3E73368618ADD6A94F8243033B9E26A50
S31520006B60A3693046AC46BDE8704060470022F7E78F
S31520006B70262070BD9C1A00202DE9F0414B6892B06A
S31520006B800025052B0746884616468DF805508DF8B4
S31520006B9006508DF8075040F2AF800A680292023BF9
S31520006BA013440DF1050102A8CDE90333059209F03E
S31520006BB03CF80446002840F09B800DF1060102A80F
S31520006BC009F033F80446002840F092800DF10701C1
S31520006BD002A809F02AF80446002840F08980D8F84F
S31520006BE004203368802A00F2828072687F2A40F26D
S31520006BF0818003F108027E33CDE907329DF8063005
S31520006C000692013B0992042B6FD8DFE803F0370385
S31520006C105F6751000020089A069B9A4288BFD41AC3
S31520006C20E5B204463368069303F10802CDE907234B
S31520006C3000211C220BA809930A910DF06EFE022159
S31520006C4006A808F030FF9DF8061006A841F080013E
S31520006C5008F029FF9DF8071006A808F024FF214612
S31520006C6006A808F045FF294606A808F01CFF72680A
S31520006C7005F10A03934241D90DF08CFD7B680C93F4
S31520006C800122284B28488DF82C2000250A93CDE98F
S31520006C900D5509F095FD254B1A68C3E90222244BB0
S31520006CA0C3F8045106AA02A90AA809F0BDFDB2E755
S31520006CB07B680C9301221F4B8DF82C2040F2051186
S31520006CC000221B480A9309F08AFDEBE77B680C93A8
S31520006CD00322194B8DF82C200A93E3E77B680C934B
S31520006CE00422164B8DF82C20F6E72A2093E7C2249F
S31520006CF0002597E71924FBE7192493E708357360E5
S31520006D000AAA3068294600F02FFF9DF80600BDF834
S31520006D1028203368023818BF01205A5312B0BDE824
S31520006D20F08100BFF4580120D41B0020A41B0020B2
S31520006D309C1A00201C590120445901206C5901201D
S31520006D4038B5154B1548002403F501720125C0E915
S31520006D5001230360C360C0E90844057444820475B6
S31520006D6084610477846209F02BFD0D4B0D4803F5F1
S31520006D700272C0E901230360C360C0E908440574B8
S31520006D804482047584610477846209F019FD064BF8
S31520006D90C3E9404438BD00BF772B0020D41B002018
S31520006DA06F290020A41B00209C1A00202DE9F04109
S31520006DB086B00024884617461E460B2201AB03A93F
S31520006DC0CDE90344CDE90144CDF8134000F092FD0E
S31520006DD0044670B140F20123984231D001200AF0D6
S31520006DE01AF868B3184A03AB01211F200AF006F8E7
S31520006DF026E0019D0A2D01D02F24EFE72A4602A97D
S31520006E0003A806F085FD029AA8F8000004AB9A4272
S31520006E10F2D12A4602A90DF1110006F079FD029A57
S31520006E2038700DF113039A42E6D12A4602A905A825
S31520006E3006F06EFD029A30700DF116039A42DBD1F0
S31520006E40204606B0BDE8F0818C590120F0B587B008
S31520006E50002301930C4601ABD1E9001200F056FD48
S31520006E6040F20123984225D1154B02AD03F11007BC
S31520006E702A46186859682E4603C60833BB4235464B
S31520006E80F7D163680F2B02D8192007B0F0BD25680B
S31520006E9006AE134603CBB342286069601A4605F155
S31520006EA00805F6D110230193019B6268934204D909
S31520006EB00DF070FC0028E8D1F6E763600020E4E7D7
S31520006EC0885B012010B540F26314A142034608D026
S31520006ED040F29710814215D0B1F5B17F0DD0A62092
S31520006EE010BD42B11168094BA1F57A729A4202D8B7
S31520006EF000F044FDF4E72F20F2E702B112681A628F
S31520006F000020EDE702B112685A62F9E7B882010063
S31520006F10F0B597B0B1F5AA7F15461C9C06461A46D1
S31520006F203CD8B1F5A07F09D840F20513994266D026
S31520006F3040F2111399425BD0A6205EE06FF4A07355
S31520006F4019441329F8D801A353F821F039700020E9
S31520006F50396F002053700020396F002059700020AF
S31520006F605F700020657000206B700020396F002054
S31520006F70396F0020396F0020396F0020396F0020CB
S31520006F80396F0020396F0020396F0020396F0020BB
S31520006F90717000207770002081700020B1F5C17FCC
S31520006FA000F08B800ED840F2651399427BD0B1F564
S31520006FB0B37F7DD0B1F5B27FBED12346294600F0FE
S31520006FC0F9FC19E040F29313994200F0848040F2D4
S31520006FD095139942B0D1CDE90D5205B9EAB9336876
S31520006FE00DA9D3F880303046984730B90E9B21E062
S31520006FF02346294600F094FD48B317B0F0BD00F1B2
S315200070002807384603920DF0CBFC039A05970130EA
S31520007010CDE90605089215B90AB10DF0BBFB07AB01
S315200070200093728A318A05AB304600F02FFD002886
S31520007030E3D1089B23600AE003681B6B2946304690
S3152000704098470028D9D128460DF0AAFC20600020B8
S31520007050D3E703689B6BF1E703681B6CEEE70368D5
S315200070605B6CEBE703689B6CE8E70368DB6CE5E7A2
S3152000707003685B6DE2E72346294600F03BFCBBE74D
S3152000708021230C93036803920DAFDB6D0B970BA99D
S315200070909847039A0028B0D1134620212A4638461D
S315200070A009F0A5FED2E72346294600F08FFCA3E788
S315200070B02346294600F040FD9EE7CDE909530DB948
S315200070C0002BAAD1336809A99B6F30469847002820
S315200070D093D10A9BAEE7CDE90B520DB9002A9CD17C
S315200070E033680BA9DB6F30469847002885D10C9B67
S315200070F0A0E700BFF0B54B68602BA5B006460C464E
S31520007100154629D900278222394603A802970DF071
S3152000711004FC01AB862202A93046019700F056FCFA
S3152000712040F20123984210D184220C49019202A8F0
S315200071300DF028FC2268019902A800F02BFD28609A
S315200071406368984205D90DF025FB0028F2D025B0BA
S31520007150F0BD60600020FAE71920F8E7AB5901205E
S3152000716070B5002696B004462A220D460BA8314655
S315200071700A960DF0D2FB01AB2E220AA920460196D3
S3152000718000F018FC40F20123984227D118230193DE
S31520007190174B0AAC03F1180618685968224603C231
S315200071A00833B3421446F7D100241C22214603A8F3
S315200071B002940DF0B2FB019902AA0AA800F0EAFC9B
S315200071C06B689842064610D8024602A928680DF038
S315200071D0D9FB6B689E4205D90DF0DCFA0028E3D076
S315200071E016B070BD6E602046FAE71920F8E700BF9A
S315200071F0305A012070B5B1F5B27F92B005461646D9
S315200072001C4600F0088117D840F21113994260D02D
S315200072106FF4A07319448BB2132B26D8132924D8C4
S31520007220DFE801F05E236B237885929F23232323B7
S315200072302323232323ACC8D540F29313994200F08D
S315200072402F81B1F5CA7F1DD240F28113994200F0F9
S315200072501481B1F5C17F0AD240F26513994200F03C
S31520007260E580B1F5B37F00F0E880A62099E0FCD157
S315200072703146224609A809F02DFC09A9284600F026
S31520007280ABFB8EE040F2A113994200F01D81B1F5CF
S31520007290D17F11D240F29513994200F00B81B1F5BE
S315200072A0CB7FE2D13146224609A809F013FC09A971
S315200072B0284600F0D9FB74E0D7D1002AD5D0314634
S315200072C0224609A809F006FC09A9284600F03AFC3E
S315200072D067E02246314612B0BDE8704000F01ABC85
S315200072E002B13CB982490022284612B0BDE870405E
S315200072F000F024BA22463146F6E702B13CB97C4971
S315200073000022284612B0BDE8704000F03FBA22465F
S315200073103146F6E702B13CB975490022284612B03B
S31520007320BDE8704000F05ABA22463146F6E702B16F
S315200073303CB96F490022284612B0BDE8704000F0E3
S315200073405FBA22463146F6E702B13CB968490022C7
S31520007350284612B0BDE8704000F064BA2246314695
S31520007360F6E702B13CB962490022284612B0BDE8D0
S31520007370704000F069BA22463146F6E702B194B968
S3152000738000211C220AA809910DF0C7FA594AAB8A96
S31520007390202109A806F066F909A90246284600F028
S315200073A079FA12B070BD2246314612B0BDE870405F
S315200073B000F070BA02B13CB94F490A22284612B0F1
S315200073C0BDE8704000F090BA22463146F6E702B199
S315200073D0B4B9102105A809F0E8FB0223009309AAF5
S315200073E02123102105A809F0C2FC0028D9D109A81B
S315200073F00DF0D6FA09A90246284600F081FAD0E710
S31520007400102C01D92F20CCE70223009309AA21238F
S3152000741021463046E7E7002AF4D0002BF2D01A4660
S31520007420314612B0BDE8704000F0BEBA2246314661
S3152000743012B0BDE8704000F0C3BA02B1B4B900235F
S31520007440CDE90933CDF82B302B6A0293EB8A0193D1
S31520007450EB6900936A8A298AAB6909A809F0F5FACB
S315200074600B2209A9284600F061FB9AE722463146FD
S3152000747012B0BDE8704000F059BB02B154B90023E8
S3152000748005AACDE909238DF8143009A9284609F063
S3152000749073FB86E72246314609A809F01BFBF4E771
S315200074A03146224609A809F015FB09A9284600F00D
S315200074B0ABFA76E73146224609A809F00BFB09A963
S315200074C0284600F0B9FA6CE732B9802231462830D6
S315200074D00DF023FA002064E77F2C93D8224631460C
S315200074E028302C440DF04EFA002384F82830F1E79A
S315200074F0A2600120495A01204C5A0120012901BFCE
S31520007500034B1B781370002018BFA620704700BFBE
S315200075109B2F0020022938B514461D460FD1094855
S31520007520202200210DF0F9F93CB1202D2A460548EC
S3152000753028BF202221460DF025FA002038BDA6209E
S31520007540FCE700BF7B2F002008B510466AB163B167
S3152000755002290CD1202B28BF20231A46029B05493D
S315200075601A600DF00FFA002008BD2F20FCE7A62098
S31520007570FAE700BF7B2F0020012905D102B112783E
S31520007580024B00201A707047A62070479B2F0020C0
S31520007590F0B585B007460E4600232548039303A978
S315200075A0154600F097FB002840D1224C236813B9DA
S315200075B0039801F003FD204BD5E9001218460DF083
S315200075C0E1F903466868B0F5007F05D2C0F5007280
S315200075D0FF2118440DF0A1F9022009F01CFC48B146
S315200075E06B68019323680093144A039B02211F2092
S315200075F009F004FC236803980F494FF400721844DD
S3152000760009F0D7FC2168384600F02EFC70B969686D
S31520007610304600F029FC48B922686B68134413F001
S315200076203F021CBF40339B1A2360002005B0F0BDEB
S3152000763021720800041C00207B2D0020DC5B012029
S315200076402DE9F043074689B01D4608460023CDE9BB
S3152000765005330E46144600F003FB18B9D82009B0AE
S31520007660BDE8F08305A9304600F034FB0028F6D1AA
S31520007670204600F0F5FA0028F0D006A9204600F0B2
S3152000768029FB0028EBD1079007A91948DDE90596C3
S3152000769000F020FB044600BB079919EB01081ED118
S315200076A00EB10DF077F8022009F0B5FBA0B1079BCB
S315200076B00093CDE901960F4A3B4602211F2009F08F
S315200076C09DFB6B689E4210D82868324641460DF0D5
S315200076D059F96B689E42E4D86E602046BFE70220C7
S315200076E009F099FB0028ECD0E1E71924F5E700BF63
S315200076F021720800015C01200A4B002010B5186099
S3152000770032B9094C09482146BDE8104000F0ACBB0F
S31520007710A1F500618C1801F0B9FB204605F0EAFCC2
S31520007720F0E700BF041C00200000080021720800BA
S31520007730014800F0CFBA00BF21720800014800F0CE
S31520007740ABBB00BF0072080007B5002301930348B6
S3152000775001AB00F0E3FA03B05DF804FB0072080009
S31520007760014800F069BB00BF0C72080010B506483E
S315200077700C4600F087FA40F20123984202BF4FF6EA
S31520007780F1732380002010BD0C720800014800F020
S3152000779083BB00BF0D72080007B500230193034881
S315200077A001AB00F0BBFA03B05DF804FB0D720800D4
S315200077B0014800F041BB00BF0B72080010B5064817
S315200077C00C4600F05FFA40F20123984202BF48F2CD
S315200077D001032380002010BD0B720800014800F031
S315200077E05BBB00BF0E72080007B500230193034858
S315200077F001AB00F093FA03B05DF804FB0E720800AB
S31520007800014800F049BB00BF1072080007B50023ED
S315200078100193034801AB00F081FA03B05DF804FB45
S3152000782010720800014800F037BB00BF1172080033
S3152000783007B500230193034801AB00F06FFA03B0AC
S315200078405DF804FB11720800014800F025BB00BF5B
S315200078501272080007B500230193034801AB00F01C
S315200078605DFA03B05DF804FB12720800014800F0CF
S31520007870E3BA00BF0873080010B505480C4600F0AF
S3152000788001FA40F20123984204BF0020208010BD57
S3152000789008730800014800F0FFBA00BF0F72080005
S315200078A073B50F4801AB00260C461546019600F02D
S315200078B035FA40F2012398420BD164B10C2D0CD934
S315200078C020462C4407492A460CF0EAFF04F8016CAE
S315200078D0304602B070BD0B20FBE71920F9E700BF48
S315200078E00F7208001F5C0120014800F0D5BA00BFC6
S315200078F004720800014800F011BA00BF04720800A3
S31520007900014800F0E3BA00BF1F720800014800F0EA
S315200079105BBA00BF1F720800014800F08DBA00BF95
S315200079200772080037B512480D4600F0ABF940F251
S3152000793001239842044604D14FF470632B80002023
S3152000794014E098B92B88B3F5805FF8D3012009F0AD
S3152000795062FA50B140F26D132F22CDE90032012197
S31520007960044B054A204609F049FA2F2003B030BDC2
S31520007970077208002C5C01204C5C0120014800F0B5
S3152000798073BA00BF0872080010B506480C4600F00E
S31520007990A1F940F20123984202BF4FF47A73236083
S315200079A0002010BD08720800014800F075BA00BF1B
S315200079B009720800014800F0B1B900BF0972080039
S315200079C0014800F069BA00BF0A720800014800F0B9
S315200079D0A5B900BF0A72080008B50A46024803493D
S315200079E0FFF7D6FD08BD00BF2672080027720800E3
S315200079F00B46024A02490348FFF722BE27720800B7
S31520007A00267208005D5C012008B50A460248034933
S31520007A10FFF7BEFD08BD00BF2472080025720800CE
S31520007A200B46024A02490348FFF70ABE25720800A0
S31520007A3024720800795C012008B50A4602480349E9
S31520007A40FFF7A6FD08BD00BF2272080023720800BA
S31520007A500B46024A02490348FFF7F2BD237208008B
S31520007A60227208009F5C012007B50223D1E900128B
S31520007A7001A80193FEF780FC18B90199024800F08D
S31520007A80F3F903B05DF804FB207208001FB502204D
S31520007A9003900698009003A8FEF786FC18B9039970
S31520007AA0024800F0E1F905B05DF804FB20720800F9
S31520007AB070B586B00023154804930D46164600F08F
S31520007AC0CFF808B3114804A900F004F9D0B9049BF3
S31520007AD0002B08BF02233246294605A80593FEF748
S31520007AE0CDFC0446022009F096F950B10294736841
S31520007AF001936B680093064A049B02211F2009F01C
S31520007B007DF9204606B070BDD824EBE72072080028
S31520007B10B85C0120014800F0BFB900BF29720800F7
S31520007B20014800F0FBB800BF29720800014800F0A8
S31520007B30CDB900BF05720800014800F045B900BF65
S31520007B400572080007B50323D1E9001201A80193A5
S31520007B5000F04AF818B90199024800F085F903B0F7
S31520007B605DF804FB307208001FB51346002203920D
S31520007B7003AA0192202200920A46014604480BF0ED
S31520007B8088FE002814BFAC20002005B05DF804FB59
S31520007B9009000002014B09F082B800BFC30B012087
S31520007BA010B42928094CBFF35B8F28BF002004EBB3
S31520007BB08000074C2468BFF35B8F1CB1A4465DF898
S31520007BC0044B60475DF8044B09F02EB9035D012094
S31520007BD0081C0020034BBFF35B8F1878BFF35B8F25
S31520007BE0704700BFB410002070B504468AB0006804
S31520007BF00D46164609F019F91022002106A80CF0A8
S31520007C008CFE23680B4A0C4903930123CDE90123FB
S31520007C104FF40073CDE90431324629466B4601A85C
S31520007C200BF0CDFD014618B1044805F07BFEAC20D3
S31520007C300AB070BD002480000010C004A75D01209A
S31520007C4050B1064B984205D0C0B200F5300040F046
S31520007C50A060704740F20120704700BF0BE000F0A3
S31520007C6007B50146064801AB6A46006807F004FDE1
S31520007C70FFF7E6FFB0FA80F0400903B05DF804FB99
S31520007C80381000207FB5002304460D46ADF8063097
S31520007C9009F0DEF8C0B10E4E03AB306802AA2146C9
S31520007CA007F0EAFCFFF7CCFF60B9039B30680DF1C3
S31520007CB00602214607F03EFCFFF7C2FF10B9BDF8C9
S31520007CC006302B8004B070BD40F20120FAE700BFD9
S31520007CD0381000207FB5002304460D46039309F093
S31520007CE0B7F8B0B10C4E02AB306801AA214607F0B6
S31520007CF0C3FCFFF7A5FF50B9029B306803AA2146B3
S31520007D0007F018FCFFF79CFF08B9039B2B6004B013
S31520007D1070BD40F20120FAE7381000202DE9F0432B
S31520007D201D46002385B02B6007460E46914609F076
S31520007D308FF800283ED0DFF88C8003ABD8F80000FF
S31520007D4002AA394607F098FCFFF77AFF0446B8B92D
S31520007D50039B93B3C6B14B4531D2D8F800003246C7
S31520007D60394607F0E7FBFFF76BFFD8B9039B012BDA
S31520007D7003D13378003B18BF012300222B60F25435
S31520007D80204605B0BDE8F083012B01D02B60F7E734
S31520007D90D8F800000DF10702394607F0CBFBFFF7B4
S31520007DA04FFF08B10446EBE79DF8073003B103986F
S31520007DB02860E5E740F20124E2E71E24E0E71924E3
S31520007DC0DEE700BF381000202DE9F7431D460023CB
S31520007DD02B6006460F46904609F03AF800B3DFF8C6
S31520007DE0549001ABD9F800006A46314607F044FCAE
S31520007DF0FFF726FF044678B9019BA3B167B1434537
S31520007E0013D8D9F800003A46314607F093FBFFF71E
S31520007E1017FF60B9019B2B60204603B0BDE8F083B5
S31520007E2040F20124F8E71E24F6E71924F4E7044675
S31520007E30F2E700BF3810002013B50446ADF806104F
S31520007E4009F006F858B10748022300680DF106022A
S31520007E50214607F025FBFFF7F3FE02B010BD40F2E6
S31520007E600120FAE73810002013B50446019108F0E6
S31520007E70EFFF58B1074804230DEB030200682146A3
S31520007E8007F00EFBFFF7DCFE02B010BD40F201202A
S31520007E90FAE700BF3810002010B5044608F0D8FFD6
S31520007EA068B179B10848012A1346006838BF012312
S31520007EB00A46214607F0F4FAFFF7C2FE10BD40F24B
S31520007EC00120FBE72F20F9E73810002010B50446E3
S31520007ED008F0BEFF58B101B962B9074813460068D9
S31520007EE00A46214607F0DCFAFFF7AAFE10BD40F24B
S31520007EF00120FBE72F20F9E738100020054A064924
S31520007F000346106803448B4294BF13604FF0FF3042
S31520007F10704700BF041000200060002008B500F064
S31520007F2073F8124B12498B4212D3124B124900207E
S31520007F308B4218D3FEF786F9186850F82240586805
S31520007F4040F82240013298688242F5D30C33EAE7A2
S31520007F500022F8E71C6844F8220001325C68A2423D
S31520007F60F8D30833E4E70022F8E700BF206C0120AD
S31520007F702C6C01202C6C01202C6C012000487047B1
S31520007F8000F04902104AD2F8943003F00703023B6E
S31520007F90032B13D8DFE803F00C14020E0B4B1B68DF
S31520007FA0D2F80001C0F304200130B3FBF0F0704793
S31520007FB0074BF4E7074B1B685B08F1E7054BEEE739
S31520007FC04FF40043ECE700BF00400E4010100020A5
S31520007FD0141000200810002008B5FFF7D3FF054B2A
S31520007FE0D3F80831C3F308230133B0FBF3F0024B77
S31520007FF0186008BD00400E400C100020014B186888
S31520008000704700BF14100020044B054A9A60D3F82D
S31520008010882042F47002C3F88820704700ED00E003
S3152000802000600020014B1868704700BF1010002028
S3152000803070B59400224605460E4608F0BAFF431C4A
S315200080400AD058B92246314628460CF03CFC002876
S31520008050034808BF002070BD0248FCE70248FAE743
S3152000806010E000F021E000F024E000F010B5044616
S3152000807000F0A4FF431C10D088B901F013F820F0BB
S31520008080030023462044984201D1002010BD53F816
S31520008090042B0132F7D00348F8E70348F6E70348F4
S315200080A0F4E700BF0EE000F021E000F024E000F04D
S315200080B00C4B984205D90C4B984210D8012201232B
S315200080C001E00022134609490B640949D1F8003121
S315200080D023F0807343EA0263C1F80031704702221D
S315200080E0EDE700BF0048E8010090D0030000C84338
S315200080F000400E400F4B5B680F4B30B500221C46EC
S31520008100C9B21D798D4202D11D6885420DD2013238
S31520008110052A03F10803F4D10321064A536823F004
S31520008120407343EA0163536030BD04EBC2046179B6
S31520008130F3E700BF00000E405C5E012038B5074C17
S3152000814041F67133256C2364FFF718FFADB2002189
S31520008150FFF7D0FF0DB10023236438BD00000E4089
S31520008160044BDB6B5B0604D4034AD2F8C830002BE1
S31520008170FBD1704700300E400000C64308B5FFF71C
S31520008180EFFF024B5868C0F3014008BD00300E4097
S31520008190044BD3F84421D20703D4D3F8402110420C
S315200081A0FBD1704700400E4038B5064C256C41F691
S315200081B071332364ADB2FFF79DFF0DB10023236415
S315200081C038BD00BF00000E4038B5C0F30323013B85
S315200081D0092B11D8DFE803F0052710102B221D10DC
S315200081E01511154DC0F3043405F1424505F58015EA
S315200081F004EBC5008000016038BD104DC0F3043487
S31520008200F2E70F4DC0F304344FF48030FFF7C0FF80
S31520008210EAE7C0F304340B4D1020F7E7C0F304342B
S31520008220094D0120F2E7094DC0F30434DCE7084D7F
S31520008230C0F30434D8E700BF00400E4050410E4042
S31520008240F0400E40E8400E40E0400E40C0400E4058
S31520008250B0400E40C0F30313013B092B2AD8DFE8B8
S3152000826003F0050B0F1929291F23374B274BD3F86A
S315200082700001C0F304207047244BD3F81401F8E71B
S31520008280224BD3F80031C3F3006301330120984019
S31520008290013870471D4BD3F80C01C0F308207047F6
S315200082A01A4BD3F80801F8E7194B984204D0194B1A
S315200082B0984207D000207047144BD3F8203103F0A2
S315200082C00F03E3E7114BD3F82031C3F30113DDE7A6
S315200082D0114B98420CD003F5B01303F58053984206
S315200082E0E8D10A4BD3F82831C3F301230433CDE771
S315200082F0064BD3F82831E8E7084B9842DAD1034BEE
S31520008300D3F8300100F00300704700BF00400E4054
S315200083108006160080162E0090171A00A009140059
S3152000832000F00F000138072850D8DFE800F00415C8
S31520008330244F34384F402B4BD3F8943003F00703A7
S31520008340023B052B06D8DFE803F049243F0305430B
S315200083500B20704705207047224BD3F8800000F091
S31520008360070002283DD0042836D0012808BF032064
S3152000837018BF012070471B4BD3F8843003F0070346
S31520008380013B032B03D8DFE803F0041F2527012038
S31520008390704703207047134BD3F88800DFE7114B53
S315200083A01B6F13F0010F0CBF0720092070470D4BE0
S315200083B0D3F85C3103F03003202B0FD0302B0FD0B5
S315200083C0102B08BF0720D3E70220704700207047F4
S315200083D00C207047062070470A20704704207047FB
S315200083E00820704700400E4008B50146FFF798FF69
S315200083F01A4B994211D01A4B994212D0194B9942D5
S3152000840004D1194BD3F8800000F007000138032867
S3152000841021D8DFE800F00A0E1612134BD3F8840099
S31520008420F2E7114BD3F88800EEE7BDE8084008F0E4
S3152000843032BDBDE80840FFF7F5BDBDE8084008F0AD
S315200084402DBDFFF79FFD084BD3F80031C3F3006322
S315200084500133D84008BD0020FCE700BF0300200000
S315200084600500240002001E0000400E4000F4781390
S31520008470B3F5B01F10B5044674D025D8B3F5402FF8
S315200084805ED010D8B3F5802F49D005D83BB1B3F5CF
S31520008490003F4FD0002010BDB3F5202FFAD1BDE804
S315200084A01040FFF76FBDB3F5801F00F08480B3F551
S315200084B0A01F4DD0B3F5602FECD14A48FFF730FF0F
S315200084C0072878D00928E9E7B3F5381F53D013D801
S315200084D0B3F5001F58D00AD8B3F5D01F56D0B3F540
S315200084E0F01FD7D14048BDE81040FFF77DBFB3F558
S315200084F0101FCFD13D48F6E7B3F5481F4DD0B3F551
S31520008500781F65D0B3F5401FC4D13948FFF76CFFFB
S31520008510384BD3F82831C3F30123043320E0FFF787
S3152000852031FD344BD3F80C31C3F308230133B0FBB0
S31520008530F3F0B0E7FFF726FD2E4BD3F80831F3E72B
S31520008540FFF720FD2B4BD3F81431C3F30423EDE7BB
S315200085502648FFF749FF274BD3F8303103F00303B2
S31520008560D84098E72048FFF73FFF224BD3F8203129
S3152000857003F00F03F4E71C48FFF736FF1D4BD3F833
S315200085802031C3F30113EBE71948ACE71848FFF78E
S315200085902BFF184BD3F82831F3E71748FFF7C0FE17
S315200085A0072808D0082809D004287FF473AFBDE82F
S315200085B01040FFF723BD114B18686CE7FFF7E2FC6C
S315200085C00C4BD3F80031C3F3042303FB000062E70E
S315200085D0FFF7D8FC0146204608F094FCB1FBF0F0EA
S315200085E059E700BF06000E0002001E000500240009
S315200085F00300200000400E40B80032001810002072
S3152000860010B5042813D8DFE800F047032F13210004
S31520008610294AC1F30801D2F86838002BFBD1274A32
S31520008620136A23F4FF7323F001030B43136210BD77
S31520008630214A01F07F01D2F86038002BFBD11F4A76
S31520008640136923F07F030B431361F0E71A4A01F005
S315200086507F01D2F86438002BFBD1184A936923F0A6
S315200086607F030B439361E2E7144AD2F89030536AB2
S3152000867023F0300343F010035362146B104BC1F305
S31520008680C31003300F2803EA040328BF0F200B432F
S3152000869043EA00731363CAE74F29074A28BF4F21CD
S315200086A0D2F87438002BFBD1044A936B23F07F0356
S315200086B00B439363BBE700BF0020C84300400E4036
S315200086C000F8FF0F104A536A13F0300F18D02029F4
S315200086D013D0302914D000290C4B08BF4FF4400387
S315200086E0D2F8901033EA0101FAD15B0246BFD2F8E4
S315200086F0A000C0F38020012070474FF40003EFE76D
S315200087004FF44003ECE700BF00400E40FF33E10783
S3152000871002280AD129B1064B4FF48060C3F8A8007D
S31520008720596612B10220FFF7CDBF0120704700BF66
S3152000873000400E400428F8B548D8304B13F800C046
S315200087402F4B1D5C2F4B33F810702F4B33F81040F6
S315200087502E4B002940D0022839D15C6A14F0300F04
S3152000876035D12B4CE46B5C6AE40705D55E6A26F0AE
S31520008770300646F010065E62264C244B25441F66C2
S31520008780AD002B68002BFCD002B36444A400236800
S31520008790002BFCD0022819D1C1B11C4D696A11F0F9
S315200087A0010116D001222021FFF7B2FFD5F89C60E7
S315200087B0012200210220FFF7BDFFC6F30A01022095
S315200087C0FFF71EFF2F662368002BFCD0F8BD002183
S315200087D0D2E7FFF777FFE9E701211C66A940D3F826
S315200087E090000842FBD1002AF0D00123074903FA62
S315200087F00CF3D1F890201A42FBD1E7E7575E01200F
S31520008800525E0120485E01203E5E012000400E405F
S3152000881000300E408004F2101C4B70B51C681C4BB7
S315200088209C4221D81B48FFF743FC01221146032016
S31520008830FFF780FFFFF782FC0024174B01265E67B7
S31520008840FFF7A0FBFFF734FCFFF7C6FB0546FFF753
S3152000885095FC01462846FFF7A7FCB4B931462046C9
S31520008860BDE8704000F0C4B80021204600F0C0F8F2
S315200088700848FFF71DFC012211460320FFF75AFF87
S31520008880FFF75CFCFFF76CFCD7E770BD08100020F3
S31520008890002D31010148E80100400E40034BD86B02
S315200088A080F04000C0F38010704700BF00300E40BB
S315200088B042EA0322B2F5007F10B5194C29D00AD816
S315200088C0B2F5807F22D040F201139A4215D062B9C8
S315200088D0D4F81C320BE0B2F5407F1DD040F20133B4
S315200088E09A4210D0D4F8283201E0D4F82432C3F3C7
S315200088F00722DBB203600A6010BDD4F824321A0EB8
S31520008900C3F30743F6E7D4F82832F8E7D4F81C3245
S31520008910F5E7D4F82032EAE7D4F82032EFE700BFB3
S315200089200081E00F08B5FFF7B9FF20B1024AD2F85F
S31520008930C830002BFBD108BD0000C6430E4A037980
S31520008940916921F03F010B43017843EA8103417885
S3152000895043EA4103817843EAC103C178012908BF6C
S3152000896043F0010393611368417923F4403343EACA
S3152000897001431360704700BF00300E402DE9F041DF
S3152000898004460D46FFF78AFF60B3DFF86080FFF7E5
S31520008990C9FFD8F80430C3F301439C4222D0124BBE
S315200089A0D3F80031FFF7EEFA022C07464FF01006F7
S315200089B009D12146FFF7F8FBC8F8106095B1BDE84C
S315200089C0F041FFF7AFBFC4F102039E40C8F8106024
S315200089D00DB1FFF7A7FF2CB921463846BDE8F04177
S315200089E0FFF7E2BBBDE8F08100400E4000300E40AC
S315200089F038B505460C46FFF751FFB8B145B90C4BC3
S31520008A00D3F80051FFF7BEFAC5F3042505FB000590
S31520008A10084B1B7821463BB1074B9D4204D80220C8
S31520008A20BDE83840FFF7AABF0020F9E738BD00BFF0
S31520008A3000400E409C2F0020002D3101234B4AF68A
S31520008A40E85210B5596B5A639A6FD207FCD41B6C47
S31520008A5013F0030306D01E4A01249842C2F8B44AF2
S31520008A601AD110BDA0B1431E012B17D8174A4FF4B7
S31520008A700023D362936FDB07FCD4136C23F003032C
S31520008A8043F001031364114A536A1C03FCD505E025
S31520008A900F4BC3F8B40AE4E7032BE4D00B4B9A6FD1
S31520008AA0D207FCD41A6C22F0030202431A649A6F8E
S31520008AB012F00102FBD10038054C18BF0120012914
S31520008AC0C4F8B40A08BF5A63CBE700BF00300E4093
S31520008AD00000C6432DE9F04F00238BB0CDE90433C7
S31520008AE0CDE90633CDE90833A0F5E163B3F5966FFA
S31520008AF005460191934603D900200BB0BDE8F08FBF
S31520008B00624BDFF88C81D3F81842B0F5E16F15BFC0
S31520008B104FEA146AC4F3072AC4F30744E4B206945E
S31520008B20CDF824A0D8F84C60C6F301768CBF01227C
S31520008B300022334607A904A815BF4FF4E1674FF476
S31520008B4096674FF496694FF416790392FFF7B0FEB5
S31520008B50D8F8EC30039AC3F3012308A905A8029399
S31520008B60FFF7A6FEA5EB070CAAEB04020CFB02F20C
S31520008B70B2FBF9F214445445079F0498089A0599C4
S31520008B80BAD8A2EB010E0CFB0EFEBEFBF9FE11EBD2
S31520008B900E012CBF4FF0010E4FF0000E8A42ABD3D0
S31520008BA0BEF1000FA8D13A1A0CFB02F2B2FBF9F281
S31520008BB080182CBF0122002287429DD3002A9BD1F8
S31520008BC0029BBBF1000F0FD0D8F85C20B5F5E1670A
S31520008BD022F4FE4218BF012722F0020242EA47028F
S31520008BE042EA0422C8F85C20019A0AB9012084E7E7
S31520008BF0264A022ED2F830223ED0032E3FD0012E16
S31520008C0014BFD2B2C2F30722120312F4702F7FF4DC
S31520008C1073AF1F4EF46E24F470442243F2661B4A4F
S31520008C20022BD2F830222CD0032B2DD0012B14BFAF
S31520008C30D2B2C2F30722120312F4702F7FF45CAF74
S31520008C40134CD4F8EC3023F470431343C4F8EC30BF
S31520008C50636E884238BF084623F4FF73E72823F063
S31520008C60010328BFE720B5F5E16F18BF43F00103E4
S31520008C7043EA40036366B9E7C2F30742C4E7120E2C
S31520008C80C2E7C2F30742D6E7120ED4E70081E00F0F
S31520008C9000300E402F4B1A6FD96C11F0010F02F0E5
S31520008CA0060242D0002A40D013284FD91438132860
S31520008CB08CBF102308232749013BCA6C180322F4D2
S31520008CC07F4240EA03231343CB64234BCA6C1B88A1
S31520008CD0C2F303222833013202EB820003EB530353
S31520008CE0B3FBF0F3C86C013B072B28BF072320F00A
S31520008CF0EE6040EA036343F48013CB64174BB3F969
S31520008D000030002B10DB2833500800EB420203EB27
S31520008D105303B3FBF2F30A6D072B28BF072322F078
S31520008D20700242EA03130B657047D96C01F001010A
S31520008D30114304D1092809D90A380928B8E7DB6C78
S31520008D4013F00103B7D01AB92728B1E70423B2E7F5
S31520008D500023B0E700300E406C2500206825002057
S31520008D60064A074BD3F88039136F23F007030343D2
S31520008D701367044B1888FFF78DBF00BF00300E40E5
S31520008D800000C6436A250020394B02222DE9F04116
S31520008D909A639B6B03F00F039342044603D000258E
S31520008DA02846BDE8F081C288B0F808808588B0F9E9
S31520008DB00C6047784A2A4ED9B2F5FA7F4DD340F651
S31520008DC0C3139A428CBF4FF040524FF000522849AD
S31520008DD0CB6C23F0405323F00103002EA8BF43F0B1
S31520008DE001031343CB64D1F8EC3043F44073C1F84C
S31520008DF0EC30204B1D80CB6E43F08073CB661E4B30
S31520008E00D3F8800900B10420FFF7AAFF1B4BA3F873
S31520008E1000801B4B28461E80FFF73CFFA37BFBB13F
S31520008E20012B21D0012260881146FFF753FE05460B
S31520008E300028B4D00E4AD36B43F48063D3633846FC
S31520008E40FFF7FCFDA37AA3F12002534253410A4ABD
S31520008E50C2F89437A4E70022B9E74FF08052B6E76C
S31520008E60034B084A9A65DDE7014B074AFAE700BF3C
S31520008E7000300E406A2500200000C6436C250020E5
S31520008E806825002077402057372110B7054B5A68B0
S31520008E905B68054B41F671321A649A6822F001022A
S31520008EA09A60704700300E4000000E40034B9A68CF
S31520008EB022F001029A6000221A64704700000E40D8
S31520008EC0094A0A4BD969C90705D512B96FF00200BC
S31520008ED07047013AF6E7002AF8D001221861DA60D5
S31520008EE0D86940F3800070478096980000000E40B5
S31520008EF070B509B9002070BD0E4A0023082550F828
S31520008F00234094610C4CD5600133D669F60705D50C
S31520008F1014B96FF00200EEE7013CF6E7002CF8D01A
S31520008F20D469A40702D49942E9D1E3E76FF001009E
S31520008F30E1E700BF00000E40809698002DE9F84337
S31520008F401C4B0D4641F671311E6C19641A49804638
S31520008F5048684968996841F00101B6B29960970856
S31520008F604FF00009B94501D3002005E008EB89043C
S31520008F702046FFF7A5FF48B10E4B9A6822F0010262
S31520008F809A600EB100221A64BDE8F883C4F30A0180
S31520008F90C1F500618908A7EB0903994228BF194644
S31520008FA02846FFF7A5FF0028E6D1894405EB810571
S31520008FB0D8E700BF00000E4000300E40234B41F69C
S31520008FC071311A6C10B5196421494C684968996841
S31520008FD041F00101996001211861D960D9694C07D6
S31520008FE092B209D5996821F0010199600AB100224F
S31520008FF01A644FF0FF3010BD0221D9601549D86997
S31520009000C00700D569B9D86910F002000BD099685D
S3152000901021F0010199600AB100221A646FF0010063
S31520009020E9E70139EBE741B9986820F0010098603B
S3152000903002B119646FF00200DDE7996821F00101A1
S3152000904099600AB90020D6E71864FBE700000E40B5
S3152000905000300E40809698000D4AD2F8E430D2F8BF
S31520009060E0109B0003F03C03C1F381110B43837096
S31520009070D2F8E03003F03F034370D2F8E830D2F85C
S31520009080EC2003F0F003C2F303121343037070477E
S3152000909000FF0FE0024BD3F8FC00000E704700BF24
S315200090A00081E00F044BD3F8E4301B0E0A3303F0A3
S315200090B01F030120984070470081E00F00230C4ACF
S315200090C00360032910B50263044643630ED10521CC
S315200090D007F059FF636823F4407343F40073636019
S315200090E0636823F4406343F40063636010BD00BFEC
S315200090F0200010002DE9F04F1E4604468946924670
S315200091001F460FCE8BB001AD0FC596E80F0085E840
S315200091100F000025099507F0FAFE5146064604F58C
S31520009120827007F00FFF494604F5847007F00AFFA6
S31520009130394604F5867007F005FF304607F0EBFE4A
S315200091405F4E604BDFF8BC91DFF8BCA12365DFF8EA
S31520009150BCB107F0DCFEC4F850B0D4F8148007F098
S31520009160DAFE18F0807F19D0574B236507F0CFFE23
S31520009170C4F850B0656907F0CEFEEB0140F1888057
S3152000918007F0C5FE1499054604F5887007F0E2FE3F
S31520009190284607F0C0FE0BB0BDE8F08F18F4807F9C
S315200091A01CD14A4B2365013D9023A360636913F4C8
S315200091B0807F474B23650ED007F0A9FE39468346AC
S315200091C004F5807007F0BEFE584607F0A4FE414B1A
S315200091D02365414B63658823A360B8E7002D13DA26
S315200091E03E4BC4F850A0636507F091FE01A9834663
S315200091F004F5807007F0AEFE63695846C3F3034357
S31520009200099307F088FE6D42354B23656369DFF8C5
S3152000921000C113F4407F4FF08803A3604FF0010193
S315200092206269266561656369C4F850C00ABF01207A
S315200092304FF0FF3005F1FF358842C3F30723C2F311
S3152000924000220BD132B1D90704D5264B2365264BF4
S315200092506365A9E7254B2365254BF9E79AB9DA0714
S3152000926011D5244B2365244B6365A16501A904F51B
S31520009270807007F067FE099B03F00F03C4F848319E
S315200092808323A36090E71D4BC4F850906365EDE7F8
S3152000929007F03DFE04F5807639460546304607F050
S315200092A051FE284607F037FE154B236507F02FFEA3
S315200092B014990446304607F04DFE204669E700BF64
S315200092C0C93E81983084880198390100C93E8101C0
S315200092D0D23E8201C024D034098201009983010044
S315200092E0D9080100C8340981E20C8201C80881E24C
S315200092F00C82010083D9341181E21482E2148201A6
S31520009300E010010083D9108190A284883539380174
S31520009310DB3E01002DE9F04F89B081460D46164609
S315200093200021202268461F460BF0F7FA4FF00A0A62
S3152000933099F80030022B40D0032B07D0012B44D0C4
S315200093406FF0710B584609B0BDE8F08F20226946B0
S315200093503846B0478346BBF1000FF3D100F0C0FA80
S3152000936099F800100446FFF7A9FE07F0D0FD6946DC
S31520009370804604F5827007F0E5FD404607F0CBFDF8
S31520009380374B2365204607F016FE07F0C0FD04F58F
S31520009390807883466946404607F0DCFD584607F04C
S315200093A0BAFD009B012B18D8204600F0A3FABAF18B
S315200093B0010ABDD1DFF8BCB0C4E71C226946384695
S315200093C0B047002383460793C5E7182269463846E7
S315200093D0B047002383460693F5E707F098FD05F18D
S315200093E008070646294604F5847007F0E8FD05F1CE
S315200093F01009394604F5867007F0E1FD494604F563
S31520009400887007F0DCFD304607F085FD154B236597
S31520009410204607F0D0FD4946404607F00AFE83461F
S31520009420C8B9114B2365114B6365204607F0C3FD70
S315200094302946404607F0FDFD834660B90C4B23655F
S315200094404FF48E736365204607F0B5FD39464046D6
S3152000945007F0EFFD8346204600F04CFA72E700BF86
S3152000946030C80C0181E11C018CE11C81D11C01005A
S31520009470E11C81D900B3FFFF2DE9F84306461046CB
S315200094800F4690461D4609F07CFB28B129463846F2
S31520009490BDE8F84309F04BBB2B69002B40F0AD80AB
S315200094A000F01EFA31780446FFF708FE07F02FFD7C
S315200094B004F5807608F110018146304607F07FFDDD
S315200094C0484607F028FD574B236540F28113636514
S315200094D0204607F070FD07F01AFD294681463046E2
S315200094E007F06DFD484607F016FD4F4B2365012317
S315200094F02046636507F05FFD4C4B236507F05BFD57
S3152000950007F005FD05F108018146304607F057FDB5
S31520009510484607F000FD464B2365204607F04BFDE5
S3152000952007F0F5FC08F108094946054604F582705E
S3152000953007F045FD284607F0EEFC3E4B2365204606
S3152000954007F039FD07F0E3FC41460546304607F0B3
S3152000955036FD284607F0DFFC374B2365374B63651E
S31520009560204607F028FD07F11001304607F061FD7F
S31520009570054600283BD1324B2365204607F01BFDCC
S31520009580304B236507F017FD2F4B236507F013FD9E
S315200095902E4B23654FF48A73636507F00CFD2C4B25
S315200095A0236507F008FD3946304607F042FD05469B
S315200095B0E8B9284B2365284B6365204607F0FBFC5A
S315200095C007F0A5FC49460546304607F0F8FC284634
S315200095D007F0A1FC214B2365214B6365204607F04C
S315200095E0EAFC07F10801304607F023FD0546204630
S315200095F000F080F92846BDE8F883284609F0C1FA2C
S3152000960008B1414643E72B69002B3FF449AF0121BE
S3152000961005F1100008F02CFB00283FF441AF114D56
S31520009620E8E700BF8184E11C83D91C83E11C81010A
S3152000963082D11C01C81482019983D91481E11C01AD
S315200096408CE11C01811C8401D91C830191D11CE071
S31520009650D814140181CB1481D11C820181E11C8490
S31520009660E214010080B0FFFF2DE9F04788B0904654
S3152000967005460F4600F034F92978DFF85491044660
S31520009680FFF71CFD07F043FC04F5807608F1100176
S315200096900546304607F093FC284607F03CFC40F28E
S315200096A08313C4F850902046636507F084FC07F0C6
S315200096B02EFC08F108010546304607F080FC2846B6
S315200096C007F029FC4FF0010A354B23652046C4F8E4
S315200096D054A007F070FC07F11001304607F0A9FCF2
S315200096E00546002854D12F4B23654FF486736365B6
S315200096F0204607F060FC07F00AFC4146054604F5C3
S31520009700887007F05CFC6946304607F023FC284643
S3152000971007F001FC244B2365244B6365244BA3658A
S31520009720204607F048FC234B2365234B636507F04F
S3152000973042FC224B2365224B6365C4F858A007F0F0
S315200097403AFC3946304607F074FC054600BB1D4BF3
S3152000975023651D4B6365204607F02DFC07F0D7FBDC
S3152000976069460546304607F0EDFB284607F0D3FB51
S31520009770164BC4F8509063654FF48A73A365204650
S3152000978007F019FC07F10801304607F052FC0546A0
S31520009790204600F0AFF8284608B0BDE8F08700BFA5
S315200097A0821CC00C91D11CC0C00C81E11C82DC0C37
S315200097B081148401E11C81C80C0C8101D20C848B9C
S315200097C0D91CE01484E21482D11C8301C00C82D3FC
S315200097D08182D11C2DE9F047A2B00E46054600F045
S315200097E07FF815F8041B044606F11007FFF766FC00
S315200097F01C22002103A80BF090F84FF001083946EF
S315200098000AA80DF16809CDF8088007F05FFC294603
S3152000981012A807F05BFC12AB0AAA02A9CDF80090A9
S315200098202046FFF767FC07F072FB4946054604F51C
S31520009830867904F5827007F085FB06F1080A314621
S31520009840484607F0BCFB514604F5887007F0B7FB85
S31520009850284607F060FB134B2365204607F0ABFB39
S31520009860114B236507F0A7FB104B236507F0A3FBDD
S315200098700F4B236507F09FFB514604F5807007F0D8
S31520009880D8FB58B93146484607F0D3FB30B92046B5
S3152000989000F030F84146384608F0E8F822B0BDE836
S315200098A0F08700BF8AD11C0181D91C0183D11C01FC
S315200098B081E11C01012908B50BDC074B074A002969
S315200098C00CBF1146194600F0EBFBBDE8084007F037
S315200098D023BC6FF0730008BD0800000209000002D7
S315200098E0024B03480122C3F8002670470010C843E4
S315200098F000000F40094B98420ED003F58063984232
S3152000990009D10122064B03EBC2035A68054B1344C7
S315200099109B0000221A6070470022F3E700000F40E8
S31520009920845E01208005F21000F01F02A0F50620BB
S31520009930A0F55060400908490123934051F82020A2
S315200099401A4341F82020054951F8202022EA030233
S3152000995041F82020704700BFD01C0020BC1C0020EE
S31520009960A0F50623A3F550630D4A5B0900F01F00FE
S315200099700121814052F82300014342F8231009496E
S31520009980D1E90030034488680344C8680969034460
S315200099905B1802BFC2E90033C2E902331361704784
S315200099A0BC1C0020D01C00202DE9F04FA9B0CDE929
S315200099B00401339E03921D4604464140082221FAA3
S315200099C002F34B40980702F1080218BF9B00202A99
S315200099D01C44F4D18123B4FBF3F303EBC313E41A41
S315200099E0734B1B7804F5062404F55064002B3ED1F6
S315200099F003F076FB074620B16FF0910029B0BDE851
S31520009A00F08F0146402208A80AF087FF40223946F7
S31520009A1018A80AF082FFDFF8B481DFF8B491C346B4
S31520009A200BF10F0ACDF800A0102208A9D9F80000E2
S31520009A305B460BF071FD08F11008014608AF0022C5
S31520009A40914246D1CDF800A05B46D9F800001022FD
S31520009A5018A90BF06AFD18AF83464FF0000AD345CC
S31520009A6041D1544B9845DAD1514B01221A70DFF877
S31520009A7064B14FF0810A4FF00008A4F50627A7F538
S31520009A8050635B0904F01F015BF82320CA40D2070C
S31520009A903DD4494A52F82330CB40DB072AD5B8F1CA
S31520009AA0000F08BFA046A7F6FF478123B7FBF3F3B5
S31520009AB003EBC313FF1A07F50624BAF1010A04F5CE
S31520009AC05064DAD1039BBBB1B8F1000F14D04446E1
S31520009AD019E057F8040BCDE90612FFF725FF079A80
S31520009AE006990132ACE757F8040BFFF739FF0AF164
S31520009AF0010AB4E7039B13B96FF08B007EE7B8F138
S31520009B00000F18BF4446349B00201C6076E7329B2A
S31520009B1013B1329A002313600EB100233360102351
S31520009B20DFF8AC900093D9F8000000232A4621469E
S31520009B3005F04EFD60BB32992A68204BC9B99A427E
S31520009B4006D0D9F80000214605F0DAFD0028D3D149
S31520009B50D5E90223DDE90410834208BF8A42A2D157
S31520009B60039B002BCFD06B68012BCCD16FF08400E8
S31520009B7044E7329910209A420860E2D1002EE7D0BD
S31520009B80D9F80000334618AA214605F075FD48B1DC
S31520009B900B4B9842D5D00B4B9842D2D00A4B9842C9
S31520009BA0D6D029E7329A336812689B1A3360CFE7FA
S31520009BB09D2F002000710800BC1C0020105D175E40
S31520009BC0FFDF00F011E000F0FEDF00F0006D08007E
S31520009BD038100020D01C00202DE9F04F87B0824697
S31520009BE0DDF840B08946984616462AB1002B4FD05C
S31520009BF040F26C739A424ED8BBF1010F4ED806F153
S31520009C001007002439460120059407F0E6FB054697
S31520009C10002846D021463A460AF07FFE05ABCDE91C
S31520009C20014300942B46012250464946FFF7BCFECD
S31520009C30044680B110F18C0F08BF6FF08D043A46B0
S31520009C40002128460AF069FE284607F0D6FB204662
S31520009C5007B0BDE8F08F144B2B60C5E902A9C5F803
S31520009C6004B02EB13246414605F110000AF08AFEB4
S31520009C70059E0E483B4600682A46314605F010FCF4
S31520009C8018B93046FFF750FED9E76FF09104D6E7B2
S31520009C906FF08604DBE76FF09104D8E76FF0850458
S31520009CA0D5E76FF08C04D2E7105D175E38100020E0
S31520009CB02DE9F0438DB0DDE9147881460E46154630
S31520009CC01C469BB1B8F1000F05D16FF086063046D1
S31520009CD00DB0BDE8F083002FF7D0B7F1005FF4D3C5
S31520009CE0C3F1005303F580339F42EED810220021A2
S31520009CF008A80AF012FE07AB029305AB019306AB48
S31520009D0000220093314608AB4846CDE90522FFF7ED
S31520009D104BFE06460028DAD1059BA4B1AB4215D8E6
S31520009D2053EA0504D1D1069B0B48C8F8004000949D
S31520009D30079900682B443A4605F04AFC002818BFCC
S31520009D406FF09106C3E7AB42EDD2BEE75B1B9C42A8
S31520009D5028BF1C46E7E700BF3810002030B58DB07D
S31520009D600C4605461022002108A80AF0D6FD07ABAE
S31520009D70029305AB019306AB00220093214608AB64
S31520009D802846CDE90522FFF70FFE0446D8B9099BE0
S31520009D90012B1BD0079D104B2946186805F0B0FCF7
S31520009DA0B8B9A5F50623A3F550630C495B0905F060
S31520009DB01F000122824051F823004240284641F8E4
S31520009DC02320FFF7CDFD20460DB030BD6FF0840473
S31520009DD0F9E76FF09104F6E738100020D01C002038
S31520009DE070B5114C114E0A25236843F4807223F472
S31520009DF08073226030462360FEF738FB0023800AFA
S31520009E0062680AB983420AD1636853B9013DEBD12E
S31520009E10236823F0010323606FF0920070BD0133A5
S31520009E20EEE70020FAE700BF00D0014070000200F4
S31520009E302DE9F04F85B0634D0092634AD2F8C030C9
S31520009E4043F40033C2F8C0302B68DC0781468A46CB
S31520009E5016D500245B4D4E46D04627464FF00A0BBA
S31520009E60B8F1000F2BD144B114F1940F05D042461E
S31520009E70002148460AF051FD0027009B1F601AE08A
S31520009E8040F271632B60FFF7ABFF044698B96B680D
S31520009E90032BFCD9D5F800312B61D5F800316B6145
S31520009EA0D5F80031AB61D5F80031EB61FFF798FFAB
S31520009EB004460028CDD0204605B0BDE8F08F6C685A
S31520009EC0A40005D02B6B13F45C7F12D1002437E05D
S31520009ED03E48FEF7CBFAC00A844205D16B68002BB8
S31520009EE0F0D16FF09304C8E76B68002BF6D10134EC
S31520009EF0F2E7D80514D523F480732B636B6853B926
S31520009F00BBF10107EDD04E46D0466FF093040022F8
S31520009F10BB461746A4E7D5F800310393039BEDE72C
S31520009F200193FFF75DFF044620B9019B13F41C7FC4
S31520009F30CCD0E5E710F1930F99D010F1940FDFD034
S31520009F406B686A689B00434528BF4346B107324683
S31520009F5034D123F003013144914212D103F003019D
S31520009F6049B11848D0F80001114402F8010B8A4281
S31520009F704FEA1020F9D1FA181E44A8EB03085F46D1
S31520009F80C6E7D5F8000142F8040BE5E7DCF8001136
S31520009F9002F8041C4FEA112E02F803EC4FEA114E88
S31520009FA0090E02F802EC02F8011C0438032802F11B
S31520009FB00402EBD823F003023244CFE7DFF804C0D3
S31520009FC01846F3E700D0014000400E407000020022
S31520009FD02DE9F04788B00746884615461E46FFF706
S31520009FE07FFC044607F17E400838012850D8042318
S31520009FF0236000236360E364626822F44062626047
S3152000A0006A46236391466363A8F1040308F11C089A
S3152000A01053F8041F09BA434542F8041BF8D106F049
S3152000A02076FF4946074604F5827006F08BFF3846D0
S3152000A03006F071FF184B2365109BDFF8609005EB47
S3152000A040831704F5D27A06F062FF294680465046E9
S3152000A05006F088FF4035404606F05DFFBD42C4F855
S3152000A0605090F0D106F053FF3146054604F5807036
S3152000A07006F070FF284606F04EFF2046FFF73AFC12
S3152000A080331F1C3653F8042F12BAB3421A60F9D183
S3152000A09008B0BDE8F08700BF888AC801070D810196
S3152000A0A038B50D46044630B36C2200210AF035FC43
S3152000A0B0124B9D4205D001339D4210D06FF0850092
S3152000A0C038BD0F4B04F10C0203F1200153F8040BA9
S3152000A0D042F8040B8B42F9D125600020F0E7094BAA
S3152000A0E004F10C0203F1200153F8040B42F8040B8F
S3152000A0F08B42F9D1F0E76FF08600E1E70800000215
S3152000A100945E0120B55E01202DE9F3410E461F46DF
S3152000A110054600285FD083B9002A5CD12B68324AD5
S3152000A12093425ED0013293420CBF6FF089046FF0E8
S3152000A1308804204602B0BDE8F0810029ECD00368EF
S3152000A14029498B4244D001318B4247D14FF0200818
S3152000A150904546D86A68D3008DF8073053098DF8A4
S3152000A1600630530B8DF80530530D8DF80430AB684F
S3152000A170D90001EB52718DF8031002F03F02590904
S3152000A180372A8DF802104FEA53318DF801104FEA25
S3152000A190535316498DF8003094BFC2F13802C2F1EC
S3152000A1A07802284607F011F804460028C1D1082273
S3152000A1B06946284607F009F804460028B9D1C7F8A9
S3152000A1C00080424605F10C0130460AF0DBFBB0E781
S3152000A1D04FF01C08BCE76FF08604AAE76FF08804EE
S3152000A1E0A7E76FF08904A4E708000002D65E0120E5
S3152000A1F02DE9F0419CB0DDE9227816461C460D4635
S3152000A20001B90AB91CB92FB16FF086001DE0B8F16B
S3152000A210000FF8D0014601A8FFF742FFA8B9019B1D
S3152000A2200F4A934214D00132934213D12023BB42CA
S3152000A23013D83246294601A806F0C7FF28B9434657
S3152000A2403A46214601A8FFF75FFF1CB0BDE8F08122
S3152000A2501C23ECE76FF08800F7E76FF08900F4E73E
S3152000A260080000027FB5094B6A4603F11006154621
S3152000A27018685968144603C40833B3422246F7D1F6
S3152000A2802846FEF781FD002004B070BD165F012030
S3152000A29010B50C480C4C6FF00403A02113F0800F6E
S3152000A2A003F1010207D12344332A83F8001313460E
S3152000A2B0F4D1002010BD03F00F03043B03441976AC
S3152000A2C01346EBE700ED00E000E100E010B50446A0
S3152000A2D006F01DFE024B1C6006F01DFE002010BD80
S3152000A2E0E41C002010B506F012FE034B1C6806F095
S3152000A2F012FE204610BD00BFE41C002013B500232B
S3152000A30001241A4619460094184602F087FE0023B7
S3152000A3101A4619461846009402F0B2FE0248FFF784
S3152000A320D5FF002002B010BD2010002030B5074C0C
S3152000A330256824686A40D2B2891A101A090A41EAA5
S3152000A3401021634023EA0100C0B230BDE81C002082
S3152000A350044B1B68584043085B4240421843C017D1
S3152000A360704700BFE81C0020F8B50E46C988054690
S3152000A370144607F007FB0746D0B92046FFF7E8FF4B
S3152000A380104B31681A68B5F90430424023EA0203BB
S3152000A390B6F90420024013430446AB80F2880346F4
S3152000A3A0286800F00DFAF388E888E443834201D355
S3152000A3B03846F8BD296851F82320224041F8232049
S3152000A3C00133F3E7E81C00202DE9F04F99B08346CE
S3152000A3D00F46184600211646049307F049FC00282C
S3152000A3E000F08781784B14930024012515AB04993E
S3152000A3F013933046CDE90B45CDE90D45CDE90F4503
S3152000A400CDE9114507F0BDFBA04228DABBF1000FCC
S3152000A41005D1E7B90024204619B0BDE8F08F2146C2
S3152000A420584607F023FB04460028F2D00BA807F075
S3152000A4309BFA0DA807F098FA0FA807F095FA11A82D
S3152000A44007F092FA0C2115A801F028FCE3E7314623
S3152000A450384607F0D6FA04460028E7D1DAE731462F
S3152000A4600BA807F0CEFA04460028DFD104990DA8E0
S3152000A47007F0C7FA04460028D8D1F188ADF838503D
S3152000A48002310FA8ADF8305007F07CFA04460028B8
S3152000A490CCD101460FA807F0E9FA04460028C5D119
S3152000A4A0F18811A8023107F06DFA04460028BDD1C3
S3152000A4B00DA807F01AFB00F01F001F2873D0C0F16B
S3152000A4C01F0319460BA8019307F035FB0446002805
S3152000A4D0ACD101990DA807F02EFB04460028A5D182
S3152000A4E0BDF83250BDF83A80A5EB080A4FEA4A1962
S3152000A4F049460DA807F01FFB0446002896D14FEACF
S3152000A5008A0A0DA90BA807F06BFB00284DDA4946ED
S3152000A5100DA807F02DFB0446002887D108F1FF334C
S3152000A52002939B0005F1FF3A069305F1804508F159
S3152000A5308043023B013D9B00A5EB08050993AB0038
S3152000A5400393029B9A4541D8BBF1000F0DD00FA96A
S3152000A550584607F056FA002840F0C780049AB38878
S3152000A560928813FB02F3ABF80430002F3FF45EAF62
S3152000A57001990BA807F0FCFA002840F0B680B388B2
S3152000A580ADF830300BA9384607F03BFA01460028D3
S3152000A59040F0AD80384607F06BFB00287FF446AFCD
S3152000A5A00123BB8042E701949AE70F9A52F80A30BA
S3152000A5B00BA9013342F80A3008460DAA07F03EFCE3
S3152000A5C0044600289DD031E7010003000D9B069A22
S3152000A5D005931344DDF82C900893059B59F82A100F
S3152000A5E09A580F9D4FEA8A08A8F104030793039B04
S3152000A5F091421D4474D20798002359F8000002F0B6
S3152000A600EDFD002914BF4FF0FF330346BAF1010FC9
S3152000A6102B6016BF09EB0803002353F8083C15935B
S3152000A620079B099A59F80330169359F8083017935F
S3152000A6302B6801332B60059B134498462B68013BFE
S3152000A6402B60002111A807F011FA00284DD1029B9A
S3152000A650002B48D0D8F80020119B1A60089A12685F
S3152000A6605A6011A92A68084607F071FC00283CD1D7
S3152000A67013A911A807F0B4FA0028DFDC2A680DA96F
S3152000A68011A807F064FC80BB039B4FEAC308414630
S3152000A69011A807F050FA40BB0BA9084611AA07F0EB
S3152000A6A0CDFB014618BB0BA807F0E2FA002812DA08
S3152000A6B00DA911A807F0A5F9B8B9414611A807F0C8
S3152000A6C03AFA90B90BA911AA084607F0B4FB60B96B
S3152000A6D02B68013B2B60039B0AF1FF3A043B2FE7D3
S3152000A6E04FF0FF3392E7029AB6E704469EE60C4601
S3152000A6F09CE66FF00B048EE6044B1B68584043081B
S3152000A7005B4240421843C017704700BFE81C002038
S3152000A71010B50B4C226823684240594081EA02005A
S3152000A720C00FFFF7E9FF2368521A434022EA0302CB
S3152000A73008401043BDE81040C00FFFF7DDBF00BF43
S3152000A740E81C0020F8B50D46014628681746FFF795
S3152000A750DFFF084B1E68C1430124BC4202D346EAF0
S3152000A7600100F8BD55F82400FFF7C6FF0134064363
S3152000A770F3E700BFE81C0020104B2DE9F0471E68C8
S3152000A780884619681D680746541E631C02D1304648
S3152000A790BDE8F08758F824A057F82490504649463B
S3152000A7A0FFF7B6FF514605434846FFF7B1FF20EABB
S3152000A7B005031E430543013CE7E700BFE81C0020D4
S3152000A7C08842F0B504D0094F04380025AA4200D1AA
S3152000A7D0F0BD3E6850F8044F5E4024EA060451F866
S3152000A7E025601E40344304600135EFE7E81C002055
S3152000A7F02DE9F04F85B0DFF8889003911C46064678
S3152000A80021461046D9F80030D9F8003007F0EFFD80
S3152000A810C51D272D4FEAD50325F00705904602933F
S3152000A8208CBF4FF01E0A4FF0FA0A2D1A0F9B009389
S3152000A830029A0E9B2146304607F0D6FF0746C0B93E
S3152000A8402A462146304607F04BFEBAF1010A14D0BB
S3152000A850224631460398FFF775FF22468346414636
S3152000A8603046FFF789FFD9F800200BEA00039A4209
S3152000A870DCD0384605B0BDE8F08F6FF00D07F8E75D
S3152000A880E81C00202DE9F04F9846436B93B005460F
S3152000A8900F461446002B00F0B5800121404607F0F4
S3152000A8A0E7F9002804DA5849084613B0BDE8F08FC6
S3152000A8B005F134063146404607F092F90028F2DACF
S3152000A8C00CA808F0B3F806A807F049F808A807F07E
S3152000A8D046F80AA807F043F84FF00C0905F11C0BBF
S3152000A8E0B9F1010900F08C804FF00C0ABAF1010A87
S3152000A8F000F0868006A9DDE91E23284600F050FDDB
S3152000A900014600286DD1219B0193209B0290009344
S3152000A9100CA95B4606AA284600F034FD014600280D
S3152000A9205FD10CA93246384607F042FB0146002883
S3152000A93057D1384607F09CF90028D7D008A9DDE979
S3152000A9401C23284607F090FF0146002849D10AA972
S3152000A950DDE92023284600F023FD0146002840D1CA
S3152000A96039464246204607F085FA0146002838D166
S3152000A97008A90846224607F05EFA014688BB08A9C0
S3152000A98008460AAA07F076FA014650BB06A90846E9
S3152000A9900AAA07F06FFA014618BB06A908463246EE
S3152000A9A007F006FB0146E0B906A93246204607F025
S3152000A9B0CBFB0146A8B9214608AA204607F05AFA39
S3152000A9C0014670B921463246204607F0F1FA014683
S3152000A9D038B90590204607F04BF9059900283FF431
S3152000A9E07FAF0CA8059108F05EF806A806F0BCFF1C
S3152000A9F008A806F0B9FF0AA806F0B6FF059953E79E
S3152000AA000249EEE702494FE780B3FFFF00B3FFFF9D
S3152000AA1080B0FFFF2DE9F04792B005460CA8984676
S3152000AA200C469246DDE91A6908F000F804A806F0FB
S3152000AA3096FF06A806F093FF08A806F090FF0AA83E
S3152000AA4006F08DFF6B6B002B00F0848001213046D1
S3152000AA5007F00EF9002813DB05F134073946304696
S3152000AA6007F0BEF800280BDA0121484607F000F966
S3152000AA70002805DB3946484607F0B2F8002813DBE4
S3152000AA80354C0CA808F00FF804A806F06DFF06A8B0
S3152000AA9006F06AFF08A806F067FF0AA806F064FF1A
S3152000AAA0204612B0BDE8F0872246534604A9284620
S3152000AAB007F0DAFE04460028E3D13A46494606A8BE
S3152000AAC007F042FB04460028DBD106AA04A908A801
S3152000AAD007F0D0F904460028D3D108A93A460846FB
S3152000AAE007F066FA04460028CBD106AA31460AA802
S3152000AAF007F0C0F904460028C3D10DF128093A46CB
S3152000AB004946484607F054FA04460028B9D1CDE90B
S3152000AB100180CDF8009005F11C0308AA0CA928464F
S3152000AB2000F0D0FB04460028ABD10CA808F029F889
S3152000AB300028A5D10CA93A46084607F039FA04465A
S3152000AB4000289ED131460CA807F04AF80446002872
S3152000AB5097D095E7014CA3E700B2FFFF80B0FFFF37
S3152000AB6070B50C460646114620461A4607F082F96D
S3152000AB700546A0B9B36C33B9321D21462046BDE83F
S3152000AB80704007F015BAB4F90430002B09DB2046D3
S3152000AB9006F0ABFFF36BB0EB430F09D9184D2846EF
S3152000ABA070BD0146204607F063F80028EFD0F5E790
S3152000ABB0B36C2046984705460028F0D10436B4F9F0
S3152000ABC00430002B04DA0021204607F051F868B93A
S3152000ABD03146204607F004F80028E0DB32462146BD
S3152000ABE0204607F0A6F80028F2D006E03246214695
S3152000ABF0204607F020F90028E1D00546CFE700BF20
S3152000AC0080B0FFFF38B50D460446002105F110003F
S3152000AC1007F02EF850B1204606F076FA28B12946DC
S3152000AC202046BDE83840FEF7D5BD014838BD00BFF7
S3152000AC3080B1FFFF0246044803780BB918467047D7
S3152000AC409342FCD00C30F7E7305F01202DE9F04726
S3152000AC50012ADDE9084982460E4690461F4644D819
S3152000AC60043006F046FF0546504607F0D6FE01287A
S3152000AC7082463CD1002106F1100006F0F9FF48B9C2
S3152000AC80B9F1000F02D11B48BDE8F0872070C7F844
S3152000AC9000A0F9E7B8F1000F17D16B0001334B453F
S3152000ACA03B60F0D82146042301F8013B2A46304672
S3152000ACB006F03BFF0028E7D1691C2A46214406F10D
S3152000ACC00800BDE8F04706F030BF6B1C4B453B60E3
S3152000ACD0D9D8002106F1080006F0E4FE214602300C
S3152000ACE001F8010B2A463046EBE70348CCE7034838
S3152000ACF0CAE700BF00B1FFFF80B0FFFF80B1FFFFB2
S3152000AD002DE9F84380460C4615461F4613B91D48C3
S3152000AD10BDE8F883043006F0ECFE0646404607F010
S3152000AD207CFE012881462AD12B7833B9012FEED11A
S3152000AD302046BDE8F84307F010BF06F10108B845E4
S3152000AD40E5D83246691C204606F0D9FE0028DFD118
S3152000AD50494604F1100006F089FE0028D8D12B7848
S3152000AD60042BD4D173000133BB42D0D1324605EB3C
S3152000AD70080104F10800BDE8F84306F0C0BE024809
S3152000AD80C6E700BF80B0FFFF80B1FFFF2DE9FF417E
S3152000AD900E460546012106F1100006F069FF04461D
S3152000ADA050B9284607F039FE01287AD12146304687
S3152000ADB006F05EFF002801DA3B4C6EE006F108083B
S3152000ADC02146404606F054FF0028F5DB2F1D394664
S3152000ADD0304606F005FF0028EEDA3946404606F0F2
S3152000ADE0FFFE0028E8DA684606F0B9FD02A806F05C
S3152000ADF0B6FD4346424669462846FFF7B1FE04465D
S3152000AE00002844D13346324602A92846FFF7A8FE39
S3152000AE10044600283BD1EB687BBB02A903220846E7
S3152000AE2007F010F8044690BBBDF90C30002B04DA6D
S3152000AE30002102A806F01CFFC8B902AA3346114613
S3152000AE402846FFF78DFE044608BB02AA05F1140327
S3152000AE501146284607F076FD0446C0B902A9684681
S3152000AE6006F0BEFE104B041E18BF1C460FE002A9BA
S3152000AE703A46084606F0DFFFD4E702AA05F10C039E
S3152000AE801146284607F05EFD04460028D5D06846C0
S3152000AE9006F06AFD02A806F067FD204604B0BDE86C
S3152000AEA0F081024CF9E700BF80B3FFFF80B0FFFFBF
S3152000AEB038B5054607F0B1FD01280C4601460DD1EF
S3152000AEC0204606F0D5FE002806DB05F13401204693
S3152000AED006F086FE002803DB024838BD0248FCE760
S3152000AEE00020FAE780B3FFFF80B0FFFF2DE9F04F87
S3152000AEF0B5B0054601919246994606F005F90290AD
S3152000AF00A0B1284606F005F9044658B95146284608
S3152000AF10FFF7CEFF044628B949462846FFF736FFF5
S3152000AF20044698B1284606F0F6F881E151462846AF
S3152000AF30FFF7BEFF0446002840F07A81494628469E
S3152000AF40FFF724FF0446002840F07281284607F0C8
S3152000AF5064FD012840F0AD812B6C182101330220BD
S3152000AF604FEA530806F039FA0646002800F09F817A
S3152000AF7006F1180707F05AFD384607F057FD00245A
S3152000AF8013AB1819083406F0EAFC202CF8D14946F0
S3152000AF90304607F0CCFD0446002841D18346D845EB
S3152000AFA020D139462846FFF72DFE0446C0BB284649
S3152000AFB006F0AAF830B33B46324639462846FEF715
S3152000AFC05BFA044660BB39462846FFF71BFE04465B
S3152000AFD030BB06F1100006F0C7FC06F1280006F08B
S3152000AFE0C3FC1DE00123BBFBF8F103FA01F2D2B248
S3152000AFF0182308FB11B103FB026929B1284606F084
S3152000B00083F850BBAC4C0BE002F0FE0101EB520181
S3152000B01006EBC101484607F08AFD04460028EDD01C
S3152000B0204FF0000913AB03EB090009F1080906F0FC
S3152000B0309BFCB9F1200FF5D1D4B1AB6D9E4208D05F
S3152000B040304607F030FD384607F02DFD304606F035
S3152000B050D4F9019807F027FDE6E04A4649462846F6
S3152000B060FEF702FB04460028DAD10BF1010B96E726
S3152000B07005A806F074FC05F1340B0BA806F06FFC4E
S3152000B0802146584606F00EFD012840F0D88021467C
S3152000B090504606F007FD5146814605A806F0B1FC4C
S3152000B0A0044630B10BA806F05FFC05A806F05CFC50
S3152000B0B0C3E7524659460BA806F0C0FE04460028B0
S3152000B0C0F0D1B9FA89F94FEA59194A460BA905A8C8
S3152000B0D0FFF74AF904460028E4D1014608F10102A7
S3152000B0E013A80DF14C0B09F018FCA2465B46D0457F
S3152000B0F0039300F0A180514605A806F0D3FC039BDC
S3152000B1001C7808EB0A01044305A806F0CBFCE4B240
S3152000B110039B44EA400403F8014B0AF1010AE6E7DF
S3152000B1209BF801009BF8003080EA020C6FEA0C01C4
S3152000B13001F0010113FB01F3104003EA0C0283EA3C
S3152000B1400C030BF8013F1BF8013C43EAC1130243F1
S3152000B1500BF8013C0134A245E2D20BA806F004FC10
S3152000B16005A806F001FC05A807F060FC00240BAB3F
S3152000B1701819083406F0F3FB202CF8D10AF1D00375
S3152000B1806B44019913F8843C3246284607F004FCA8
S3152000B190044648B93E9B002B00F08480284605F0E3
S3152000B1A0B3FF00284DD1444C05A807F0E7FB4FF02C
S3152000B1B000080BAB03EB080008F1080806F0D4FBE7
S3152000B1C0B8F1200FF5D1002C7FF437AF01994A460C
S3152000B1D0284607F093FB044600287FF42EAF3E9BBB
S3152000B1E073B1284605F090FF00285ED0DDE93E23A6
S3152000B1F001992846FEF78EF8044600287FF41DAFF5
S3152000B20001992846FFF7FEFCAB6D9E42044608D006
S3152000B210304607F048FC384607F045FC304606F035
S3152000B220ECF8002C7FF415AF029B002B7FF47AAE4E
S3152000B230204635B0BDE8F08F002201248BE71F4C55
S3152000B240FBE6DDE93E2301992846FEF763F848B37D
S3152000B2500446A9E728460AF1FF3A05F055FF0028DB
S3152000B260A1D0019A28461146FEF7FEF90028EFD113
S3152000B27018F80A30324605A9284607F08DFB002823
S3152000B280E6D1284605F040FF00288CD0019A05AB70
S3152000B29011462846FEF7F0F80028D9D1BAF1000F5A
S3152000B2A0D8D181E70DF14C08F8E7034CC5E6044CEC
S3152000B2B0CFE6024CB8E700BF80B1FFFF80B0FFFFAA
S3152000B2C080B2FFFF2DE9F0418EB00546984607F083
S3152000B2D0A4FB01280F46164650D1684607F0A6FB68
S3152000B2E0002406AB1819083406F039FB202CF8D1B7
S3152000B2F0434632466946284607F04CFC0446002859
S3152000B3003AD1DDE914233946284607F043FC0446A2
S3152000B31090BB284605F0F8FE0646B8B9284605F043
S3152000B320F3FED0B9164C002706ABD819083706F01D
S3152000B3301BFB202FF8D116B1284605F0ECFE6846F7
S3152000B34007F01CFB20460EB0BDE8F081284605F02C
S3152000B350E0FE04460028E1D0E5E73B466A4639464A
S3152000B3602846FEF789F804460028DCD139462846C7
S3152000B370FFF748FC0446D6E70026D4E7004CE1E771
S3152000B38080B1FFFF30B4DDE9024524B1CDE90245A5
S3152000B39030BCFFF7ABBD014830BC704780B0FFFF23
S3152000B3A073B505461E4607F038FB01280C460146B4
S3152000B3B00ED11346009605F13402204606F0A6FE6D
S3152000B3C0044B10F10E0F18BF0346184602B070BD8D
S3152000B3D0014BFAE700B3FFFF80B0FFFF10B504462C
S3152000B3E007F01BFB012805D104F16000BDE81040E1
S3152000B3F006F09BBB004810BD80B1FFFF38B5044660
S3152000B4000D4607F054FB204607F01EFB032D257042
S3152000B41023D1144B144AA3606260A361134AA36329
S3152000B4202362A362124B62616362124A62634FF027
S3152000B4300113114A2363114BE362E261201D06F0DA
S3152000B44054FBE06304F1340006F04FFB2064002037
S3152000B450C4E916000123636438BD0023084823701D
S3152000B460FAE700BF01000800C85F0120A85F01209D
S3152000B470685F0120485F0120885F01202C10002092
S3152000B48080B1FFFF082804D00928034818BF0020F0
S3152000B49070470248704700BFE85F0120EB5F01203C
S3152000B4A0F0B500230E4E036004460A276FF06700AE
S3152000B4B00B68934203D21D78303D092D00D9F0BD8B
S3152000B4C02568B54209D87D43256013F8010B284429
S3152000B4D0303820600B600020EAE76FF06700EEE767
S3152000B4E09999991970B5094C256815B96FF02D00F1
S3152000B4F009E0667C864207D1267C8E4204D11560FF
